S0100000736F635F656D7074792E73333711
S214006000C00A00205970000057700000577000004A
S21400601021A1000057700000577000005770000064
S214006020577000005770000057700000577000004F
S214006030577000009C2703000D6D0000577000008D
S214006040577000005770000057700000577000002F
S214006050577000005770000057700000577000001F
S214006060577000005770000057700000577000000F
S21400607005B000005770000057700000056F000064
S214006080116F000057700000577000005770000036
S214006090577000002575000057700000577000000C
S2140060A057700000577000005770000057700000CF
S2140060B05770000035E202005770000099EB0200AE
S2140060C051EB02004DEB020009E4020095EB0200E2
S2140060D055EB02006DEB020059EB0200F1EB0200FB
S2140060E09DC4020065C60200D9EB0200577000008E
S2140060F07998000057700000577000005770000035
S214006100577000005770000057700000577000006E
S214006110577000005770000057700000577000005E
S214006120577000005770000057700000577000004E
S214006130577000005770000057700000577000003E
S21400614010B5054C237833B9044B13B1044800E06E
S21400615000BF0123237010BD58100020000000006F
S2140061605076030008B5034B1BB10349034800E013
S21400617000BF08BD000000005C1000205076030041
S214006180A3F5803A704700BF174B002B08BF134B90
S2140061909D46FFF7F5FF00218B460F461348144A2D
S2140061A0121A28F0EAFF0E4B002B00D098470D4B32
S2140061B0002B00D098470020002104000D000D4859
S2140061C0002802D00C4800E000BF28F06BFF20003B
S2140061D0290000F0A7FA28F051FF00BF00000800D1
S2140061E00000000000000000C00A00205810002038
S2140061F0B02B0020000000000000000010B500F0EA
S214006200FFFA00F0BBFC00234FF440301A46194654
S21400621018F0DCFEBDE8104000230122194641F6C6
S214006220991018F0D3BE0000F0B5224B85B01A784E
S214006230002A3DD00022204D204C214F214E1A70BE
S21400624039462B462246304600F04EFA00282FD11B
S21400625000F0ACFE00F0ABFE2B681B4801932368F1
S2140062603268009319493B68006803F04CFB3978A4
S214006270307800F0E0FC1649039029F0BDFD039A43
S2140062804FF478430921502000F066FC29782078E6
S21400629000F0D1FC0F49039029F0AEFD4FF478438F
S2140062A012216620039A05B0BDE8F04000F054BC09
S2140062B005B0F0BD7C10002078100020841000206F
S2140062C074100020801000208C1100202827030066
S2140062D0132803002428030070B50368AD4A23F48E
S2140062E07F4323F00703934288B000F0228102F137
S2140062F0BF6202F54032934232D002F179429342B5
S21400630033D10DF10F0104A818F03CFE0446002816
S21400631035D0A14DA149286803F0F5FAA0492868B0
S21400632003F0F1FA00F042FE00F041FE9D4B9E4A5B
S21400633000939E497223286803F0E5FA23469C4A98
S2140063409C49286803F0DFFA204600F057FE9A4979
S214006350286803F0D8FA9149286803F0D4FAFEE7D3
S214006360037923B90122954B1A7008B070BD012B32
S214006370FBD1934808B0BDE8704000F020BF9DF800
S214006380153001468DF818309DF8143008228DF827
S21400639019309DF8133012208DF81A30FF238DF82F
S2140063A01B30FE238DF81C309DF812308DF81D3002
S2140063B09DF811308DF81E309DF810308DF81F3086
S2140063C006AB18F0A9FD054630B3734C7349206838
S2140063D003F099FA7249206803F095FA00F0E6FD9A
S2140063E000F0E5FD6F4B704A0093704982232068E9
S2140063F003F089FA2B466E4A6E49206803F083FA4A
S214006400284600F0FBFD6C49206803F07CFA6349DF
S214006410206803F078FAFEE76A4E304618F00EFD64
S214006420044630B35C4D5D49286803F06CFA5C495D
S214006430286803F068FA00F0B9FD00F0B8FD594B83
S214006440594A009359498623286803F05CFA234684
S214006450574A5849286803F056FA204600F0CEFD01
S2140064605549286803F04FFA4C49286803F04BFA60
S214006470FEE7A022034600901146307818F0FCFC98
S214006480054630B3444C4549206803F03CFA44497D
S214006490206803F038FA00F089FD00F088FD414BD3
S2140064A0414A009341498F23206803F02CFA2B467B
S2140064B03F4A4049206803F026FA284600F09EFD31
S2140064C03D49206803F01FFA3449206803F01BFAA0
S2140064D0FEE702223078114618F0FCFC054600283C
S2140064E03FF443AF2C4C2D49206803F00CFA2C499E
S2140064F0206803F008FA00F059FD00F058FD294B1B
S214006500294A009329499523206803F0FCF92B4675
S214006510274A2849206803F0F6F9284600F06EFD61
S2140065202549206803F0EFF91C49206803F0EBF9D1
S214006530FEE70222234B1146187818F0CBFC0546DE
S21400654000283FF412AF144C1449206803F0DBF91E
S2140065501349206803F0D7F900F028FD00F027FD66
S214006560104B114A00931149A523206803F0CBF97C
S2140065702B460F4A0F49206803F0C5F9284600F05D
S2140065803DFD0D49206803F0BEF90449206803F07C
S214006590BAF9FEE7A00006018C1100204727030089
S2140065A0492703008C2703004E27030057270300C4
S2140065B063270300662703007B2703007C10002068
S2140065C0902B0300C00A002010B501213A2001F0EC
S2140065D0E1FB012100230846042202F015FB1420EB
S2140065E004F078FB0222064B0E201A6404F040FDED
S2140065F0BDE8104001231A461946184602F004BBAF
S21400660000D00340054B5A6C9007FCD45A6C910797
S214006610FCD55A6C9207FCD4704700BF00C00340FC
S2140066200246002006494B6CC3F340039A4200D052
S214006630704701306528F6D14FF0FF30704700BF35
S21400664000C0034070B50025214E224C736C9B079A
S214006650FCD51E2004F00CFD736CEA1013F0020F3C
S214006660A35C4FF001004FEA430318BF43F0010359
S214006670A354FFF7D5FF01300AD100F097FC00F0D5
S21400668096FC154B1549186803F03DF9012070BDBE
S2140066900135282DDAD1104D00F088FC00F087FC7B
S2140066A00F49286803F02FF9627823781344A278FC
S2140066B01344E27813442279934206D000F076FC25
S2140066C000F075FC07492868DEE70020DFE700BF1A
S2140066D000C00340881000208C110020DC27030037
S2140066E047270300ED2703002DE9F04180460F46BB
S2140066F016461D46FFF768FFFFF784FFFFF7A2FF69
S21400670001280AD00020064C237888F800306378E9
S2140067103B70A3783370E3782B70BDE8F08100BF40
S2140067208810002008B504F08AFCFFF767FD04F027
S21400673093FCFFF779FD03F075FEF8E7F8B505461C
S21400674017460C461E462A2000F0B2FA0121002009
S21400675000F0C6FA0121284600F0C2FA0121002006
S21400676000F0BEFA0121E81900F0BAFA2B2000F07A
S2140067709FFA0121002000F0B3FA0121204600F024
S214006780AFFA0121002000F0ABFAA019012100F0B9
S214006790A7FABDE8F8402C2000F08ABA002110B510
S2140067A08023A0220846FFF7C9FF4FF4A04401212A
S2140067B0002000F095FA0121002000F091FA013C3B
S2140067C0F5D110BD10B504460121000A00F088FA84
S2140067D02046BDE81040012100F082BA002820B50E
S2140067E015460CDB00290ADB0123C0B21A46C9B2E3
S2140067F0FFF7A4FF2846BDE82040FFF7E3BF20BD13
S21400680010B500F042FA012000F052FA052004F01C
S21400681061FA112000F04CFA052004F05BFAB12072
S21400682000F046FA0121084600F05AFA01212C2011
S21400683000F056FA01212D2000F052FAB22000F0A6
S21400684037FA0121084600F04BFA01212C2000F00F
S21400685047FA01212D2000F043FAB32000F028FA71
S2140068600121084600F03CFA01212C2000F038FAFD
S21400687001212D2000F034FA0121084600F030FAFC
S21400688001212C2000F02CFA01212D2000F028FAFE
S214006890B42000F00DFA0121072000F021FAC020F4
S2140068A000F006FA0121A22000F01AFA01210220C7
S2140068B000F016FA0121842000F012FAC12000F040
S2140068C0F7F90121C52000F00BFAC22000F0F0F91C
S2140068D001210A2000F004FA0121002000F000FA4D
S2140068E0C32000F0E5F901218A2000F0F9F9012122
S2140068F02A2000F0F5F9C42000F0DAF901218A20F8
S21400690000F0EEF90121EE2000F0EAF9C52000F0D3
S214006910CFF901210E2000F0E3F9202000F0C8F99D
S214006920362000F0C5F90121A02000F0D9F93A2060
S21400693000F0BEF90121052000F0D2F92A2000F06F
S214006940B7F90121002000F0CBF90121002000F06A
S214006950C7F90121002000F0C3F90121A02000F0B2
S214006960BFF92B2000F0A4F90121002000F0B8F9AF
S2140069700121002000F0B4F90121002000F0B0F958
S2140069800121802000F0ACF9E02000F091F901210F
S214006990022000F0A5F901211C2000F0A1F9012138
S2140069A0072000F09DF90121122000F099F901213D
S2140069B0372000F095F90121322000F091F90121ED
S2140069C0292000F08DF901212D2000F089F9012100
S2140069D0292000F085F90121252000F081F9012108
S2140069E02B2000F07DF90121392000F079F90121F2
S2140069F0002000F075F90121084600F071F9012128
S214006A00032000F06DF90121102000F069F9E12063
S214006A1000F04EF90121032000F062F901211D204B
S214006A2000F05EF90121072000F05AF90121062046
S214006A3000F056F901212E2000F052F901212C20F9
S214006A4000F04EF90121292000F04AF901212D20FD
S214006A5000F046F901212E2000F042F901212E20F7
S214006A6000F03EF90121372000F03AF901213F20DD
S214006A7000F036F90121002000F032F90121002053
S214006A8000F02EF90121022000F02AF90121102041
S214006A9000F026F9132000F00BF9292000F008F981
S214006AA00446FFF77BFE002180230846A022FFF75E
S214006AB045FE204610BD0000402A2DE9F84F054649
S214006AC00E461F4629D9A2F13604E4B24FF0000A5A
S214006AD0204A02EBC4044FF000080AEB060B14F839
S214006AE0019B0FFA8BFBC8F1070249FA02F212F07B
S214006AF0010208EB050018BF3A46594600B208F1F5
S214006B000108FFF76BFEB8F1080FECD10AF1010A95
S214006B10BAF1080FDFD1BDE8F88FA2F13003092BD8
S214006B2002D8A2F12F04D0E7202A0AD0252A0AD0BC
S214006B303F2A0AD03A2A0AD02E2A14BF0024282434
S214006B40C4E70024C2E72624C0E72524BEE727249E
S214006B50BCE700BF43280300F8B50E461F46C4B284
S214006B60551E15F8012F02B9F8BD20463B463146A2
S214006B700834FFF7A1FFE4B2F3E7000070B51B4E40
S214006B801B4D4FF6E073012100201A4AFFF7E4FF81
S214006B90194C32461F2309210020FFF7DDFF2A4645
S214006BA01F2312210020FFF7D7FF22461F231B2199
S214006BB00020FFF7D1FF4FF6E0732D2100200F4A8B
S214006BC0FFF7CAFF32461F2336210020FFF7C4FF17
S214006BD02A461F233F210020FFF7BEFF2246BDE8BE
S214006BE070401F2348210020FFF7B6BF0728030088
S214006BF015280300FE270300262803003A28030072
S214006C0038B50A22044603460120B3FBF2F30546D4
S214006C100130002BF9D128F069FA0A216B1EB4FB6B
S214006C20F1F201FB124430341C54013BD4B2F6D2CC
S214006C300023435538BD73B50C46FFF7E1FF064603
S214006C402046FFF7DDFF2E2305463046ADF804301C
S214006C5029F0E9F80446284629F0E5F8044401A896
S214006C6029F0E1F80234204428F040FA0446314680
S214006C7029F0D1F801A9204629F0BEF82946204679
S214006C8029F0BAF8204602B070BD10B501213A20AE
S214006C9001F080F8012304220621022001F0B4FF4F
S214006CA0BDE81040012304221846114601F0ACBF8F
S214006CB007B51022084B8DF807001A64074B01220F
S214006CC018680DF1070100F011FF003818BF012009
S214006CD003B05DF804FB00BF00E00340380B002063
S214006CE007B50A461021074B01901964064B01A907
S214006CF0186800F0FBFE003818BF012003B05DF8EE
S214006D0004FB00BF00D00340380B002008F06CBA2C
S214006D1008B5044808F016F8BDE80840024808F030
S214006D2041B800BF242B0300042B0300012070474A
S214006D3000B5C3B008F070F908F099F948B1FFF74C
S214006D40F5FF30B101A818F073F810B901A8FFF7E5
S214006D50C3FA43B05DF804FB704708B503218020F2
S214006D6001F0D6FB03214FF4806001F0D1FB032134
S214006D704FF4906001F0CCFB08214FF4C06001F0A6
S214006D80C7FB08214FF4F06001F0C2FB08213E204B
S214006D9001F0BEFB08212D2001F0BAFB002008BD43
S214006DA008B5174B1B68C3F30743012B0ED1154BD1
S214006DB004205A6E4FF480231349520358BF134AD7
S214006DC04B6601F51041086258BF536602F05EFB41
S214006DD000F03DF902F0DAFA02F076FB02F0F8FA7B
S214006DE002F034FB02F038FBFFF7B7FF02F0DEFAE2
S214006DF000F024F900F0D0FBBDE8084003F022BA0A
S214006E000080E00F008000400090004000A000409E
S214006E1008B500F0BBF8BDE8084000F0BDB808B5FE
S214006E2003F046FE02F052FB00F05EF802F0BAFDF8
S214006E3005F096FDBDE8084003F0C4B808B502F0BA
S214006E4081FA02F08BFABDE80840FFF761BF00F058
S214006E50AFB870477047FFF76BBF704770B5114EFD
S214006E6092B035460BAC0FCD0FC495E80700032350
S214006E7084E8070003AD8DF8443006F11C030FCB01
S214006E8007AC85E80F0006F12C030FCB84E80F0053
S214006E90054B214600930BAA2B46044802F096FFAA
S214006EA012B070BD542B030090100020F01000208C
S214006EB0831E012B0AD8012908D80422094B1B6916
S214006EC0C3F340130521002001F09EBE02390129BC
S214006ED007D8012805D8034B00221B69C3F34013CB
S214006EE0F0E7704700C0034008B50449044803F0C3
S214006EF077FABDE80840FFF7B1BF00BF0C0B0020D3
S214006F00C8100020014B186803F01EB8F0100020CF
S214006F10FFF7F8BF014802F05FBE00BFF010002088
S214006F20012070470120704710B508F0E1F80446CC
S214006F30FFF7F6FF002814BF2046002010BD38B526
S214006F4003F05EFB044608F0E1F8042817D0022898
S214006F504FF0000508BF0124FFF7DCFF042810D01F
S214006F60022808BF0124FFF7DDFF04280BD0022803
S214006F7008BF0124002D18BF0024204638BD012577
S214006F80EAE70125EFE70024F7E70000014800F0F4
S214006F9013B900BF902B0300024B0349186800F09A
S214006FA06FBC00BF380B0020180B002070477047DE
S214006FB0012208B5074B1A700022074B1A700422EC
S214006FC0064B1A701F22064B1A7002F063FC054B24
S214006FD0186008BD3C0B0020901100203D0B0020DF
S214006FE03E0B00208C110020024B0349186802F06B
S214006FF08ABC00BF8C1100202428030070B50C4CFE
S2140070000C490646206802F07EFC02F043FC05466A
S214007010206802F033FC3046FFF7E6FF284602F011
S2140070202DFC20680449BDE8704002F06CBC00BF2F
S2140070308C110020A82B0300AA2B030008B5012101
S2140070403A2000F0A7FEBDE80840FFF785BE012104
S2140070503A2000F09FBEFEE708B500F013F8064B96
S214007060064A07498B4201D3FFF78EF852F8040B05
S21400707043F8040BF6E700BFC00A0020587603006A
S21400708058100020044B054A9A60D3F8882042F432
S2140070907002C3F88820704700ED00E00060000032
S2140070A0014B1868704700BF440B0020084B1B6F4D
S2140070B003F00703022B04D0032B05D0012B05D0C9
S2140070C0FEE7044B18687047034BFBE7034870471E
S2140070D000800040440B0020480B0020002D3101AA
S2140070E008B5FFF7E3FF054B1B6FC3F3033301330C
S2140070F0B0FBF3F0024B186008BD00BF00800040F4
S214007100400B00200048704700B4C404014B1868C8
S214007110704700BF480B0020054B1860054B1B6FDF
S21400712003F00703032B01D1FFF7DABF704700BF58
S214007130480B002000800040002070470048704741
S214007140002D31014FF4004070474FF47A707047BD
S214007150014B1868704700BF4C0B002000239B6A49
S214007160B3F5C04F03D21968064A914203D00023F4
S214007170037083607047012202709A689B694260C0
S214007180F7E700BF07B0CD5E0023036070470368D3
S2140071900B6001607047000005490A68131805482F
S2140071A083428CBF4FF0FF320B601046704700BF23
S2140071B0500B002000800020D0E900031847036928
S2140071C00068184710B5044601213A2000F0E2FD99
S2140071D0A3782078B3FA83F3042261785B0901F080
S2140071E013FD002010BD000010B501224378017881
S2140071F0847830209A40054B00FB01331CB942F2DC
S21400720010015A5010BD41F21001FAE700C00340C9
S21400721010B5012243780178847830209A40054BD7
S21400722000FB01331CB941F210015A5010BD42F266
S2140072301001FAE700C003400122417803788A4033
S21400724030214B4343F2100103F1804303F57033C2
S2140072505A50704730230246017840785943054B10
S2140072605B58C34003F0010093780BB980F001002F
S214007270704700BF10C003402DE9F04F9A46564BAA
S21400728085B01B7806460F461546DDF83C909DF8FF
S21400729044B0DDF85080002B00F08D80072A00F205
S2140072A08C800E9B002B00F08880B9F1000F00F058
S2140072B08480129BB3F5006F7FDC012802D1109BFF
S2140072C0002B7AD0454B03EB05131B7B002B76D0A7
S2140072D0434C10220021684627F04FFF04EB45146C
S2140072E01022002F59D13946204627F046FF43F298
S2140072F010036380BBF1000F03D1E37843F0030370
S214007300E370374A0E9B02EB451CCCE90193129BB7
S2140073106901013BC3F30A009DF84C30012E03F0CF
S21400732003034FEA836343EA001E53582D48CDF803
S21400733000A000EA03004EEA0003535041D1132395
S2140073400CF1100ECCF80C309CE80F008EE80F0005
S2140073506FF00301DCF81C20109B61F39F02012FE5
S214007360CCF81C20CCF8143003D1CCF81890CCF80C
S21400737004300027194A290102EB051342F8018060
S214007380159A28465A60694622469F605E7301F049
S214007390ADFC384605B0BDE8F08F0021204627F04A
S2140073A0ECFE4FF444736380BBF1000FA9D1E37881
S2140073B043F03003A4E70C48ECE70C48EAE70C4837
S2140073C0E8E7B8F1000FD4D19CF8023068F3041354
S2140073D08CF80230CDE700BF141300209411002073
S2140073E0141200200F80FFF3028000F0018000F0EE
S2140073F0078000F038B5124B05461B78DBB1E0B1CC
S21400740001F035FA0F4A00231146147B54B92B605D
S21400741001251A0101EB03131D738C5001F02DFAA0
S214007420204638BD0133082B02F11002EDD101F0E1
S21400743024FA0548F5E70548F3E70548F1E700BFF5
S2140074401413002094110020048000F0028000F045
S214007450018000F0154B13B51868002301908DF8D5
S214007460043001F004FA124B1C7824B101F005FA3E
S214007470104802B010BD01221A7001F0FEF90E4B42
S21400748001A81C731C7783F82C4083F83C4083F8D3
S2140074904C4083F85C4083F86C4083F87C400823BB
S2140074A08DF8073001F0F0FB2046E2E7AD2B030035
S2140074B014130020038000F09411002010B588B04B
S2140074C00E9C009207940D9C024606949DF8304050
S2140074D005940B9C04949DF8284003940024CDE961
S2140074E0013420460B462146FFF7C6FE08B010BD05
S2140074F010B588B00E9C009207940D9C0246069428
S2140075009DF8304005940B9C04949DF82840039405
S2140075100024CDE9013420460B460121FFF7ACFEDE
S21400752008B010BD2DE9F843174B1F6D5B6D1F406B
S21400753000D5FEE701260025144CDFF85480DFF85E
S2140075405490374217D02368C8F850609BB1A168A2
S214007550284601316268A1609847637B012B0AD1F7
S21400756048B909EB45131A7B60F341021A731A7F78
S21400757060F341021A770135082D4FEA460604F1FA
S2140075801004DED1BDE8F88300000440941100200A
S2140075900020044014120020024B1968024B1868A1
S2140075A01FF036BE580B0020540B0020704700001A
S2140075B037B5920004460D4601922BF09DF8431C09
S2140075C00BD060B929462046019A27F09FFD002877
S2140075D0044808BF002003B030BD0348FBE703485B
S2140075E0F9E700BF10E000F021E000F024E000F032
S2140075F013B5044601A801F05BFC9DF80630012295
S21400760023804FF4807300206380054B9B680A3309
S21400761003F01F0302FA03F3636002B010BD00BF5D
S2140076200080E00F01F0C0BB08B501F0ADFB002004
S21400763008BD10B5044644EA010313F003030846E8
S21400764009D1934201D1002010BD54F8231040F810
S21400765023100133F5E72146920027F067FDF2E795
S21400766010B504462BF050F8431C15D0B0B90C4B9F
S21400767020469B680A3303F01F020123934023F041
S21400768003032344984201D1002010BD50F8042B78
S2140076900132F7D00348F8E70348F6E70348F4E773
S2140076A00080E00F0EE000F021E000F024E000F0A3
S2140076B008B501F0D5F8014B186008BDA8190020E0
S2140076C0014B186801F0D0B8A81900200A46013905
S2140076D0014402F0D1BC0123816480F85030704729
S2140076E038B50546B0B1B9B1B2B1B2F5006F13DC2A
S2140076F001F0BDF895F84C3003F0FF041BB101F023
S214007700BCF8064838BD012385F84C3001F0B5F8C2
S2140077102046F7E70248F5E70248F3E7032000F0C3
S214007720012000F0022000F010B50446152001F0FC
S214007730B5F830B994F85030002BFBD005E0FFF7D1
S214007740F1FE94F85030002BF9D010BD70B5054608
S21400775001F08DF86C6D0646013C6C654CB901F085
S2140077607FF805462146012002F09CFD284601F0E0
S2140077707BF83046BDE8704001F07FB838B5144657
S21400778001F075F80023A36484F84C302364237F4B
S2140077900546012B03D104F15C0003F0C3F9636BCB
S2140077A01BB100212046E26B9847284601F065F899
S2140077B02046FFF7CBFF012038BD70B5044601F028
S2140077C056F8636D05464BB901F04AF801210646A6
S2140077D0084602F067FD304601F046F8636D28461D
S2140077E001336365BDE8704001F047B82DE9F04706
S2140077F017460022436390F858300446884686B001
S21400780080F85020C7634BBB4FF440634669056859
S214007810092E6B6125D9012605F12C0A44354FF057
S21400782000092046FFF7C9FF144B216BCDE9026320
S21400783004F138025346A06A04940197CDF80090EC
S214007840FFF756FE01232A460093CDE903994346E7
S214007850CDE90176E16A606AFFF730FE06B0BDE862
S214007860F087A6F109030BBF05F1200A05F1240AEB
S21400787038353C355E425E41D1E700BF7D7700007B
S2140078802DE9F04104468F4F88B002AE0D460FCF6B
S2140078900FC697E8030086E80300002C00F010816E
S2140078A01DB9894808B0BDE8F0817822002120463D
S2140078B027F063FC00232A68844963658A4240F007
S2140078C0B1802821A4F84E104FF4802198468048B5
S2140078D0C4E90B0100232F4684F85830261D226089
S2140078E00FCF0FC697E80F0086E80F006B7E012BC0
S2140078F008BF8DF81630AB7E002B40F0A280ADF8A6
S21400790018302B7E0121012B03BF00238DF8153084
S2140079104FF47A73EB683A20049300F03BFA0121A7
S214007920B4F84E0000F036FA2B691A1F0C2AB8D8A5
S214007930033B286802A98DF8143001F0C5FBAB693B
S21400794023F47F0323F47F4323B92268936843F428
S214007950803393602B7A2879697940EA03406B7A02
S214007960AA7941EA0341AB7AEE7E42EA0342594BDA
S2140079704FEA48184344002E73D11D26C3F81C66F0
S214007980C3F83406C3F82C16C3F83026E97AEA7929
S21400799042EA0142C3F82026E37BE27A84F84530C7
S2140079A0237F207A677AA57A217B94F80D80A67BC0
S2140079B084F84420002B5ED10422019301F024F9C0
S2140079C0019B01224146384601F01EF9A27F31464E
S2140079D0012A8CBF0123019B0422284601F014F9DA
S2140079E0E37F3BB90123042294F8451094F8440041
S2140079F001F00AF900F03BFF374B1A78002A54D101
S214007A0001221A7000F039FF03F052F8FFF722FD4A
S214007A10002104F12400FFF7EDFC0146002847D0C2
S214007A202E483FE72E4B9A427FF43BAF2923A4F81B
S214007A304E304FF4A0232B494FF00108C4E90B1336
S214007A4048E7012B02D14FF4007358E7022B02D10E
S214007A504FF4807353E7032B7FF423AF4FF4407348
S214007A604DE71C25C3F81C56C3F83406C3F82C167D
S214007A70C3F8302690E70023012201F0C5F8002362
S214007A8004224146384601F0BFF8A37F0222012BAC
S214007A9094BF002301233146284601F0B5F8E37F62
S214007AA0002BA7D1012302229EE700F0E6FEADE7F9
S214007AB004F12800FFF79EFC00283FF4F3AEAFE782
S214007AC00948EFE6D82B0300022000F000C005406E
S214007AD00200040000C003405C1A0020092000F0E9
S214007AE00000064002000500012000F070B5037F8C
S214007AF00446012B0D4616460DD0FFF7F1FD48B99A
S214007B00324629462046054BFFF770FE2046FFF713
S214007B100BFEA06C70BD0248FCE700BFD7760000E5
S214007B20082000F04FF04023D3F88420D206FBD480
S214007B30D3F88400C0F381107047000038B5104BAE
S214007B400546D3F820310C4603F00303022B0BD076
S214007B50032B0DD0012B0FD1FFF7A2FA052305B199
S214007B60286004B1237038BDFFF7D0FA0323F6E788
S214007B70FFF7E4FA0223F2E700231846EFE700BF18
S214007B800080004073B50D4600210E4B0191D3F8DE
S214007B908041064604F00304012C09D0022C0CD0C8
S214007BA00C460EB1019B336005B12C7002B070BD5F
S214007BB001A8FFF7C3FF0F24F3E7FFF7BFFA019012
S214007BC0EFE700BF0080004038B5174B0546D3F8F6
S214007BD024310C4603F00703013B052B20D8DFE8D1
S214007BE003F0030F171B0B13FFF75AFA052305B113
S214007BF0286004B1237038BDFFF752FA0623F6E773
S214007C00FFF784FA0323F2E7FFF780FA0423EEE790
S214007C10FFF794FA0223EAE7FFF78EFA0723E6E770
S214007C2000231846E3E700BF0080004038B5104B3D
S214007C300546D3F840310C4603F00303022B0BD065
S214007C40032B0DD0012B0FD1FFF77CFA092305B1CA
S214007C50286004B1237038BDFFF77AFA0823F6E7E8
S214007C60FFF773FA0B23F2E700231846EFE700BF8F
S214007C700080004038B5134B0546D3F800320C465A
S214007C8003F00703013B032B18D8DFE803F0020AD2
S214007C900E12FFF757FA092305B1286004B12370C6
S214007CA038BDFFF755FA0823F6E7FFF74EFA0B2321
S214007CB0F2E7FFF715FA0E23800AEDE700231846D1
S214007CC0EAE700BF0080004038B5104B0546D3F801
S214007CD040320C4603F00303022B0BD0032B0DD0CF
S214007CE0012B0FD1FFF72EFA092305B1286004B146
S214007CF0237038BDFFF72CFA0823F6E7FFF725FABE
S214007D000B23F2E700231846EFE700BF0080004091
S214007D1038B5104B0546D3F860310C4603F0030324
S214007D20022B0BD0032B0DD0012B0FD1FFF70AFA35
S214007D30092305B1286004B1237038BDFFF708FA9F
S214007D400823F6E7FFF701FA0B23F2E700231846AD
S214007D50EFE700BF0080004010B40D4C0B46D4F88F
S214007D60204204F00304012C0AD0022C0CD008B1E7
S214007D70002101600BB100221A705DF8044B7047B9
S214007D805DF8044BFFF7DABE5DF8044BFFF74EBF15
S214007D9000800040420910B510D0012A10D00B4BCD
S214007DA00B4C022A18BF234600F01F0051B103F502
S214007DB08053012202FA00F0186010BD1346F3E764
S214007DC0044BF1E703F50053F3E700BF688000407B
S214007DD06082004064800040B0F5207F1FD009D844
S214007DE0B0F5007F15D003D868B1B0F5C07F0AD0D3
S214007DF000200CE0B0F5607FFAD10B4BD3F8800082
S214007E00C0F3011003E0084B186FC0F303300130D5
S214007E107047054BD3F89000C0F30460F7E7024BB9
S214007E20186FC0F38020F2E7008000401FB50023E3
S214007E3080280446029372D02BD8002873D0A0F175
S214007E402004A3B2412B32D8412C30D8DFE804F00E
S214007E506B6E6B6E7D7D7D7D6E6E873C9E623C6E2E
S214007E606E6E2F2F2F2F2F2F82546E6E6EA8A36E3E
S214007E702F2F2F2F2F2F2F2F2F2F2F2F2F6B2F6B95
S214007E806B6B7D2F2F2F2F2F2F2F2F2F2F2F2F2F37
S214007E906B6BB0F5806F58D021D8B0F5007F4FD00F
S214007EA008D8B0F5807F5FD0B0F5C07F3BD0029891
S214007EB004B010BDB0F5607F42D0F8D8B0F5207F92
S214007EC034D0B0F5407FF2D1FFF70AF902464FF4FE
S214007ED02070FFF781FFB2FBF0F0400821E0B0F51C
S214007EE0C06F53D00DD8B0F5A06F33D0B0F5B06FDB
S214007EF035D0B0F5906FDAD1002102A8FFF764FE06
S214007F00D5E7B0F5E06F46D0B0F5F06F48D0B0F5E5
S214007F10D06FCCD1002102A8FFF7ACFEC7E7FFF771
S214007F20C5F80290C3E7FFF7DBF8FAE7FFF7D8F8E3
S214007F3002464FF42070FFF74FFFB2FBF0F0F0E779
S214007F40FFF7B4F802462046F5E7002102A8FFF73F
S214007F50F5FDACE7002102A8FFF7FEFEA7E700212B
S214007F6002A8FFF70FFEA2E703934FF0E0231B697A
S214007F705B0705D5FFF7B4F80390039B029396E7DB
S214007F800DF1070103A8FFF751FEF6E7002102A84E
S214007F90FFF74CFE8BE7002102A8FFF795FE86E769
S214007FA0002102A8FFF7B4FE81E7000008B5802094
S214007FB0FFF73CFF034B98429EBF4FF48032024BC4
S214007FC01A6708BD005A620200A000404FF4003253
S214007FD038B50E4B05469A660020FFF7FDFE41F6C3
S214007FE071320B4B6843DC690A4DDA639A68A84223
S214007FF004F4803422F4401203D9012918BF42F455
S21400800080129A600CB10022DA6338BD00900040FE
S21400801000000340005A620208B5FFF773F8BDE897
S21400802008400021FFF7D2BF002307B5B0F5807FD8
S2140080308DF802307FD02AD8382800F0A0800CD8DF
S214008040243883B2092B10D809280ED8DFE800F0B0
S2140080506D6D6D6D0D0D670D3987522865D009D889
S2140080603D283ED03E2800F090809DF8020003B0E8
S2140080705DF804FB8028F8D1474B1B6F03F007031D
S214008080013B032BF1D8DFE803F048444276B0F515
S214008090D06F64D01BD8B0F5A06F70D00BD8B0F5F9
S2140080A0806F42D0B0F5906FDFD100200DF1020155
S2140080B0FFF78AFDD9E7B0F5B06F30D0B0F5C06FE6
S2140080C0D3D100200DF10201FFF7B0FDCDE7B0F5EA
S2140080D0006FEAD00BD8B0F5E06F56D0B0F5F06F71
S2140080E0C3D100200DF10201FFF712FEBDE7B0F587
S2140080F0086FBAD1284BD3F8003103F00303022BE4
S21400810033D0032B35D0012B37D1FEF7FFFF0323E7
S21400811000E005238DF80230A7E70223FAE70020E7
S2140081200DF10201FFF72EFD9FE700200DF1020181
S214008130FFF704FD99E701934FF0E0231B695B0707
S21400814007D5FEF7CDFF0C238DF803309DF80330DE
S214008150E0E70DF1030101A8FFF768FDF6E7002050
S2140081600DF10201FFF786FD7FE7FEF7F1FF08231A
S214008170D0E7FEF7E1FF0723CCE70123CAE700209C
S2140081800DF10201FFF7E8FD6FE700200DF1020197
S214008190FFF79AFD69E700BF0080004008B5FFF7CB
S2140081A043FF082812D00938C0B2012811D84FF46E
S2140081B00012094B4FF6FF705A6603F5D8335B6A18
S2140081C013F0010F18BF4FF4FA7008BD034B188860
S2140081D0FBE74FF6FF70F8E700900040780B0020B2
S2140081E070B504468020FFF71FFF03287CD04FF4AD
S2140081F00022424B42495A6645F60E030222C1F857
S2140082008030404B9A62012203F580539A628A6D51
S21400821012F48032FBD1637820781B0543EA0063B2
S214008220A079257C0343E078667C43EA0043207906
S21400823043EA0033607943EA80130B618B69E07A86
S21400824003F000430343E07943EA8063207A43EA7D
S2140082500063607A43EA0043A07A43EA00238B6116
S214008260637B096A002B18BF0822207B21F00D01D2
S21400827043EA010343EA800342EA0302204B1A6200
S214008280A27B4FEA421230D1986AE17B20F033009D
S21400829042EA0112024342F001029A621A4A996DBA
S2140082A032EA0101FBD1022216498A621A659A6DEA
S2140082B05200FCD41869A27820F4700040EA0250FC
S2140082C04FF0004218610F4B9A611DB9022203F568
S2140082D080539A6216B901220C4B9A62A37C1BB19A
S2140082E0074B0B4AC3F8802070BD996A21F0330112
S2140082F031430A4342EA4502EFE700BF00900040E0
S21400830000C0004000D000400300014000E00040F4
S214008310F1A7FFFF014B93F9000070475D1A00209C
S214008320F0B54FF480061B4A41788478C378057808
S21400833056664FF4D156022702F5B8325662164EEC
S2140083404F2977604FF0010728BF4F2106F580566A
S21400835077601669F603FCD441EA052151611B01DA
S214008360417943EA04230B43017943EA41039360CE
S214008370C37981791B0143EA4113417A0B43017AA1
S21400838043EA41035360837A13B16FF4D1535362C7
S214008390F0BD00BF0090004000100240014B188066
S2140083A0704700BF780B00204FF4001208B5184B3A
S2140083B05A660223174A5360936813F48033FBD13E
S2140083C0012822D1FEF7A2FE134B984215D003F5E2
S2140083D0122303F5F863984213D0104B00EB80028B
S2140083E0400AB3FBF0F0520A0A4BDA620122186325
S2140083F05A620022074B5A6008BD45F67A10084AB2
S214008400F2E745F61A00074AEEE75362F1E700BFC7
S214008410009000400040024000F049026466666634
S214008420D8B80500BBCF05000029CCBF012100212C
S214008430FFF7CCBDB0F5207F10B50C4642D008D86B
S214008440B0F5007F33D003D888B1B0F5C07F0ED02A
S21400845010BDB0F5607FFBD11F4B013CD3F88010F8
S21400846021F0300141EA0414C3F88040F0E7FFF73A
S214008470D3FD00F035F84FF48031184A164B1167DB
S214008480196F013C21F4704141EA04341C67FEF781
S21400849027FE0446FFF746FBC0F102012046FFF721
S2140084A0C3FF00F023F8BDE81040FFF77FBD0A4B7E
S2140084B0013CD3F8901021F0F85141EA0464C3F867
S2140084C09040C5E7044B013C196F21F4806141EAF6
S2140084D084241C67BCE700BF00800040009000407A
S2140084E002214FF42070FFF7A5BF000008B54FF437
S2140084F0C070FFF79BFCBDE80840044988428CBF6B
S214008500022101214FF42070FFF794BF80F0FA0299
S214008510B0F5807F70B50C4600F0FE802AD838286B
S21400852000F0528111D8243883B2092B16D80928B6
S21400853014D8DFE810F0E000E000E000E0001300F0
S2140085401300D100130048003801522800F0D380F1
S21400855005D83D2853D03E2800F0478170BD8028BE
S214008560FCD18B1E052B00F2B480DFE803F0AF9D34
S214008570B26DB2ACB0F5D06F00F0158134D8B0F55E
S214008580A06F00F0218117D8B0F5806F00F0B3809F
S214008590B0F5906FE2D1023CE4B2052C8CBF00210E
S2140085A09A4B9B4A98BF195DD2F8243123F00703F3
S2140085B00B43C2F82431D1E7B0F5B06F00F08C80E1
S2140085C0B0F5C06FCAD1083CE4B2032C8CBF0021C2
S2140085D0904B8F4A98BF195DD2F8403123F00303C1
S2140085E00B43C2F84031B9E7B0F5006FD3D017D8C7
S2140085F0B0F5E06F00F0F980B0F5F06FAED1083C52
S214008600E4B2032C8CBF0021834B814A98BF195DCE
S214008610D2F8603123F003030B43C2F860319DE7C4
S214008620B0F5086F9AD1CC1EE4B2052C8CBF0021A1
S2140086307A4B774A98BF195DD2F8003123F00303CE
S2140086400B43C2F8003189E70025022601210220EB
S21400865000F0F0F9FFF7E0FCFFF742FF4FF480313F
S2140086606F4B6B4A1967136F23F007033343136787
S214008670FEF736FD0646FFF755FAC0F10201304612
S214008680FFF7D2FE0121002000F014FAFFF72EFFBC
S214008690FFF78CFC002D7FF461AF032C7FF45EAFF8
S2140086A00122604B9A6259E74FF400225C4B032686
S2140086B05A66012203F540539D6A03F58053C5F3BD
S2140086C040059A62C2E700250426BFE7002501267A
S2140086D0BCE700252E46B9E7022C03D0A4F10F0014
S2140086E0444244414A4AD2F8803123F003031C43F3
S2140086F0C2F8804132E7023CE4B2032C8CBF002172
S214008700494B434A98BF195DD2F8203123F0030342
S2140087100B43C2F8203121E7A1F10804082C3FF6EC
S2140087201DAF01A353F824F04D8700004D870000CD
S2140087305D8500004D8700007B8700005D8500009A
S2140087405D8500005D8500004D8700004FF4803297
S2140087502F4B3649586E03F580535A660B6A43F022
S21400876001030B62C1035CBF314B5A664FF0E02237
S214008770136923F004031361F0E64FF48032244BB0
S2140087802A49586E03F580535A660B6A23F0010394
S2140087900B62C3035CBF264B5A664FF0E022136998
S2140087A043F00403E7E7083CE4B2062C8CBF002144
S2140087B0204B174A98BF195DD2F8003223F0070302
S2140087C00B43C2F80032C9E60F2C0CD0102C14BF95
S2140087D0002102210E4AD2F8203223F003030B4375
S2140087E0C2F82032BAE60121F4E7083CE4B2032CD2
S2140087F08CBF0021104B064A98BF195DD2F8403254
S21400880023F003030B43C2F84032A7E6F82B03001D
S21400881000800040F42B0300F42B0300052C03001B
S2140088200090004000E00040F02B030000C007402E
S21400883000A00040FE2B0300F42B03000028ABBF73
S21400884000F16040054B00F5614000F00F00ACBF42
S21400885090F80003185C0009704700BF14ED00E0B4
S214008860EFF3108072B6704700B962B67047EFF348
S2140088701180302383F31188704780F31188704786
S214008880054B420953F8223000F01F0023FA00F08F
S214008890C04300F00100704700E100E0014608B563
S2140088A0EFF31083DB0702D50122104608BDFFF761
S2140088B0E7FF02460028F7D10846FFF7BFFF01464C
S2140088C0EFF3118313B1B0EB131FEDD2074B5B68C8
S2140088D0C3F30803002BE8D0103B58B2FFF7AEFFF7
S2140088E088428CBF00220122DFE700BF00ED00E0D7
S2140088F0194B10B51B6873B3184A5268012A2AD060
S214008900174A8020C2F80031FFF78EFB05281FD1DA
S2140089104FF4C070FFF760FA0128044604D1022124
S2140089204FF4C070FFF786FD07220E4B1A61012236
S214008930A3F580535A60094A1369DB07FCD5012C5E
S21400894009D12146BDE810404FF4C070FFF772BD54
S2140089500122054B5A6010BD601A002000C001407D
S2140089600080004000E0014000D0014000224FF4AB
S2140089700031074B1A60074A516602F59832526872
S214008980012A02BF044AD2F800211A60704700BFCD
S214008990601A00200090004000800040704770473A
S2140089A07047000010B5044608B1FFF7DFFF0E4A17
S2140089B0136943F00403136101F0FCFEFFF7EFFFB9
S2140089C0FFF74EFF29F0A8FEFFF74EFFFFF7E8FF80
S2140089D001F004FF1CB1BDE81040FFF789BFBDE8F9
S2140089E01040FEF77DBB00BF00ED00E010B504466A
S2140089F008B1FFF7BBFF0C4A136943F00403136189
S214008A0001F0D8FEFFF72CFF29F086FEFFF72CFFBB
S214008A1001F0E4FE1CB1BDE81040FFF769BFBDE8F9
S214008A201040FEF75DBB00BF00ED00E0FFF79EBF05
S214008A30FFF75EBFF8B504464FF04023D3F8842016
S214008A40D106FBD4D3F88430C3F381139C422DD0D7
S214008A50FEF72CFB012C064602D12146FFF7E4FC6C
S214008A60FFF7FEFE4FF00072114B07465A6620468F
S214008A70FFF794FF4FF480634FF04025621E93404B
S214008A802B676B6E9A0103D4D5F884309B060AD503
S214008A903846FFF7E9FE022C08D13046BDE8F8401C
S214008AA00021FFF7C1BCD5F88430EAE7F8BD00BF67
S214008AB00060004007B518B90191FEF7F7FA019972
S214008AC0064B1B7843B1064B984205D8012003B0ED
S214008AD05DF804EBFFF7AEBF0220F8E7641A00204B
S214008AE0005A62020278034B012100201A70FFF739
S214008AF0E1BF00BF641A00204FF04022536F417858
S214008B0023F4407343EA0123536770474FF0402233
S214008B10D36E017923F030030B43D3667047000011
S214008B204FF0004210B501244AF6CD31144B5A6678
S214008B30144A03F50B2354605A6C1964224078B922
S214008B40996811F0010F104903D08C60D86AC007ED
S214008B50FCD501234B6012B10C4B0D4A1A6410BDB4
S214008B60D96A0907FCD42021074B59620121A3F5D5
S214008B708053996005494B6A9B06FCD5EBE700BF1E
S214008B800090004000500940006009400040094045
S214008B903254FFFF4FF0004238B5184B184C5A6657
S214008BA0012203F50C235A604AF6CD33656C236424
S214008BB043781540934013434FF04022D363A36895
S214008BC0827823F0740343EA0213C278002A14BFA3
S214008BD0042200221343A3600279837943EA022326
S214008BE023614279C37943EA022363610078FFF781
S214008BF097FF0DB1034B2364012038BD0090004061
S214008C00004009403254FFFFF0B54AB10125302636
S214008C101C4C8D4006FB00440BB341F21006A551D8
S214008C2030244443072904F1804404F5703419D8ED
S214008C300F2765688E00B74025EA070502FA06F694
S214008C403543656052B90122302402FA01F10D4A1B
S214008C5004FB00209BB141F21003C150F0BD42F26C
S214008C601006DCE70F27A1F10805E668AD00AF4067
S214008C7026EA070602FA05F53543E560E2E742F222
S214008C801003EAE700C0034010B501210446202087
S214008C90FFF780F801212120FFF77CF80122114B15
S214008CA05A60227812069A606178A27842EA0142F7
S214008CB09A61FF229A6200229A631A644FF0004279
S214008CC05A654FF0FF324FF4001103F500531A6552
S214008CD0054AC2F88011E3781B01DBB282F815332F
S214008CE0116010BD0000044000E100E02DE9F041F5
S214008CF001250C464FF0300EC3B29D40CB7A1E4E77
S214008D004FEA035823688F7A94F80DC0097B46F81B
S214008D102030A6F580460EFB006048EA074343EA8B
S214008D204153C0F860C0C365144B22F003020267CB
S214008D301D65FFF79CFD736D2B437365237A13B196
S214008D40336C2B433364637A13B1B36B2B43B36337
S214008D502279A37943EA0243084A93616179E37969
S214008D6043EA014306498B61064B55639D64BDE8A3
S214008D70F041FFF782BD00BF0040044000200440E1
S214008D8000100440000004404FF40032054B9A6681
S214008D9041F6713203F51C33DA63012203F5005302
S214008DA0DA6070470090004041F671320121064BB0
S214008DB0DA6303F50052D1600022DA634FF4003222
S214008DC0A3F518339A667047000003404FF09043AF
S214008DD05A6812B19A6A002AFAD17047CB784A7854
S214008DE010B55B010C7843EA82030A79234343EA11
S214008DF002130C22424302F190421363012C02BF7D
S214008E008A78024B43F8202010BD00BFE88003405C
S214008E1008B54FF090435A6802B960B15B680BB171
S214008E20FFF7D4FF4FF0904130B10120074B586058
S214008E30FFF7CCFFC86008BDFFF7C8FF0223CB6072
S214008E40FFF7C4FF0122024B5A60F4E70010004807
S214008E50002000484FF090435B6870B50BB1FFF7F9
S214008E60B5FF0121104B4578596083780679002BB1
S214008E70C37814BF02240024002B14BF042200224F
S214008E804379DB0043EA06132B43234313434FF097
S214008E9090429360054B59600378002B14BF0B4635
S214008EA00223D36070BD00BF0020004800100048B9
S214008EB04FF48032064B5A6603F5E6235B69C3F32C
S214008EC08512827003F03F021B0B427003707047DE
S214008ED00090004070B5054616461C4621B94FF472
S214008EE02070FEF7A3FF0146402C1BD003D8DCB150
S214008EF0202C1BD070BD602CFCD1042303FB06F293
S214008F00560806EB4113B3FBF2F3094A203B02EA8C
S214008F10C303AA6822F06002AA60AA681443AC6081
S214008F20EB61E7E70623E9E71023E7E70823E5E731
S214008F30F8FF7F0038B50546144621B94FF4207077
S214008F40FEF774FF014601396400B1FBF4F1090233
S214008F50E96138BD012200F580535A60CB43934047
S214008F6003F00A034361416111B900F50050426005
S214008F7070470000012200F5805310B55A6040F695
S214008F80AA6341F20502436100230E498360C3656C
S214008F90C26000F500520361C361C36491640A496C
S214008FA08365884202D0094CA04207D188420365F7
S214008FB002D0064B984201D100234365012353603B
S214008FC010BD00BFFFFF010000C0054000000640C6
S214008FD070B50D46FFF7CEFF012300F5805673608F
S214008FE0AB7C04461BB1836843F080438360EB7C14
S214008FF05BB1324A2B7D94423FD1A2F51032C2F8C3
S2140090008C31E36D43F08003E3652A8A6B7B204650
S2140090101343EA891343E3602B7BD5E90112FFF77C
S21400902059FF6B7D1BB1A36843F48033A360AB7D0F
S214009030EA7D1B07120502F4E00203F0E043134347
S214009040A365297E1D4A8B1E012B1D4B1FD89442FB
S2140090501BD002F5804294420CBF01224FF0FF3233
S21400906003EB4213022041F21C620329985020D1E0
S2140090700423F3652B78636170BD124A944204BFE3
S214009080A2F52032C2F89C31BBE70022E8E7944202
S2140090900DD00C4A94420CBF01224FF0FF3203EB76
S2140090A04213022042F21C6201299850DFE7002298
S2140090B0F5E7042204F50053DA65DBE700C0054057
S2140090C000C003400000064038B50D46FFF752FFCB
S2140090D00122A97B00F580535A602A8A83680029FA
S2140090E014BF4FF48061002142F0010213432A7D31
S2140090F00B43002A14BF4FF000520022836083689F
S214009100044613438360AB7C5BB11A4AEB7C904207
S21400911027D1A2F51032C2F88C31E36D43F08003FC
S214009120E3652B7B2046D5E9011243F48053E360C8
S214009130FFF700FF6B7B0BB1102363616B7D1BB1E8
S214009140A36843F48033A360AB7DEA7D1B0712055A
S21400915003F0E04302F4E0021343A3652B78636157
S21400916038BD054A904204BFA2F52032C2F89C31B1
S214009170D3E700BF00C005400000064083691B0619
S214009180FCD5406AC0B2704783695B06FCD5C163F4
S2140091907047000038B50446054D1FF068F90FCC3F
S2140091A00FC594E8030085E80300002038BD00BF23
S2140091B0681A002047F6FF739A42F0B55ED002297F
S2140091C05ED8304ECF0016F8313006EBC100012BCA
S2140091D085780DD1C3785B1B23B1416831F9131034
S2140091E0914202DCE818C0B2F0BD013B1BB2F3E7C7
S2140091F040680028F8D0B0F90030934204DBB0F99C
S21400920002309342B8BF134682883E44FF2A19BFF5
S214009210C8242821B0F90640B0F90810A4EB0304CE
S2140092200CBF0122002294FBF1F47678224414B29B
S214009230721EA242A8BF22464FF47A7700EBC20401
S214009240E188A468013213FB014112B221EAE17100
S21400925001F5FA71B242B1FBF7F104DA00EBC20491
S214009260A4888C42EAD200EBC20232F8040C884290
S21400927028BF0846A84238BF2846B4E7FF20B3E711
S2140092800020B1E7681A00200229F0B554D82B4810
S21400929000EBC10310F831105C6801290FD19878F3
S2140092A0D978914294BFC0EB0103C0EB0203091AC0
S2140092B0DBB28B42C8BF002334F91300F0BD002C8C
S2140092C03AD09978914202D3B4F90200F6E7D978F9
S2140092D0B4F900009142F1D9A1885B78FF294FF0DC
S2140092E0000114BF03F1FF33023BDBB2251D04F17E
S2140092F00C071FFA82FCCEB2B34216D805EBC101AA
S2140093004FF47A756A43B1F902304968521A03EB92
S214009310D37102EB610292FBF3F29042CEDBB4F91A
S21400932002009042CADC10B2C8E737F831E04E1CA3
S214009330E645E3D33146DEE70148BFE7681A00207A
S2140093400080FFFF08B50448FFF724FFBDE808408B
S21400935001201FF08EB800BF683203007FB50222DE
S214009360084B0949CDE901234FF00073CDE90313FB
S214009370052301A94FF0FF3005931FF0EFF807B063
S2140093805DF804FB006A18000002040007B56B468F
S214009390054A1068516803C36846FFF7FBFB0020C8
S2140093A003B05DF804FB00BF0B2C03004FF0402217
S2140093B013B50024536F684643F0010353670094C7
S2140093C08DF80440FFF7A2FB204602B010BD000057
S2140093D070B586B001AA1546184B03F11006144660
S2140093E018685968083303C4B3422246F7D119886F
S2140093F09B782180A370124BD3F84C21120314D40F
S214009400D3F85041E4B28DF80E40FEF783FF2044B7
S21400941080F308008DF80D000A48FDF77DFE28460B
S214009420FEF7DEFE002006B070BD074B1C884FF628
S214009430FF739C4208BF8C24E5E700BF132C030093
S2140094400080E00F00F049020001E00F08B501209F
S214009450FEF7AAFF002008BD1FB50B4A01AB106837
S214009460516803C31189927A19809A70192301A84A
S2140094708DF80530FEF754FF6420FEF78FFF0020BE
S21400948005B05DF804FB00BF262C03006FF0040255
S214009490502110B50A480B4C12F0800FD3B21BBFF8
S2140094A003F00F03043BA3181B1802F101020CBFC4
S2140094B083F800131976402AEED1002010BD00BFB5
S2140094C000ED00E000E100E000F07AB838B501F009
S2140094D0EFFA0446E0B901F0EBFB4FF41673434392
S2140094E00C4803F5742303F23F23B3FBF0F30A4A58
S2140094F00A4913600A220D680948013A12F0FF0271
S21400950040F8043BF9D103EBC3022B4413440B6031
S214009510204638BD40420F00BC1A0020881A0020A2
S2140095208C1A002070470000012208B5034B1A7001
S21400953001F0B2FB024B186008BD00BF841A002081
S214009540B81A0020F8B5144C237823B301F0A4FB16
S214009550124B134D1B68134EC01A012838BF01204A
S214009560114B124F18602B7856F8232046F823002C
S214009570111A3A680E48521A0A213A600932B2FBAA
S214009580F1F20133DBB20260B3FBF1F201FB1233FE
S2140095902B7000232370F8BD841A0020B81A002010
S2140095A0B41A00208C1A0020801A0020881A002086
S2140095B0BC1A0020014B1868704700BFBC1A002078
S2140095C020234FF400220A4981F82C33094B5A66AF
S2140095D0094A03F5A040426702674FF4805003F53E
S2140095E040530344C1F8840148605A67704700BF7F
S2140095F000E100E000900040010000A0054B064A94
S2140096001B78916DC90700D513B10028F9D17047B2
S21400961001207047D41A002000C000402DE9F8430E
S214009620874B1E6F9D6A9C6AF00705F0020504F0E2
S21400963001044CD501278349834A91F80090DFF84E
S21400964028821767B9F1000F00F0ED80002008703F
S21400965098F80010B94200F2E18002219762A2F564
S214009660805291629A6DD103FCD478495A6B09688E
S21400967022F470620A435A637548764A996900680C
S214009680126821F47F01024321F47F410A439A6164
S2140096907148724A19691268006821F47F6121F0E6
S2140096A00F0102430A431A616D499A69096822F05C
S2140096B0FF020A439A610223002D40F0AB80624A03
S2140096C093620123002C00F0A780664A936216F08E
S2140096D000527FD04FF0010E5B4F63493A67594AFC
S2140096E0574B82F800E00A78DFF864C172440A70CB
S2140096F05A6B564902F4706008609869554900F440
S2140097007F4008609969DFF8588101F47F01CCF842
S2140097100010D3F818C05FFA8CFCC8F800C0D3F865
S21400972010C0DFF838810CF47C6CC8F800C0D3F8A1
S21400973010C0DFF824810CF03F0CC8F800C0C7F852
S21400974028E04FF0020EDFF81CC1CCF828E04FF0FE
S214009750004ECCF828E0D3F858C01CF4803FFAD16D
S2140097604FF0004C22F4706242F40072B0F5C84F1D
S214009770C7F828C05A6302D8B1F5C80F0CD9304ACA
S2140097803A499369096823F47F0323F47F4343EA45
S214009790012343EA01439361294A3549136909685D
S2140097A023F47F6323F00F03880843EA910343EA18
S2140097B080131361936923F0FF030B439361022325
S2140097C0002D37D102F5005293620123002C33D0CE
S2140097D0244A9362002E1BDA4FF000421A4B1849B7
S2140097E01A67244A12789AB101229A620222A3F5D5
S2140097F080539A628A6DD203FCD44FF000429A617D
S214009800022205B9104B9A620123BCB1154A936235
S214009810BDE8F883134A53E70B4A57E7FFF782FE83
S214009820144B1F7053E7FFF78DFE00F0F9FE88F823
S21400983000904CE70B4AC7E7034ACAE7024AE6E746
S21400984000C00040D41A002000E00040D81A0020D3
S214009850D01A0020CC1A0020C81A0020C41A0020F3
S214009860C01A002000D00040D51A0020800B00202F
S2140098707C0B0020D61A0020FFF7D0BE10B5044699
S214009880FEF7EEFF024B1C60FEF7EEFF002010BD59
S214009890DC1A002010B5FEF7E3FF034B1C68FEF74A
S2140098A0E3FF204610BD00BFDC1A002007B530B924
S2140098B0CDE90012FFF7EEFFDDE9001230B1436894
S2140098C023B1006803B05DF804EB1847232003B00B
S2140098D05DF804FB30B51C4685B058B9CDE90012DA
S2140098E0FFF7D8FFDDE9001204B903AC20B9232046
S2140098F005B030BD03B903AC8568002DF7D023460C
S2140099000068A847F4E70EB477B507AB53F8046BC6
S21400991005460193B0B9FFF7BDFF0446054630463D
S214009920019926F089FAAC42064602D02046FFF797
S214009930A5FF002ED4BF3720002003B0BDE870403E
S21400994003B07047FFF7A6FF85420446E7D02846D7
S214009950FFF794FFE3E700207047FEE74FF400535D
S21400996000204B60704701207047012070474FF081
S214009970FF3070470020704707B5002001AB01900C
S214009980FFF7A8FF0198002808BF4FF0FF3003B08C
S2140099905DF804FB10B514460020FFF787FF20464D
S2140099A010BD0000034B0222186800238068194689
S2140099B026F05EB9A40C002090F8233001223BB1BB
S2140099C090F82730022B03D180F8272018467047DE
S2140099D01346FBE780F82010704790F82000704789
S2140099E090F8240070472DE9F8434FF0000804462D
S2140099F017461D46C3F800804E1E2B68BB4206D392
S214009A002B68002B0CBF1B200020BDE8F883FEF758
S214009A102EFFD4F81490FEF730FFB9F1000FEFD008
S214009A20A269E368D35C06F8013FE068E3690130A9
S214009A30984208BF4046E060FEF719FF6369013BA5
S214009A406361FEF71AFF6368204698472B68013368
S214009A502B60D2E738B50546FEF702FF0446002124
S214009A60284600F01FFC2046BDE83840FEF7FCBE46
S214009A702DE9F04104460D46164690F82070FEF794
S214009A80EFFE012394F8238084F82330FEF7ECFEE3
S214009A90B8F1000F03D194F82600FFF7DBFF2E4441
S214009AA09FB1AE4213D02B780A2B03D10D2120464E
S214009AB0236898472046236815F8011B9847F0E767
S214009AC02046236815F8011B9847B542F8D194F84C
S214009AD02660FEF7C5FE05460121304600F0E2FB93
S214009AE02846FEF7C1FE002084F82300BDE8F0817A
S214009AF0002809DB0122430900F01F0002FA00F0EB
S214009B00024A603342F82300704700BF00E100E0DD
S214009B1070B504460568FFF7BDFE844202D10020FA
S214009B20FFF7ACFE95F92100FFF7E2FF95F921302B
S214009B30002B0DDB01215A0903F01F0301FA03F382
S214009B401449203241F82230BFF34F8FBFF36F8F96
S214009B5095F92200FFF7CCFF95F92230002B0DDB9C
S214009B6001215A0903F01F0301FA03F309492032C1
S214009B7041F82230BFF34F8FBFF36F8F0023284684
S214009B80C4E90033C4E90433A360AB68BDE87040A1
S214009B90184700BF00E100E070B590F82430044696
S214009BA00D4681B173B990F82560FEF759FE05465B
S214009BB00121304600F076FB2846FEF755FE0123CD
S214009BC084F8243070BD002BFCD090F82500FFF7F9
S214009BD041FF84F82450F5E7036A00681847000040
S214009BE0F8B51F46536806460C461546002B63D04C
S214009BF09368002B62D028220021204625F0BDFA6B
S214009C006B682046A361AB68E3612B7B2760012766
S214009C1084F82030069B6360079BA3602B7884F84B
S214009C2021306B7884F82230254B34607360254BE6
S214009C30B360254B3361254B7361254BF360254B91
S214009C403362254B84F82770B361244BF3619DF88B
S214009C50243084F8237084F826309DF8203084F869
S214009C6025300023697B84F82430FFF795FF95F9AB
S214009C700100FFF73DFF95F90130002B06DB5A097E
S214009C8003F01F039F40164B43F8227095F900001F
S214009C90FFF72EFF95F90030002B08DB012259094B
S214009CA003F01F0302FA03F30D4A42F82130304650
S214009CB0FFF7E4FD0020F8BD2220FCE72120FAE7AC
S214009CC0719A0000E7990000D5990000DB99000022
S214009CD0119B0000B9990000999B0000E1990000D3
S214009CE000E100E04269C06982422CBF00200120EA
S214009CF0704703698269D15442690369013242613F
S214009D00C26901339342036104BF00230361042345
S214009D1080F82730704790F8233010B504464BB9CA
S214009D20012380F8233090F82600FFF793FE0223E5
S214009D3084F8273094F8230010BD826AD36C43F071
S214009D400403D364704710B50446826A93695B06C1
S214009D50FCD5002394F82F101A4694F82E00FEF730
S214009D6053FF002394F831101A4694F83000FEF79B
S214009D704BFF94F8363093B1002394F833101A460C
S214009D8094F83200FEF740FF94F836303BB10023DB
S214009D9094F835101A4694F83400FEF735FFA06A9A
S214009DA00021FFF7D7F8A08D0021FDF7F3FF002074
S214009DB010BD10B50446806AFFF7E6F9A26A0020D7
S214009DC0D36C43F00103D36410BD00002DE9FF41BE
S214009DD001271C46574B0A9D0193574B904600930C
S214009DE00A46CDE902772946544BFFF7F9FE0646A8
S214009DF000287AD123683946AB62A3883A20AB851F
S214009E00E37985F82F30A37985F82E30637A85F8C4
S214009E103130237A85F83030E37A85F83330A37A08
S214009E2085F83230637B85F83530237B85F834300F
S214009E30FDF7B0FF3B460422E179A079FEF7E4FE89
S214009E403B460222617A207AFEF7DEFE3946A0887B
S214009E50FDF7A0FF88F8006041462068FFF7B8F8D5
S214009E601422A37B5B0103F1804303F57033C3F830
S214009E701C26E179A27942EA0142C3F83426617AC7
S214009E80227A42EA0142C3F82C2685F8366098F812
S214009E901830032B4CD8DFE803F01A022C460123B7
S214009EA0002785F8363000230222E17AA07AFEF7F2
S214009EB0ABFEE37AA27AA17B42EA0342204B490139
S214009EC05A500422236803F58053DA65A7B9A379AC
S214009ED0052185F82E30E37985F82F302068C36C8D
S214009EE043F00403C364FFF735F8304604B0BDE81A
S214009EF0F081022385F8363000230422617B207B24
S214009F00FEF782FE022741F21C61A27B0D4B03EB9B
S214009F1042104750607B217BB13241EA004103EB9F
S214009F2042139960D3E70323012785F83630BAE752
S214009F302326DAE7479D00003B9D0000B39D000006
S214009F4024D6034000C00340836A10B59B690446CC
S214009F50190609D5FFF7C6FEE0B1A06AFFF70EF9AD
S214009F6001462046FFF7C5FEA36A9A6CD20710D5B5
S214009F70012103F500529164DA6C204622F00102BA
S214009F80DA64FFF7C8FE20B9A26AD36C43F0010377
S214009F90D36410BDA26AD36C23F00403D364E3E752
S214009FA0BFF34F8FBFF36F8F054B5A6A22F4803290
S214009FB05A62D3F8942022F00102C3F89420704726
S214009FC000ED00E070B52548254CFFF7E9FF844218
S214009FD008BF4FF08043234A18BF20F01F03D2F873
S214009FE0C01018BF203B21F0FF0141F0A001B3F1E3
S214009FF0005FC2F8C0100CD31B4D1C4E296843F0FE
S21400A0000103C2F898100131C2F89C60C2F8A03073
S21400A0102960844210D01448154B0268114923F079
S21400A0201F0343F00303C1F89820C1F89C30114B7E
S21400A0300132C1F8A0300260BFF34F8FBFF36F8FBD
S21400A0400522084BC3F894205A6A42F480325A62BA
S21400A050BFF34F8FBFF36F8F70BD00BF780E002029
S21400A0605010002000ED00E0E01A00200300002061
S21400A0706F100020E1FFFF3F10B51446FFF790FF7A
S21400A0801F2C24D91B4A1C4CD2F8C03023F47F4323
S21400A09043F48073C2F8C030C2061CBF20F01F0015
S21400A0A02030CB06134A236818BF21F01F0120F08A
S21400A0B01F0021F01F01C2F8983040F0030041F065
S21400A0C003010133C2F89C00C2F8A0102360BFF35E
S21400A0D04F8FBFF36F8F0522064BC3F894205A6A42
S21400A0E042F480325A62BFF34F8FBFF36F8F002067
S21400A0F010BD00BF00ED00E0E01A0020BFF34F8F58
S21400A1000549064BCA6802F4E0621343CB60BFF30E
S21400A1104F8F00BFFDE700BF00ED00E00400FA052A
S21400A12008B5FFF7EBFF08BD034B1B78002B14BFE9
S21400A13001200220704700BF141B00200329F8B539
S21400A14098BF124B05460E468CBF00245C5C032865
S21400A15005D8DFE800F002080B0E44F002040C4BB2
S21400A1601F684FB9F8BD44F00804F8E744F020042F
S21400A170F5E744F08004F2E77B681A68144203D0DF
S21400A180314628465B6898473F68EAE7312C03006B
S21400A190101B002038B5104D2B78ABB10F4C237830
S21400A1A01BB100F047FB00232370002000F064FB87
S21400A1B00B4C50B100F06AFB0023012120782B7075
S21400A1C0FFF7BCFF0123237038BD0122054B1A7030
S21400A1D02278054B1A70F7E70D1B0020091B00209C
S21400A1E0001B00200C1B0020201B002010B5FEF7D3
S21400A1F037FB064B04461B781BB1BDE81040FEF744
S21400A20033BBFFF7C7FF2046F7E700BF081B002059
S21400A210002814BF0121FF21074A13780B4413704E
S21400A22008D0064B1B78012B04D9054B1B780BB9BD
S21400A230FFF7B0BF704700BF141B0020001B0020B4
S21400A2400C1B002070B5FEF70BFB114E054633784D
S21400A2508BB900F02DFC044620B12846FEF704FB1F
S21400A260204670BD00F024FD0A4B18600A48FCF733
S21400A2708BFF0A4B1C6000F01FFA00F03BFB084BFC
S21400A28000241860012328463370FEF7EDFAE7E74E
S21400A2900A1B00201C1B0020101B0020241B002073
S21400A2A0041B002000292DE9F34114BF0121FF21E2
S21400A2B0254A00F1FF30135C0B4413543AD0234E6A
S21400A2C03278012A36D9FFF72FFF0128044634D802
S21400A2D01F4FFEF7C5FA3B781BB31E4D2B781BB9F4
S21400A2E001222A701C4A1370DFF8708098F800303C
S21400A2F033B1019000F09EFA0023019888F80030F0
S21400A300FEF7B2FA012000F0B7FAFEF7A9FA2B78AA
S21400A3102BB1019000F0BAFA002301982B700023AD
S21400A3203B70FEF7A1FA3078A04203D02146FFF733
S21400A33005FF347002B0BDE8F081032AF3D102288D
S21400A340F1D100F0F1FAEEE7141B0020001B00200C
S21400A3500D1B0020081B00200C1B0020091B0020E2
S21400A36010B50446FEF77CFA002C14BF0121FF212D
S21400A370064A13780B44DBB21370B3FA83F3BDE8D6
S21400A3801040034A5B091370FEF76EBA171B0020D5
S21400A390161B002068B5FEF763FA094B06461B78C5
S21400A3A0012B04D8FEF760FA0025284668BD054B49
S21400A3B01D6800F0A3FA05443046FEF755FAF4E7A8
S21400A3C0001B0020241B002007B5FEF749FA019069
S21400A3D0FFF7E0FE019803B05DF804EBFEF744BA21
S21400A3E038B541600446FEF73BFA05462146044868
S21400A3F0FCF7CDFE2846BDE83840FEF735BA00BF6C
S21400A400101B0020054B1B685843054B00F57420B5
S21400A41000F23F20B0FBF3F0704700BF1C1B00208B
S21400A42040420F002DE9FF47FEF71AFA0446FCF7F4
S21400A4307BFD002800F08E80654E664F337823B192
S21400A4400020FFF7E5FE00233370FFF76DFE05469C
S21400A450002800F08580851EEDB2012D40F2888030
S21400A460FFF762FE0128804604D95B4B1B780BB9C8
S21400A47000F09EF9594DDFF880912878DFF87CA12E
S21400A48040450AD0002389F800309AF8003013B906
S21400A4904146FFF753FE85F8008099F800303BB13F
S21400A4A02B78022B04D1002389F800301EF0ECFC38
S21400A4B0B8F1010F0FD9DFF8208198F8003053B9B2
S21400A4C0474B1B7823B900F0AFF90122454B1A70B1
S21400A4D0012388F80030287800F0F6F99AF8003062
S21400A4E013B1414B1B782B7000E000BF2046FEF7EF
S21400A4F0BBF9FEF7B5F90446384600F013FBFCF747
S21400A5001EFD8046002899D1334F89F800003B781D
S21400A5109BB1DFF8D0908AF8000099F800301BB1A4
S21400A52000F088F989F80080002000F0A5F90028DE
S21400A53044D000F0ABF900233B70337823B1002001
S21400A540FFF766FE0023337000212878FFF7F6FD3C
S21400A55000232B70204604B0BDE8F047FEF784B910
S21400A5603378002B3FF47CAFFFF752FE357077E769
S21400A570002003A900F058FB054600287FF470AFC2
S21400A5801A4B039A1B689A4205D80120FFF740FE33
S21400A5900123337064E7164BD3F8008000F0AEF961
S21400A5A0039940448842F0D20223091ACDE90053A9
S21400A5B038462B460F4A00F0DDFA51E7012000F03E
S21400A5C083F92046FEF750F9FEF74AF90446ABE752
S21400A5D0181B0020E41A00200D1B0020001B002082
S21400A5E0171B0020091B0020201B0020041B002036
S21400A5F0241B0020EDA10000161B00200C1B0020D1
S21400A60010B5FEF72DF90022044B1C781A70FEF7E1
S21400A6102BF900F041FC2043C0B210BD0B1B0020FC
S21400A62038B50B4D2B788BB10A4C237873B100F0FC
S21400A6302DF9094B01211878FFF780FD0022012330
S21400A640064922700A70064A2B70137038BD00BF88
S21400A650001B00200C1B0020201B00200D1B0020D0
S21400A6600B1B00207047000073B5114E044633786C
S21400A670834212D000238DF8043080B102238DF877
S21400A680053001A8FEF738FA0A4D402054B1FFF70E
S21400A690B9FE2B68181A2860347002B070BD8DF8A9
S21400A6A00500EEE7FFF7AEFE2B681844F3E700BFA1
S21400A6B0840B0020301B002073B5002401A88DF801
S21400A6C00440FEF70FFA20464FF40024FFF7CCFFB5
S21400A6D03149324B0A6F02F007021A60D1F8203176
S21400A6E0D1F8240101F580514C664FF400344C66D5
S21400A6F001F598318969032A00F0070001F002018C
S21400A70041D003F003039C1E63426341022808BF46
S21400A71043F001032248234D037061B31E4A3BB940
S21400A720D2F8003103F00303591E4B424B4103702D
S21400A730D2F8003103F00303022B26D0032B27D0D8
S21400A740012B18D1FCF7E2FCA8B1174B411EDC68C0
S21400A7500023024608461946C4F30B04134E013480
S21400A76004EB8404E4FB060124F0F0FAFFF74AFE4B
S21400A7702B68184428606420FFF744FE2B681844B2
S21400A780286002B070BD0123C0E7FCF7E1FCDBE700
S21400A790FCF7D2FCD8E700BF00800040281B002052
S21400A7A02E1B0020301B002000C0014040420F003E
S21400A7B0FEF73CB9074B1A7852B100221A70064AC7
S21400A7C0136F23F0070343F001031367FCF788BCFD
S21400A7D0704700BF2C1B0020008000400E4B10B5B9
S21400A7E01B7883B1022000F0FDFB60B100F04EFA4A
S21400A7F048B10A4B9A6DD20306D5DB6D9B0703D58D
S21400A8000122074B9A6210BD0124064B1C70FEF70E
S21400A8108BFE034B9C62F6E72E1B002000C0004018
S21400A82000D000402D1B00200122014B1A707047FB
S21400A8302C1B002038B50C4B1B786BB10B4C2378C7
S21400A8407BB90B4B0B4D9A6D12F4803F05D0DB6D38
S21400A8509B0702D50123AB6238BDFEF765FE0123D8
S21400A860AB6200232370F7E72E1B00202D1B002071
S21400A87000C0004000D00040034B1B780BB1FEF731
S21400A880BDBE0120704700BF2E1B002008B5FEF796
S21400A890CFF8094A0949136F096823F007030B43E9
S21400A8A01367074B1B7813B10122064B9A62BDE86B
S21400A8B00840FCF715BC00BF00800040281B0020A5
S21400A8C02E1B002000E0004002280AD003280BD0F0
S21400A8D001280CD1064A136923F00403136130BF24
S21400A8E070470020FEF75EB80020FEF77FB870477E
S21400A8F000ED00E04FF4C870FFF784BD08B5054BC7
S21400A900187818B1FEF756FE00EBD000024B1B6815
S21400A910184408BD2E1B0020301B00200122014BCE
S21400A9201A7070472E1B0020704700230B7070476C
S21400A93010B500F0FFFA0A4C0A4B19682368C31AD0
S21400A94001B10BB9206010BD4A699A423ABF9B1A02
S21400A9500022D21A4A6128BF00238968F0E700BFA8
S21400A960381B00204C1B0020C38870B504460D46DB
S21400A9703BB9FFF70FFD8542064602D2FFF724FDDE
S21400A98035460F4965610B68ABB90C60A36011E0F2
S21400A990AD1A9A68184665612AB113465A69AA42E2
S21400A9A0F6D950B11A4613468460A36013B15969AC
S21400A9B0491B596170BD0020F0E70C60F5E700BF49
S21400A9C04C1B002038B50F4B0F4D1C682B6802201F
S21400A9D05B691C4400F0E2FA204600F0B3FA00235C
S21400A9E00A492A680B70D088800702D501230B70AD
S21400A9F038BD9268002AFBD050690344012BF2D977
S21400AA00F6E700BF381B00204C1B0020401B002030
S21400AA1070B516469DF81420C0E903360271049AF4
S21400AA20BDF8183002600022C380826004460D46DE
S21400AA3000F080FA3044A0613DB9E368656113B167
S21400AA4020462168984796B13546FDF710FF064622
S21400AA50FFF76EFF29462046FFF786FF054B1B686B
S21400AA60A34201D1FFF7AEFF3046FDF706FF0020F8
S21400AA7070BD00BF4C1B002000220C490B687BB148
S21400AA8083420AD183687AB1936083681BB15A699E
S21400AA9041690A445A61002070471A469B68EEE7EF
S21400AAA00028EFD0022070470B60EEE74C1B00201A
S21400AAB070B5FDF7DCFE144E05463478FCB9134B32
S21400AAC01C60134B1C60134B1C8000F0F1F9012036
S21400AAD000F064FA00F0B0FA0F4B0246186020B996
S21400AAE02846FDF7CAFE232070BD234640F2E73114
S21400AAF00A4824F02BF90A4B1860012333702846C5
S21400AB00FDF7BBFE0020EFE7341B00204C1B0020A7
S21400AB10381B0020421B0020481B002018FCFFFFAB
S21400AB203C1B00202DE9F0410546F8B1FDF79FFEDD
S21400AB300F4F0646FFF7FCFE2846D7F80080FFF7C3
S21400AB409BFF044628B13046FDF797FE2046BDE839
S21400AB50F081A8453B6803D123B1FFF733FFF2E746
S21400AB60002BF0D1022000F025FAECE72224EDE7D6
S21400AB704C1B002070B586B015461E46044605914F
S21400AB8080B1FFF7CFFFBDF82C30002202939DF86E
S21400AB9028302046CDE9006305992B46FFF738FF9D
S21400ABA006B070BD2220FBE738B50C46054698B1C6
S21400ABB091B100230B70FDF75AFE0121074B1B686D
S21400ABC00BB122781AB1FDF758FE002038BDAB4213
S21400ABD014BF9B682170F3E72220F7E74C1B002088
S21400ABE0F0B51F46002387B00D46164604468DF87E
S21400ABF01730A0B10DF11701FFF7D6FF9DF817200B
S21400AC007AB9BDF83430294602939DF83030204694
S21400AC10CDE900733346FFF7FBFE07B0F0BD2220F8
S21400AC20FBE70320F9E700002DE9F04107468846D8
S21400AC30FDF71DFE00260546124B1C6824B9284663
S21400AC40FDF71BFE1B2016E063691E44E388BB422B
S21400AC5015D100F06FF90C4C2368C01AB0420CD224
S21400AC6000F068F922683244121A2846C8F8002014
S21400AC70FDF703FE0020BDE8F0810022F5E7A4689A
S21400AC80DCE700BF4C1B0020381B0020014B187867
S21400AC90704700BF401B002038B5FDF7E8FD0546AD
S21400ACA000F048F904462846FDF7E7FD204638BD83
S21400ACB0014B1868704700BF481B0020044B1B68F8
S21400ACC058434FF47A73B0FBF3F00130704700BF7F
S21400ACD0481B0020012300B58BB08DF80B30FFF722
S21400ACE0EDFF00230146CDE90033074A0DF10B03C3
S21400ACF003A8FFF775FF18B99DF80B30002BFBD1A2
S21400AD000BB05DF804FB00BF2BA900000A4B10B582
S21400AD101B680C4683420CD3084B4FF47A721968B2
S21400AD200023A0FB010124F011F801302060002070
S21400AD3010BD2120FCE700BF3C1B0020481B002064
S21400AD400F4B10B51A689AB14FF47A71531E13421E
S21400AD50A0FB01010ED1B2FA82F2C2F11F04531C0D
S21400AD60D243E04001FA03F3184321FA02F2024309
S21400AD70104610BD002323F0E9FF0246F8E700BFA7
S21400AD80481B0020C2072DE9F34704460BD53F4A6F
S21400AD90138801339BB21380FFF7CAFD3C4B1B6838
S21400ADA00BB1FFF70FFEA3076DD5FDF760FD00267C
S21400ADB005463746FFF7BCFDB146DFF8D480D8F825
S21400ADC000400CB163698BB10022324B012F1A7020
S21400ADD002D1022E08BF1F70002C44D0FFF7F2FDF0
S21400ADE0284602B0BDE8F047FDF747BD23461A796E
S21400ADF02179914288BF1C469B6813B15A69002A84
S21400AE00F5D02846FDF739FD256985B300F092F8A0
S21400AE10A269861AF317B54279EB030328DA236989
S21400AE201344A3610123226982B17BB9A91B019156
S21400AE30FDF71DFD824601992046FFF795FDA369A3
S21400AE40226950461344A361FDF717FDE368E688C0
S21400AE50013713B1204621689847FDF708FD0546DF
S21400AE60FFF766FDABE7022000F0A4F8B8E72E4631
S21400AE70FDF7FDFC82462046FFF7FEFD5046FDF737
S21400AE80FCFC0023CFE702B0BDE8F087421B0020A1
S21400AE904C1B0020441B002010B5FDF7E8FC034BBC
S21400AEA01C78FDF7EAFC204610BD00BF441B0020BE
S21400AEB01FB500241C4B012118689A880290D3F80D
S21400AEC006009B7A00903E20ADF80C208DF80430EA
S21400AED0FCF760FF02A88DF808408DF80C40FDF7DF
S21400AEE0B9FF694601208DF80040FDF777FF4FF067
S21400AEF0904240F2FF31936923F47F7323F00303FB
S21400AF0093610A4B5961936A13F00803FBD11362ED
S21400AF100120FDF77DFF4FF48052054BC3F88021DA
S21400AF201A6004B010BD00BF352C03000020004896
S21400AF3000E100E04FF090439A6A1207FCD4186ACA
S21400AF40704700004FF09042936A1907FCD4136ACA
S21400AF50116C5269520604D4CA1A032A01D89942BF
S21400AF600ED1C21A022A98BFD81CB0F1FF3F38BFD4
S21400AF7001384FF0904318649A6942F040029A6193
S21400AF80054A13783BB14FF09041CB6B43F0020378
S21400AF90CB63002313707047850B002082074FF0A9
S21400AFA0904200F00103916948BF43F040030B4311
S21400AFB093617047820700F001030AD50121084A11
S21400AFC043F0400311704FF09041CA6B22F0030229
S21400AFD0CA634FF090418A6922EA03038B61704787
S21400AFE0850B00204FF0904301285B6904D00228AF
S21400AFF005D1C3F38010704703F0010070470020AE
S21400B0007047000010B5FDF732FC4FF09043044641
S21400B0105B695A06074A03F0010003F0510348BF74
S21400B02040F002005361FFF7ADFE2046BDE8104039
S21400B030FDF723BC002000483E20FCF7F7BE08B50D
S21400B040FBF7AEFEFBF7E4FEFBF7E9FEFBF7F6FECA
S21400B050BDE80840FBF7FBBE08B5FBF7FAFEFBF7BA
S21400B060F9FEFBF7F8FEBDE80840FBF7F6BE000069
S21400B07010B50446FCF734F84FF47A735C43B0FB23
S21400B080F3F30748B0FBF3F0B4FBF0F0022806D960
S21400B090BDE810400323B0FBF3F000F009B810BD84
S21400B0A040420F000000000000000000000000000A
S21400B0B0013800D0FCE7704738B50446FDF7D0FBF2
S21400B0C00546204624F012F804462846FDF7CCFB39
S21400B0D0204638BD37B504460191FDF7C1FB0199FE
S21400B0E00546204623F0C2FF04462846FDF7BCFB73
S21400B0F0204603B030BD38B50546FDF7B1FB044623
S21400B100284623F0FBFF2046BDE83840FDF7ACBBE1
S21400B1100A4619B1024B00211B681847704700BF4A
S21400B120880B002000F4E040B0F5805F04D0A0F566
S21400B130005358425841704701207047B0F5105FE1
S21400B1400DD009D8B0F5885F10D0B0F5905F0DD05F
S21400B15041F20103984209D06FF08500704721F054
S21400B1604003802B02D0B1F5807F06D111F0070F87
S21400B17014BF6FF08600002070476FF0860070479F
S21400B1800E4B0340B3F1607F06D1B1F5885F14BF64
S21400B1906FF0860000207047B3F1707F0BD101F48A
S21400B1A0E043B3F5005F06D111F4E06F0CBF6FF01B
S21400B1B08600002070476FF0860070470000C07F52
S21400B1C08A422DE9F04180460D4600F01981944BE5
S21400B1D0944802EA030181420BD0934922F0FF040F
S21400B1E08C4206D0914C22F47F7121F00301A142DB
S21400B1F01ED12B4083420BD08B4B25F0FF0199428A
S21400B20006D08A4925F47F7323F003038B420FD1BF
S21400B21015F0FF030CD0864943F000738B4207D12C
S21400B2206A4032F0FF030CBF01200020BDE8F08129
S21400B23005F0FE43B3F1A06F17D102F0FE43B3F161
S21400B240A06F40F0DF8082EA050333F47E1340F0FF
S21400B250D98015F40040E9D0C5F30540C2F3054295
S21400B26090428CBF00200120E0E7B3F1407F40F021
S21400B270B48002F0FE43B3F1407F40F0C38082EA20
S21400B280050333F47E1640F0BD8041462846FFF79E
S21400B29077FF002840F0B680664C12F47C1704EA6C
S21400B2A002043AD0B4F1607FC2F305477BD1D3B233
S21400B2B043F0007303F17E410139022977D903F187
S21400B2C07E410439012974D95B498B4275D001311E
S21400B2D08B4274D001318B4273D001318B426AD0DD
S21400B2E001318B4269D001318B4268D003318B42E9
S21400B2F063D001318B4262D001318B4261D0013183
S21400B3008B4208BF402615F47C1FC5F305435AD16F
S21400B310BE4214BF0020012088E7B4F1607F2CD124
S21400B320D3B243F0007303F17E41013902296BD991
S21400B33003F17E410439012968D93F498B4269D01F
S21400B34001318B4268D001318B4267D001318B428C
S21400B3505ED001318B425DD001318B425CD003312F
S21400B3608B4257D001318B4256D001318B4255D09B
S21400B37001318B4208BF402799E7B4F1707FC2D1F4
S21400B38008F4E043B3F5005F03D10127C8F30223B6
S21400B3909F4008F4E043B3F5005FB4D10126C8F33C
S21400B3A002239E40AFE7B4F1707FACD1F1E71026E0
S21400B3B0A9E71426A7E74026A5E71C26A3E720262C
S21400B3C0A1E730269FE712F47C1F01D1B34217D0C5
S21400B3D02A047FF52BAFBB4243E7B3F1106F11D1C0
S21400B3E025F01F6323F4702363B902F0FE43B3F124
S21400B3F0106F07D11148104040F01060A84288E74F
S21400B400012013E7002011E7102750E714274EE726
S21400B41040274CE71C274AE7202748E7302746E71F
S21400B42000FEFFFF000200060009000600040006FA
S21400B430FF0000020000C07F080000020000FFF6C8
S21400B44043680A461B0A10B403D05DF8044B00F0AC
S21400B450AFBE4388B3B1018801F4E040B0F5805F29
S21400B46002D0B0F5005F02D10733DB1009E047F2E7
S21400B470010081420AD15B080133DB1003EBC303F2
S21400B4803B33136000205DF8044B704744F2010024
S21400B490814202D1DB081033F3E747F20200814213
S21400B4A004D1DB0803EB43035A33EAE744F2020015
S21400B4B0814204D1DB0803EB43034A33E1E721F082
S21400B4C0FF01B1F5E24FCFD0B1F5824F04D107337B
S21400B4D0DB105B000133D4E76FF08500D3E77FB560
S21400B4E000F0FE46B6F1106F0D4603D06FF08500F3
S21400B4F004B070BD20F01F6424F47024002CF5D135
S21400B5000A9C0294099C0194089C009400F0A3FFF6
S21400B51010F1860FECD16B681B0AE9D1E6E7000054
S21400B5202DE9F843884617461C4601F069F805469B
S21400B53000283FD1D8F80060B6F8009009F4E04340
S21400B540B3F5804FF36808BF27F0010737EA030317
S21400B55028D17CB3224A24F4FF7323F001039342DC
S21400B5600BD0204B24F0FF029A4206D01E4A24F449
S21400B5707F7323F0030393421FD114F0FF0304D01C
S21400B5801A4A43F0007393421ED022464846316959
S21400B590FFF716FE074668B9224648467169FFF768
S21400B5A00FFED0B96FF0840500233046C8F800308F
S21400B5B001F066F82846BDE8F88304F0FE43B3F1D0
S21400B5C0407F04D12304E0D56FF08605ECE7B3F1A5
S21400B5D0A06FF7D0054B9C42D6E73D46EAE700BF92
S21400B5E0000200060009000600040006FF00000234
S21400B5F038B5037904460D4633B9A36820462B6058
S21400B60001F03EF838B938BDD0E9081201F0FCF870
S21400B6100028F2D0F7E700232B60F4E700232DE99B
S21400B620F341D0E9016804460F46304611461360E0
S21400B63001F030F8054688B9304601F02DF8054689
S21400B64060B9F6B276B9B8F1000F05D1E36823F415
S21400B650FE4323F0030363B16FF08605284602B06D
S21400B660BDE8F0810146A06800F01EFF0028EDD17D
S21400B670F2E74FF6F87362889A421CD8238B23F0C1
S21400B6800103002BE8D1394601A800F077FF0546F4
S21400B6900028E3D10FCC3F683E460FC694E807006B
S21400B6A03B7986E807000BB9019BBB603B8B23F018
S21400B6B001033B83D2E76FF08505CFE770B5046AD8
S21400B6C005460E463CB90120FFF704FD286228B166
S21400B6D020466E6270BD6FF08A00FBE76FF08C004C
S21400B6E0F8E773B50E46114605460192FFF7E6FFEA
S21400B6F0044620B93146019A286A23F017FD2046F1
S21400B70002B070BD2DE9F041089E88461F460488A9
S21400B71022B96FF085042046BDE8F0812046FFF789
S21400B72001FD0028F5D033680BB9D3003360B2F1C1
S21400B730005FEED24FF6F87331689942E9D820469A
S21400B740FFF7FCFC04460028E5D1CD1D0699EB0862
S21400B750B1EBD50F0BD393420CD14146384623F0BC
S21400B760E5FC3368079A0733DB081360D3E76FF00E
S21400B7708904D0E76FF08604CDE710B50446006A6A
S21400B78010B1616AFFF7C4FC206AFFF7B4FC002022
S21400B790C4E9080010BD38B50446FFF7EEFFE369BC
S21400B7A02822012B0CBF05466FF096050021204687
S21400B7B023F0E3FC284638BD13B5044660B101A962
S21400B7C000F01EFF044638B90198C369012B06D95C
S21400B7D000F056FF6FF08304204602B010BD0379D8
S21400B7E01BB1806800F065FF04460198FFF7D3FFA1
S21400B7F0002C08BF0446EFE773B5044608460E461D
S21400B80000F0A8FC002320461A4601A9FFF788FE90
S21400B81070B93446019D0FCD0FC495E8070084E843
S21400B8200700338B019803F00103338300F028FFF1
S21400B83002B070BD70B5144602881D461046049EC0
S21400B840FFF770FC50B944F2010322F440509842CE
S21400B85004D002F44F42B2F5824F0ED1B4420FD854
S21400B8602246284623F062FC0021321B281923F0CA
S21400B87084FC0020059B1C6070BD6FF08500FBE714
S21400B8806FF08900F8E72DE9F04188461F46164616
S21400B8908CB022B3002301223B6002A9FFF740FED2
S21400B8A0D0B9DDF808C003AC6546CDE90A000FCD77
S21400B8B00FC495E8070084E80700CDE90067434613
S21400B8C0DCE9081203A800F00AFD0446029800F01E
