:10000000001000206D0400006B0400006B04000071
:100010006B0400006B0400006B0400006B04000024
:100020006B0400006B0400006B0400006B04000014
:100030006B0400006B0400006B0400006B04000004
:100040006B0400006B0400006B0400006B040000F4
:100050006B0400006B0400006B0400006B040000E4
:100060006B0400006B0400006B0400006B040000D4
:10007000FD2800006B0400006B040000F903000081
:10008000050400006B0400006B0400006B0400001A
:100090006B0400006B0400006B0400006B040000A4
:1000A0006B0400006B0400006B0400006B04000094
:1000B0006B0400006B0400006B0400006B04000084
:1000C0006B0400006B0400006B0400006B04000074
:1000D0006B0400006B0400006B0400006B04000064
:1000E0006B0400006B0400006B0400006B04000054
:1000F0006B0400006B0400006B0400006B04000044
:100100006B0400006B0400006B0400006B04000033
:100110006B0400006B0400006B0400006B04000023
:100120006B0400006B0400006B0400006B04000013
:100130006B0400006B0400006B0400006B04000003
:1001400010B5054C237833B9044B13B1044800E0D3
:1001500000BF0123237010BD8C10002000000000A0
:100160002043000008B5034B1BB10349034800E0DE
:1001700000BF08BD000000009010002020430000D8
:10018000A3F5803A704700BF174B002B08BF134BF5
:100190009D46FFF7F5FF00218B460F461348144A92
:1001A000121A02F0AFFD0E4B002B00D098470D4BFA
:1001B000002B00D098470020002104000D000D48BE
:1001C000002802D00C4800E000BF02F077FD2000BC
:1001D000290000F06CF802F05DFD00BF000008008F
:1001E0000000000000000000001000208C10002023
:1001F0004C110020000000000000000038B502256E
:10020000074C642004F580531D6704F5005402F088
:1002100021FA25676420BDE8384002F01BBA00BF10
:1002200000C0034010B50C4C636F1B070FD5FFF7E0
:10023000E5FF00F0EFF800F0EEF8626F074B0849B9
:100240001868C2F3C002BDE8104001F05CBE022293
:10025000044B1A67EDE700BF00C0034014110020F3
:10026000FC3D000000E0034010B501213A2000F001
:10027000C9FBBDE81040002304220121022001F047
:100280002DBB10B501213A2000F0BCFBBDE81040A9
:10029000032201231146022001F020BB08B5FFF71D
:1002A000E3FFFFF7EEFFBDE8084002F04DB908B5E7
:1002B00002F048FBFFF7F2FF02F051FBFFF7B2FF3D
:1002C000FAE7704708B50321802000F0D1FF032131
:1002D0004FF4806000F0CCFF03214FF4906000F0F9
:1002E000C7FF08214FF4C06000F0C2FF08214FF49F
:1002F000F06000F0BDFF08213E2000F0B9FF0821AA
:100300002D2000F0B5FF002008BD000008B5134BFC
:100310001B68C3F30743012B0ED1114B04205A6E07
:100320004FF480230F49520358BF0F4A4B6601F523
:100330001041086258BF536601F082FD00F091F849
:1003400001F004FD01F024FD01F060FDFFF7BAFFAC
:1003500001F00CFDBDE8084000F07AB80080E00F25
:10036000008000400090004000A0004000F04CB829
:1003700008B502F0E9F800F03DF8BDE8084001F0EA
:1003800013BE704700F048B8704770477047704719
:1003900070B592B0134C0BAD0FCC0FC594E80700AD
:1003A000032385E8070003AE8DF8443007AD04F160
:1003B0000C031C340FCB86E80F0094E80F0085E88F
:1003C0000F00094B29460093084833460BAA01F059
:1003D00033FF044618B17A21054800F0A9F92046F8
:1003E00012B070BD303E0000A8100020FC100020AC
:1003F000003E0000FFF7CCBF014B186801F0D4BFEE
:10040000FC100020FFF7F8BF014800F0C1B800BFA2
:100410006C3E00007047704708B50122074B1A7008
:100420000022074B1A700422064B1A701F22064B3B
:100430001A7001F02FFD054B186008BD0310002055
:1004400018110020041000200510002014110020B5
:1004500008B501213A2000F0D5FABDE80840FFF7C1
:1004600030BF01213A2000F0CDBAFEE708B500F018
:1004700013F8064B064A07498B4201D3FFF784FE67
:1004800052F8040B43F8040BF6E700BF00100020FD
:10049000284300008C100020044B054A9A60D3F8D2
:1004A000882042F47002C3F88820704700ED00E015
:1004B00000000000014B1868704700BF0C100020BE
:1004C000084B1B6F03F00703022B04D0032B05D04E
:1004D000012B05D0FEE7044B18687047034BFBE780
:1004E00003487047008000400C10002010100020CE
:1004F000002D310108B5FFF7E3FF054B1B6FC3F378
:1005000003330133B0FBF3F0024B186008BD00BFAA
:1005100000800040081000200048704700B4C40468
:10052000014B1868704700BF10100020054B186081
:10053000054B1B6F03F00703032B01D1FFF7DABF55
:10054000704700BF1010002000800040002070475E
:1005500000487047002D31014FF4004070474FF4C0
:100560007A707047014B1868704700BF1410002064
:1005700005490A681318054883428CBF4FF0FF32C3
:100580000B601046704700BF18100020008000204C
:10059000D0E900031847000038B50D460446D8B12D
:1005A00001281CD002281CD0032803D10C23EB40C7
:1005B000DB0704D44FF479710B4800F0B9F8302010
:1005C000012142F21003444304F1804401FA05F58D
:1005D00004F57034E55038BD40F2FF13E7E71F2300
:1005E000E5E7FF23E3E700BF843E000038B50D4692
:1005F0000446D8B101281CD002281CD0032803D1FE
:100600000C23EB40DB0704D440F213410B4800F00D
:100610008FF83020012141F21003444304F180445B
:1006200001FA05F504F57034E55038BD40F2FF13CA
:10063000E7E71F23E5E7FF23E3E700BF843E000071
:1006400010B5044601213A2000F0DCF9A3782078A7
:10065000B3FA83F3042261785B0901F03FF90020CB
:1006600010BD034659789B7800780BB9FFF794BF0B
:10067000FFF7BCBF034659789B7800780BB9FFF7AA
:10068000B5BFFFF789BF000038B504784578D4B10D
:10069000012C1BD0022C1BD0032C03D10C23EB40CC
:1006A000DB0704D440F22E410A4800F041F8302222
:1006B0000123544343F2100204F18044AB4004F59B
:1006C0007034A35038BD40F2FF13E8E71F23E6E77C
:1006D000FF23E4E7843E000070B5047805464678C1
:1006E000D4B1012C1BD0022C1BD0032C03D10C2223
:1006F000F240D30704D440F2FE310B4800F018F862
:1007000030235C43094A1359F34003F00100AB78EE
:100710000BB980F0010070BD40F2FF12E8E71F2224
:10072000E6E7FF22E4E700BF843E000010C003407C
:10073000FEE74FF04023D3F88420D206FBD4D3F851
:100740008400C0F38110704738B5124B0546D3F8CA
:1007500020310C4603F00303022B0BD0032B0DD0EA
:10076000012B0FD1FFF7A6FE052305B1286004B1C8
:10077000237038BDFFF7D4FE0323F6E7FFF7E8FE4A
:100780000223F2E7044840F61771FFF7D1FF002378
:100790001846EAE700800040E83E0000F7B5002474
:1007A000114B0194D3F88051074605F00305012D44
:1007B0000E4607D0022D11D041F252010B48FFF72F
:1007C000B7FF04E0214601A8FFF7BEFF0F240FB1D9
:1007D000019B3B6006B1347003B0F0BDFFF7B8FE7B
:1007E0002C460190F3E700BF00800040E83E000087
:1007F00038B5194B0546D3F824310C4603F00703EE
:10080000013B052B20D8DFE803F0030F171B0B1368
:10081000FFF750FE052305B1286004B1237038BDF1
:10082000FFF748FE0623F6E7FFF77AFE0323F2E719
:10083000FFF776FE0423EEE7FFF78AFE0223EAE7DE
:10084000FFF784FE0723E6E7044840F21621FFF78E
:100850006FFF00231846DEE700800040E83E0000FE
:1008600038B5124B0546D3F840310C4603F003036C
:10087000022B0BD0032B0DD0012B0FD1FFF76CFEF9
:10088000092305B1286004B1237038BDFFF76AFE63
:100890000823F6E7FFF763FE0B23F2E7044840F670
:1008A0004571FFF745FF00231846EAE70080004046
:1008B000E83E000038B5154B0546D3F800320C462B
:1008C00003F00703013B032B18D8DFE803F0020A0B
:1008D0000E12FFF741FE092305B1286004B1237011
:1008E00038BDFFF73FFE0823F6E7FFF738FE0B237E
:1008F000F2E7FFF7FFFD0E23800AEDE7044841F21F
:100900000711FFF715FF00231846E5E700800040B8
:10091000E83E000038B5124B0546D3F840320C468D
:1009200003F00303022B0BD0032B0DD0012B0FD1AF
:10093000FFF712FE092305B1286004B1237038BD0A
:10094000FFF710FE0823F6E7FFF709FE0B23F2E797
:10095000044841F29A01FFF7EBFE00231846EAE74C
:1009600000800040E83E000038B5124B0546D3F841
:1009700060310C4603F00303022B0BD0032B0DD088
:10098000012B0FD1FFF7E8FD092305B1286004B161
:10099000237038BDFFF7E6FD0823F6E7FFF7DFFD1C
:1009A0000B23F2E7044840F69271FFF7C1FE0023E3
:1009B0001846EAE700800040E83E000010B40F4C03
:1009C0000B46D4F8204204F00304012C0ED0022C74
:1009D00010D008B1002101600BB100221A704FF451
:1009E000107107485DF8044BFFF7A2BE5DF8044B99
:1009F000FFF7AABE5DF8044BFFF732BF008000404E
:100A0000E83E000070B5460904460D460FD140F29D
:100A100005110D48FFF78CFE334604F01F0485B125
:100A200003F58053012000FA04F41C6070BD012E10
:100A300005D0064B064A022E18BF1346EDE7054BBC
:100A4000EBE703F50053EDE7E83E00006880004067
:100A5000608200406480004010B5B0F5207F34D043
:100A600009D8B0F5007F2AD003D898B1B0F5C07F7F
:100A700010D0002421E0B0F5607FFAD1154BD3F8F7
:100A80008030C3F301149B0617D5032C15D04FF407
:100A9000CE610FE00F4B1C6F230B13F00E0FC4F34E
:100AA00003340AD0032C08D0072C06D00F2C04D016
:100AB0004FF4CC610848FFF73BFE601C10BD054BAE
:100AC000D3F89040C4F30464F7E7024B1C6FC4F3FF
:100AD0008024F2E700800040E83E000030B585B099
:100AE000002380280446029375D02BD8002878D0A4
:100AF000A0F12004A3B2412B32D8412C30D8DFE83A
:100B000004F070737073868686867373903FA76552
:100B10003F7373732F2F2F2F2F2F8B57737373B137
:100B2000AC732F2F2F2F2F2F2F2F2F2F2F2F2F70D3
:100B30002F707070862F2F2F2F2F2F2F2F2F2F2FAB
:100B40002F2F7070B0F5806F61D024D8B0F5007F82
:100B500054D00BD8B0F5807F68D0B0F5C07F40D0BE
:100B600040F2DB114248FFF7E3FD37E0B0F5607F6C
:100B700044D0F5D8B0F5207F36D0B0F5407FEFD126
:100B8000FFF7B8FC04464FF42070FFF765FFB4FB95
:100B9000F0F0400821E0B0F5C06F59D00DD8B0F5A5
:100BA000A06F39D0B0F5B06F3BD0B0F5906FD7D112
:100BB000002102A8FFF71CFE10E0B0F5E06F4CD05A
:100BC000B0F5F06F4ED0B0F5D06FC9D1002102A8BA
:100BD000FFF770FE02E0FFF773FC0290029805B089
:100BE00030BDFFF787FCF8E7FFF784FC04464FF4BD
:100BF0002070FFF731FFB4FBF0F0EEE7FFF760FC89
:100C000005462046FFF728FFB5FBF0F0E5E7002199
:100C100002A8FFF799FDE1E7002102A8FFF7CEFE49
:100C2000DCE7002102A8FFF7B9FDD7E703934FF0F7
:100C3000E0231B695B0705D5FFF75CFC0390039B72
:100C40000293CBE70DF1070103A8FFF709FEF6E7D2
:100C5000002102A8FFF704FEC0E7002102A8FFF769
:100C600059FEBBE7002102A8FFF77EFEB6E700BFF2
:100C7000E83E000008B58020FFF730FF034B9842A4
:100C80009EBF4FF48032024B1A6708BD005A6202C1
:100C900000A0004070B54FF400320F4B06469A6634
:100CA00000200D46FFF7D8FE41F671320B4B704322
:100CB000DC690B49DA639A68884204F4803422F4D0
:100CC000401203D9012D18BF42F480129A600CB172
:100CD0000022DA6370BD00BF0090004000000340B6
:100CE000005A620208B5FFF717FCBDE80840002172
:100CF000FFF7D0BF07B50023B0F5807F8DF8023035
:100D000000F0888028D8382800F0A8800CD8243833
:100D100083B2092B10D809280ED8DFE800F07575CA
:100D200075750D0D6B0D378F52286DD007D83D2886
:100D30003CD03E2800F0988040F2A37156E0802815
:100D4000FAD14C4B1B6F03F00703013B032B4BD82D
:100D5000DFE803F048444280B0F5D06F6ED01BD876
:100D6000B0F5A06F7AD00BD8B0F5806F4CD0B0F54D
:100D7000906FE1D100200DF10201FFF739FD3EE057
:100D8000B0F5B06F36D0B0F5C06FD5D100200DF101
:100D90000201FFF765FD32E0B0F5006FEAD00BD835
:100DA000B0F5E06F60D0B0F5F06FC5D100200DF167
:100DB0000201FFF7D9FD22E0B0F5086FBCD12D4B41
:100DC000D3F8003103F00303022B3DD0032B3FD0B7
:100DD000012B41D1FFF7A4FB032300E005238DF88D
:100DE00002300CE00223FAE740F20B712248FFF7D1
:100DF0009FFC04E000200DF10201FFF7CFFC9DF8FD
:100E0000020003B05DF804FB00200DF10201FFF7C2
:100E10009BFCF4E701934FF0E0231B695B0707D5C8
:100E2000FFF768FB0C238DF803309DF80330D6E7FD
:100E30000DF1030101A8FFF713FDF6E700200DF106
:100E40000201FFF737FDDAE7FFF78CFB0823C6E75F
:100E5000FFF77CFB0723C2E70123C0E700200DF169
:100E60000201FFF7ABFDCAE700200DF10201FFF719
:100E700051FDC4E700800040E83E000070B50378F3
:100E800004460F2B04D940F601416B48FFF750FC94
:100E900063780F2B04D940F604416748FFF748FCFC
:100EA000A3780F2B04D940F607416348FFF740FCB5
:100EB000E3780F2B04D940F60A415F48FFF738FC6E
:100EC00023790F2B04D940F60D415B48FFF730FC26
:100ED00063793F2B04D94FF441615748FFF728FC51
:100EE000A3793F2B04D940F613415348FFF720FC68
:100EF000E379032B04D940F616414F48FFF718FC5D
:100F0000237A032B04D940F619414B48FFF710FC14
:100F1000637B012B04D940F61C414748FFF708FCCE
:100F20008020FFF7E7FE03287CD04FF40022434BDC
:100F300043495A6645F60E030222C1F88030414B00
:100F40009A62012203F580539A628A6D12F480320C
:100F5000FBD1637820781B0543EA0063A079257CE8
:100F60000343E078667C43EA0043207943EA003398
:100F7000607943EA80130B618B69E07A03F00043E8
:100F80000343E07943EA8063207A43EA0063607AAE
:100F900043EA0043A07A43EA00238B61637B096A3A
:100FA000002B18BF0822207B21F00D0143EA01032A
:100FB00043EA800342EA0302214B1A62A27B4FEA12
:100FC000421230D1986AE17B20F0330042EA0112EC
:100FD000024342F001029A621B4A996D32EA010112
:100FE000FBD1022217498A621A659A6D5200FCD41D
:100FF0001869A27820F4700040EA02504FF00042D5
:101000001861104B9A611DB9022203F580539A6250
:1010100016B901220D4B9A62A37C1BB1084B0C4AF6
:10102000C3F8802070BD996A21F0330131430A432F
:1010300042EA4502EFE700BFE83E000000900040B2
:1010400000C0004000D000400300014000E000402C
:10105000F1A7FFFF014B93F9000070471911002021
:1010600010B583780446072B04D940F685512A48E9
:10107000FFF75EFBE378032B04D940F6875126483F
:10108000FFF756FB2378032B04D940F689512248F9
:10109000FFF74EFB94F90130002B04DA40F68B5138
:1010A0001D48FFF745FB4FF480011C4A63785166E9
:1010B0004FF4D151022002F5B832516218494F2B3A
:1010C00048604FF0010028BF4F2301F58051486070
:1010D0001169C903FCD4217843EA01235361E37801
:1010E000A1781B0143EA012361790B43217943EA8B
:1010F00041039360E379A1791B0143EA4113617ACB
:101100000B43217A43EA41035360A37A13B16FF48E
:10111000D153536210BD00BFE83E00000090004074
:1011200000100240014B1880704700BF1C100020C7
:101130000029CCBF01210021FFF7ACBD10B5B0F5EF
:10114000207F65D00ED8B0F5007F4FD003D800B314
:10115000B0F5C07F1DD040F2E161BDE810403448D9
:10116000FFF7E6BAB0F5607FF5D14C1E012C06D929
:10117000042904D040F2C7612D48FFF7D9FA2D4A5F
:10118000D2F8803023F0300343EA0413C2F88030F1
:1011900010BD102901F1FF3404D8274B23FA01F1C7
:1011A000CB0704D440F29E612148FFF7C1FAFFF754
:1011B00099FD00F045F84FF48031204B1D4A196726
:1011C000136F23F4704343EA04331367FFF792F974
:1011D0000446FFF7AEFAC0F102012046FFF7A8FF70
:1011E00000F034F8BDE81040FFF744BD4C1E1F2C42
:1011F00004D940F2D5610E48FFF79AFA0D4BD3F8A7
:10120000901021F0F85141EA0461C3F89010BFE753
:101210004C1E012C04D940F2DB610548FFF788FA27
:10122000044B196F21F4806141EA84211967AFE70B
:10123000E83E0000008000401601010000900040E0
:1012400002214FF42070FFF779BF000008B54FF47A
:10125000C070FFF743FCBDE80840044988428CBFDA
:10126000022101214FF42070FFF768BF80F0FA02DD
:1012700070B5B0F5807F0C4600F00C812CD8382872
:1012800000F0A48111D8243883B2092B16D809287C
:1012900014D8DFE810F0E400E400E400E4001300F8
:1012A0001300CF00130049005301522800F0D780EB
:1012B00007D83D2853D03E2800F09F8140F6662194
:1012C00022E18028FAD18B1E052B00F2A880DFE8EE
:1012D00003F0A394A6AEA667B0F5D06F00F02E8100
:1012E00032D8B0F5A06F00F0718116D8B0F5806FDC
:1012F00000F0B580B0F5906FE0D1023CE4B2052C6F
:1013000000F21581A84B195DA84AD2F8243123F0C8
:1013100007030B43C2F824316EE0B0F5B06F00F064
:101320008980B0F5C06FC9D1083CE4B2032C00F24B
:10133000F0809F4B195D9D4AD2F8403123F00303A2
:101340000B43C2F8403157E0B0F5006FD5D016D846
:10135000B0F5E06F00F05181B0F5F06FAED1083C10
:10136000E4B2032C00F2DC80924B195D8F4AD2F874
:10137000603123F003030B43C2F860313CE0B0F569
:10138000086F9BD14C1E072C00F20481DFE814F09B
:101390000701020109010201020102010001F60038
:1013A000002504260121022000F056F9FFF79AFCDF
:1013B000FFF746FF4FF480317F4B7C4A1967136F6C
:1013C00023F0070333431367FFF794F80646FFF74C
:1013D000B0F9C0F102013046FFF7AAFE012100205A
:1013E00000F092F9FFF732FFFFF744FC25B9032C18
:1013F00002D10122714B9A6270BD4FF400226E4BF4
:1014000003265A66012203F540539D6A03F5805373
:10141000C5F340059A62C5E700250126C2E700250D
:1014200040F2DD716648FFF783F92E46BAE70025E2
:101430000226B7E7022C07D00F2C0ED040F6210170
:101440005F48FFF775F90024584AD2F8803123F03D
:1014500003031C43C2F88041CEE70124F4E7032CC8
:1014600012D0052C12D0022C12D040F65201544852
:10147000FFF75EF900224D49D1F8203123F0030334
:101480001343C1F82031B7E70222F4E70122F2E763
:101490000322F0E7A1F10804082C33D8DFE804F0B8
:1014A000050532051C32323205004FF480323F4BC5
:1014B0004449586E03F580535A660B6A43F00103A2
:1014C0000B62C1035CBF404B5A664FF0E0221369C8
:1014D00023F0040313618FE74FF48032334B394913
:1014E000586E03F580535A660B6A23F001030B62B2
:1014F000C3035CBF344B5A664FF0E022136943F0DC
:101500000403E7E740F67A01BDE870402C48FFF796
:101510000FB940F696012A48FFF70AF900210AE7B9
:1015200040F6B1012648FFF703F900211EE740F617
:10153000D6012348FFF7FCF80021E5E6083C062C1D
:1015400013D8DFE804F00419190E12121000022259
:101550001649D1F8003223F007031343C1F80032D3
:101560004AE70322F4E70422F2E740F6F6011448C2
:10157000FFF7DEF80022EBE70122E9E702220B4940
:10158000D1F8003123F003031343C1F8003133E7EE
:101590000322F4E740F632110948FFF7C9F80022A8
:1015A000EDE70122EBE700BF4F3F00000080004065
:1015B0004B3F00004B3F00000090004000E0004027
:1015C000E83E000000C0074000A000400F2C10D0F3
:1015D000102C10D040F677111348FFF7A9F800221D
:1015E0001249D1F8203223F003031343C1F820320B
:1015F00002E70122F4E70222F2E7083CE4B2032CFE
:101600000AD80B4B195D094AD2F8403223F0030384
:101610000B43C2F84032EFE640F6CB110248FFF729
:1016200087F80021EFE700BFE83E0000008000409F
:101630004B3F0000EFF3108072B6704700B962B6FE
:101640007047EFF31180302383F31188704780F3E4
:1016500011887047704700002DE9F0414FF040239A
:101660000446D3F88420D006FBD4D3F88430C3F3E7
:1016700081139C423FD0FEF723FF012C05460BD17E
:101680001E4B984204D940F216611D48FFF750F8EE
:1016900001212846FFF74CFDFFF7CCFF4FF0007209
:1016A000184B07465A662046FFF7D4FF4FF4806375
:1016B0004FF04026621E9340DFF844803367736E1C
:1016C0009A0103D4D6F884309B060AD53846FFF732
:1016D000B5FF022C0FD12846BDE8F0410021FFF7ED
:1016E00027BDD6F884309906E9D540F224614046FA
:1016F000FFF71EF8E3E7BDE8F08100BF005A620281
:10170000553F00000060004007B518B90191FEF791
:10171000D7FE0199064B1B7843B1064B984205D87A
:10172000012003B05DF804EBFFF796BF0220F8E755
:101730001A110020005A62024FF04022D36E017944
:1017400023F030030B43D3667047000010B54FF011
:10175000004201244AF6CD31144B5A66144A03F56F
:101760000B2354605A6C1964224078B9996811F0BF
:10177000010F104903D08C60D86AC007FCD5012343
:101780004B6012B10C4B0D4A1A6410BDD96A09079F
:10179000FCD42021074B59620121A3F580539960A5
:1017A00005494B6A9B06FCD5EBE700BF0090004063
:1017B0000050094000600940004009403254FFFFDA
:1017C00038B54FF00042184B184C5A66012203F509
:1017D0000C235A604AF6CD33656C23644378154078
:1017E000934013434FF04022D363A368827823F0E1
:1017F000740343EA0213C278002A14BF04220022B1
:101800001343A3600279837943EA02232361427977
:10181000C37943EA022363610078FFF797FF0DB1B4
:10182000034B2364012038BD009000400040094074
:101830003254FFFF38B50D460446D8B101281CD0FC
:1018400002281CD0032803D10C23EB40DB0704D46F
:1018500040F213410B48FEF76BFF3020012141F2AB
:101860001003444304F1804401FA05F504F5703493
:10187000E55038BD40F2FF13E7E71F23E5E7FF23FC
:10188000E3E700BF843E000038B50D460446D8B1FA
:1018900001281CD002281CD0032803D10C23EB40C4
:1018A000DB0704D44FF479710B48FEF741FF302079
:1018B000012142F21003444304F1804401FA05F58A
:1018C00004F57034E55038BD40F2FF13E7E71F23FD
:1018D000E5E7FF23E3E700BF843E00002DE9F04188
:1018E0000D4616461F46804678B3012830D00228A0
:1018F00030D0032803D10C23EB40DB0704D440F2A3
:101900001D112048FEF714FF26B1294640461FB39B
:10191000FFF790FF302404FB08F4072D04F1804406
:1019200004F570341BD80F216368AA00914023EAA4
:10193000010306FA02F2134363600EBB29464046D8
:10194000D7B1BDE8F041FFF775BF40F2FF13D3E711
:101950001F23D1E7FF23CFE7FFF796FFDAE70F2139
:10196000A5F10803E2689B00994022EA010206FA09
:1019700003F31343E360E0E7BDE8F041FFF784BF02
:10198000BDE8F081B83F00004FF090435A6812B1B3
:101990009A6A002AFAD1704738B5022805460C46E3
:1019A00003D94C210C48FEF7C3FEE3786278217816
:1019B0005B0143EA820322790B4343EA02130C22C0
:1019C0006A4302F190421363012902BFA278034BDC
:1019D00043F8252038BD00BF1C400000E8800340CC
:1019E00008B54FF090435A6802B960B15B680BB11B
:1019F000FFF7CAFF4FF0904130B10120074B58600C
:101A0000FFF7C2FFC86008BDFFF7BEFF0223CB602F
:101A1000FFF7BAFF0122024B5A60F4E700100048BA
:101A20000020004870B54FF090435B680BB1FFF7A2
:101A3000ABFF0121104B4578596083780679002B64
:101A4000C37814BF02240024002B14BF04220022F8
:101A50004379DB0043EA06132B43234313434FF040
:101A600090429360054B59600378002B14BF0B46DE
:101A70000223D36070BD00BF002000480010004862
:101A80002DE9F04180460E461F46154622B94FF417
:101A9000A1713148FEF74CFE26B94FF42070FFF7D4
:101AA0001DF80646402F2AD009D8A7B1202F1CD0F8
:101AB00040F28911BDE8F0412748FEF739BE602F9A
:101AC000F6D1B5EB960F04D940F283112248FEF708
:101AD0002FFE04241DE0B5EB161F04D94FF4BA7194
:101AE0001D48FEF725FE102413E0B5EBD60F04D9F0
:101AF00040F279111848FEF71BFE082409E006247D
:101B0000B6FBF4F3AB4204D24FF4BF711248FEF7B8
:101B10000FFE6C43610801EB4616B6FBF4F40F4E62
:101B2000203CB6EBC40F4FEAC40504D24FF4D07189
:101B30000948FEF7FDFDD8F80830354023F0600372
:101B4000C8F80830D8F808301F43C8F80870C8F83B
:101B50001C50BDE8F08100BF80400000F8FF7F000E
:101B600038B50E4B044698420D4608D003F5804325
:101B7000984204D040F2BE210948FEF7D9FD012267
:101B800004F580535A60EB43934003F00A0363610A
:101B9000656115B904F50054626038BD00C00540A8
:101BA0008040000010B5194B0446984208D003F558
:101BB0008043984204D040F22E411548FEF7B8FD0C
:101BC000012204F580535A6040F6AA6341F20502EF
:101BD000636100230F49A360E365E26004F50052EE
:101BE0002361E361E36491640849A3658C4202D0F8
:101BF0000948844207D18C42236502D0064B9C429F
:101C000001D1002363650123536010BD00C005406E
:101C100080400000FFFF01000000064070B5414B0E
:101C2000044698420D4608D003F58043984204D0FC
:101C300040F2EF213C48FEF77BFD2046FFF7B2FF64
:101C4000012304F580567360AB7C1BB1A36843F09D
:101C50008043A360EB7C5BB1324A2B7D94423FD141
:101C6000A2F51032C2F88C31E36D43F08003E365D6
:101C70002A8A6B7B20461343EA891343E3602B7B5C
:101C8000D5E90112FFF7FCFE6B7D1BB1A36843F49D
:101C90008033A360AB7DEA7D1B07120502F4E002EE
:101CA00003F0E0431343A365297E1E4A8B1E012BDC
:101CB0001E4B1FD894421BD002F5804294420CBFA9
:101CC00001224FF0FF3203EB4213022041F21C626B
:101CD0000329985020D10423F3652B78636170BDEC
:101CE000134A944204BFA2F52032C2F89C31BBE7EC
:101CF0000022E8E794420DD00D4A94420CBF012225
:101D00004FF0FF3203EB4213022042F21C62012922
:101D10009850DFE70022F5E7042204F50053DA6566
:101D2000DBE700BF00C005408040000000C003406A
:101D30000000064083691B06FCD5406AC0B27047AC
:101D400083695B06FCD5C1637047000007B56B462D
:101D5000054A1068516803C36846FFF731FD00204B
:101D600003B05DF804FB00BFE540000013B54FF081
:101D700040220024536F684643F0010353670094E8
:101D80008DF80440FFF7D8FC204602B010BD0000DB
:101D900070B586B001AA1546184B03F1100614461B
:101DA00018685968083303C4B3422246F7D119882A
:101DB0009B782180A370124BD3F84C21120314D4CA
:101DC000D3F85041E4B28DF80E40FFF743F92044B8
:101DD00080F308008DF80D000A48FEF7A7FB28469F
:101DE000FFF74CF8002006B070BD074B1C884FF67B
:101DF000FF739C4208BF8C24E5E700BFED40000064
:101E00000080E00F00F049020001E00F1FB50B4A0F
:101E100001AB1068516803C31189927A19809A70D6
:101E2000192301A88DF80530FFF71AF96420FFF790
:101E300079F9002005B05DF804FB00BF0041000007
:101E400010B56FF0040250210A480B4C12F0800FBD
:101E5000D3B21BBF03F00F03043BA3181B1802F1FE
:101E600001020CBF83F800131976402AEED100203E
:101E700010BD00BF00ED00E000E100E010B5044639
:101E8000FFF7D8FB024B1C60FFF7D8FB002010BD0A
:101E90001C11002010B5FFF7CDFB034B1C68FFF7AA
:101EA000CDFB204610BD00BF1C11002007B530B986
:101EB000CDE90012FFF7EEFFDDE9001230B1436813
:101EC00023B1006803B05DF804EB1847232003B08A
:101ED0005DF804FB30B585B01C4658B9CDE9001259
:101EE000FFF7D8FFDDE9001204B903AC20B92320C5
:101EF00005B030BD03B903AC8568002DF7D023468B
:101F00000068A847F4E70EB477B507AB53F8046B45
:101F100005460193B0B9FFF7BDFF044605463046BC
:101F2000019900F0BBFFAC42064602D02046FFF705
:101F3000A5FF002ED4BF3720002003B0BDE87040BD
:101F400003B07047FFF7A6FF85420446E7D0284656
:101F5000FFF794FFE3E700207047FEE74FF40053DC
:101F600000204B607047012070470020704707B584
:101F7000002001AB0190FFF7ADFF0198002808BFDA
:101F80004FF0FF3003B05DF804FB000010B50020F7
:101F90001446FFF78BFF18B1BF210248FEF7C8FBBC
:101FA000204610BD0B410000034B0222186800239D
:101FB0008068194600F0AEBE2010002080F8201086
:101FC000704790F8200070472DE9F8434FF0000863
:101FD000044617461D46C3F800804E1E2B68BB42C0
:101FE00006D32B68002B0CBF1B200020BDE8F88314
:101FF000FFF727FBD4F81490FFF729FBB9F1000F86
:10200000EFD0A269E368D35C06F8013FE068E369BA
:102010000130984208BF4046E060FFF712FB636959
:10202000013B6361FFF713FB6368204698472B6809
:1020300001332B60D2E770B504460568FFF72AFF2D
:10204000844202D10020FFF719FF95F92130002BBF
:1020500011DB012203F01F015B099B0003F16043C8
:102060008A4003F56143C3F88021C3F88020BFF3A1
:102070004F8FBFF36F8F00232846C4E90033C4E9B4
:102080000433A360AB68BDE87040184770B590F8A2
:10209000203005460C468E189BB1B44213D02378ED
:1020A0000A2B03D10D2128462B68984728462B6818
:1020B00014F8011B9847F0E728462B6814F8011B19
:1020C0009847A642F8D1002070BD0000F8B51F4621
:1020D000536805460C461646002B36D09368002BF5
:1020E00035D024220021204600F00CFE7368194AE6
:1020F000A361B368E361337B276084F82030069BDB
:102100006360079BA36096F9003084F821306A6011
:10211000114A002BAA60114A2C602A61104A6A6198
:10212000104AEA600CDB012203F01F015B099B00EF
:1021300003F160438A4003F56143C3F880211A60CC
:102140002846FFF79BFE0020F8BD2220FCE7212057
:10215000FAE700BF8D200000C91F0000BD1F00006E
:10216000C31F0000372000004269C06982422CBFB3
:10217000002001207047000038B54269C369044659
:102180009A420D4604D34FF4AF710948FEF7D0FAD6
:102190002369A269D5546269236901326261E269E7
:1021A00001339342236104BF0023236138BD00BF84
:1021B0008D410000426AD36C43F00403D36470473E
:1021C00010B50446426A93695B06FCD5002394F877
:1021D0002B101A4694F82A00FFF780FB002394F88E
:1021E0002D101A4694F82C00FFF778FB94F8323043
:1021F00093B1002394F82F101A4694F82E00FFF79D
:102200006DFB94F832303BB1002394F831101A463C
:1022100094F83000FFF762FB606A0021FFF7A0FC32
:10222000208D0021FEF7EEFB002010BD08B5406AAE
:10223000FFF786FD002008BD2DE9FF4101271C4660
:10224000544B0A9D0193544B904600930A46CDE9A6
:1022500002772946514BFFF739FF0646002874D113
:10226000236839466B62A3883A202B85E37985F889
:102270002B30A37985F82A30637A85F82D30237ABC
:1022800085F82C30E37A85F82F30A37A85F82E3044
:10229000637B85F83130237B85F83030FEF7B2FB65
:1022A0003B460422E179A079FFF718FB3B46022266
:1022B000617A207AFFF712FB3946A088FEF7A2FB6D
:1022C00088F8006041462068FFF7A8FC1422A37B31
:1022D0005B0103F1804303F57033C3F81C26E179F9
:1022E000A27942EA0142C3F83426617A227A42EAAC
:1022F0000142C3F82C2685F8326098F81830032B79
:1023000046D8DFE803F01A022640012385F8323070
:10231000002500230222E17AA07AFFF7DFFAE37AB0
:10232000A27AA17B42EA03421D4B49015A50042282
:10233000236803F58053DA6575B920680521C36CFD
:1023400043F00403C364FFF70BFC304604B0BDE860
:10235000F081022385F8323000230422617B207B48
:10236000FFF7BCFA022541F21C61A27B0D4B03EB87
:1023700042104550607B217BB13241EA004103EBC2
:1023800042139960D9E7032385F832300125C0E76D
:102390002326DAE7C1210000B52100002D2200002C
:1023A00024D6034000C0034010B5436A04469B692D
:1023B0001B0610D5FFF7D8FE40B1606AFFF7BAFCE4
:1023C00001462046BDE81040FFF7D6BE626AD36CD6
:1023D00023F00403D36410BD00230B70704700008A
:1023E00030B50F4C41612368ABB92060836011E0C8
:1023F000891A9A681D4641612AB113465A698A4270
:10240000F6D955B11A461346A860836013B15A69CC
:10241000511A596130BD0025F0E72060F5E700BF93
:102420003811002010B500F011FA0A4C0A4B196857
:102430002368C31A01B10BB9206010BD4A699A42E2
:102440003ABF9B1A0022D21A4A6128BF002389682A
:10245000F0E700BF241100203811002038B50F4BE1
:102460000F4D1C682B6802205B691C4400F022FAA7
:10247000204600F0F3F900230A492A680B70D0883F
:10248000800702D501230B7038BD9268002AFBD06B
:1024900050690344012BF2D9F6E700BF2411002054
:1024A000381100202C11002070B516469DF814201C
:1024B000C0E903360271049ABDF8183002600022A8
:1024C000C380826004460D4600F0C0F93044A0612C
:1024D0003DB9E368656113B120462168984796B11C
:1024E0003546FFF7AEF80646FFF79CFF2946204623
:1024F000FFF776FF054B1B68A34201D1FFF7AEFF44
:102500003046FFF7A4F8002070BD00BF381100204E
:1025100000220C490B687BB183420AD183687AB1EF
:10252000936083681BB15A6941690A445A6100206B
:1025300070471A469B68EEE70028EFD002207047EC
:102540000B60EEE73811002070B5FFF77AF8144EF3
:1025500005463478FCB9134B1C60134B1C60134BBD
:102560001C8000F02FF9012000F0A4F900F0E0F940
:102570000F4B0246186020B92846FFF768F8232061
:1025800070BD234640F2E7310A4800F0F3F90A4BE8
:102590001860012333702846FFF759F80020EFE751
:1025A0002011002038110020241100202E110020BD
:1025B0003411002018FCFFFF2811002038B50C460C
:1025C000054698B191B100230B70FFF73AF801214D
:1025D000074B1B680BB122781AB1FFF738F80020BF
:1025E00038BDAB4214BF9B682170F3E72220F7E7A8
:1025F00038110020F0B587B01F4600230D4616465F
:1026000004468DF81730A0B10DF11701FFF7D6FF82
:102610009DF817207AB9BDF83430294602939DF809
:1026200030302046CDE900733346FFF73DFF07B059
:10263000F0BD2220FBE70320F9E70000044B1B68F4
:1026400058434FF47A73B0FBF3F00130704700BF8A
:102650003411002000B58BB001238DF80B30FFF74B
:10266000EDFF00230146CDE90033074A0DF10B03CE
:1026700003A8FFF7BFFF18B99DF80B30002BFBD163
:102680000BB05DF804FB00BFD92300002DE9F84F23
:10269000C20704460BD5464A138801339BB2138008
:1026A000FFF7C0FE434B1B680BB1FFF7D7FEA30734
:1026B0007CD5FEF7C6FF4FF0000A05465646FFF7E9
:1026C000B1FED0463B4FDFF8F4903C680CB1636933
:1026D0008BB10022384B012E1A7003D1BAF1020FD0
:1026E00008BF1E70002C51D0FFF7B8FE2846BDE889
:1026F000F84FFEF7ACBF23461A792179914288BF83
:102700001C469B6813B15A69002AF5D02846FEF78B
:102710009EFFD4F810A0BAF1000F3BD000F096F85D
:10272000A269851AEB17AA4578EB030333DA23690C
:1027300013440122A3612369D3B1CAB9EB17BAEBE1
:10274000050563EB4303002B04DA40F202414846DF
:10275000FDF7EEFFFEF775FF824629462046FFF79C
:102760003FFEA369226950461344A361FEF76FFF41
:10277000E368B4F806A0013613B1204621689847F3
:10278000FEF75FFF0546FFF74DFE9EE7022000F0D3
:102790009DF8ABE75546FEF754FF83462046FFF70A
:1027A000B7FE5846FEF753FF0022C4E7BDE8F88F96
:1027B0002E110020381100203011002005420000A9
:1027C000002070471FB500241D4B012118689A880E
:1027D0000290D3F806009B7A00903E20ADF80C20C2
:1027E0008DF80430FEF70EF98DF80840FFF7E8FF8A
:1027F0008DF80C0002A8FFF715F9694601208DF845
:102800000040FFF7C9F84FF0904240F2FF31936962
:1028100023F47F7323F0030393610A4B5961936A96
:1028200013F00803FBD113620120FFF7D9F84FF42E
:102830008052054BC3F880211A6004B010BD00BF60
:102840007C4200000020004800E100E04FF090438F
:102850009A6A1207FCD4186A704700004FF0904241
:10286000936A1907FCD4136A116C5269520604D496
:10287000CA1A032A01D88B420ED1C21A022A98BF63
:10288000D81CB0F1FF3F38BF01384FF090431864B7
:102890009A6942F040029A61054A13783BB14FF0C1
:1028A0009041CB6B43F00203CB630023137070475E
:1028B0001E10002082074FF0904200F00103916942
:1028C00048BF43F040030B4393617047820700F019
:1028D00001030AD50121084A43F0400311704FF06B
:1028E0009041CA6B22F00302CA634FF090418A699B
:1028F00022EA03038B6170471E10002010B5FEF71B
:10290000A0FE4FF0904304465B695A06074A03F065
:10291000010003F0510348BF40F002005361FFF78C
:10292000B5FE2046BDE81040FEF791BE00200048ED
:1029300008B53E20FEF7D2F80346FFF741FF23FA21
:1029400000F008BD08B5FDF7E1FCFDF70FFDFDF750
:102950000FFDFDF716FDBDE80840FDF713BD08B5F6
:10296000FDF712FDFDF711FDFDF710FDBDE8084074
:10297000FDF70DBD53B94AB9002908BF00281CBF97
:102980004FF0FF314FF0FF3000F082B9ADF1080C8D
:102990006DE904CE00F006F8DDF804E0DDE902237D
:1029A00004B070472DE9F04F099D04460F46002BF7
:1029B00048D18A42944661D9B2FA82F343B1C3F155
:1029C00020019F4002FA03FC9C4020FA01F10F43D2
:1029D0004FEA1C411FFA8CFE220CB7FBF1F601FBFB
:1029E000167706FB0EF042EA0742904208D91CEB2C
:1029F000020206F1FF3702D2904200F237813E46D2
:102A0000121AA4B2B2FBF1F001FB102200FB0EFE81
:102A100044EA0244A64508D91CEB040400F1FF3245
:102A200002D2A64500F21C81104640EA0640A4EB03
:102A30000E0400261DB1DC400023C5E900433146E9
:102A4000BDE8F08F8B4209D9002D00F0FD800026F3
:102A5000C5E9000130463146BDE8F08FB3FA83F690
:102A6000002E4BD18B42C0F0F280824240F2EF80C8
:102A70003046002DE3D0C5E90047E0E702B9FFDEAC
:102A8000B2FA82F3002B40F09D80891A4FEA124E71
:102A900097B20126200CB1FBFEF20EFB121140EAA8
:102AA000014107FB02F088420FD91CEB010102F142
:102AB000FF382CBF4FF001094FF00009884203D9BD
:102AC000B9F1000F00F0CF804246091AA4B2B1FB61
:102AD000FEF00EFB101100FB07F744EA0144A74289
:102AE00008D91CEB040400F1FF3102D2A74200F226
:102AF000B4800846E41B40EA02409BE7C6F1200789
:102B0000B34001FA06F422FA07FCF940B2404CEA5D
:102B1000030C20FA07F34FEA1C491C431FFA8CFEF2
:102B200000FA06F3200CB1FBF9F809FB181140EA92
:102B3000014108FB0EF088420FD91CEB010108F19E
:102B4000FF3A2CBF4FF0010B4FF0000B884203D926
:102B5000BBF1000F00F08D80D046091AA4B2B1FB82
:102B6000F9F009FB101100FB0EFE44EA01418E450D
:102B700007D91CEB010100F1FF3401D28E457FD84B
:102B8000204640EA0840A1EB0E01A0FB0298414517
:102B90004C46C64602D306D14B4504D20138B9EBA8
:102BA000020468EB0C0E002D70D01A1B61EB0E01B5
:102BB00022FA06F301FA07F7F14000261F43C5E9A0
:102BC00000713CE702FA03FCC3F1200001FA03F2B2
:102BD00021FA00F64FEA1C4E24FA00F11FFA8CF796
:102BE0009C401143B6FBFEF00A0C0EFB106642EA55
:102BF000064200FB07F696420ED91CEB020200F1DA
:102C0000FF382CBF4FF001094FF00009964202D95E
:102C1000B9F1000F31D04046921B89B2B2FBFEF6EB
:102C20000EFB162241EA024106FB07F28A4207D94F
:102C30001CEB010106F1FF3801D28A4223D8464637
:102C4000891A46EA004625E72E462846F7E6841A02
:102C500061EB030301201F460BE76444023849E798
:102C600064440238E1E6023A61442EE7023E6244DF
:102C7000C6E6A8F1020861446FE702386244CBE778
:102C8000023861447DE7023E6144D9E72E46D6E62C
:102C9000704700BF08B5074B044613B1002100E0A0
:102CA00000BF054B1868836A03B198472046FFF7B9
:102CB00054F900BF000000008842000070B50D4DBF
:102CC00000260D4C641BA410A64209D10B4D002612
:102CD0000B4C01F087F8641BA410A64205D170BD0F
:102CE00055F8043B01369847EEE755F8043B0136AA
:102CF0009847F2E784100020841000208410002000
:102D00008810002002440346934200D1704703F824
:102D1000011BF9E72DE9F7431D465C4B04460E46BF
:102D20001F68904627B1BB6913B9384600F0E6F931
:102D3000574B9C4267D17C68B8F1020F06D0B8F1BE
:102D4000010F00F29E80002DC0F29B80636EDB07B6
:102D500005D4A389980502D4A06D00F06DFA214630
:102D6000384600F037F9616B41B104F144039942F0
:102D700002D0384600F0D0FA002363630023A36139
:102D80006360A389190603D52169384600F0C4FAA7
:102D9000A389B8F1020F23F44A6323F00303A3814C
:102DA0006BD001AB6A462146384600F047FAA3894A
:102DB0001843A081002D30D1009D284600F0A4FAD0
:102DC0000646002854D1DDF80090A94549D14FF0BE
:102DD000FF350022B4F90C30A26004F1470243F041
:102DE0000203226022610122A3816261626ED20726
:102DF00005D413F4007F02D1A06D00F01EFA28461E
:102E000003B0BDE8F083234B9C4201D1BC6893E73B
:102E1000214B9C4208BFFC688EE7002ECDD0BB69D9
:102E200013B9384600F06AF9B8F1010F266002BF05
:102E3000A38943F00103A381A28912F00803C4E926
:102E400004651CD0D30745BF00236D42A560A36075
:102E500048BFA561656E15F0010515D112F4007F1C
:102E6000C9E7484600F050FA06460028AFD04D4664
:102E7000A38943F08003A381D1E70025A9E7A360DC
:102E8000E8E74FF0FF35BAE70025B8E7201000204B
:102E9000AC420000CC4200008C42000013B50B464F
:102EA000094902460C6844B1A16931B9CDE9000372
:102EB000204600F023F9DDE90023A168204602B096
:102EC000BDE8104000F032BB201000208A892DE9B7
:102ED000F041054610070C4658D44B68002B05DC22
:102EE0000B6C002B02DC0020BDE8F081E66A002EAE
:102EF000F9D0002312F480522F682B6032D0606D1D
:102F0000A3895A0705D56368C01A636B0BB1236C9C
:102F1000C01A00230246E66A2846216AB047431CCD
:102F2000A38906D129681D292CD8294ACA40D60769
:102F300028D50022D90462602269226004D5421C8F
:102F400001D12B6803B96065616B2F600029CAD07D
:102F500004F14403994202D0284600F0DDF9002034
:102F60006063C1E7216A01232846B047411CC7D1ED
:102F70002B68002BC4D01D2B01D0162B01D12F6044
:102F8000B1E7A38943F04003A381ADE70F69002FA8
:102F9000A9D093070E680F600CBF4B690023A6EB06
:102FA00007088B60B8F1000F9DDD43463A46216A61
:102FB0002846A66AB047002806DCA3894FF0FF30F8
:102FC00043F04003A3818FE70744A8EB0008E9E73B
:102FD0000100402038B50B6905460C4613B90025A1
:102FE000284638BD18B183690BB900F087F8144B37
:102FF0009C421BD16C68B4F90C30002BEFD0626E90
:10300000D00704D4990502D4A06D00F015F9284624
:103010002146FFF75BFF636E0546DA07E0D4A3891C
:103020009B05DDD4A06D00F008F9D9E7054B9C4263
:1030300001D1AC68DFE7044B9C4208BFEC68DAE7DB
:10304000AC420000CC4200008C420000002310B5CE
:1030500004468360818119464366C28108228361E8
:10306000C0E90033C0E904335C30FFF74BFE054B89
:1030700024626362044BA362044BE362044B236348
:1030800010BD00BFD93A0000FB3A0000333B0000FE
:10309000573B0000014900F0AFB800BFD52F00003A
:1030A00070B568224D1E0E46554305F1740100F0BF
:1030B0009FF9044640B1002105F16802C0E90016FD
:1030C0000C30A060FFF71EFE204670BD014800F0E6
:1030D000B3B800BF3D110020014800F0AEB800BFFA
:1030E0003D110020014800F0A7B800BF3E110020AC
:1030F000014800F0A2B800BF3E11002010B5044600
:10310000FFF7F0FFA3691BB1BDE81040FFF7F0BF68
:10311000C4E9123323652046124B134A1B68A2628E
:10312000A34204BF0123A36100F020F860602046A1
:1031300000F01CF8A060204600F018F800220421DE
:10314000E0606068FFF782FF01220921A068FFF7B5
:103150007DFF02221221E068FFF778FF0123A361BF
:10316000D2E700BF8842000095300000F8B507465E
:10317000FFF7ACFF1E4B1E68B36913B93046FFF76B
:10318000BDFF4836D6E90134013B03D533680BB3A4
:103190003668F7E7B4F90C50D5B9164B04F158006E
:1031A0006566E36000F047F8FFF796FF08222946BE
:1031B00004F15C002560A561C4E90155C4E904552A
:1031C000FFF7A0FDC4E90D55C4E912552046F8BD2E
:1031D0006834D9E704213846FFF762FF04463060BF
:1031E0000028D5D1FFF778FF0C233B60EEE700BF46
:1031F000884200000100FFFF2DE9F843064688469B
:1032000000F148040027D4E90195B9F1010905D579
:103210002468002CF7D13846BDE8F883AB89012B30
:1032200007D9B5F90E30013303D029463046C047DF
:1032300007436835E9E770477047704770B50E4639
:10324000B1F90E1096B0144600291D4608DAB6F9F9
:103250000C3000222A601A0610D44FF480630EE06E
:103260006A4600F05FFD0028F1DB019A02F470422B
:10327000A2F500535A425A412A60EEE7402300204B
:10328000236016B070BD00008B8973B59D0706469C
:103290000C4607D504F147032360236101236361D2
:1032A00002B070BD01AB6A46FFF7C8FF0099054642
:1032B000304600F09DF848B9B4F90C309A05EFD4C7
:1032C00023F0030343F00203A381E3E70D4BB36252
:1032D000A389206043F080032061A381009B636188
:1032E000019B5BB1B4F90E10304600F02DFD28B102
:1032F000A38923F0030343F00103A381A0890543BD
:10330000A581CDE795300000024B0146186800F01A
:103310006FB800BF2010002037B5002943D051F806
:10332000043C0C1F0190002BB8BFE41800F03CFDDA
:103330001E4A0198136833B96360146003B0BDE896
:10334000304000F037BDA34208D9256861198B428F
:1033500001BF19685B6849192160EDE71A465B688F
:103360000BB1A342FAD911685518A5420BD12468B4
:10337000214454181160A342E0D11C685B682144C9
:1033800053601160DAE702D90C230360D6E72568A1
:1033900061198B4202BF19685B684919636008BFF5
:1033A00021605460CAE703B030BD00BF4011002067
:1033B00070B50E4E0C460546316811B900F07CFB25
:1033C00030602146284600F077FB431C0AD0C41C1D
:1033D00024F00304A04207D0211A284600F06CFB19
:1033E000013001D14FF0FF34204670BD4411002060
:1033F0002DE9F041CD1C074625F0030508350C2DBD
:1034000038BF0C25002D01DBA94205D90C2300266D
:103410003B603046BDE8F0812E4E00F0C5FC3368BD
:103420001C4634BB29463846FFF7C2FF431C0446FE
:103430004DD134682646002E40D1236831463846A7
:1034400004EB030800F038FB80453AD121680335CE
:1034500038466D1A25F0030508350C2D38BF0C25AC
:103460002946FFF7A5FF01302BD023682B442360AA
:103470000EE02268521B1ED40B2A16D96119A342F2
:10348000256018BF5960636808BF316062514B60A6
:1034900004F10B06384600F08DFC231D26F00706CC
:1034A000F21AB6D09B1BA350B3E76268A3420CBFCD
:1034B00032605A60ECE723466468B2E734467668C7
:1034C000B9E70C2338463B6000F074FCA1E72560A7
:1034D000DEE700BF401100209368013B002B9360A2
:1034E00010B408DA9469A34201DB0A2903D15DF81C
:1034F000044B00F035BB1368581C10600846197067
:103500005DF8044B7047F8B506460F461446D518CB
:10351000AC4201D1002007E03A4614F8011B3046C6
:10352000FFF7DAFF431CF3D1F8BD00002DE9F04F9F
:103530000D469DB014469846064618B183690BB9EE
:10354000FFF7DCFD894B9D421BD175686B6ED90777
:1035500005D4AB899A0502D4A86DFFF76DFEAB893F
:103560001B0701D52B69EBB92946304600F05CFBFF
:10357000C0B16B6EDC070ED54FF0FF301DB0BDE85B
:10358000F08F7B4B9D4201D1B568DFE7794B9D42BF
:1035900008BFF568DAE7AB899805EDD4A86DFFF7A9
:1035A0004CFEE9E70023CDF80C804FF00109DFF86D
:1035B000C881099320238DF8293030238DF82A30D3
:1035C00023469A4613F8012B0AB1252AF9D1BAEB02
:1035D000040B0BD05B46224629463046FFF793FF8B
:1035E000013000F0AA80099A5A4409929AF80030F2
:1035F000002B00F0A28000234FF0FF320AF1010AF5
:10360000049307938DF853301A93CDE9052354465C
:103610000522594814F8011B00F0B8FB049AD8B9E8
:10362000D10644BF20238DF85330130744BF2B230A
:103630008DF853309AF800302A2B15D0079A54464B
:1036400000204FF00A0C214611F8013B303B092BBA
:103650004ED9B0B1079214E0A0EB0803A24609FAD4
:1036600003F313430493D2E7039B191D1B68002B3C
:103670000391BBBF5B4242F0020207930793B8BFBE
:10368000049223782E2B0CD163782A2B35D1039BFF
:1036900002341A1D1B68002B0392B8BF4FF0FF3392
:1036A0000593DFF8E4A003222178504600F06EFB7A
:1036B00040B14023A0EB0A00013403FA00F0049B60
:1036C0000343049314F8011B06222C488DF828109C
:1036D00000F05CFB00283FD0294B1BBB039B07334A
:1036E00023F0070308330393099B3B44099367E7DF
:1036F0000CFB02320C460120A5E7002301344FF0F9
:103700000A0C19460593204610F8012B303A092A75
:1037100003D9002BC5D00591C3E70CFB012104465A
:103720000123F0E703AB2A4604A930460093154B6A
:1037300000E000BF0746781CD6D16B6ED90705D4D0
:10374000AB899A0502D4A86DFFF777FDAB895B06BC
:103750003FF512AF099811E703AB2A4604A930469A
:103760000093084B00F082F8E4E700BFAC42000091
:10377000CC4200008C420000EC420000F642000007
:103780000000000007350000F24200002DE9F0477C
:10379000164699468A6807460B690C46DDF8208074
:1037A0009342B8BF1346336091F843200AB1013306
:1037B00033602368990642BF33680233336025685B
:1037C00015F0060506D104F1190AE36832689B1A60
:1037D000AB4229DC94F84320131E226818BF012352
:1037E00092062ED404F1430249463846C0470130C0
:1037F00021D023681A3454F80E5C03F006033268B3
:103800000026042B54F8123C08BFAD1A54F80A2CB9
:1038100014BF002525EAE5759342C4BF9B1AED1835
:10382000B5421AD1002008E00123524649463846E5
:10383000C047013003D14FF0FF30BDE8F0870135BC
:10384000C3E7E1185A1C30200233224481F84300B8
:1038500094F8451082F84310C4E7012322464946F4
:103860003846C0470130E6D00136D9E72DE9FF4799
:103870000F7E914680460C46782F9A460C9D01F1AA
:10388000430207D8622F0AD8002F00F0D880582FA3
:1038900000F0A38004F1420584F842703AE0A7F1F9
:1038A0006303152BF6D801A151F823F00539000068
:1038B000193900009538000095380000953800004F
:1038C000953800001939000095380000953800003F
:1038D0009538000095380000253A0000493900006D
:1038E000073A00009538000095380000473A00007C
:1038F00095380000493900009538000095380000DF
:103900000F3A00002B681A1D1B682A6004F142055B
:1039100084F842300123A3E020682968060601F1FB
:1039200004030AD50E682B60002E03DA2D2376429D
:1039300084F843305E480A2319E00E6810F0400F07
:103940002B6018BF36B2EFE72B682068191D29607D
:10395000010601D51E6802E04606FBD51E886F2FC2
:1039600053480CBF08230A23002184F843106568DC
:10397000002DA560A2BF216821F0040121600EB9CD
:10398000002D4DD01546B6FBF3F103FB1167C75D63
:1039900005F8017D37460E46BB42F4D9082B0BD102
:1039A0002368DE0708D5236961689942DEBF3023AA
:1039B00005F8013C05F1FF35521B22614B4603AA75
:1039C00021464046CDF800A0FFF7E0FE01304CD183
:1039D0004FF0FF3004B0BDE8F087354881F84570FE
:1039E0002968236851F8046B29601D0614D5DF0788
:1039F00044BF43F0200323601EB9236823F0200353
:103A000023601023B0E7236843F02003236078236A
:103A1000284884F84530E3E7590648BFB6B2E6E7E0
:103A20001546BBE72B682668181D616928603506B6
:103A30001B6801D5196002E07006FBD519800023D0
:103A400015462361BAE72B6800211A1D2A601D68FC
:103A50006268284600F09AF908B1401B606063680C
:103A60002361002384F84330A8E723692A464946A6
:103A70004046D0470130ABD023689B0713D4E068A1
:103A8000039B9842B8BF1846A4E701233246494633
:103A90004046D04701309BD00135E36803995B1A5B
:103AA000AB42F2DCEBE7002504F11906F5E700BFB5
:103AB000FD4200000E43000038B50023054D0446CA
:103AC00008462B60FCF754FD431C02D12B6803B160
:103AD000236038BD4811002010B50C46B1F90E1016
:103AE00000F06EF90028ABBF636DA3891B1823F4A7
:103AF0008053ACBF6365A38110BD2DE9F0411F4623
:103B00008B8905460C46DB05164605D502230022A7
:103B1000B1F90E1000F028F9A3893246B4F90E105D
:103B2000284623F48053A3813B46BDE8F04100F0D2
:103B300069B810B50C46B1F90E1000F015F9431C28
:103B4000A38915BF606523F4805343F48053A38198
:103B500018BFA38110BDB1F90E1000F0D3B800005A
:103B6000F8B50E461446054618B183690BB9FFF740
:103B7000C5FA214B9C422BD16C68A369A360A38931
:103B80001A072FD523696BB32369F6B2206837462D
:103B9000C01A6369834204DC21462846FFF71AFAFB
:103BA00030BBA3680130013BA36023685A1C22602C
:103BB0001E706369834204D0A389DB0706D50A2EF1
:103BC00004D121462846FFF705FA88B93846F8BDE2
:103BD0000A4B9C4201D1AC68CFE7094B9C4208BF1D
:103BE000EC68CAE72146284600F01EF80028CBD032
:103BF0004FF0FF37EAE700BFAC420000CC420000C4
:103C00008C42000038B50446064D08461146002295
:103C10002A601A46FEF7BAF9431C02D12B6803B199
:103C2000236038BD48110020324B70B51D68064630
:103C30000C4625B1AB6913B92846FFF75FFA2E4B46
:103C40009C420FD16C68A389B4F90C2019072CD4BD
:103C5000DD0611D40923336042F040034FF0FF30FA
:103C6000A3813EE0254B9C4201D1AC68EBE7244B9D
:103C70009C4208BFEC68E6E7580712D5616B41B17A
:103C800004F14403994202D03046FFF745FB00237C
:103C90006363A38923F02403A38100236360236962
:103CA0002360A38943F00803A38123694BB9A38947
:103CB00003F42073B3F5007F03D021463046FFF7AD
:103CC000E3FAA089B4F90C2010F001030AD0002314
:103CD000A36063695B42A361236943B910F080006C
:103CE000BAD170BD810758BF6369A360F4E70020B3
:103CF000F7E700BF20100020AC420000CC420000DB
:103D00008C42000038B50023054D044608462B6060
:103D1000FEF721F9431C02D12B6803B1236038BDA3
:103D20004811002038B50023064D044608461146C8
:103D30002B60FEF713F9431C02D12B6803B12360FB
:103D400038BD00BF4811002038B50023054D04469A
:103D500008462B60FEF707F9431C02D12B6803B11C
:103D6000236038BD4811002038B50446064D08468A
:103D7000114600222A601A46FEF7F7F8431C02D1CA
:103D80002B6803B1236038BD48110020C9B202443A
:103D900010B59042034601D1002303E01C780130A6
:103DA0008C42F6D1184610BD0148FFF745BA00BF56
:103DB0003C1100200148FFF740BA00BF3C11002031
:103DC00038B50446064D0846114600222A601A46B8
:103DD000FEF7CDF8431C02D12B6803B1236038BD38
:103DE00048110020F8B500BFF8BC08BC9E467047DB
:103DF000F8B500BFF8BC08BC9E46704725640A00B1
:103E00002E2E2F6175746F67656E2F736C5F696FEF
:103E100073747265616D5F696E69745F75736172E9
:103E2000745F696E7374616E6365732E6300000066
:103E3000050000000000000000C2010000050000B5
:103E4000001000000000000000000000000006401C
:103E50002900000500060008000701000F100000FF
:103E6000DC100020200000000001000000100020F5
:103E70004106000063060000750600008906000088
:103E8000D9060000633A5C73696C69636F6E6C619C
:103E900062735C73696D706C69636974797374754E
:103EA00064696F5C76355C646576656C6F706572AD
:103EB0005C73646B735C6765636B6F5F73646B5F8C
:103EC00073756974655C76332E325C706C617466F0
:103ED0006F726D5C656D6C69625C696E635C656D6B
:103EE0005F6770696F2E6800433A2F53696C69638E
:103EF0006F6E4C6162732F53696D706C6963697486
:103F00007953747564696F2F76352F646576656CA7
:103F10006F7065722F73646B732F6765636B6F5F70
:103F200073646B5F73756974652F76332E322F70EF
:103F30006C6174666F726D2F656D6C69622F737240
:103F4000632F656D5F636D752E63000201010303CE
:103F50000206010504433A2F53696C69636F6E4C86
:103F60006162732F53696D706C69636974795374FE
:103F70007564696F2F76352F646576656C6F706533
:103F8000722F73646B732F6765636B6F5F73646B02
:103F90005F73756974652F76332E322F706C617480
:103FA000666F726D2F656D6C69622F7372632F651A
:103FB0006D5F656D752E6300433A2F53696C6963BD
:103FC0006F6E4C6162732F53696D706C69636974B5
:103FD0007953747564696F2F76352F646576656CD7
:103FE0006F7065722F73646B732F6765636B6F5FA0
:103FF00073646B5F73756974652F76332E322F701F
:104000006C6174666F726D2F656D6C69622F73726F
:10401000632F656D5F6770696F2E6300433A2F539E
:10402000696C69636F6E4C6162732F53696D706C5C
:10403000696369747953747564696F2F76352F6479
:104040006576656C6F7065722F73646B732F67652F
:10405000636B6F5F73646B5F73756974652F763321
:104060002E322F706C6174666F726D2F656D6C6986
:10407000622F7372632F656D5F727463632E6300CA
:10408000433A2F53696C69636F6E4C6162732F53AF
:10409000696D706C696369747953747564696F2FA5
:1040A00076352F646576656C6F7065722F73646BFF
:1040B000732F6765636B6F5F73646B5F7375697490
:1040C000652F76332E322F706C6174666F726D2F90
:1040D000656D6C69622F7372632F656D5F757361B7
:1040E00072742E630001030401010109030B0B022A
:1040F0000000202000038C8C3C0000000000000029
:104100000126040000010000000000433A2F53691B
:104110006C69636F6E4C6162732F53696D706C696B
:104120006369747953747564696F2F76352F64658C
:1041300076656C6F7065722F73646B732F67656340
:104140006B6F5F73646B5F73756974652F76332E65
:10415000322F706C6174666F726D2F736572766941
:1041600063652F696F73747265616D2F7372632F4E
:10417000736C5F696F73747265616D5F7265746192
:10418000726765745F737464696F2E6300433A2FBE
:1041900053696C69636F6E4C6162732F53696D7004
:1041A0006C696369747953747564696F2F76352F00
:1041B000646576656C6F7065722F73646B732F67BF
:1041C00065636B6F5F73646B5F73756974652F767E
:1041D000332E322F706C6174666F726D2F7365723F
:1041E000766963652F696F73747265616D2F737281
:1041F000632F736C5F696F73747265616D5F756156
:1042000072742E6300433A2F53696C69636F6E4C6E
:104210006162732F53696D706C696369747953744B
:104220007564696F2F76352F646576656C6F706580
:10423000722F73646B732F6765636B6F5F73646B4F
:104240005F73756974652F76332E322F706C6174CD
:10425000666F726D2F736572766963652F736C6517
:10426000657074696D65722F7372632F736C5F7301
:104270006C65657074696D65722E630001000000E5
:1042800005000200000300002410002000000000D0
:10429000000000000000000000000000000000001E
:1042A000000000000000000000000000000000000E
:1042B00000000000000000000000000000000000FE
:1042C00000000000000000000000000000000000EE
:1042D00000000000000000000000000000000000DE
:1042E000000000000000000000000000232D302B23
:1042F0002000686C4C0065666745464700303132E7
:10430000333435363738394142434445460030313D
:10431000323334353637383961626364656600009C
:0843200060BEFF7F01000000F8
:1043280000040101041F0000C0EA2101C0EA2101C4
:1043380000F049020080000050110020FFFF01003A
:104348002410002000000000AC420000CC42000015
:104358008C42000000000000000000000000000087
:104368000000000000000000000000000000000045
:104378000000000000000000000000000000000035
:104388000000000000000000000000000000000025
:104398000000000000000000000000000000000015
:0C43A80000000000650100004101000061
:040000030000046D88
:00000001FF
