:1000000000100020B9030000B7030000B703000090
:10001000B7030000B7030000B7030000B7030000F8
:10002000B7030000B7030000B7030000B7030000E8
:10003000B7030000B7030000B7030000B7030000D8
:10004000B7030000B7030000B7030000B7030000C8
:10005000B7030000B7030000B7030000B7030000B8
:10006000B7030000B7030000B7030000B7030000A8
:10007000CD2A0000B7030000B70300007903000099
:1000800085030000B7030000B7030000B7030000BA
:10009000B703000085050000B7030000B7030000A8
:1000A000B7030000B7030000B7030000B703000068
:1000B000B7030000B7030000B7030000B703000058
:1000C000B7030000B7030000B7030000B703000048
:1000D000B7030000B7030000B7030000B703000038
:1000E000B7030000B7030000B7030000B703000028
:1000F000B7030000B7030000B7030000B703000018
:10010000B7030000B7030000B7030000B703000007
:10011000B7030000B7030000B7030000B7030000F7
:10012000B7030000B7030000B7030000B7030000E7
:10013000B7030000B7030000B7030000B7030000D7
:1001400010B5054C237833B9044B13B1044800E0D3
:1001500000BF0123237010BDA0100020000000008C
:100160003434000008B5034B1BB10349034800E0D9
:1001700000BF08BD00000000A410002034340000BF
:10018000A3F5803A704700BF174B002B08BF134BF5
:100190009D46FFF7F5FF00218B460F461348144A92
:1001A000121A02F097FE0E4B002B00D098470D4B11
:1001B000002B00D098470020002104000D000D48BE
:1001C000002802D00C4800E000BF02F05FFE2000D3
:1001D000290000F02FF802F045FE00BF00000800E3
:1001E000000000000000000000100020A01000200F
:1001F000441300200000000000000000042201233E
:100200001146002001F004BC38B51025084C4FF40D
:10021000FA7004F580531D6104F5005402F002FBEE
:1002200025614FF4FA70BDE8384002F0FBBA00BF18
:1002300000C0034008B502F06DFCFFF7DFFF02F0DD
:1002400076FCFFF7E1FFFAE7704708B5032180204D
:1002500001F0A8F803214FF4806001F0A3F8032116
:100260004FF4906001F09EF808214FF4C06001F057
:1002700099F808214FF4F06001F094F808213E202D
:1002800001F090F808212D2001F08CF8002008BD25
:1002900008B5134B1B68C3F30743012B0ED1114B59
:1002A00004205A6E4FF480230F49520358BF0F4A5F
:1002B0004B6601F51041086258BF536601F030FFEC
:1002C00000F075F801F0B2FE01F0D2FE01F00EFF71
:1002D000FFF7BBFF01F0BAFEBDE8084000F05EB8D2
:1002E0000080E00F008000400090004000A000402F
:1002F00000F04AB808B502F00FFABDE8084000F077
:1003000039B87047704770477047704770470000B2
:1003100070B592B0134C0BAD0FCC0FC594E807002D
:10032000032385E8070003AE8DF8443007AD04F1E0
:100330000C031C340FCB86E80F0094E80F0085E80F
:100340000F00094B29460093084833460BAA02F0D8
:100350005BF8044618B17A21054800F083FA20467C
:1003600012B070BD302F0000BC1000201011002012
:10037000002F0000FFF7CCBF014B186802F0FCB85B
:1003800010110020FFF7F8BF024B0349186800F076
:1003900033B900BF201000200010002008B5012153
:1003A0003A2000F0C9FBBDE80840FFF74DBF01212E
:1003B0003A2000F0C1BBFEE708B500F013F8064B89
:1003C000064A07498B4201D3FFF7DEFE52F8040BC1
:1003D00043F8040BF6E700BF001000203C34000097
:1003E000A0100020044B054A9A60D3F8882042F4FC
:1003F0007002C3F88820704700ED00E000000000A4
:10040000014B1868704700BF28100020084B1B6F75
:1004100003F00703022B04D0032B05D0012B05D0DA
:10042000FEE7044B18687047034BFBE7034870472F
:1004300000800040281000202C100020002D3101E9
:1004400008B5FFF7E3FF054B1B6FC3F3033301331D
:10045000B0FBF3F0024B186008BD00BF0080004005
:10046000241000200048704700B4C404014B1868F1
:10047000704700BF2C100020054B1860054B1B6F08
:1004800003F00703032B01D1FFF7DABF704700BF6A
:100490002C1000200080004000207047004870476A
:1004A000002D31014FF4004070474FF47A707047CF
:1004B000014B1868704700BF3010002038B5124B50
:1004C00005461B78DBB1E0B101F055F90F4A002376
:1004D0001146147B54B92B6001251A0101EB03135B
:1004E0001D738C5001F04DF9204638BD0133082BA7
:1004F00002F11002EDD101F044F90548F5E7054895
:10050000F3E70548F1E700BF20130020A011002009
:10051000048000F0028000F0018000F013B5154B5C
:100520001868002301908DF8043001F024F9124B73
:100530001C7824B101F025F9104802B010BD012249
:100540001A7001F01EF90E4B01A81C731C7783F87A
:100550002C4083F83C4083F84C4083F85C4083F89F
:100560006C4083F87C4008238DF8073001F0A6FA30
:100570002046E2E76C2F000020130020038000F0EB
:10058000A01100202DE9F843174B1F6D5B6D1F4034
:1005900000D5FEE701260025144CDFF85480DFF873
:1005A0005490374217D02368C8F850609BB1A168B7
:1005B000284601316268A1609847637B012B0AD10C
:1005C00048B909EB45131A7B60F341021A731A7F8D
:1005D00060F341021A770135082D4FEA460604F10F
:1005E0001004DED1BDE8F88300000440A011002013
:1005F00000200440201200202DE9F04188B004467C
:100600008E4F02AE0D460FCF0FC697E8030086E867
:100610000300002C00F010811DB9894808B0BDE826
:10062000F08178220021204602F054FC00232A6841
:10063000844963658A4240F0B1802821A4F84E10B5
:100640004FF4802198468048C4E90B0100232F46CF
:1006500084F85830261D22600FCF0FC697E80F0090
:1006600086E80F006B7E012B08BF8DF81630AB7E3D
:10067000002B40F0A280ADF818302B7E0121012B19
:1006800003BF00238DF815304FF47A73EB683A20DE
:10069000049300F051FA0121B4F84E0000F04CFA36
:1006A0002B691A1F0C2AB8D8033B286802A98DF8B9
:1006B000143001F047FCAB6923F47F0323F47F433C
:1006C00023B92268936843F4803393602B7A2879A6
:1006D000697940EA03406B7AAA7941EA0341AB7A2F
:1006E000EE7E42EA0342594B4FEA48184344002E3B
:1006F00073D11D26C3F81C66C3F83406C3F82C1644
:10070000C3F83026E97AEA7942EA0142C3F82026A2
:10071000E37BE27A84F84530237F207A677AA57AF2
:10072000217B94F80D80A67B84F84420002B5ED1B9
:100730000422019301F06CF9019B012241463846E5
:1007400001F066F9A27F3146012A8CBF0123019B8B
:100750000422284601F05CF9E37F3BB9012304221F
:1007600094F8451094F8440001F052F901F003F8B0
:10077000374B1A78002A54D101221A7001F001F87F
:1007800001F0CAFFFFF7CAFE002104F12400FFF7C1
:1007900095FE0146002847D02E483FE72E4B9A424F
:1007A0007FF43BAF2923A4F84E304FF4A0232B490C
:1007B0004FF00108C4E90B1348E7012B02D14FF4B5
:1007C000007358E7022B02D14FF4807353E7032BD9
:1007D0007FF423AF4FF440734DE71C25C3F81C563C
:1007E000C3F83406C3F82C16C3F8302690E700236C
:1007F000012201F00DF9002304224146384601F0A0
:1008000007F9A37F0222012B94BF00230123314665
:10081000284601F0FDF8E37F002BA7D10123022237
:100820009EE700F0AEFFADE704F12800FFF746FEBB
:1008300000283FF4F3AEAFE70948EFE6702F000061
:10084000022000F000C005400200040000C0034088
:1008500021130020092000F00000064002000500DE
:10086000012000F0FEE74FF04023D3F88420D206A9
:10087000FBD4D3F88400C0F38110704738B5124B15
:100880000546D3F820310C4603F00303022B0BD0AE
:10089000032B0DD0012B0FD1FFF7B2FD052305B1BE
:1008A000286004B1237038BDFFF7E0FD0323F6E7AD
:1008B000FFF7F4FD0223F2E7044840F61771FFF753
:1008C000D1FF00231846EAE700800040882F00008F
:1008D000F7B50024114B0194D3F88051074605F079
:1008E0000305012D0E4607D0022D11D041F2520111
:1008F0000B48FFF7B7FF04E0214601A8FFF7BEFF52
:100900000F240FB1019B3B6006B1347003B0F0BD02
:10091000FFF7C4FD2C460190F3E700BF00800040C4
:10092000882F000038B5194B0546D3F824310C4602
:1009300003F00703013B052B20D8DFE803F0030F8A
:10094000171B0B13FFF75CFD052305B1286004B1ED
:10095000237038BDFFF754FD0623F6E7FFF786FD49
:100960000323F2E7FFF782FD0423EEE7FFF796FD8E
:100970000223EAE7FFF790FD0723E6E7044840F289
:100980001621FFF76FFF00231846DEE700800040C6
:10099000882F000038B5124B0546D3F840310C467D
:1009A00003F00303022B0BD0032B0DD0012B0FD12F
:1009B000FFF778FD092305B1286004B1237038BD25
:1009C000FFF776FD0823F6E7FFF76FFD0B23F2E74D
:1009D000044840F64571FFF745FF00231846EAE753
:1009E00000800040882F000038B5154B0546D3F82D
:1009F00000320C4603F00703013B032B18D8DFE855
:100A000003F0020A0E12FFF74DFD092305B128601D
:100A100004B1237038BDFFF74BFD0823F6E7FFF75D
:100A200044FD0B23F2E7FFF70BFD0E23800AEDE7F1
:100A3000044841F20711FFF715FF00231846E5E7C8
:100A400000800040882F000038B5124B0546D3F8CF
:100A500040320C4603F00303022B0BD0032B0DD0C6
:100A6000012B0FD1FFF71EFD092305B1286004B14A
:100A7000237038BDFFF71CFD0823F6E7FFF715FDCF
:100A80000B23F2E7044841F29A01FFF7EBFE002343
:100A90001846EAE700800040882F000038B5124B66
:100AA0000546D3F860310C4603F00303022B0BD04C
:100AB000032B0DD0012B0FD1FFF7F4FC092305B157
:100AC000286004B1237038BDFFF7F2FC0823F6E775
:100AD000FFF7EBFC0B23F2E7044840F69271FFF7B7
:100AE000C1FE00231846EAE700800040882F00007E
:100AF00010B40F4C0B46D4F8204204F00304012C30
:100B00000ED0022C10D008B1002101600BB10022E0
:100B10001A704FF4107107485DF8044BFFF7A2BE3E
:100B20005DF8044BFFF7AABE5DF8044BFFF732BF38
:100B300000800040882F000070B5460904460D462D
:100B40000FD140F205110D48FFF78CFE334604F03B
:100B50001F0485B103F58053012000FA04F41C60E2
:100B600070BD012E05D0064B064A022E18BF134653
:100B7000EDE7054BEBE703F50053EDE7882F0000A9
:100B800068800040608200406480004010B5B0F58D
:100B9000207F34D009D8B0F5007F2AD003D898B18F
:100BA000B0F5C07F10D0002421E0B0F5607FFAD10D
:100BB000154BD3F88030C3F301149B0617D5032CD3
:100BC00015D04FF4CE610FE00F4B1C6F230B13F0C9
:100BD0000E0FC4F303340AD0032C08D0072C06D020
:100BE0000F2C04D04FF4CC610848FFF73BFE601C8B
:100BF00010BD054BD3F89040C4F30464F7E7024BF3
:100C00001C6FC4F38024F2E700800040882F0000AE
:100C100030B585B0002380280446029375D02BD8C8
:100C2000002878D0A0F12004A3B2412B32D8412C67
:100C300030D8DFE804F0707370738686868673732D
:100C4000903FA7653F7373732F2F2F2F2F2F8B5735
:100C5000737373B1AC732F2F2F2F2F2F2F2F2F2F95
:100C60002F2F2F702F707070862F2F2F2F2F2F2F39
:100C70002F2F2F2F2F2F7070B0F5806F61D024D8B9
:100C8000B0F5007F54D00BD8B0F5807F68D0B0F5B8
:100C9000C07F40D040F2DB114248FFF7E3FD37E070
:100CA000B0F5607F44D0F5D8B0F5207F36D0B0F5F0
:100CB000407FEFD1FFF7C4FB04464FF42070FFF7ED
:100CC00065FFB4FBF0F0400821E0B0F5C06F59D0EB
:100CD0000DD8B0F5A06F39D0B0F5B06F3BD0B0F5FE
:100CE000906FD7D1002102A8FFF71CFE10E0B0F5ED
:100CF000E06F4CD0B0F5F06F4ED0B0F5D06FC9D1E9
:100D0000002102A8FFF770FE02E0FFF77FFB0290D0
:100D1000029805B030BDFFF793FBF8E7FFF790FBB3
:100D200004464FF42070FFF731FFB4FBF0F0EEE71C
:100D3000FFF76CFB05462046FFF728FFB5FBF0F0F8
:100D4000E5E7002102A8FFF799FDE1E7002102A8ED
:100D5000FFF7CEFEDCE7002102A8FFF7B9FDD7E7D9
:100D600003934FF0E0231B695B0705D5FFF768FB92
:100D70000390039B0293CBE70DF1070103A8FFF754
:100D800009FEF6E7002102A8FFF704FEC0E70021F4
:100D900002A8FFF759FEBBE7002102A8FFF77EFE7D
:100DA000B6E700BF882F000008B58020FFF730FFAE
:100DB000034B98429EBF4FF48032024B1A6708BD26
:100DC000005A620200A0004070B54FF400320F4B91
:100DD00006469A6600200D46FFF7D8FE41F67132AE
:100DE0000B4B7043DC690B49DA639A68884204F460
:100DF000803422F4401203D9012D18BF42F480122E
:100E00009A600CB10022DA6370BD00BF0090004010
:100E100000000340005A620208B5FFF723FBBDE85B
:100E200008400021FFF7D0BF07B50023B0F5807F51
:100E30008DF8023000F0888028D8382800F0A8808B
:100E40000CD8243883B2092B10D809280ED8DFE833
:100E500000F0757575750D0D6B0D378F52286DD0BF
:100E600007D83D283CD03E2800F0988040F2A3717E
:100E700056E08028FAD14C4B1B6F03F00703013B6F
:100E8000032B4BD8DFE803F048444280B0F5D06F25
:100E90006ED01BD8B0F5A06F7AD00BD8B0F5806FAC
:100EA0004CD0B0F5906FE1D100200DF10201FFF7B9
:100EB00039FD3EE0B0F5B06F36D0B0F5C06FD5D19A
:100EC00000200DF10201FFF765FD32E0B0F5006F83
:100ED000EAD00BD8B0F5E06F60D0B0F5F06FC5D1B7
:100EE00000200DF10201FFF7D9FD22E0B0F5086FF7
:100EF000BCD12D4BD3F8003103F00303022B3DD0BE
:100F0000032B3FD0012B41D1FFF7B0FA032300E0C0
:100F100005238DF802300CE00223FAE740F20B7152
:100F20002248FFF79FFC04E000200DF10201FFF7CB
:100F3000CFFC9DF8020003B05DF804FB00200DF12A
:100F40000201FFF79BFCF4E701934FF0E0231B69DC
:100F50005B0707D5FFF774FA0C238DF803309DF873
:100F60000330D6E70DF1030101A8FFF713FDF6E703
:100F700000200DF10201FFF737FDDAE7FFF798FADD
:100F80000823C6E7FFF788FA0723C2E70123C0E773
:100F900000200DF10201FFF7ABFDCAE700200DF1C3
:100FA0000201FFF751FDC4E700800040882F0000D8
:100FB00070B5037804460F2B04D940F601416B4805
:100FC000FFF750FC63780F2B04D940F604416748C3
:100FD000FFF748FCA3780F2B04D940F6074163487C
:100FE000FFF740FCE3780F2B04D940F60A415F4835
:100FF000FFF738FC23790F2B04D940F60D415B48ED
:10100000FFF730FC63793F2B04D94FF44161574817
:10101000FFF728FCA3793F2B04D940F6134153482E
:10102000FFF720FCE379032B04D940F616414F4823
:10103000FFF718FC237A032B04D940F619414B48DB
:10104000FFF710FC637B012B04D940F61C41474895
:10105000FFF708FC8020FFF7E7FE03287CD04FF461
:101060000022434B43495A6645F60E030222C1F85B
:101070008030414B9A62012203F580539A628A6D57
:1010800012F48032FBD1637820781B0543EA0063B9
:10109000A079257C0343E078667C43EA004320790D
:1010A00043EA0033607943EA80130B618B69E07A8D
:1010B00003F000430343E07943EA8063207A43EA84
:1010C0000063607A43EA0043A07A43EA00238B611D
:1010D000637B096A002B18BF0822207B21F00D01D9
:1010E00043EA010343EA800342EA0302214B1A6206
:1010F000A27B4FEA421230D1986AE17B20F03300A4
:1011000042EA0112024342F001029A621B4A996DBF
:1011100032EA0101FBD1022217498A621A659A6DEF
:101120005200FCD41869A27820F4700040EA025002
:101130004FF000421861104B9A611DB9022203F56D
:1011400080539A6216B901220D4B9A62A37C1BB19F
:10115000084B0C4AC3F8802070BD996A21F0330116
:1011600031430A4342EA4502EFE700BF882F0000FF
:101170000090004000C0004000D00040030001404B
:1011800000E00040F1A7FFFF014B93F9000070471A
:101190002213002010B583780446072B04D940F6AB
:1011A00085512A48FFF75EFBE378032B04D940F60C
:1011B00087512648FFF756FB2378032B04D940F6C6
:1011C00089512248FFF74EFB94F90130002B04DAD5
:1011D00040F68B511D48FFF745FB4FF480011C4A38
:1011E000637851664FF4D151022002F5B832516252
:1011F00018494F2B48604FF0010028BF4F2301F5DD
:10120000805148601169C903FCD4217843EA012365
:101210005361E378A1781B0143EA012361790B4311
:10122000217943EA41039360E379A1791B0143EA01
:101230004113617A0B43217A43EA41035360A37A55
:1012400013B16FF4D153536210BD00BF882F00005B
:101250000090004000100240014B1880704700BF12
:10126000341000200029CCBF01210021FFF7ACBDC4
:1012700010B5B0F5207F65D00ED8B0F5007F4FD007
:1012800003D800B3B0F5C07F1DD040F2E161BDE8E6
:1012900010403448FFF7E6BAB0F5607FF5D14C1E38
:1012A000012C06D9042904D040F2C7612D48FFF76C
:1012B000D9FA2D4AD2F8803023F0300343EA0413E0
:1012C000C2F8803010BD102901F1FF3404D8274B3B
:1012D00023FA01F1CB0704D440F29E612148FFF7C5
:1012E000C1FAFFF799FD00F045F84FF48031204B2B
:1012F0001D4A1967136F23F4704343EA04331367DD
:10130000FFF79EF80446FFF7AEFAC0F1020120464F
:10131000FFF7A8FF00F034F8BDE81040FFF744BD28
:101320004C1E1F2C04D940F2D5610E48FFF79AFAE3
:101330000D4BD3F8901021F0F85141EA0461C3F845
:101340009010BFE74C1E012C04D940F2DB61054828
:10135000FFF788FA044B196F21F4806141EA842178
:101360001967AFE7882F00000080004016010100D8
:101370000090004002214FF42070FFF779BF000079
:1013800008B54FF4C070FFF743FCBDE808400449BE
:1013900088428CBF022101214FF42070FFF768BF03
:1013A00080F0FA0270B5B0F5807F0C4600F00C8139
:1013B0002CD8382800F0A48111D8243883B2092B06
:1013C00016D8092814D8DFE810F0E400E400E4009F
:1013D000E40013001300CF0013004900530152280A
:1013E00000F0D78007D83D2853D03E2800F09F81D9
:1013F00040F6662122E18028FAD18B1E052B00F2EF
:10140000A880DFE803F0A394A6AEA667B0F5D06F7E
:1014100000F02E8132D8B0F5A06F00F0718116D89F
:10142000B0F5806F00F0B580B0F5906FE0D1023C70
:10143000E4B2052C00F21581A84B195DA84AD2F838
:10144000243123F007030B43C2F824316EE0B0F5DA
:10145000B06F00F08980B0F5C06FC9D1083CE4B22C
:10146000032C00F2F0809F4B195D9D4AD2F8403169
:1014700023F003030B43C2F8403157E0B0F5006F8F
:10148000D5D016D8B0F5E06F00F05181B0F5F06F0F
:10149000AED1083CE4B2032C00F2DC80924B195D23
:1014A0008F4AD2F8603123F003030B43C2F8603156
:1014B0003CE0B0F5086F9BD14C1E072C00F2048174
:1014C000DFE814F007010201090102010201020133
:1014D0000001F600002504260121022000F056F943
:1014E000FFF79AFCFFF746FF4FF480317F4B7C4AB1
:1014F0001967136F23F0070333431367FEF7A0FF49
:101500000646FFF7B0F9C0F102013046FFF7AAFE28
:101510000121002000F092F9FFF732FFFFF744FCB1
:1015200025B9032C02D10122714B9A6270BD4FF490
:1015300000226E4B03265A66012203F540539D6A32
:1015400003F58053C5F340059A62C5E700250126DF
:10155000C2E7002540F2DD716648FFF783F92E46A9
:10156000BAE700250226B7E7022C07D00F2C0ED0D1
:1015700040F621015F48FFF775F90024584AD2F878
:10158000803123F003031C43C2F88041CEE70124DD
:10159000F4E7032C12D0052C12D0022C12D040F606
:1015A00052015448FFF75EF900224D49D1F820312D
:1015B00023F003031343C1F82031B7E70222F4E715
:1015C0000122F2E70322F0E7A1F10804082C33D846
:1015D000DFE804F0050532051C32323205004FF415
:1015E00080323F4B4449586E03F580535A660B6A6C
:1015F00043F001030B62C1035CBF404B5A664FF0DE
:10160000E022136923F0040313618FE74FF4803263
:10161000334B3949586E03F580535A660B6A23F0F1
:1016200001030B62C3035CBF344B5A664FF0E022E8
:10163000136943F00403E7E740F67A01BDE8704020
:101640002C48FFF70FB940F696012A48FFF70AF930
:1016500000210AE740F6B1012648FFF703F900210F
:101660001EE740F6D6012348FFF7FCF80021E5E627
:10167000083C062C13D8DFE804F00419190E1212E6
:10168000100002221649D1F8003223F00703134359
:10169000C1F800324AE70322F4E70422F2E740F6F9
:1016A000F6011448FFF7DEF80022EBE70122E9E734
:1016B00002220B49D1F8003123F003031343C1F890
:1016C000003133E70322F4E740F632110948FFF70F
:1016D000C9F80022EDE70122EBE700BFEF2F000081
:1016E00000800040EB2F0000EB2F00000090004036
:1016F00000E00040882F000000C0074000A000402C
:101700000F2C10D0102C10D040F677111348FFF793
:10171000A9F800221249D1F8203223F00303134321
:10172000C1F8203202E70122F4E70222F2E7083C86
:10173000E4B2032C0AD80B4B195D094AD2F84032A7
:1017400023F003030B43C2F84032EFE640F6CB111F
:101750000248FFF787F80021EFE700BF882F00005D
:1017600000800040EB2F0000EFF3108072B670474E
:1017700000B962B67047EFF31180302383F311880C
:10178000704780F311887047704700002DE9F041E1
:101790004FF040230446D3F88420D006FBD4D3F87E
:1017A0008430C3F381139C423FD0FEF72FFE012CFF
:1017B00005460BD11E4B984204D940F216611D48D4
:1017C000FFF750F801212846FFF74CFDFFF7CCFF4B
:1017D0004FF00072184B07465A662046FFF7D4FFB9
:1017E0004FF480634FF04026621E9340DFF8448040
:1017F0003367736E9A0103D4D6F884309B060AD5FA
:101800003846FFF7B5FF022C0FD12846BDE8F0415E
:101810000021FFF727BDD6F884309906E9D540F2BC
:1018200024614046FFF71EF8E3E7BDE8F08100BF02
:10183000005A6202F52F00000060004007B518B999
:101840000191FEF7E3FD0199064B1B7843B1064B6E
:10185000984205D8012003B05DF804EBFFF796BF6E
:101860000220F8E723130020005A62024FF04022C2
:10187000D36E017923F030030B43D3667047000029
:1018800010B54FF0004201244AF6CD31144B5A6690
:10189000144A03F50B2354605A6C1964224078B93A
:1018A000996811F0010F104903D08C60D86AC00705
:1018B000FCD501234B6012B10C4B0D4A1A6410BDCC
:1018C000D96A0907FCD42021074B59620121A3F5ED
:1018D0008053996005494B6A9B06FCD5EBE700BF36
:1018E000009000400050094000600940004009405D
:1018F0003254FFFF38B54FF00042184B184C5A666F
:10190000012203F50C235A604AF6CD33656C23643B
:1019100043781540934013434FF04022D363A368AC
:10192000827823F0740343EA0213C278002A14BFBA
:10193000042200221343A3600279837943EA02233D
:1019400023614279C37943EA022363610078FFF798
:1019500097FF0DB1034B2364012038BD0090004078
:10196000004009403254FFFF38B50D460446D8B157
:1019700001281CD002281CD0032803D10C23EB40E3
:10198000DB0704D440F213410B48FEF76BFF302015
:10199000012141F21003444304F1804401FA05F5AA
:1019A00004F57034E55038BD40F2FF13E7E71F231C
:1019B000E5E7FF23E3E700BF5830000038B50D46E8
:1019C0000446D8B101281CD002281CD0032803D11A
:1019D0000C23EB40DB0704D44FF479710B48FEF77E
:1019E00041FF3020012142F21003444304F18044BE
:1019F00001FA05F504F57034E55038BD40F2FF13E7
:101A0000E7E71F23E5E7FF23E3E700BF58300000C7
:101A10002DE9F0410D4616461F46804678B3012851
:101A200030D0022830D0032803D10C23EB40DB0751
:101A300004D440F21D112048FEF714FF26B12946B8
:101A400040461FB3FFF790FF302404FB08F4072D36
:101A500004F1804404F570341BD80F216368AA0098
:101A6000914023EA010306FA02F2134363600EBBBE
:101A700029464046D7B1BDE8F041FFF775BF40F2B7
:101A8000FF13D3E71F23D1E7FF23CFE7FFF796FF2D
:101A9000DAE70F21A5F10803E2689B00994022EAEA
:101AA000010206FA03F31343E360E0E7BDE8F04107
:101AB000FFF784BFBDE8F081BC30000010B50446DC
:101AC00018B98D211F48FEF7CDFE23781B0613F0B1
:101AD000604F03D08E211B48FEF7C4FEE3780F2B26
:101AE00003D99F211748FEF7BDFE01212020FFF7F3
:101AF00023F801212120FFF71FF80122124B5A6021
:101B0000227812069A606178A27842EA01429A61CC
:101B1000FF229A6200229A631A644FF000425A65CB
:101B20004FF0FF324FF4001103F500531A65074AD6
:101B3000C2F88011E3781B01DBB282F81533116023
:101B400010BD00BF203100000000044000E100E0B3
:101B50004FF090435A6812B19A6A002AFAD170473E
:101B600038B5022805460C4603D94C210C48FEF72F
:101B700079FEE378627821785B0143EA8203227977
:101B80000B4343EA02130C226A4302F190421363AF
:101B9000012902BFA278034B43F8252038BD00BFBE
:101BA000E7310000E880034008B54FF090435A68E1
:101BB00002B960B15B680BB1FFF7CAFF4FF090410B
:101BC00030B10120074B5860FFF7C2FFC86008BD65
:101BD000FFF7BEFF0223CB60FFF7BAFF0122024BE3
:101BE0005A60F4E7001000480020004870B54FF03C
:101BF00090435B680BB1FFF7ABFF0121104B4578B9
:101C0000596083780679002BC37814BF022400241E
:101C1000002B14BF042200224379DB0043EA0613A1
:101C20002B43234313434FF090429360054B59607D
:101C30000378002B14BF0B460223D36070BD00BF96
:101C400000200048001000482DE9F04180460E4673
:101C50001F46154622B94FF4A1713148FEF702FE26
:101C600026B94FF42070FEF7D3FF0646402F2AD046
:101C700009D8A7B1202F1CD040F28911BDE8F0414E
:101C80002748FEF7EFBD602FF6D1B5EB960F04D9CC
:101C900040F283112248FEF7E5FD04241DE0B5EB78
:101CA000161F04D94FF4BA711D48FEF7DBFD10244E
:101CB00013E0B5EBD60F04D940F279111848FEF7BE
:101CC000D1FD082409E00624B6FBF4F3AB4204D2AC
:101CD0004FF4BF711248FEF7C5FD6C43610801EB7C
:101CE0004616B6FBF4F40F4E203CB6EBC40F4FEA99
:101CF000C40504D24FF4D0710948FEF7B3FDD8F8FB
:101D00000830354023F06003C8F80830D8F80830B0
:101D10001F43C8F80870C8F81C50BDE8F08100BF28
:101D20004B320000F8FF7F0070B506460C461546A2
:101D300022B94FF422710C48FEF794FD24B94FF4F8
:101D40002070FEF765FF04466D00013CB4FBF5F41E
:101D5000064B250213EA042304D040F2A5210248D1
:101D6000FEF780FDF56170BD4B320000070080FF7B
:101D700038B50E4B044698420D4608D003F5804313
:101D8000984204D040F2BE210948FEF76BFD0122C3
:101D900004F580535A60EB43934003F00A036361F8
:101DA000656115B904F50054626038BD00C0054096
:101DB0004B32000010B5194B0446984208D003F589
:101DC0008043984204D040F22E411548FEF74AFD68
:101DD000012204F580535A6040F6AA6341F20502DD
:101DE000636100230F49A360E365E26004F50052DC
:101DF0002361E361E36491640849A3658C4202D0E6
:101E00000948844207D18C42236502D0064B9C428C
:101E100001D1002363650123536010BD00C005405C
:101E20004B320000FFFF01000000064070B5414B3F
:101E3000044698420D4608D003F58043984204D0EA
:101E400040F2EF213C48FEF70DFD2046FFF7B2FFC0
:101E5000012304F580567360AB7C1BB1A36843F08B
:101E60008043A360EB7C5BB1324A2B7D94423FD12F
:101E7000A2F51032C2F88C31E36D43F08003E365C4
:101E80002A8A6B7B20461343EA891343E3602B7B4A
:101E9000D5E90112FFF7D8FE6B7D1BB1A36843F4AF
:101EA0008033A360AB7DEA7D1B07120502F4E002DC
:101EB00003F0E0431343A365297E1E4A8B1E012BCA
:101EC0001E4B1FD894421BD002F5804294420CBF97
:101ED00001224FF0FF3203EB4213022041F21C6259
:101EE0000329985020D10423F3652B78636170BDDA
:101EF000134A944204BFA2F52032C2F89C31BBE7DA
:101F00000022E8E794420DD00D4A94420CBF012212
:101F10004FF0FF3203EB4213022042F21C62012910
:101F20009850DFE70022F5E7042204F50053DA6554
:101F3000DBE700BF00C005404B32000000C003409B
:101F40000000064038B5304B044698420D4608D094
:101F500003F58043984204D04FF456712B48FEF7A6
:101F600081FC2046FFF726FF0122A97B04F5805360
:101F70005A602A8AA368002914BF4FF480610021A7
:101F800042F0010213432A7D0B43002A14BF4FF095
:101F900000520022A360A3681343A360AB7C5BB133
:101FA000194AEB7C944227D1A2F51032C2F88C3149
:101FB000E36D43F08003E3652B7B2046D5E90112F6
:101FC00043F48053E360FFF7AFFE6B7B0BB110234C
:101FD00063616B7D1BB1A36843F48033A360AB7D69
:101FE000EA7D1B07120503F0E04302F4E00213430D
:101FF000A3652B78636138BD054A944204BFA2F5FE
:102000002032C2F89C31D3E700C005404B320000BB
:102010000000064083691B06FCD5406AC0B27047C9
:1020200083695B06FCD5C1637047000007B56B464A
:10203000054A1068516803C36846FFF75BFC00203F
:1020400003B05DF804FB00BFB032000013B54FF0E1
:1020500040220024536F684643F001035367009405
:102060008DF80440FFF702FC204602B010BD0000CE
:1020700070B586B001AA1546184B03F11006144638
:1020800018685968083303C4B3422246F7D1198847
:102090009B782180A370124BD3F84C21120314D4E7
:1020A000D3F85041E4B28DF80E40FFF76DF82044AC
:1020B00080F308008DF80D000A48FEF7DDF9284688
:1020C000FEF776FF002006B070BD074B1C884FF668
:1020D000FF739C4208BF8C24E5E700BFB8320000C4
:1020E0000080E00F00F049020001E00F1FB50B4A2D
:1020F00001AB1068516803C31189927A19809A70F4
:10210000192301A88DF80530FFF744F86420FFF784
:10211000A3F8002005B05DF804FB00BFCB3200003F
:1021200010B56FF0040250210A480B4C12F0800FDA
:10213000D3B21BBF03F00F03043BA3181B1802F11B
:1021400001020CBF83F800131976402AEED100205B
:1021500010BD00BF00ED00E000E100E010B5044656
:10216000FFF702FB024B1C60FFF702FB002010BDD3
:102170002413002010B5FFF7F7FA034B1C68FFF794
:10218000F7FA204610BD00BF2413002080F820106D
:10219000704790F8200070472DE9F8434FF0000891
:1021A000044617461D46C3F800804E1E2B68BB42EE
:1021B00006D32B68002B0CBF1B200020BDE8F88342
:1021C000FFF7D9FAD4F81490FFF7DBFAB9F1000F52
:1021D000EFD0A269E368D35C06F8013FE068E369E9
:1021E0000130984208BF4046E060FFF7C4FA6369D7
:1021F000013B6361FFF7C5FA6368204698472B6887
:1022000001332B60D2E770B504460568FFF7B2FFD3
:10221000844202D10020FFF7A1FF95F92130002B65
:1022200011DB012203F01F015B099B0003F16043F6
:102230008A4003F56143C3F88021C3F88020BFF3CF
:102240004F8FBFF36F8F00232846C4E90033C4E9E2
:102250000433A360AB68BDE87040184770B590F8D0
:10226000203005460C468E189BB1B44213D023781B
:102270000A2B03D10D2128462B68984728462B6846
:1022800014F8011B9847F0E728462B6814F8011B47
:102290009847A642F8D1002070BD0000F8B51F464F
:1022A000536805460C461646002B36D09368002B23
:1022B00035D024220021204600F00CFE7368194A14
:1022C000A361B368E361337B276084F82030069B09
:1022D0006360079BA36096F9003084F821306A6040
:1022E000114A002BAA60114A2C602A61104A6A61C7
:1022F000104AEA600CDB012203F01F015B099B001E
:1023000003F160438A4003F56143C3F880211A60FA
:102310002846FFF723FF0020F8BD2220FCE72120FC
:10232000FAE700BF5D220000992100008D21000026
:1023300093210000072200004269C06982422CBF3D
:10234000002001207047000038B54269C369044687
:102350009A420D4604D34FF4AF710948FEF782FA52
:102360002369A269D5546269236901326261E26915
:1023700001339342236104BF0023236138BD00BFB2
:10238000D6320000426AD36C43F00403D364704732
:1023900010B50446426A93695B06FCD5002394F8A5
:1023A0002B101A4694F82A00FFF732FB002394F80A
:1023B0002D101A4694F82C00FFF72AFB94F83230BF
:1023C00093B1002394F82F101A4694F82E00FFF7CB
:1023D0001FFB94F832303BB1002394F831101A46B9
:1023E00094F83000FFF714FB606A0021FFF7C0FC8F
:1023F000208D0021FEF7A0FB002010BD08B5406A2B
:10240000FFF70EFE002008BD2DE9FF4101271C4605
:10241000544B0A9D0193544B904600930A46CDE9D4
:1024200002772946514BFFF739FF0646002874D141
:10243000236839466B62A3883A202B85E37985F8B7
:102440002B30A37985F82A30637A85F82D30237AEA
:1024500085F82C30E37A85F82F30A37A85F82E3072
:10246000637B85F83130237B85F83030FEF764FBE1
:102470003B460422E179A079FFF7CAFA3B460222E3
:10248000617A207AFFF7C4FA3946A088FEF754FB38
:1024900088F8006041462068FFF7C8FC1422A37B3F
:1024A0005B0103F1804303F57033C3F81C26E17927
:1024B000A27942EA0142C3F83426617A227A42EADA
:1024C0000142C3F82C2685F8326098F81830032BA7
:1024D00046D8DFE803F01A022640012385F832309F
:1024E000002500230222E17AA07AFFF791FAE37A2D
:1024F000A27AA17B42EA03421D4B49015A500422B1
:10250000236803F58053DA6575B920680521C36C2B
:1025100043F00403C364FFF72BFC304604B0BDE86E
:10252000F081022385F8323000230422617B207B76
:10253000FFF76EFA022541F21C61A27B0D4B03EB03
:1025400042104550607B217BB13241EA004103EBF0
:1025500042139960D9E7032385F832300125C0E79B
:102560002326DAE79123000085230000FD230000E5
:1025700024D6034000C0034010B5436A04469B695B
:102580001B0610D5FFF7D8FE40B1606AFFF742FD89
:1025900001462046BDE81040FFF7D6BE626AD36C04
:1025A00023F00403D36410BD00230B7070470000B8
:1025B00030B50F4C41612368ABB92060836011E0F6
:1025C000891A9A681D4641612AB113465A698A429E
:1025D000F6D955B11A461346A860836013B15A69FB
:1025E000511A596130BD0025F0E72060F5E700BFC2
:1025F0004013002010B500F011FA0A4C0A4B19687C
:102600002368C31A01B10BB9206010BD4A699A4210
:102610003ABF9B1A0022D21A4A6128BF0023896858
:10262000F0E700BF2C1300204013002038B50F4BFB
:102630000F4D1C682B6802205B691C4400F022FAD5
:10264000204600F0F3F900230A492A680B70D0886D
:10265000800702D501230B7038BD9268002AFBD099
:1026600050690344012BF2D9F6E700BF2C13002078
:10267000401300203413002070B516469DF8142036
:10268000C0E903360271049ABDF8183002600022D6
:10269000C380826004460D4600F0C0F93044A0615A
:1026A0003DB9E368656113B120462168984796B14A
:1026B0003546FFF760F80646FFF79CFF294620469F
:1026C000FFF776FF054B1B68A34201D1FFF7AEFF72
:1026D0003046FFF756F8002070BD00BF40130020C1
:1026E00000220C490B687BB183420AD183687AB11E
:1026F000936083681BB15A6941690A445A6100209A
:1027000070471A469B68EEE70028EFD0022070471A
:102710000B60EEE74013002070B5FFF72CF8144E65
:1027200005463478FCB9134B1C60134B1C60134BEB
:102730001C8000F02FF9012000F0A4F900F0E0F96E
:102740000F4B0246186020B92846FFF71AF82320DD
:1027500070BD234640F2E7310A4800F0F3F90A4B16
:102760001860012333702846FFF70BF80020EFE7CD
:1027700028130020401300202C13002036130020C3
:102780003C13002018FCFFFF3013002038B50C4626
:10279000054698B191B100230B70FEF7ECFF0121C3
:1027A000074B1B680BB122781AB1FEF7EAFF002035
:1027B00038BDAB4214BF9B682170F3E72220F7E7D6
:1027C00040130020F0B587B01F4600230D46164683
:1027D00004468DF81730A0B10DF11701FFF7D6FFB1
:1027E0009DF817207AB9BDF83430294602939DF838
:1027F00030302046CDE900733346FFF73DFF07B088
:10280000F0BD2220FBE70320F9E70000044B1B6822
:1028100058434FF47A73B0FBF3F00130704700BFB8
:102820003C13002000B58BB001238DF80B30FFF76F
:10283000EDFF00230146CDE90033074A0DF10B03FC
:1028400003A8FFF7BFFF18B99DF80B30002BFBD191
:102850000BB05DF804FB00BFA92500002DE9F84F7F
:10286000C20704460BD5464A138801339BB2138036
:10287000FFF7C0FE434B1B680BB1FFF7D7FEA30762
:102880007CD5FEF778FF4FF0000A05465646FFF765
:10289000B1FED0463B4FDFF8F4903C680CB1636961
:1028A0008BB10022384B012E1A7003D1BAF1020FFE
:1028B00008BF1E70002C51D0FFF7B8FE2846BDE8B7
:1028C000F84FFEF75EBF23461A792179914288BFFF
:1028D0001C469B6813B15A69002AF5D02846FEF7BA
:1028E00050FFD4F810A0BAF1000F3BD000F096F8DA
:1028F000A269851AEB17AA4578EB030333DA23693B
:1029000013440122A3612369D3B1CAB9EB17BAEB0F
:10291000050563EB4303002B04DA40F2024148460D
:10292000FDF7A0FFFEF727FF824629462046FFF766
:102930003FFEA369226950461344A361FEF721FFBD
:10294000E368B4F806A0013613B120462168984721
:10295000FEF711FF0546FFF74DFE9EE7022000F04F
:102960009DF8ABE75546FEF706FF83462046FFF786
:10297000B7FE5846FEF705FF0022C4E7BDE8F88F12
:102980003613002040130020381300204E3300007F
:10299000002070471FB500241D4B012118689A883C
:1029A0000290D3F806009B7A00903E20ADF80C20F0
:1029B0008DF80430FEF7C0F88DF80840FFF7E8FF07
:1029C0008DF80C0002A8FFF711F9694601208DF877
:1029D0000040FFF7C5F84FF0904240F2FF31936995
:1029E00023F47F7323F0030393610A4B5961936AC5
:1029F00013F00803FBD113620120FFF7D5F84FF461
:102A00008052054BC3F880211A6004B010BD00BF8E
:102A1000C53300000020004800E100E04FF0904383
:102A20009A6A1207FCD4186A704700004FF090426F
:102A3000936A1907FCD4136A116C5269520604D4C4
:102A4000CA1A032A01D88B420ED1C21A022A98BF91
:102A5000D81CB0F1FF3F38BF01384FF090431864E5
:102A60009A6942F040029A61054A13783BB14FF0EF
:102A70009041CB6B43F00203CB630023137070478C
:102A80003610002082074FF0904200F00103916958
:102A900048BF43F040030B4393617047820700F047
:102AA00001030AD50121084A43F0400311704FF099
:102AB0009041CA6B22F00302CA634FF090418A69C9
:102AC00022EA03038B6170473610002010B5FEF731
:102AD00052FE4FF0904304465B695A06074A03F0E2
:102AE000010003F0510348BF40F002005361FFF7BB
:102AF000B5FE2046BDE81040FEF743BE002000486A
:102B000008B53E20FEF784F80346FFF741FF23FA9D
:102B100000F008BD08B5FDF7BBFBFDF7E9FBFDF7CD
:102B2000E9FBFDF7EEFBBDE80840FDF7EBBB08B5A0
:102B3000FDF7E9FBFDF7E8FBFDF7E7FBBDE8084023
:102B4000FDF7E4BB53B94AB9002908BF00281CBFF0
:102B50004FF0FF314FF0FF3000F082B9ADF1080CBB
:102B60006DE904CE00F006F8DDF804E0DDE90223AB
:102B700004B070472DE9F04F099D04460F46002B25
:102B800048D18A42944661D9B2FA82F343B1C3F183
:102B900020019F4002FA03FC9C4020FA01F10F4300
:102BA0004FEA1C411FFA8CFE220CB7FBF1F601FB29
:102BB000167706FB0EF042EA0742904208D91CEB5A
:102BC000020206F1FF3702D2904200F237813E4600
:102BD000121AA4B2B2FBF1F001FB102200FB0EFEB0
:102BE00044EA0244A64508D91CEB040400F1FF3274
:102BF00002D2A64500F21C81104640EA0640A4EB32
:102C00000E0400261DB1DC400023C5E90043314617
:102C1000BDE8F08F8B4209D9002D00F0FD80002621
:102C2000C5E9000130463146BDE8F08FB3FA83F6BE
:102C3000002E4BD18B42C0F0F280824240F2EF80F6
:102C40003046002DE3D0C5E90047E0E702B9FFDEDA
:102C5000B2FA82F3002B40F09D80891A4FEA124E9F
:102C600097B20126200CB1FBFEF20EFB121140EAD6
:102C7000014107FB02F088420FD91CEB010102F170
:102C8000FF382CBF4FF001094FF00009884203D9EB
:102C9000B9F1000F00F0CF804246091AA4B2B1FB8F
:102CA000FEF00EFB101100FB07F744EA0144A742B7
:102CB00008D91CEB040400F1FF3102D2A74200F254
:102CC000B4800846E41B40EA02409BE7C6F12007B7
:102CD000B34001FA06F422FA07FCF940B2404CEA8C
:102CE000030C20FA07F34FEA1C491C431FFA8CFE21
:102CF00000FA06F3200CB1FBF9F809FB181140EAC1
:102D0000014108FB0EF088420FD91CEB010108F1CC
:102D1000FF3A2CBF4FF0010B4FF0000B884203D954
:102D2000BBF1000F00F08D80D046091AA4B2B1FBB0
:102D3000F9F009FB101100FB0EFE44EA01418E453B
:102D400007D91CEB010100F1FF3401D28E457FD879
:102D5000204640EA0840A1EB0E01A0FB0298414545
:102D60004C46C64602D306D14B4504D20138B9EBD6
:102D7000020468EB0C0E002D70D01A1B61EB0E01E3
:102D800022FA06F301FA07F7F14000261F43C5E9CE
:102D900000713CE702FA03FCC3F1200001FA03F2E0
:102DA00021FA00F64FEA1C4E24FA00F11FFA8CF7C4
:102DB0009C401143B6FBFEF00A0C0EFB106642EA83
:102DC000064200FB07F696420ED91CEB020200F108
:102DD000FF382CBF4FF001094FF00009964202D98D
:102DE000B9F1000F31D04046921B89B2B2FBFEF61A
:102DF0000EFB162241EA024106FB07F28A4207D97E
:102E00001CEB010106F1FF3801D28A4223D8464665
:102E1000891A46EA004625E72E462846F7E6841A30
:102E200061EB030301201F460BE76444023849E7C6
:102E300064440238E1E6023A61442EE7023E62440D
:102E4000C6E6A8F1020861446FE702386244CBE7A6
:102E5000023861447DE7023E6144D9E72E46D6E65A
:102E6000704700BF08B5074B044613B1002100E0CE
:102E700000BF054B1868836A03B19847204600F0ED
:102E800031F800BF00000000D033000070B50D4DD8
:102E900000260D4C641BA410A64209D10B4D002640
:102EA0000B4C00F021F8641BA410A64205D170BDA4
:102EB00055F8043B01369847EEE755F8043B0136D8
:102EC0009847F2E7981000209810002098100020F2
:102ED0009C10002002440346934200D1704703F83F
:102EE000011BF9E7FEE700BFF8B500BFF8BC08BC5E
:102EF0009E467047F8B500BFF8BC08BC9E467047B8
:102F00002E2E2F6175746F67656E2F736C5F696FFE
:102F100073747265616D5F696E69745F75736172F8
:102F2000745F696E7374616E6365732E6300000075
:102F3000050000000000000000C2010000050000C4
:102F4000001000000000000000000000000006402B
:102F50002900000500060008000701000F1000000E
:102F6000F010002020000000000100001E000003FF
:102F7000050000000000000040420F0005010000B5
:102F80000000000000000000433A2F53696C6963A1
:102F90006F6E4C6162732F53696D706C69636974F5
:102FA0007953747564696F2F76352F646576656C17
:102FB0006F7065722F73646B732F6765636B6F5FE0
:102FC00073646B5F73756974652F76332E322F705F
:102FD0006C6174666F726D2F656D6C69622F7372B0
:102FE000632F656D5F636D752E630002010103033E
:102FF0000206010504433A2F53696C69636F6E4CF6
:103000006162732F53696D706C696369747953746D
:103010007564696F2F76352F646576656C6F7065A2
:10302000722F73646B732F6765636B6F5F73646B71
:103030005F73756974652F76332E322F706C6174EF
:10304000666F726D2F656D6C69622F7372632F6589
:103050006D5F656D752E6300633A5C73696C6963BF
:103060006F6E6C6162735C73696D706C69636974B7
:103070007973747564696F5C76355C646576656CCC
:103080006F7065725C73646B735C6765636B6F5FB5
:1030900073646B5F73756974655C76332E325C7034
:1030A0006C6174666F726D5C656D6C69625C696E93
:1030B000635C656D5F6770696F2E6800433A2F53DC
:1030C000696C69636F6E4C6162732F53696D706CCC
:1030D000696369747953747564696F2F76352F64E9
:1030E0006576656C6F7065722F73646B732F67659F
:1030F000636B6F5F73646B5F73756974652F763391
:103100002E322F706C6174666F726D2F656D6C69F5
:10311000622F7372632F656D5F6770696F2E630036
:10312000433A2F53696C69636F6E4C6162732F531E
:10313000696D706C696369747953747564696F2F14
:1031400076352F646576656C6F7065722F73646B6E
:10315000732F6765636B6F5F73646B5F73756974FF
:10316000652F76332E322F706C6174666F726D2FFF
:10317000656D6C69622F7372632F656D5F6C646D32
:10318000612E6300633A5C73696C69636F6E6C6196
:1031900062735C73696D706C69636974797374755B
:1031A00064696F5C76355C646576656C6F706572BA
:1031B0005C73646B735C6765636B6F5F73646B5F99
:1031C00073756974655C76332E325C706C617466FD
:1031D0006F726D5C656D6C69625C696E635C656D78
:1031E0005F6275732E6800433A2F53696C69636F91
:1031F0006E4C6162732F53696D706C696369747989
:1032000053747564696F2F76352F646576656C6FBE
:103210007065722F73646B732F6765636B6F5F7379
:10322000646B5F73756974652F76332E322F706C03
:103230006174666F726D2F656D6C69622F73726356
:103240002F656D5F727463632E6300433A2F536979
:103250006C69636F6E4C6162732F53696D706C693A
:103260006369747953747564696F2F76352F64655B
:1032700076656C6F7065722F73646B732F6765630F
:103280006B6F5F73646B5F73756974652F76332E34
:10329000322F706C6174666F726D2F656D6C696230
:1032A0002F7372632F656D5F75736172742E630087
:1032B00001030401010109030B0B0200002020009F
:1032C000038C8C3C0000000000000001260400007C
:1032D000010000000000433A2F53696C69636F6E70
:1032E0004C6162732F53696D706C696369747953B3
:1032F000747564696F2F76352F646576656C6F70B1
:1033000065722F73646B732F6765636B6F5F736494
:103310006B5F73756974652F76332E322F706C6115
:1033200074666F726D2F736572766963652F696F4E
:1033300073747265616D2F7372632F736C5F696F45
:1033400073747265616D5F756172742E6300433AC8
:103350002F53696C69636F6E4C6162732F53696D93
:10336000706C696369747953747564696F2F76350D
:103370002F646576656C6F7065722F73646B732F45
:103380006765636B6F5F73646B5F73756974652FDB
:1033900076332E322F706C6174666F726D2F736589
:1033A00072766963652F736C65657074696D65729B
:1033B0002F7372632F736C5F736C65657074696DC6
:1033C00065722E630001000000050002000003008A
:1033D0003810002000000000000000000000000085
:1033E00000000000000000000000000000000000DD
:1033F00000000000000000000000000000000000CD
:1034000000000000000000000000000000000000BC
:1034100000000000000000000000000000000000AC
:10342000000000000000000000000000000000009C
:043430000000000098
:083434004CCDFF7F01000000F8
:10343C0000C00540020202020001020340420F00DC
:10344C000800000000000000000100000000000067
:10345C0028110020C0EA2101C0EA210100F0490234
:10346C0000800000FFFF010000000000F4330000AA
:10347C0014340000D43300000000000000000000F1
:10348C000000000000000000000000000000000030
:10349C000000000000000000000000000000000020
:1034AC000000000000000000000000000000000010
:1034BC000000000000000000000000000000000000
:1034CC000000000000000000650100004101000048
:04000003000003B93D
:00000001FF
