:100000000010002069080000670800006708000071
:100010006708000067080000670800006708000024
:100020006708000067080000670800006708000014
:100030006708000067080000670800006708000004
:1000400067080000670800006708000067080000F4
:1000500067080000670800006708000067080000E4
:1000600067080000670800006708000067080000D4
:1000700005320000670800006708000067080000FC
:1000800067080000670800006708000067080000B4
:1000900067080000B10D0000670800006708000055
:1000A00067080000C10E00009D0E000067080000F8
:1000B0006708000067080000670800006708000084
:1000C0006708000067080000670800006708000074
:1000D0006708000067080000670800006708000064
:1000E0006708000067080000670800006708000054
:1000F0006708000067080000670800006708000044
:100100006708000067080000670800006708000033
:100110006708000067080000670800006708000023
:100120006708000067080000670800006708000013
:100130006708000067080000670800006708000003
:1001400010B5054C237833B9044B13B1044800E0D3
:1001500000BF0123237010BDAC1000200000000080
:10016000A43C000008B5034B1BB10349034800E061
:1001700000BF08BD00000000B0100020A43C00003B
:10018000A3F5803A704700BF174B002B08BF134BF5
:100190009D46FFF7F5FF00218B460F461348144A92
:1001A000121A03F033FA0E4B002B00D098470D4B78
:1001B000002B00D098470020002104000D000D48BE
:1001C000002802D00C4800E000BF03F0FBF920003B
:1001D000290000F069F803F0E1F900BF0000080011
:1001E000000000000000000000100020AC10002003
:1001F00060130020000000000000000010B500F0B7
:10020000BAF8002180230846A02200F057F8BDE884
:1002100010404FF478435A210020014A00F04EBAB2
:100220003836000070B51B4E1B4D4FF6E0730121B0
:1002300000201A4A00F042FA194C32461F230921C5
:10024000002000F03BFA2A461F231221002000F074
:1002500035FA22461F231B21002000F02FFA4FF60B
:10026000E0732D2100200F4A00F028FA32461F23A8
:100270003621002000F022FA2A461F233F210020C9
:1002800000F01CFA2246BDE870401F2348210020E0
:1002900000F014BA4F3600005D360000463600000C
:1002A0006E3600008236000008B502F0CFFFFFF77F
:1002B000A5FF02F0D8FFFFF7B5FFFAE7F8B505464E
:1002C00017460C461E462A2000F01CFA0121002089
:1002D00000F030FA0121284600F02CFA012100201C
:1002E00000F028FA0121E81900F024FA2B2000F090
:1002F00009FA0121002000F01DFA0121204600F03A
:1003000019FA0121002000F015FAA019012100F0CE
:1003100011FABDE8F8402C2000F0F4B910B5002126
:100320008023A0220846FFF7C9FF4FF4A044012113
:10033000002000F0FFF90121002000F0FBF9013C52
:10034000F5D110BD10B504460121000A00F0F2F904
:100350002046BDE81040012100F0ECB910B50123A2
:100360001446C0B21A46C9B2FFF7A8FF2046BDE83E
:100370001040FFF7E7BF07B500F0B1F9012000F02A
:10038000C1F9052002F0EAFD112000F0BBF90520BB
:1003900002F0E4FDB12000F0B5F90121084600F0BB
:1003A000C9F901212C2000F0C5F901212D2000F010
:1003B000C1F9B22000F0A6F90121084600F0BAF90F
:1003C00001212C2000F0B6F901212D2000F0B2F916
:1003D000B32000F097F90121084600F0ABF90121A4
:1003E0002C2000F0A7F901212D2000F0A3F9012114
:1003F000084600F09FF901212C2000F09BF9012113
:100400002D2000F097F9B42000F07CF9012107209D
:1004100000F090F9C02000F075F90121A22000F051
:1004200089F90121022000F085F90121842000F0E2
:1004300081F9C12000F066F90121C52000F07AF9A8
:10044000C22000F05FF901210A2000F073F90121B8
:10045000002000F06FF9C32000F054F901218A2038
:1004600000F068F901212A2000F064F9C42000F0AE
:1004700049F901218A2000F05DF90121EE2000F008
:1004800059F9C52000F03EF901210E2000F052F983
:10049000202000F037F9362000F034F90121A020A7
:1004A00000F048F93A2000F02DF90121052000F074
:1004B00041F92A2000F026F90121002000F03AF944
:1004C0000121002000F036F90121002000F032F96E
:1004D0000121A02000F02EF92B2000F013F90121BA
:1004E000002000F027F90121002000F023F901216C
:1004F000002000F01FF90121802000F01BF9E0200E
:1005000000F000F90121022000F014F901211C2063
:1005100000F010F90121072000F00CF90121122050
:1005200000F008F90121372000F004F90121322000
:1005300000F000F90121292000F0FCF801212D2014
:1005400000F0F8F80121292000F0F4F8012125201D
:1005500000F0F0F801212B2000F0ECF80121392007
:1005600000F0E8F80121002000F0E4F8012108463D
:1005700000F0E0F80121032000F0DCF80121102058
:1005800000F0D8F8E12000F0BDF80121032000F0D0
:10059000D1F801211D2000F0CDF80121072000F045
:1005A000C9F80121062000F0C5F801212E2000F035
:1005B000C1F801212C2000F0BDF80121292000F014
:1005C000B9F801212D2000F0B5F801212E2000F00E
:1005D000B1F801212E2000F0ADF80121372000F004
:1005E000A9F801213F2000F0A5F80121002000F02A
:1005F000A1F80121002000F09DF80121022000F067
:1006000099F80121102000F095F8132000F07AF8F5
:10061000292000F077F80190FFF780FE019803B0E1
:100620005DF804FB2DE9F84F402A05460E461F46AB
:1006300029D9A2F13604E4B24FF0000A1E4A02EBB7
:10064000C4044FF000080AEB060B14F8019B0FFAE4
:100650008BFBC8F1070249FA02F212F0010208EB23
:10066000050018BF3A46594600B208F10108FFF7E5
:1006700075FEB8F1080FECD10AF1010ABAF1080FC2
:10068000DFD1BDE8F88FA2F13003092B02D8A2F127
:100690002F04D0E7202A08D0252A08D03F2A08D0E6
:1006A0003A2A14BF00242724C6E70024C4E72624DE
:1006B000C2E72524C0E700BF8B360000F8B50E4620
:1006C0001F46C4B2551E15F8012F02B9F8BD2046C9
:1006D0003B4631460834FFF7A5FFE4B2F3E710B517
:1006E00001213A2000F066FF0123042206210220A6
:1006F00001F0D2FFBDE81040012304221846114644
:1007000001F0CABF07B51022084B8DF807001A6424
:10071000074B012218680DF1070100F0C5FD0038F4
:1007200018BF012003B05DF804FB00BF00E00340E8
:100730002C10002007B50A461021074B01901964C0
:10074000064B01A9186800F0AFFD003818BF012062
:1007500003B05DF804FB00BF00D003402C10002064
:10076000704708B50321802001F05AFB03214FF4A4
:10077000806001F055FB03214FF4906001F050FBC5
:1007800008214FF4C06001F04BFB08214FF4F060EA
:1007900001F046FB08213E2001F042FB08212D20FC
:1007A00001F03EFB002008BD08B5134B1B68C3F3E6
:1007B0000743012B0ED1114B04205A6E4FF48023B6
:1007C0000F49520358BF0F4A4B6601F510410862AA
:1007D00058BF536602F03EFA00F041F802F0C0F94B
:1007E00002F0E0F902F01CFAFFF7BBFF02F0C8F9D3
:1007F000BDE8084000F02AB80080E00F008000400B
:100800000090004000A0004008B500F021FB00F07F
:100810000DF8BDE8084000F00FB802F0F1BA7047DB
:10082000704770477047704770470000014800F0FC
:100830009DB800BFCC370000024B0349186800F098
:10084000FDBB00BF2C1000200C10002008B50121BA
:100850003A2000F0AFFEBDE80840FFF781BF01215C
:100860003A2000F0A7BEFEE708B500F013F8064BEB
:10087000064A07498B4201D3FFF786FC52F8040B66
:1008800043F8040BF6E700BF00100020AC3C00006A
:10089000AC100020044B054A9A60D3F8882042F43B
:1008A0007002C3F88820704700ED00E000000000EF
:1008B000014B1868704700BF34100020084B1B6FB5
:1008C00003F00703022B04D0032B05D0012B05D026
:1008D000FEE7044B18687047034BFBE7034870477B
:1008E000008000403410002038100020002D31011D
:1008F00008B5FFF7E3FF054B1B6FC3F30333013369
:10090000B0FBF3F0024B186008BD00BF0080004050
:10091000301000200048704700B4C404014B186830
:10092000704700BF38100020054B1860054B1B6F47
:1009300003F00703032B01D1FFF7DABF704700BFB5
:1009400038100020008000400020704700487047A9
:10095000002D31014FF4004070474FF47A7070471A
:10096000014B1868704700BF3C10002043680BB172
:1009700000681847222070477047000038B50D46C0
:100980000446B0B1012817D0022817D0032803D19C
:100990000C23EB40DB0704D440F2B531084800F0EB
:1009A0009FFC30204443074B1859E84000F00100F9
:1009B00038BD40F2FF13ECE71F23EAE7FF23E8E727
:1009C000E437000014C0034070B5114B00241978BF
:1009D000104B1E46E2B2914200D870BD53F8042B72
:1009E00015686A79824210D12A78022A0DD0014610
:1009F0002879FFF7C3FFB0FA80F04009287056F855
:100A00002400BDE87040FFF7B7BF0134E2E700BF44
:100A1000CB3700000810002013B5044601213A200E
:100A200000F0C8FD002301226179207901F034FE35
:100A300061792079FFF7A2FFB0FA80F0A37940092D
:100A4000022B20700DD100F003FA0749607900F005
:100A500017FA01236279CDE900331146207901F0BC
:100A6000A1FD002002B010BDC90900000078704748
:100A700010B503780446022B16D041790079FFF7B0
:100A80007DFFA2790346012A15D1003B18BF01233F
:100A90004FF6E071608843EA400363F03F039BB286
:100AA0008B4202D12270638010BD4FF6DF729342F9
:100AB000F9D10022F6E7002AF6D1B0FA80F35B09FB
:100AC0002370F1E70278022A03D100224280FFF767
:100AD000A3BF704713B503780446022B10D0837967
:100AE000022B0BD10021407900F0CAF90023627972
:100AF000CDE900331146207901F054FD0223237023
:100B000002B010BD2DE9F04F85B09A46554B064610
:100B10001B780F461546DDF83C909DF844B0DDF893
:100B20005080002B00F08D80072A00F28C800E9BF5
:100B3000002B00F08880B9F1000F00F08480129B38
:100B4000B3F5006F7FDC012802D1109B002B7AD017
:100B5000454B03EB05131B7B002B76D0434C102237
:100B60000021684602F052FD04EB45141022002FCC
:100B700059D13946204602F049FD43F21003638003
:100B8000BBF1000F03D1E37843F00303E370374A6E
:100B90000E9B02EB451CCCE90193129B6901013BC2
:100BA000C3F30A009DF84C30012E03F003034FEA13
:100BB000836343EA001E53582D48CDF800A000EA95
:100BC00003004EEA0003535041D113230CF1100EE1
:100BD000CCF80C309CE80F008EE80F006FF003019A
:100BE000DCF81C20109B61F39F02012FCCF81C2025
:100BF000CCF8143003D1CCF81890CCF8043000278E
:100C0000194A290102EB051342F80180159A28467A
:100C10005A60694622469F605E7301F0DDFD3846EA
:100C200005B0BDE8F08F0021204602F0EFFC4FF444
:100C300044736380BBF1000FA9D1E37843F0300324
:100C4000A4E70C48ECE70C48EAE70C48E8E7B8F101
:100C5000000FD4D19CF8023068F304138CF80230F2
:100C6000CDE700BFC012002040110020C0110020BD
:100C70000F80FFF3028000F0018000F0078000F099
:100C800038B5124B05461B78DBB1E0B101F0C3FA71
:100C90000F4A00231146147B54B92B6001251A0119
:100CA00001EB03131D738C5001F0BBFA204638BDD5
:100CB0000133082B02F11002EDD101F0B2FA054820
:100CC000F5E70548F3E70548F1E700BFC01200204B
:100CD00040110020048000F0028000F0018000F04C
:100CE00013B5154B1868002301908DF8043001F0FE
:100CF00092FA124B1C7824B101F093FA104802B01A
:100D000010BD01221A7001F08CFA0E4B01A81C7361
:100D10001C7783F82C4083F83C4083F84C4083F8E0
:100D20005C4083F86C4083F87C4008238DF80730E2
:100D300001F008FD2046E2E748380000C01200201C
:100D4000038000F04011002010B588B00E9C009286
:100D500007940D9C024606949DF8304005940B9C28
:100D600004949DF8284003940024CDE901342046E2
:100D70000B462146FFF7C6FE08B010BD10B588B07F
:100D80000E9C009207940D9C024606949DF83040FC
:100D900005940B9C04949DF8284003940024CDE90D
:100DA000013420460B460121FFF7ACFE08B010BD10
:100DB0002DE9F843174B1F6D5B6D1F4000D5FEE713
:100DC00001260025144CDFF85480DFF85490374298
:100DD00017D02368C8F850609BB1A168284601313C
:100DE0006268A1609847637B012B0AD148B909EB7F
:100DF00045131A7B60F341021A731A7F60F34102B4
:100E00001A770135082D4FEA460604F11004DED1A9
:100E1000BDE8F88300000440401100200020044099
:100E2000C011002070B501250446084E04B970BDFC
:100E300094FAA4F0B0FA80F005FA00F324EA03046F
:100E400056F82030002BF1D09847EFE7C41200206D
:100E500008B5192001F0E8F928B14FF00072074BEE
:100E6000C3F880211A601A2001F0DEF928B14FF092
:100E70008062024BC3F880211A6008BD00E100E0E7
:100E800038B504460D4601F0C6F9034B43F824502B
:100E9000BDE8384001F0C5B9C4120020074BD3F8B3
:100EA0002404D3F8202403F50053104000F05530FB
:100EB00020F05020C3F82004FFF7B4BF00C0034067
:100EC000074BD3F82404D3F8202403F50053104033
:100ED00000F0AA3020F0A020C3F82004FFF7A2BF42
:100EE00000C003400123816480F850307047000047
:100EF00038B5144601F08FF90023A36484F84C3010
:100F00002364237F0546012B03D104F15C0001F02B
:100F1000B1FF636B1BB100212046E26B9847284666
:100F200001F07FF9636D002B03DCB721034800F06B
:100F3000D7F9636D0120013B636538BD4C38000073
:100F400038B50546B0B1B9B1B2B1B2F5006F13DC36
:100F500001F061F995F84C3003F0FF041BB101F08A
:100F600060F9064838BD012385F84C3001F059F985
:100F70002046F7E70248F5E70248F3E7032000F0D0
:100F8000012000F0022000F02DE9F04387B0174661
:100F90000022436390F858300446884680F8502079
:100FA000C76343BB4FF4406346690568092E6B6114
:100FB00024D9012605F12C0344354FF00009626D58
:100FC000216B01326265134AA06ACDE90262049482
:100FD00004F138020197CDF80090FFF7CFFE01230E
:100FE0002A460093CDE903994346CDE90176E16AAB
:100FF000606AFFF7A9FE07B0BDE8F083A6F1090219
:101000000BBF05F1200305F1240338353C3556426A
:101010005641D2E7F10E000010B50446152001F04C
:101020001DF930B994F85030002BFBD005E0FFF7E4
:10103000BFFE94F85030002BF9D010BD2DE9F041DF
:1010400088B004468E4F02AE0D460FCF0FC697E80C
:10105000030086E80300002C00F010811DB98948C8
:1010600008B0BDE8F08178220021204602F0CEFAD7
:1010700000232A68844963658A4240F0B1802821B0
:10108000A4F84E104FF4802198468048C4E90B0123
:1010900000232F4684F85830261D22600FCF0FC63C
:1010A00097E80F0086E80F006B7E012B08BF8DF8D4
:1010B0001630AB7E002B40F0A280ADF818302B7EAE
:1010C0000121012B03BF00238DF815304FF47A73F3
:1010D000EB683A20049300F06DFA0121B4F84E0059
:1010E00000F068FA2B691A1F0C2AB8D8033B28684D
:1010F00002A98DF8143001F0CBFCAB6923F47F0317
:1011000023F47F4323B92268936843F480339360C8
:101110002B7A2879697940EA03406B7AAA7941EA07
:101120000341AB7AEE7E42EA0342594B4FEA48183C
:101130004344002E73D11D26C3F81C66C3F8340641
:10114000C3F82C16C3F83026E97AEA7942EA01425C
:10115000C3F82026E37BE27A84F84530237F207AA7
:10116000677AA57A217B94F80D80A67B84F84420C9
:10117000002B5ED10422019301F08EFA019B012223
:101180004146384601F088FAA27F3146012A8CBFD9
:101190000123019B0422284601F07EFAE37F3BB93C
:1011A0000123042294F8451094F8440001F074FAE5
:1011B00001F031F8374B1A78002A54D101221A7005
:1011C00001F02FF801F01CFEFFF78AFD002104F169
:1011D0002400FFF755FD0146002847D02E483FE781
:1011E0002E4B9A427FF43BAF2923A4F84E304FF4A4
:1011F000A0232B494FF00108C4E90B1348E7012B4A
:1012000002D14FF4007358E7022B02D14FF48073E0
:1012100053E7032B7FF423AF4FF440734DE71C25B6
:10122000C3F81C56C3F83406C3F82C16C3F830268E
:1012300090E70023012201F02FFA00230422414607
:10124000384601F029FAA37F0222012B94BF002324
:1012500001233146284601F01FFAE37F002BA7D176
:10126000012302229EE700F0DCFFADE704F1280035
:10127000FFF706FD00283FF4F3AEAFE70948EFE6BD
:10128000B8380000022000F000C005400200040051
:1012900000C0034044130020092000F00000064075
:1012A00002000500012000F070B5037F0446012B09
:1012B0000D4616460DD0FFF743FE48B93246294683
:1012C0002046054BFFF760FE2046FFF7A5FEA06C09
:1012D00070BD0248FCE700BFE50E0000082000F0EA
:1012E000FEE74FF04023D3F88420D206FBD4D3F896
:1012F0008400C0F38110704738B5124B0546D3F80F
:1013000020310C4603F00303022B0BD0032B0DD02E
:10131000012B0FD1FFF7CCFA052305B1286004B1EA
:10132000237038BDFFF7FAFA0323F6E7FFF70EFB49
:101330000223F2E7044840F61771FFF7D1FF0023BC
:101340001846EAE700800040D0380000F7B50024D6
:10135000114B0194D3F88051074605F00305012D88
:101360000E4607D0022D11D041F252010B48FFF773
:10137000B7FF04E0214601A8FFF7BEFF0F240FB11D
:10138000019B3B6006B1347003B0F0BDFFF7DEFA9D
:101390002C460190F3E700BF00800040D0380000E9
:1013A00038B5194B0546D3F824310C4603F0070332
:1013B000013B052B20D8DFE803F0030F171B0B13AD
:1013C000FFF776FA052305B1286004B1237038BD14
:1013D000FFF76EFA0623F6E7FFF7A0FA0323F2E71A
:1013E000FFF79CFA0423EEE7FFF7B0FA0223EAE7DF
:1013F000FFF7AAFA0723E6E7044840F21621FFF7B1
:101400006FFF00231846DEE700800040D038000060
:1014100038B5124B0546D3F840310C4603F00303B0
:10142000022B0BD0032B0DD0012B0FD1FFF792FA1B
:10143000092305B1286004B1237038BDFFF790FA85
:101440000823F6E7FFF789FA0B23F2E7044840F692
:101450004571FFF745FF00231846EAE7008000408A
:10146000D038000038B5154B0546D3F800320C468D
:1014700003F00703013B032B18D8DFE803F0020A4F
:101480000E12FFF767FA092305B1286004B1237033
:1014900038BDFFF765FA0823F6E7FFF75EFA0B237E
:1014A000F2E7FFF725FA0E23800AEDE7044841F240
:1014B0000711FFF715FF00231846E5E700800040FD
:1014C000D038000038B5124B0546D3F840320C46F0
:1014D00003F00303022B0BD0032B0DD0012B0FD1F4
:1014E000FFF738FA092305B1286004B1237038BD2D
:1014F000FFF736FA0823F6E7FFF72FFA0B23F2E798
:10150000044841F29A01FFF7EBFE00231846EAE790
:1015100000800040D038000038B5124B0546D3F8A3
:1015200060310C4603F00303022B0BD0032B0DD0CC
:10153000012B0FD1FFF70EFA092305B1286004B182
:10154000237038BDFFF70CFA0823F6E7FFF705FA1A
:101550000B23F2E7044840F69271FFF7C1FE002327
:101560001846EAE700800040D038000010B40F4C65
:101570000B46D4F8204204F00304012C0ED0022CB8
:1015800010D008B1002101600BB100221A704FF495
:10159000107107485DF8044BFFF7A2BE5DF8044BDD
:1015A000FFF7AABE5DF8044BFFF732BF0080004092
:1015B000D038000070B5460904460D460FD140F200
:1015C00005110D48FFF78CFE334604F01F0485B16A
:1015D00003F58053012000FA04F41C6070BD012E55
:1015E00005D0064B064A022E18BF1346EDE7054B01
:1015F000EBE703F50053EDE7D038000068800040CA
:10160000608200406480004010B5B0F5207F34D087
:1016100009D8B0F5007F2AD003D898B1B0F5C07FC3
:1016200010D0002421E0B0F5607FFAD1154BD3F83B
:101630008030C3F301149B0617D5032C15D04FF44B
:10164000CE610FE00F4B1C6F230B13F00E0FC4F392
:1016500003340AD0032C08D0072C06D00F2C04D05A
:101660004FF4CC610848FFF73BFE601C10BD054BF2
:10167000D3F89040C4F30464F7E7024B1C6FC4F343
:101680008024F2E700800040D038000030B585B0FB
:10169000002380280446029375D02BD8002878D0E8
:1016A000A0F12004A3B2412B32D8412C30D8DFE87E
:1016B00004F070737073868686867373903FA76597
:1016C0003F7373732F2F2F2F2F2F8B57737373B17C
:1016D000AC732F2F2F2F2F2F2F2F2F2F2F2F2F7018
:1016E0002F707070862F2F2F2F2F2F2F2F2F2F2FF0
:1016F0002F2F7070B0F5806F61D024D8B0F5007FC7
:1017000054D00BD8B0F5807F68D0B0F5C07F40D002
:1017100040F2DB114248FFF7E3FD37E0B0F5607FB0
:1017200044D0F5D8B0F5207F36D0B0F5407FEFD16A
:10173000FFF7DEF804464FF42070FFF765FFB4FBB7
:10174000F0F0400821E0B0F5C06F59D00DD8B0F5E9
:10175000A06F39D0B0F5B06F3BD0B0F5906FD7D156
:10176000002102A8FFF71CFE10E0B0F5E06F4CD09E
:10177000B0F5F06F4ED0B0F5D06FC9D1002102A8FE
:10178000FFF770FE02E0FFF799F80290029805B0AB
:1017900030BDFFF7ADF8F8E7FFF7AAF804464FF4BD
:1017A0002070FFF731FFB4FBF0F0EEE7FFF786F8AB
:1017B00005462046FFF728FFB5FBF0F0E5E70021DE
:1017C00002A8FFF799FDE1E7002102A8FFF7CEFE8E
:1017D000DCE7002102A8FFF7B9FDD7E703934FF03C
:1017E000E0231B695B0705D5FFF782F80390039B95
:1017F0000293CBE70DF1070103A8FFF709FEF6E717
:10180000002102A8FFF704FEC0E7002102A8FFF7AD
:1018100059FEBBE7002102A8FFF77EFEB6E700BF36
:10182000D038000008B58020FFF730FF034B984206
:101830009EBF4FF48032024B1A6708BD005A620205
:1018400000A0004070B54FF400320F4B06469A6678
:1018500000200D46FFF7D8FE41F671320B4B704366
:10186000DC690B49DA639A68884204F4803422F414
:10187000401203D9012D18BF42F480129A600CB1B6
:101880000022DA6370BD00BF0090004000000340FA
:10189000005A620208B5FFF73DF8BDE80840002194
:1018A000FFF7D0BF07B50023B0F5807F8DF8023079
:1018B00000F0888028D8382800F0A8800CD8243878
:1018C00083B2092B10D809280ED8DFE800F075750F
:1018D00075750D0D6B0D378F52286DD007D83D28CB
:1018E0003CD03E2800F0988040F2A37156E080285A
:1018F000FAD14C4B1B6F03F00703013B032B4BD872
:10190000DFE803F048444280B0F5D06F6ED01BD8BA
:10191000B0F5A06F7AD00BD8B0F5806F4CD0B0F591
:10192000906FE1D100200DF10201FFF739FD3EE09B
:10193000B0F5B06F36D0B0F5C06FD5D100200DF145
:101940000201FFF765FD32E0B0F5006FEAD00BD879
:10195000B0F5E06F60D0B0F5F06FC5D100200DF1AB
:101960000201FFF7D9FD22E0B0F5086FBCD12D4B85
:10197000D3F8003103F00303022B3DD0032B3FD0FB
:10198000012B41D1FEF7CAFF032300E005238DF8A8
:1019900002300CE00223FAE740F20B712248FFF715
:1019A0009FFC04E000200DF10201FFF7CFFC9DF841
:1019B000020003B05DF804FB00200DF10201FFF707
:1019C0009BFCF4E701934FF0E0231B695B0707D50D
:1019D000FEF78EFF0C238DF803309DF80330D6E719
:1019E0000DF1030101A8FFF713FDF6E700200DF14B
:1019F0000201FFF737FDDAE7FEF7B2FF0823C6E77B
:101A0000FEF7A2FF0723C2E70123C0E700200DF184
:101A10000201FFF7ABFDCAE700200DF10201FFF75D
:101A200051FDC4E700800040D038000070B5037855
:101A300004460F2B04D940F601416B48FFF750FCD8
:101A400063780F2B04D940F604416748FFF748FC40
:101A5000A3780F2B04D940F607416348FFF740FCF9
:101A6000E3780F2B04D940F60A415F48FFF738FCB2
:101A700023790F2B04D940F60D415B48FFF730FC6A
:101A800063793F2B04D94FF441615748FFF728FC95
:101A9000A3793F2B04D940F613415348FFF720FCAC
:101AA000E379032B04D940F616414F48FFF718FCA1
:101AB000237A032B04D940F619414B48FFF710FC59
:101AC000637B012B04D940F61C414748FFF708FC13
:101AD0008020FFF7E7FE03287CD04FF40022434B21
:101AE00043495A6645F60E030222C1F88030414B45
:101AF0009A62012203F580539A628A6D12F4803251
:101B0000FBD1637820781B0543EA0063A079257C2C
:101B10000343E078667C43EA0043207943EA0033DC
:101B2000607943EA80130B618B69E07A03F000432C
:101B30000343E07943EA8063207A43EA0063607AF2
:101B400043EA0043A07A43EA00238B61637B096A7E
:101B5000002B18BF0822207B21F00D0143EA01036E
:101B600043EA800342EA0302214B1A62A27B4FEA56
:101B7000421230D1986AE17B20F0330042EA011230
:101B8000024342F001029A621B4A996D32EA010156
:101B9000FBD1022217498A621A659A6D5200FCD461
:101BA0001869A27820F4700040EA02504FF0004219
:101BB0001861104B9A611DB9022203F580539A6295
:101BC00016B901220D4B9A62A37C1BB1084B0C4A3B
:101BD000C3F8802070BD996A21F0330131430A4374
:101BE00042EA4502EFE700BFD03800000090004015
:101BF00000C0004000D000400300014000E0004071
:101C0000F1A7FFFF014B93F9000070474513002037
:101C100010B583780446072B04D940F685512A482D
:101C2000FFF75EFBE378032B04D940F68751264883
:101C3000FFF756FB2378032B04D940F6895122483D
:101C4000FFF74EFB94F90130002B04DA40F68B517C
:101C50001D48FFF745FB4FF480011C4A637851662D
:101C60004FF4D151022002F5B832516218494F2B7E
:101C700048604FF0010028BF4F2301F580514860B4
:101C80001169C903FCD4217843EA01235361E37845
:101C9000A1781B0143EA012361790B43217943EACF
:101CA00041039360E379A1791B0143EA4113617A0F
:101CB0000B43217A43EA41035360A37A13B16FF4D3
:101CC000D153536210BD00BFD038000000900040D7
:101CD00000100240014B1880704700BF40100020E8
:101CE0000029CCBF01210021FFF7ACBD10B5B0F534
:101CF000207F65D00ED8B0F5007F4FD003D800B359
:101D0000B0F5C07F1DD040F2E161BDE8104034481D
:101D1000FFF7E6BAB0F5607FF5D14C1E012C06D96D
:101D2000042904D040F2C7612D48FFF7D9FA2D4AA3
:101D3000D2F8803023F0300343EA0413C2F8803035
:101D400010BD102901F1FF3404D8274B23FA01F10B
:101D5000CB0704D440F29E612148FFF7C1FAFFF798
:101D600099FD00F045F84FF48031204B1D4A19676A
:101D7000136F23F4704343EA04331367FEF7B8FD8F
:101D80000446FFF7AEFAC0F102012046FFF7A8FFB4
:101D900000F034F8BDE81040FFF744BD4C1E1F2C86
:101DA00004D940F2D5610E48FFF79AFA0D4BD3F8EB
:101DB000901021F0F85141EA0461C3F89010BFE798
:101DC0004C1E012C04D940F2DB610548FFF788FA6C
:101DD000044B196F21F4806141EA84211967AFE750
:101DE000D038000000800040160101000090004043
:101DF00002214FF42070FFF779BF000008B54FF4BF
:101E0000C070FFF743FCBDE80840044988428CBF1E
:101E1000022101214FF42070FFF768BF80F0FA0221
:101E200070B5B0F5807F0C4600F00C812CD83828B6
:101E300000F0A48111D8243883B2092B16D80928C0
:101E400014D8DFE810F0E400E400E400E40013003C
:101E50001300CF00130049005301522800F0D7802F
:101E600007D83D2853D03E2800F09F8140F66621D8
:101E700022E18028FAD18B1E052B00F2A880DFE832
:101E800003F0A394A6AEA667B0F5D06F00F02E8144
:101E900032D8B0F5A06F00F0718116D8B0F5806F20
:101EA00000F0B580B0F5906FE0D1023CE4B2052CB3
:101EB00000F21581A84B195DA84AD2F8243123F00D
:101EC00007030B43C2F824316EE0B0F5B06F00F0A9
:101ED0008980B0F5C06FC9D1083CE4B2032C00F290
:101EE000F0809F4B195D9D4AD2F8403123F00303E7
:101EF0000B43C2F8403157E0B0F5006FD5D016D88B
:101F0000B0F5E06F00F05181B0F5F06FAED1083C54
:101F1000E4B2032C00F2DC80924B195D8F4AD2F8B8
:101F2000603123F003030B43C2F860313CE0B0F5AD
:101F3000086F9BD14C1E072C00F20481DFE814F0DF
:101F40000701020109010201020102010001F6007C
:101F5000002504260121022000F0B8F9FFF79AFCC1
:101F6000FFF746FF4FF480317F4B7C4A1967136FB0
:101F700023F0070333431367FEF7BAFC0646FFF767
:101F8000B0F9C0F102013046FFF7AAFE012100209E
:101F900000F0F4F9FFF732FFFFF744FC25B9032CFA
:101FA00002D10122714B9A6270BD4FF400226E4B38
:101FB00003265A66012203F540539D6A03F58053B8
:101FC000C5F340059A62C5E700250126C2E7002552
:101FD00040F2DD716648FFF783F92E46BAE7002527
:101FE0000226B7E7022C07D00F2C0ED040F62101B5
:101FF0005F48FFF775F90024584AD2F8803123F082
:1020000003031C43C2F88041CEE70124F4E7032C0C
:1020100012D0052C12D0022C12D040F65201544896
:10202000FFF75EF900224D49D1F8203123F0030378
:102030001343C1F82031B7E70222F4E70122F2E7A7
:102040000322F0E7A1F10804082C33D8DFE804F0FC
:10205000050532051C32323205004FF480323F4B09
:102060004449586E03F580535A660B6A43F00103E6
:102070000B62C1035CBF404B5A664FF0E02213690C
:1020800023F0040313618FE74FF48032334B394957
:10209000586E03F580535A660B6A23F001030B62F6
:1020A000C3035CBF344B5A664FF0E022136943F020
:1020B0000403E7E740F67A01BDE870402C48FFF7DB
:1020C0000FB940F696012A48FFF70AF900210AE7FE
:1020D00040F6B1012648FFF703F900211EE740F65C
:1020E000D6012348FFF7FCF80021E5E6083C062C62
:1020F00013D8DFE804F00419190E1212100002229E
:102100001649D1F8003223F007031343C1F8003217
:102110004AE70322F4E70422F2E740F6F601144806
:10212000FFF7DEF80022EBE70122E9E702220B4984
:10213000D1F8003123F003031343C1F8003133E732
:102140000322F4E740F632110948FFF7C9F80022EC
:10215000EDE70122EBE700BF3739000000800040C7
:1021600033390000333900000090004000E00040A7
:10217000D038000000C0074000A000400F2C10D055
:10218000102C10D040F677111348FFF7A9F8002261
:102190001249D1F8203223F003031343C1F820324F
:1021A00002E70122F4E70222F2E7083CE4B2032C42
:1021B0000AD80B4B195D094AD2F8403223F00303C9
:1021C0000B43C2F84032EFE640F6CB110248FFF76E
:1021D00087F80021EFE700BFD03800000080004002
:1021E000333900000028ABBF00F16040054B00F51B
:1021F000614000F00F00ACBF90F80003185C0009CC
:10220000704700BF14ED00E0EFF3108072B6704726
:1022100000B962B67047EFF31180302383F3118861
:10222000704780F31188704738B5C5B23F2D04461A
:1022300004D940F21F310748FFF752F8064B6409F2
:1022400053F8240005F01F05E840C04300F00100EA
:1022500038BD00BF3D39000000E100E010B500F1DD
:102260000C03DBB24B2B044604D940F2AD211448D9
:10227000FFF736F8EFF31083DB0702D50122104693
:1022800010BD2046FFF7D0FF02460028F6D12046B9
:10229000FFF7A8FF0146EFF3118313B1B0EB131F53
:1022A000ECD2084B5B68C3F30803002BE7D0103B6C
:1022B00058B2FFF797FF88428CBF00220122DEE769
:1022C0003D39000000ED00E0704700002DE9F041CD
:1022D0004FF040230446D3F88420D006FBD4D3F833
:1022E0008430C3F381139C423FD0FEF7E7FA012C00
:1022F00005460BD11E4B984204D940F216611D4889
:10230000FEF7EEFF01212846FFF7EAFCFFF77CFF0E
:102310004FF00072184B07465A662046FFF7D4FF6D
:102320004FF480634FF04026621E9340DFF84480F4
:102330003367736E9A0103D4D6F884309B060AD5AE
:102340003846FFF765FF022C0FD12846BDE8F04163
:102350000021FFF7C5BCD6F884309906E9D540F2D4
:1023600024614046FEF7BCFFE3E7BDE8F08100BF13
:10237000005A6202A13900000060004007B518B998
:102380000191FEF79BFA0199064B1B7843B1064B6E
:10239000984205D8012003B05DF804EBFFF796BF23
:1023A0000220F8E746130020005A62024FF0402254
:1023B000D36E017923F030030B43D36670470000DE
:1023C00010B54FF0004201244AF6CD31144B5A6645
:1023D000144A03F50B2354605A6C1964224078B9EF
:1023E000996811F0010F104903D08C60D86AC007BA
:1023F000FCD501234B6012B10C4B0D4A1A6410BD81
:10240000D96A0907FCD42021074B59620121A3F5A1
:102410008053996005494B6A9B06FCD5EBE700BFEA
:102420000090004000500940006009400040094011
:102430003254FFFF38B54FF00042184B184C5A6623
:10244000012203F50C235A604AF6CD33656C2364F0
:1024500043781540934013434FF04022D363A36861
:10246000827823F0740343EA0213C278002A14BF6F
:10247000042200221343A3600279837943EA0223F2
:1024800023614279C37943EA022363610078FFF74D
:1024900097FF0DB1034B2364012038BD009000402D
:1024A000004009403254FFFF70B51F2904460D4615
:1024B000164603D991210748FEF712FF36B104F5FD
:1024C0008054012101FA05F5256070BD04F5005422
:1024D000F7E700BF043A000038B50D460446D8B10E
:1024E00001281CD002281CD0032803D10C23EB4068
:1024F000DB0704D440F213410B48FEF7F1FE302015
:10250000012141F21003444304F1804401FA05F52E
:1025100004F57034E55038BD40F2FF13E7E71F23A0
:10252000E5E7FF23E3E700BFE437000038B50D46D9
:102530000446D8B101281CD002281CD0032803D19E
:102540000C23EB40DB0704D44FF479710B48FEF702
:10255000C7FE3020012142F21003444304F18044BD
:1025600001FA05F504F57034E55038BD40F2FF136B
:10257000E7E71F23E5E7FF23E3E700BFE4370000B9
:1025800070B5054614460E46FFF73EFE296881EAFF
:10259000040202EA06044C402C60BDE87040FFF7DC
:1025A00037BE00002DE9F3470D4614461E4681460E
:1025B0009DF828809DF82C70002843D0012844D035
:1025C000022844D0032803D10C23EB40DB0703D4BB
:1025D000BF212848FEF784FE85EA040333F0030395
:1025E00003D0C1212348FEF77BFE072C4FF00301E7
:1025F00005F003052DD84FEA840A01FA0AF11E48B6
:1026000009FA0AF20191FFF7BBFF01991B4805FA8D
:102610000AF2FFF7B5FF324621461948FFF744FF9B
:10262000424621461748FFF73FFF0123164AA340C1
:10263000C2F8203421463A46144802B0BDE8F047BB
:10264000FFF732BF40F2FF13BFE71F23BDE7FF23B1
:10265000BBE7A4F1080A4FEA8A0A01FA0AF10C481A
:1026600009FA0AF20191FFF78BFF0199094805FA6F
:102670000AF2CEE7673A000000C4034008C40340F2
:1026800010C4034014C4034000E0034024C40340CA
:1026900004C403400CC403402DE9F0410D46164626
:1026A0001F46804678B3012830D0022830D0032856
:1026B00003D10C23EB40DB0704D440F21D1120486A
:1026C000FEF70EFE26B1294640461FB3FFF704FF72
:1026D000302404FB08F4072D04F1804404F5703421
:1026E0001BD80F216368AA00914023EA010306FA70
:1026F00002F2134363600EBB29464046D7B1BDE8E2
:10270000F041FFF7E9BE40F2FF13D3E71F23D1E703
:10271000FF23CFE7FFF70AFFDAE70F21A5F1080350
:10272000E2689B00994022EA010206FA03F3134390
:10273000E360E0E7BDE8F041FFF7F8BEBDE8F081F7
:10274000673A000010B5044618B98D211F48FEF7FE
:10275000C7FD23781B0613F0604F03D08E211B4862
:10276000FEF7BEFDE3780F2B03D99F211748FEF734
:10277000B7FD01212020FEF71DFF01212120FEF7DA
:1027800019FF0122124B5A60227812069A60617872
:10279000A27842EA01429A61FF229A6200229A6379
:1027A0001A644FF000425A654FF0FF324FF40011A7
:1027B00003F500531A65074AC2F88011E3781B013C
:1027C000DBB282F81533116010BD00BFCB3A0000B8
:1027D0000000044000E100E02DE9F0410126C3B211
:1027E000072805460C46904606FA03F603DDE62167
:1027F0003448FEF775FD1CB9E7213248FEF770FD3D
:10280000236823F47C1323F00F031BB1EA212D4826
:10281000FEF766FDA37A1B0413F47C0F04D040F28C
:1028200003112848FEF75CFDE37A1B0513F07E6F69
:1028300004D040F205112348FEF752FD237B5B05CF
:1028400013F0FE5F04D040F207111E48FEF748FD6A
:10285000302021681C4F1D4A637B42F8251000FB85
:1028600005752B66E37AA27A1B0543EA0243227BB5
:1028700043EA4253EB65164B28F003022A671E65B4
:10288000FFF7C9FC7B6D33437B65237A13B13B6C47
:1028900033433B64637A13B1BB6B3343BB6322792D
:1028A000A37943EA02430A4A93616179E37943EAEF
:1028B000014308498B61044B56639E64BDE8F041B7
:1028C000FFF7AFBCCB3A00000000044000400440DA
:1028D00000200440001004404FF090435A6812B1A9
:1028E0009A6A002AFAD1704738B5022805460C4684
:1028F00003D94C210C48FEF7F3FCE3786278217889
:102900005B0143EA820322790B4343EA02130C2260
:102910006A4302F190421363012902BFA278034B7C
:1029200043F8252038BD00BF2F3B0000E88003405E
:1029300008B54FF090435A6802B960B15B680BB1BB
:10294000FFF7CAFF4FF0904130B10120074B5860AC
:10295000FFF7C2FFC86008BDFFF7BEFF0223CB60D0
:10296000FFF7BAFF0122024B5A60F4E7001000485B
:102970000020004870B54FF090435B680BB1FFF743
:10298000ABFF0121104B4578596083780679002B05
:10299000C37814BF02240024002B14BF0422002299
:1029A0004379DB0043EA06132B43234313434FF0E1
:1029B00090429360054B59600378002B14BF0B467F
:1029C0000223D36070BD00BF002000480010004803
:1029D00070B506460C46154622B94FF422710C48D4
:1029E000FEF77EFC24B94FF42070FEF74FFE04463C
:1029F0006D00013CB4FBF5F4064B250213EA0423F9
:102A000004D040F2A5210248FEF76AFCF56170BDD2
:102A1000933B0000070080FF10B5194B0446984215
:102A200008D003F58043984204D040F22E41154867
:102A3000FEF756FC012204F580535A6040F6AA6363
:102A400041F20502636100230F49A360E365E26080
:102A500004F500522361E361E36491640849A365CE
:102A60008C4202D00948844207D18C42236502D0AF
:102A7000064B9C4201D1002363650123536010BDC6
:102A800000C00540933B0000FFFF0100000006402E
:102A900038B5304B044698420D4608D003F58043C4
:102AA000984204D04FF456712B48FEF719FC20468B
:102AB000FFF7B2FF0122A97B04F580535A602A8AEE
:102AC000A368002914BF4FF48061002142F0010285
:102AD00013432A7D0B43002A14BF4FF000520022FB
:102AE000A360A3681343A360AB7C5BB1194AEB7C82
:102AF000944227D1A2F51032C2F88C31E36D43F035
:102B00008003E3652B7B2046D5E9011243F4805313
:102B1000E360FFF75DFF6B7B0BB1102363616B7D9F
:102B20001BB1A36843F48033A360AB7DEA7D1B0730
:102B3000120503F0E04302F4E0021343A3652B788F
:102B4000636138BD054A944204BFA2F52032C2F841
:102B50009C31D3E700C00540933B000000000640D5
:102B600007B56B46054A1068516803C36846FFF70E
:102B700061FC002003B05DF804FB00BFF83B0000DF
:102B800013B54FF040220024536F684643F0010311
:102B9000536700948DF80440FFF708FC204602B00C
:102BA00010BD000070B586B001AA1546184B03F1A0
:102BB0001006144618685968083303C4B342224605
:102BC000F7D119889B782180A370124BD3F84C2140
:102BD000120314D4D3F85041E4B28DF80E40FFF73D
:102BE00011F8204480F308008DF80D000A48FDF725
:102BF0009BFE2846FEF71AFF002006B070BD074B6B
:102C00001C884FF6FF739C4208BF8C24E5E700BF89
:102C1000003C00000080E00F00F049020001E00FDE
:102C20001FB50B4A01AB1068516803C31189927A32
:102C300019809A70192301A88DF80530FEF7E8FF76
:102C40006420FFF747F8002005B05DF804FB00BFE3
:102C5000133C000010B56FF0040250210A480B4CE1
:102C600012F0800FD3B21BBF03F00F03043BA31875
:102C70001B1802F101020CBF83F800131976402AD9
:102C8000EED1002010BD00BF00ED00E000E100E04B
:102C900000230B707047000030B50F4C4161236872
:102CA000ABB92060836011E0891A9A681D464161C2
:102CB0002AB113465A698A42F6D955B11A461346C3
:102CC000A860836013B15A69511A596130BD00255B
:102CD000F0E72060F5E700BF5C13002010B500F0BE
:102CE00039FA0A4C0A4B19682368C31A01B10BB9A7
:102CF000206010BD4A699A423ABF9B1A0022D21A3C
:102D00004A6128BF00238968F0E700BF481300200C
:102D10005C13002038B50F4B0F4D1C682B68022048
:102D20005B691C4400F04AFA204600F01BFA0023BD
:102D30000A492A680B70D088800702D501230B70DE
:102D400038BD9268002AFBD050690344012BF2D9A8
:102D5000F6E700BF481300205C130020501300204A
:102D600070B516469DF81420C0E903360271049A26
:102D7000BDF8183002600022C380826004460D4610
:102D800000F0E8F93044A0613DB9E368656113B132
:102D900020462168984796B13546FFF73CFA06462B
:102DA000FFF79CFF29462046FFF776FF054B1B687F
:102DB000A34201D1FFF7AEFF3046FFF732FA002001
:102DC00070BD00BF5C13002000220C490B687BB172
:102DD00083420AD183687AB1936083681BB15A69D0
:102DE00041690A445A61002070471A469B68EEE721
:102DF0000028EFD0022070470B60EEE75C13002044
:102E000070B5FFF708FA144E05463478FCB9134B39
:102E10001C60134B1C60134B1C8000F057F9012001
:102E200000F0CCF900F008FA0F4B0246186020B908
:102E30002846FFF7F6F9232070BD234640F2E7311C
:102E40000A4800F01BFA0A4B186001233370284629
:102E5000FFF7E7F90020EFE7471300205C1300209D
:102E600048130020521300205813002018FCFFFFC5
:102E70004C1300202DE9F0410546F8B1FFF7CBF9DE
:102E80000F4F0646FFF72AFF2846D7F80080FFF7C6
:102E90009BFF044628B13046FFF7C3F92046BDE842
:102EA000F081A8453B6803D123B1FFF733FFF2E778
:102EB000002BF0D1022000F08DF9ECE72224EDE7A1
:102EC0005C13002038B50C46054698B191B100233B
:102ED0000B70FFF7A0F90121074B1B680BB122789B
:102EE0001AB1FFF79EF9002038BDAB4214BF9B68B2
:102EF0002170F3E72220F7E75C130020F0B587B0DC
:102F00001F4600230D46164604468DF81730A0B123
:102F10000DF11701FFF7D6FF9DF817207AB9BDF81C
:102F20003430294602939DF830302046CDE90073B5
:102F30003346FFF715FF07B0F0BD2220FBE7032063
:102F4000F9E70000044B1B6858434FF47A73B0FB59
:102F5000F3F00130704700BF5813002000B58BB06C
:102F600001238DF80B30FFF7EDFF00230146CDE97B
:102F70000033074A0DF10B0303A8FFF7BFFF18B991
:102F80009DF80B30002BFBD10BB05DF804FB00BFAC
:102F9000912C00002DE9F84FC20704460BD5464A94
:102FA000138801339BB21380FFF798FE434B1B68D5
:102FB0000BB1FFF7AFFEA3077CD5FFF72CF94FF05D
:102FC000000A05465646FFF789FED0463B4FDFF81C
:102FD000F4903C680CB163698BB10022384B012E30
:102FE0001A7003D1BAF1020F08BF1E70002C51D025
:102FF000FFF790FE2846BDE8F84FFFF712B92346C9
:103000001A792179914288BF1C469B6813B15A698D
:10301000002AF5D02846FFF704F9D4F810A0BAF139
:10302000000F3BD000F096F8A269851AEB17AA456D
:1030300078EB030333DA236913440122A361236984
:10304000D3B1CAB9EB17BAEB050563EB4303002B09
:1030500004DA40F202414846FEF742F9FFF7DBF896
:10306000824629462046FFF717FEA369226950468B
:103070001344A361FFF7D5F8E368B4F806A001365E
:1030800013B1204621689847FFF7C5F80546FFF7BA
:1030900025FE9EE7022000F09DF8ABE75546FFF7BE
:1030A000BAF883462046FFF78FFE5846FFF7B9F877
:1030B0000022C4E7BDE8F88F521300205C13002003
:1030C000541300201E3C0000002070471FB5002450
:1030D0001D4B012118689A880290D3F806009B7A4C
:1030E00000903E20ADF80C208DF80430FEF762FA17
:1030F0008DF80840FFF7E8FF8DF80C0002A8FFF7F5
:1031000039FC694601208DF80040FFF7EDFB4FF0D8
:10311000904240F2FF31936923F47F7323F003035D
:1031200093610A4B5961936A13F00803FBD1136250
:103130000120FFF7FDFB4FF48052054BC3F88021BF
:103140001A6004B010BD00BF953C0000002000488C
:1031500000E100E04FF090439A6A1207FCD4186A2D
:10316000704700004FF09042936A1907FCD4136A2D
:10317000116C5269520604D4CA1A032A01D88B4230
:103180000ED1C21A022A98BFD81CB0F1FF3F38BF37
:1031900001384FF0904318649A6942F040029A61F6
:1031A000054A13783BB14FF09041CB6B43F00203DB
:1031B000CB630023137070474210002082074FF04A
:1031C000904200F00103916948BF43F040030B4374
:1031D00093617047820700F001030AD50121084A74
:1031E00043F0400311704FF09041CA6B22F003028C
:1031F000CA634FF090418A6922EA03038B617047EA
:103200004210002010B5FFF706F84FF09043044637
:103210005B695A06074A03F0010003F0510348BFF7
:1032200040F002005361FFF7B5FE2046BDE81040B4
:10323000FEF7F7BF0020004808B53E20FEF726FA4B
:103240000346FFF741FF23FA00F008BD08B5FDF77C
:10325000ABFAFDF7D9FAFDF7E0FAFDF7E0FABDE8C1
:103260000840FDF7DDBA08B5FDF7DBFAFDF7DAFA3D
:10327000FDF7D9FABDE80840FDF7D6BA53B94AB907
:10328000002908BF00281CBF4FF0FF314FF0FF306E
:1032900000F082B9ADF1080C6DE904CE00F006F83B
:1032A000DDF804E0DDE9022304B070472DE9F04FBA
:1032B000099D04460F46002B48D18A42944661D9A5
:1032C000B2FA82F343B1C3F120019F4002FA03FC3A
:1032D0009C4020FA01F10F434FEA1C411FFA8CFE7B
:1032E000220CB7FBF1F601FB167706FB0EF042EA63
:1032F0000742904208D91CEB020206F1FF3702D2C6
:10330000904200F237813E46121AA4B2B2FBF1F0AD
:1033100001FB102200FB0EFE44EA0244A64508D938
:103320001CEB040400F1FF3202D2A64500F21C811E
:10333000104640EA0640A4EB0E0400261DB1DC4016
:103340000023C5E900433146BDE8F08F8B4209D91F
:10335000002D00F0FD800026C5E900013046314611
:10336000BDE8F08FB3FA83F6002E4BD18B42C0F04C
:10337000F280824240F2EF803046002DE3D0C5E972
:103380000047E0E702B9FFDEB2FA82F3002B40F01B
:103390009D80891A4FEA124E97B20126200CB1FB8C
:1033A000FEF20EFB121140EA014107FB02F08842D7
:1033B0000FD91CEB010102F1FF382CBF4FF00109BE
:1033C0004FF00009884203D9B9F1000F00F0CF8017
:1033D0004246091AA4B2B1FBFEF00EFB101100FB2D
:1033E00007F744EA0144A74208D91CEB040400F1A2
:1033F000FF3102D2A74200F2B4800846E41B40EA43
:1034000002409BE7C6F12007B34001FA06F422FA16
:1034100007FCF940B2404CEA030C20FA07F34FEAEC
:103420001C491C431FFA8CFE00FA06F3200CB1FB6A
:10343000F9F809FB181140EA014108FB0EF0884237
:103440000FD91CEB010108F1FF3A2CBF4FF0010B23
:103450004FF0000B884203D9BBF1000F00F08D80C4
:10346000D046091AA4B2B1FBF9F009FB101100FB18
:103470000EFE44EA01418E4507D91CEB010100F123
:10348000FF3401D28E457FD8204640EA0840A1EBA8
:103490000E01A0FB029841454C46C64602D306D118
:1034A0004B4504D20138B9EB020468EB0C0E002D39
:1034B00070D01A1B61EB0E0122FA06F301FA07F72E
:1034C000F14000261F43C5E900713CE702FA03FC06
:1034D000C3F1200001FA03F221FA00F64FEA1C4E74
:1034E00024FA00F11FFA8CF79C401143B6FBFEF062
:1034F0000A0C0EFB106642EA064200FB07F69642F3
:103500000ED91CEB020200F1FF382CBF4FF001096D
:103510004FF00009964202D9B9F1000F31D0404670
:10352000921B89B2B2FBFEF60EFB162241EA024163
:1035300006FB07F28A4207D91CEB010106F1FF38AE
:1035400001D28A4223D84646891A46EA004625E730
:103550002E462846F7E6841A61EB030301201F4636
:103560000BE76444023849E764440238E1E6023A72
:1035700061442EE7023E6244C6E6A8F102086144B7
:103580006FE702386244CBE7023861447DE7023ED0
:103590006144D9E72E46D6E6704700BF08B5074B11
:1035A000044613B1002100E000BF054B1868836A90
:1035B00003B19847204600F031F800BF000000003A
:1035C000A03C000070B50D4D00260D4C641BA410EE
:1035D000A64209D10B4D00260B4C00F021F8641BCC
:1035E000A410A64205D170BD55F8043B013698479A
:1035F000EEE755F8043B01369847F2E7A4100020A7
:10360000A4100020A4100020A810002002440346AB
:10361000934200D1704703F8011BF9E7FEE700BFB2
:10362000F8B500BFF8BC08BC9E467047F8B500BFAF
:10363000F8BC08BC9E46704746505420534F465431
:1036400057415245200044455649434520310048E2
:10365000554D49444954593A203538250054454D73
:1036600050455241545552453A2032313F004C4961
:1036700047485420494E54454E534954593A2031F5
:103680003600444556494345203200000000000002
:10369000000000708898A8C8887000206020202052
:1036A000207000708808708080F800F808103008DA
:1036B00088700010305090F8101000F880F0080862
:1036C000887000384080F088887000F80808102062
:1036D00040800070888870888870007088887808BA
:1036E00010E00020508888F8888800F08888F088EA
:1036F00088F0007088808080887000F088888888D2
:1037000088F000F88080F08080F800F88080F080F9
:103710008080007888808098887800888888F888F9
:103720008888007020202020207000381010101091
:103730009060008890A0C0A09088008080808080E9
:1037400080F80088D8A8A8A88888008888C8A89881
:103750008888007088888888887000F08888F08061
:1037600080800070888888A8906800F08888F0A021
:103770009088007088807008887000F8A820202049
:1037800020200088888888888870008888888888B1
:10379000502000888888A8A8A85000888850205009
:1037A0008888008888502020202000F80810704069
:1037B00080F800C0DC222020221C00C2C408102097
:1037C000468600003030003030000001001000203C
:1037D000190A0000710A0000C50A0000D50A00009D
:1037E0006D0A0000633A5C73696C69636F6E6C61AB
:1037F00062735C73696D706C6963697479737475F5
:1038000064696F5C76355C646576656C6F70657253
:103810005C73646B735C6765636B6F5F73646B5F32
:1038200073756974655C76332E325C706C61746696
:103830006F726D5C656D6C69625C696E635C656D11
:103840005F6770696F2E68001E000003433A2F53B4
:10385000696C69636F6E4C6162732F53696D706C34
:10386000696369747953747564696F2F76352F6451
:103870006576656C6F7065722F73646B732F676507
:10388000636B6F5F73646B5F73756974652F7633F9
:103890002E322F706C6174666F726D2F656D64725D
:1038A000762F7370696472762F7372632F737069E9
:1038B0006472762E63000000050000000000000026
:1038C00040420F0005010000000000000000000061
:1038D000433A2F53696C69636F6E4C6162732F5367
:1038E000696D706C696369747953747564696F2F5D
:1038F00076352F646576656C6F7065722F73646BB7
:10390000732F6765636B6F5F73646B5F7375697447
:10391000652F76332E322F706C6174666F726D2F47
:10392000656D6C69622F7372632F656D5F636D7572
:103930002E630002010103030206010504433A2F2E
:1039400053696C69636F6E4C6162732F53696D705C
:103950006C696369747953747564696F2F76352F58
:10396000646576656C6F7065722F73646B732F6717
:1039700065636B6F5F73646B5F73756974652F76D6
:10398000332E322F706C6174666F726D2F656D6CA3
:1039900069622F7372632F656D5F636F72652E634B
:1039A00000433A2F53696C69636F6E4C6162732FE9
:1039B00053696D706C696369747953747564696F68
:1039C0002F76352F646576656C6F7065722F736422
:1039D0006B732F6765636B6F5F73646B5F73756980
:1039E00074652F76332E322F706C6174666F726D32
:1039F0002F656D6C69622F7372632F656D5F656DE6
:103A0000752E6300633A5C73696C69636F6E6C61F9
:103A100062735C73696D706C6963697479737475D2
:103A200064696F5C76355C646576656C6F70657231
:103A30005C73646B735C6765636B6F5F73646B5F10
:103A400073756974655C76332E325C706C61746674
:103A50006F726D5C656D6C69625C696E635C656DEF
:103A60005F6275732E6800433A2F53696C69636F08
:103A70006E4C6162732F53696D706C696369747900
:103A800053747564696F2F76352F646576656C6F36
:103A90007065722F73646B732F6765636B6F5F73F1
:103AA000646B5F73756974652F76332E322F706C7B
:103AB0006174666F726D2F656D6C69622F737263CE
:103AC0002F656D5F6770696F2E6300433A2F5369EE
:103AD0006C69636F6E4C6162732F53696D706C69B2
:103AE0006369747953747564696F2F76352F6465D3
:103AF00076656C6F7065722F73646B732F67656387
:103B00006B6F5F73646B5F73756974652F76332EAB
:103B1000322F706C6174666F726D2F656D6C6962A7
:103B20002F7372632F656D5F6C646D612E6300434C
:103B30003A2F53696C69636F6E4C6162732F5369DE
:103B40006D706C696369747953747564696F2F76ED
:103B5000352F646576656C6F7065722F73646B7357
:103B60002F6765636B6F5F73646B5F7375697465F3
:103B70002F76332E322F706C6174666F726D2F65E5
:103B80006D6C69622F7372632F656D5F727463630E
:103B90002E6300433A2F53696C69636F6E4C616208
:103BA000732F53696D706C696369747953747564AC
:103BB000696F2F76352F646576656C6F7065722F2F
:103BC00073646B732F6765636B6F5F73646B5F7395
:103BD000756974652F76332E322F706C6174666F41
:103BE000726D2F656D6C69622F7372632F656D5FE7
:103BF00075736172742E63000103040101010903EE
:103C00000B0B020000202000038C8C3C0000000005
:103C10000000000126040000010000000000433AFB
:103C20002F53696C69636F6E4C6162732F53696DBA
:103C3000706C696369747953747564696F2F763534
:103C40002F646576656C6F7065722F73646B732F6C
:103C50006765636B6F5F73646B5F73756974652F02
:103C600076332E322F706C6174666F726D2F7365B0
:103C700072766963652F736C65657074696D6572C2
:103C80002F7372632F736C5F736C65657074696DED
:103C900065722E63000100000005000200000300B1
:043CA00044100020AC
:083CA400DCC4FF7F01000000F9
:103CAC000000000002070200CC37000000C00540F5
:103CBC00020202020001020340420F000800000051
:103CCC00000000000001000000000000C8100020EF
:103CDC00C0EA2101C0EA210100F049020080000085
:103CEC00FFFF0100000000000000000000000000C9
:103CFC0000000000000000000000000000000000B8
:103D0C0000000000000000000000000000000000A7
:103D1C000000000000000000000000000000000097
:103D2C000000000000000000000000000000000087
:103D3C000000000000000000000000000000000077
:0C3D4C00000000006501000041010000C3
:040000030000086988
:00000001FF
