:10600000C00A0020596E0000576E0000576E000055
:1060100049980000576E0000576E0000576E000050
:10602000576E0000576E0000576E0000576E00005C
:10603000576E000048A4020039690000576E000046
:10604000576E0000576E0000576E0000576E00003C
:10605000576E0000576E0000576E0000576E00002C
:10606000576E0000576E0000576E0000576E00001C
:1060700075A70000576E0000576E0000396B0000D6
:10608000456B0000576E0000576E0000576E000011
:10609000576E0000576E0000576E0000576E0000EC
:1060A000576E0000717200004D720000576E0000C4
:1060B000576E0000BD820200576E0000218C020066
:1060C000D98B0200D58B0200918402001D8C020046
:1060D000DD8B0200F58B0200E18B0200798C02005F
:1060E00025650200ED660200618C0200576E00001B
:1060F000AD8F0000576E0000576E0000576E000015
:10610000576E0000576E0000576E0000576E00007B
:10611000576E0000576E0000576E0000576E00006B
:10612000576E0000576E0000576E0000576E00005B
:10613000576E0000576E0000576E0000576E00004B
:1061400010B5054C237833B9044B13B1044800E073
:1061500000BF0123237010BDDC0E002000000000F2
:1061600010ED020008B5034B1BB10349034800E0E2
:1061700000BF08BD00000000E00E002010ED02008E
:10618000A3F5803A704700BF174B002B08BF134B95
:106190009D46FFF7F5FF00218B460F461348144A32
:1061A000121A23F02EF80E4B002B00D098470D4BFF
:1061B000002B00D098470020002104000D000D485E
:1061C000002802D00C4800E000BF22F0AFFF200002
:1061D000290000F0A5FB22F095FF00BF0000080099
:1061E0000000000000000000C00A0020DC0E0020BB
:1061F000782900200000000000000000002313B5F3
:10620000124A00938DF80430137811480133DBB241
:1062100013708DF8003005226B461521007813F0BD
:1062200091FE80B1022000F0A1FD60B1094C0A4945
:10623000206802F002FF00F0B9FD00F0B8FD074948
:10624000206802F0FAFE02B010BD00BF280F002047
:10625000F80E0020C00F002048A302004DA302004A
:10626000002310B51A4619464FF4A02013F0C4FEBF
:10627000BDE8104000230122194641F6991013F0A1
:10628000BBBE00002DE9F341114C2378EBB1DFF8E0
:106290005880104F104E114D43463A46314628461D
:1062A00000F020FB78B900F081FD00F080FD98F847
:1062B00000300B4801933B782A78009309493378E2
:1062C000006802F0BAFE0023237002B0BDE8F0813E
:1062D0002B0F00202D0F0020290F00202C0F002055
:1062E000C00F002080A302002A0F002070B50368B1
:1062F000B14A23F47F4323F00703934288B000F0B0
:10630000C4810AD8A2F51022934217D002F5A02228
:10631000934200F01B8108B070BDA84A934200F080
:10632000728102F1BF6202F540329342F3D10379E8
:10633000002BF0D10122A24B1A70ECE70DF10F01F6
:1063400004A813F035FE044630B39E4D9E492868DC
:1063500002F073FE9D49286802F06FFE00F026FDF2
:1063600000F025FD9A4B9B4A00939B496E232868B9
:1063700002F063FE2346994A9949286802F05DFEBF
:10638000204600F03BFD9749286802F056FE8E49F2
:10639000286802F052FEFEE79DF8153001468DF8A0
:1063A00018309DF8143008228DF819309DF81330FC
:1063B00012208DF81A30FF238DF81B30FE238DF844
:1063C0001C309DF812308DF81D309DF811308DF87D
:1063D0001E309DF810308DF81F3006AB13F07CFD99
:1063E000054630B3774C7849206802F026FE77499D
:1063F000206802F022FE00F0D9FC00F0D8FC744BBB
:10640000744A009374497E23206802F016FE2B46DE
:10641000724A7349206802F010FE284600F0EEFC34
:106420007049206802F009FE6749206802F005FE05
:10643000FEE76D4E304613F0B1FC044630B3614DBB
:106440006149286802F0F9FD6049286802F0F5FD0D
:1064500000F0ACFC00F0ABFC5D4B5E4A00935E4983
:106460008223286802F0E9FD23465C4A5C492868DB
:1064700002F0E3FD204600F0C1FC5A49286802F012
:10648000DCFD5149286802F0D8FDFEE7A022034652
:1064900000901146307813F09FFC054630B3494C0C
:1064A0004949206802F0C9FD4849206802F0C5FD4D
:1064B00000F07CFC00F07BFC454B464A00934649CB
:1064C0008B23206802F0B9FD2B46444A44492068DA
:1064D00002F0B3FD284600F091FC4249206802F02A
:1064E000ACFD3949206802F0A8FDFEE702223078B1
:1064F000114613F09FFC054600283FF40CAF314CC9
:106500003149206802F099FD3049206802F095FD7C
:1065100000F04CFC00F04BFC2D4B2E4A00932E4912
:106520009123206802F089FD2B462C4A2C492068D3
:1065300002F083FD284600F061FC2A49206802F041
:106540007CFD2149206802F078FDFEE7027B274BA5
:106550004FF47A711A700123254A009325480023CD
:1065600000F086FB0446002846D0164D16492868E0
:1065700002F063FD1549286802F05FFD00F016FC8B
:1065800000F015FC124B134A009313499F2328680F
:1065900002F053FD2346114A1149286802F04DFDCF
:1065A000204600F02BFC0F49286802F046FD064902
:1065B000286802F042FDFEE7A0000A00A0000601E4
:1065C0002B0F0020C00F0020FBA30200A1A302009C
:1065D00036A40200A6A30200AFA30200BBA30200E0
:1065E000BEA30200D3A30200C00A0020F80E0020C0
:1065F000FD610000FC0E002001465D4808B0BDE8CA
:106600007040FFF7FBBD032000F0B0FB60B1594CB8
:106610005949206802F011FD00F0C8FB00F0C7FBEB
:106620005649206802F009FD0222554B11461878A0
:1066300013F000FC054600283FF46DAE4D4C514967
:10664000206802F0FAFC5049206802F0F6FC00F0E5
:10665000ADFB00F0ACFB4D4B4D4A00934D49AF23D1
:10666000206802F0EAFC2B464B4A4C49206802F0B5
:10667000E4FC284600F0C2FB4949206802F0DDFC3A
:106680004049206802F0D9FCFEE7B0F80500152863
:106690007FF441AE04AB00930122002106AB13F05E
:1066A000EBFB0446002849D0012000F05FFB0028E6
:1066B0003FF431AE2F4D3B49286802F0BEFC00F09C
:1066C00075FB00F074FB35492346334A286802F015
:1066D000B4FC204600F092FB3349286802F0ADFC80
:1066E00019E6012B14D1314B186800F014FD03207A
:1066F00000F03CFB00283FF40EAE1E4C1E49206803
:1067000002F09BFC00F052FB00F051FB28492DE009
:10671000012000F02BFB00283FF4FDAD154C214972
:10672000206802F08AFC00F041FB00F040FB9DF87D
:1067300010202049206802F080FCECE59DF8103024
:10674000002BCED1194B186800F0E8FC032000F0B4
:106750000DFB00283FF4DFAD064C0749206802F02E
:106760006CFC00F023FB00F022FB13492068B5E726
:10677000FC0E0020C00F0020E4A30200E9A30200E9
:10678000C00A0020FBA30200A1A3020036A402005D
:10679000A6A30200AFA30200BBA30200BEA3020097
:1067A000D3A30200FDA3020028AC0200380B002096
:1067B0000CA4020015A4020002A40200704700000D
:1067C00010B501213A2000F03BFF012100230846CB
:1067D000042201F09DFE142003F034FE0222064B39
:1067E0000E201A6403F0FCFFBDE8104001231A4696
:1067F0001946184601F08CBE00D00340054B5A6C78
:106800009007FCD45A6C9107FCD55A6C9207FCD4C3
:10681000704700BF00C00340024610B5002040F2A0
:10682000E93406494B6CC3F340039A4200D010BDD3
:106830000130A042F6D14FF0FF30F8E700C003402E
:1068400070B50025214E224C736C9B07FCD51E2091
:1068500003F0C6FF736CEA1013F0020FA35C4FF055
:1068600001004FEA430318BF43F00103A354FFF7AD
:10687000D3FF01300AD100F099FA00F098FA154BD5
:106880001549186802F0D9FB012070BD0135282D8B
:10689000DAD1104D00F08AFA00F089FA0F49286821
:1068A00002F0CBFB627823781344A2781344E27899
:1068B00013442279934206D000F078FA00F077FA78
:1068C00007492868DEE70020DFE700BF00C003407B
:1068D0002E0F0020C00F002088A40200FBA302009E
:1068E00099A402002DE9F04180460F4616461D4648
:1068F000FFF766FFFFF782FFFFF7A2FF01280AD02C
:106900000020064C237888F8003063783B70A37829
:106910003370E3782B70BDE8F08100BF2E0F0020AC
:1069200008B503F044FFFFF79BFC03F04DFFFFF7B2
:10693000A9FC03F00BF9F8E707F0A0BC08B5044880
:1069400007F04AFABDE80840024807F075BA00BFF0
:10695000A0A602008CA602000120704700B5C3B0BB
:1069600007F0A4FB07F0CDFB48B1FFF7F5FF30B10E
:1069700001A813F00DFA10B901A8FFF7B7FC43B056
:106980005DF804FB704708B50321802001F016FA7A
:1069900003214FF4806001F011FA03214FF490605D
:1069A00001F00CFA08214FF4C06001F007FA082149
:1069B0004FF4F06001F002FA08213E2001F0FEF9E8
:1069C00008212D2001F0FAF9002008BD08B5174B69
:1069D0001B68C3F30743012B0ED1154B04205A6EDD
:1069E0004FF480231349520358BF134A4B6601F5F5
:1069F0001041086258BF536602F0E2F800F027FA2F
:106A000002F05EF802F0FAF802F07CF802F0B8F852
:106A100002F0BCF8FFF7B7FF02F062F800F00EFAE0
:106A200000F038FCBDE8084002F0A0BF0080E00F95
:106A3000008000400090004000A0004008B500F039
:106A4000DFFB00F0CBF8BDE8084000F0CDB808B59A
:106A500003F0C2FB02F0D4F800F060F802F036FB5D
:106A600005F0D0F9BDE8084002F040BE08B502F0DC
:106A700003F802F00DF8BDE80840FFF75FBF00F033
:106A800097B9704700F03AB9FFF768BF7047000048
:106A900070B5114E92B035460BAC0FCD0FC495E8D2
:106AA0000700032384E8070003AD8DF8443006F1A6
:106AB0001C030FCB07AC85E80F0006F12C030FCBAE
:106AC00084E80F00054B214600930BAA2B4604488F
:106AD00002F010FD12B070BDD0A60200340F0020ED
:106AE000940F0020831E012B0AD8012908D8042204
:106AF000094B1B69C3F340130521002001F008BDB9
:106B00000239012907D8012805D8034B00221B6947
:106B1000C3F34013F0E7704700C0034008B50449D1
:106B2000044802F0F1FFBDE80840FFF7B1BF00BF25
:106B3000200B00206C0F0020014B186802F098BD5C
:106B4000940F0020FFF7F8BF014802F0D9BB00BF47
:106B5000940F0020012070470120704710B507F006
:106B600011FB044600F0FAF8002808BF0024FFF7E4
:106B7000F1FF002814BF2046002010BD38B503F0F7
:106B8000D3F8044607F00CFB04281ED002284FF06F
:106B9000000508BF0124FFF7D7FF042817D00228FB
:106BA00008BF012400F0D0F8042812D0022808BF42
:106BB0000124FFF7D1FF04280DD0022808BF0124CB
:106BC000002D18BF0024204638BD0125E3E701252C
:106BD000E8E70125EDE70024F5E70000014800F0B3
:106BE000EBB900BF10A70200014800F091BA00BF46
:106BF00028A70200002209490B684BB1834204D147
:106C0000436A4AB15362012070471A465B6AF4E74F
:106C10000028F5D0184670470B60F4E7B80F002045
:106C200091F8283033B90123034A81F828301368DA
:106C300001331360704700BFBC0F002010B504463D
:106C400090B103F003FB2046FFF7D4FF58B194F84E
:106C5000280040B101F04FFA044A1368013B136069
:106C600001F04FFA002010BD2220FCE7BC0F0020ED
:106C70002DE9FF41044617461E4688469DF82850D8
:106C800009B9002D34D12046FFF7D8FFF0B984F8B8
:106C9000280003A94046E5B103F0F0FBB0B9CDE907
:106CA000000023462046134A039903F050FB68B9BD
:106CB000114AC4E90776136884F82950B3B11A461B
:106CC0005B6A002BFBD154620023636204B0BDE811
:106CD000F08103F0D3FB0028F8D123462046CDE90C
:106CE0000055044A039903F00FFBE0E71460EBE75B
:106CF0002120EBE7216C0000B80F002070B5104D8B
:106D00002B681BB100260F4B1C6804B970BD94F8AA
:106D1000283093B101F0EFF92B6884F82860013B2B
:106D20002B6001F0EEF994F8293013B92046FFF7F3
:106D300061FFD4E9073120469847646AE5E700BF60
:106D4000BC0F0020B80F0020034B1B68002B0CBFAA
:106D500001200420704700BFBC0F0020024B1868C0
:106D6000B0FA80F040097047BC0F00200B4B024680
:106D70001B788BB10A4B1B78834234BF0020012063
:106D8000084B1B783BB1084B1B7843FA02F212F018
:106D9000010F08BF002070470120F1E73C0B0020E5
:106DA0003D0B0020C40F00203E0B002070477047B1
:106DB000012208B5074B1A700022074B1A700422F3
:106DC000064B1A701F22064B1A7002F0FDF8054B95
:106DD000186008BD3C0B0020C40F00203D0B0020B4
:106DE0003E0B0020C00F0020024B0349186802F040
:106DF00024B900BFC00F002040A7020070B50C4CA2
:106E00000C490646206802F018F902F0DDF8054644
:106E1000206802F0CDF83046FFF7E6FF284602F082
:106E2000C7F820680449BDE8704002F006B900BF09
:106E3000C00F002042A7020044A7020008B50121AC
:106E40003A2000F0FDFBBDE80840FFF79BBD0121A3
:106E50003A2000F0F5BBFEE708B500F013F8064B4A
:106E6000064A07498B4201D3FFF78EF952F8040B0B
:106E700043F8040BF6E700BFC00A002018ED02003B
:106E8000DC0E0020044B054A9A60D3F8882042F4B7
:106E90007002C3F88820704700ED00E00060000039
:106EA000014B1868704700BF440B0020084B1B6F54
:106EB00003F00703022B04D0032B05D0012B05D0D0
:106EC000FEE7044B18687047034BFBE70348704725
:106ED00000800040440B0020480B0020002D3101B1
:106EE00008B5FFF7E3FF054B1B6FC3F30333013313
:106EF000B0FBF3F0024B186008BD00BF00800040FB
:106F0000400B00200048704700B4C404014B1868CF
:106F1000704700BF480B0020054B1860054B1B6FE6
:106F200003F00703032B01D1FFF7DABF704700BF5F
:106F3000480B002000800040002070470048704748
:106F4000002D31014FF4004070474FF47A707047C4
:106F5000014B1868704700BF4C0B002000239B6A50
:106F6000B3F5C04F03D21968064A914203D00023FB
:106F7000037083607047012202709A689B694260C7
:106F8000F7E700BF07B0CD5E0023036070470368DA
:106F90000B6001607047000005490A681318054836
:106FA00083428CBF4FF0FF320B601046704700BF2A
:106FB000500B00200080002043680BB10068184788
:106FC00022207047114A70B4034615780022104CF5
:106FD000D1B2A94201D370BC704754F8040B0168C8
:106FE0004E799E4210D10E78022E0DD030220C79AF
:106FF0005443084A125922FA03F3DB4303F0010316
:107000000B7070BCFFF7DABB0132E1E70CA702009E
:10701000300B002014C0034013B5044601213A2070
:1070200000F00EFB002301226179207901F070FA53
:10703000302322795A430E4B9B586279D340DB436D
:1070400003F001032370A379022B0DD100F0D8F8CF
:107050000849607900F0ECF801236279CDE900334A
:107060001146207901F0FCF9002002B010BD00BFEC
:1070700014C00340C56F0000007870470378022BEE
:1070800022D0302302795A43104B9B584279D34087
:10709000827903F00103012A12D1418843EA4103B6
:1070A0004FF6E07163F03F039BB28B4202D1027056
:1070B000438070474FF6DF729342F9D10022F6E722
:1070C00012B983F001030370704700BF14C003407E
:1070D0000278022A03D100224280FFF79DBF704749
:1070E00013B503780446022B10D08379022B0BD101
:1070F0000021407900F09CF800236279CDE900334B
:107100001146207901F0ACF90223237002B010BDC2
:10711000D0E900031847836800681847C36800680F
:10712000184710B5044601213A2000F089FAA378E7
:107130002078B3FA83F3042261785B0901F0E8F95F
:10714000002010BD10B501224378017884783020EA
:107150009A40054B00FB01331CB942F210015A5012
:1071600010BD41F21001FAE700C0034010B5012242
:1071700043780178847830209A40054B00FB013336
:107180001CB941F210015A5010BD42F21001FAE749
:1071900000C003400122417803788A4030214B43EC
:1071A00043F2100103F1804303F570335A507047E6
:1071B00030230246017840785943054B5B58C34061
:1071C00003F0010093780BB980F00100704700BF15
:1071D00010C0034070B504460125084E04B970BDC7
:1071E00094FAA4F0B0FA80F005FA00F324EA03045C
:1071F00056F82030002BF1D09847EFE7C80F002059
:1072000008B5192000F080FF28B14FF00072074B3D
:10721000C3F880211A601A2000F076FF28B14FF0E1
:107220008062024BC3F880211A6008BD00E100E0D3
:1072300038B504460D4600F05EFF034B43F824507A
:10724000BDE8384000F05DBFC80F0020074BD3F801
:107250002404D3F8202403F50053104000F05530E7
:1072600020F05020C3F82004FFF7B4BF00C0034053
:10727000074BD3F82404D3F8202403F5005310401F
:1072800000F0AA3020F0A020C3F82004FFF7A2BF2E
:1072900000C00340024B1968024B186819F0FCBF8C
:1072A000580B0020540B00207047000037B59200A7
:1072B00004460D46019223F037F8431C0BD060B909
:1072C00029462046019A21F065FF0028044808BF9E
:1072D000002003B030BD0348FBE70348F9E700BFD7
:1072E00010E000F021E000F024E000F013B50446C7
:1072F00001A801F0E1F99DF80630012223804FF446
:10730000807300206380054B9B680A3303F01F03E2
:1073100002FA03F3636002B010BD00BF0080E00F0B
:1073200001F046B908B501F033F9002008BD10B5E9
:10733000044644EA010313F00303084609D19342CB
:1073400001D1002010BD54F8231040F82310013360
:10735000F5E72146920021F02DFFF2E710B5044633
:1073600022F0EAFF431C15D0B0B90C4B20469B68B5
:107370000A3303F01F020123934023F00303234445
:10738000984201D1002010BD50F8042B0132F7D0F3
:107390000348F8E70348F6E70348F4E70080E00F06
:1073A0000EE000F021E000F024E000F008B500F06D
:1073B0009BFE014B186008BDD8160020014B1868D1
:1073C00000F096BED81600200A460139014402F0AA
:1073D000E7B94FF04023D3F88420D206FBD4D3F88A
:1073E0008400C0F38110704738B5104B0546D3F8C0
:1073F00020310C4603F00303022B0BD0032B0DD0DE
:10740000012B0FD1FFF74CFD052305B1286004B116
:10741000237038BDFFF77AFD0323F6E7FFF78EFDF3
:107420000223F2E700231846EFE700BF0080004088
:1074300073B50D4600210E4B0191D3F880410646ED
:1074400004F00304012C09D0022C0CD00C460EB120
:10745000019B336005B12C7002B070BD01A8FFF72D
:10746000C3FF0F24F3E7FFF769FD0190EFE700BFCB
:107470000080004038B5174B0546D3F824310C4640
:1074800003F00703013B052B20D8DFE803F0030FCF
:10749000171B0B13FFF704FD052305B1286004B18A
:1074A000237038BDFFF7FCFC0623F6E7FFF72EFD3F
:1074B0000323F2E7FFF72AFD0423EEE7FFF73EFD83
:1074C0000223EAE7FFF738FD0723E6E70023184623
:1074D000E3E700BF0080004038B5104B0546D3F805
:1074E00040310C4603F00303022B0BD0032B0DD0CD
:1074F000012B0FD1FFF726FD092305B1286004B148
:10750000237038BDFFF724FD0823F6E7FFF71DFDC4
:107510000B23F2E700231846EFE700BF008000408E
:1075200038B5134B0546D3F800320C4603F0070379
:10753000013B032B18D8DFE803F0020A0E12FFF715
:1075400001FD092305B1286004B1237038BDFFF7A0
:10755000FFFC0823F6E7FFF7F8FC0B23F2E7FFF741
:10756000BFFC0E23800AEDE700231846EAE700BFC0
:107570000080004038B5104B0546D3F840320C4629
:1075800003F00303022B0BD0032B0DD0012B0FD1E3
:10759000FFF7D8FC092305B1286004B1237038BD7A
:1075A000FFF7D6FC0823F6E7FFF7CFFC0B23F2E743
:1075B00000231846EFE700BF0080004038B5104BAD
:1075C0000546D3F860310C4603F00303022B0BD0C1
:1075D000032B0DD0012B0FD1FFF7B4FC092305B10C
:1075E000286004B1237038BDFFF7B2FC0823F6E72A
:1075F000FFF7ABFC0B23F2E700231846EFE700BFD1
:107600000080004010B40D4C0B46D4F8204204F02A
:107610000304012C0AD0022C0CD008B10021016017
:107620000BB100221A705DF8044B70475DF8044BF3
:10763000FFF7DABE5DF8044BFFF74EBF0080004055
:10764000420910B510D0012A10D00B4B0B4C022A66
:1076500018BF234600F01F0051B103F580530122EB
:1076600002FA00F0186010BD1346F3E7044BF1E78F
:1076700003F50053F3E700BF6880004060820040DC
:1076800064800040B0F5207F1FD009D8B0F5007F9E
:1076900015D003D868B1B0F5C07F0AD000200CE047
:1076A000B0F5607FFAD10B4BD3F88000C0F3011026
:1076B00003E0084B186FC0F3033001307047054BEF
:1076C000D3F89000C0F30460F7E7024B186FC0F3E3
:1076D0008020F2E7008000401FB500238028044688
:1076E000029372D02BD8002873D0A0F12004A3B24B
:1076F000412B32D8412C30D8DFE804F06B6E6B6E32
:107700007D7D7D7D6E6E873C9E623C6E6E6E2F2F02
:107710002F2F2F2F82546E6E6EA8A36E2F2F2F2F18
:107720002F2F2F2F2F2F2F2F2F6B2F6B6B6B7D2F2B
:107730002F2F2F2F2F2F2F2F2F2F2F2F6B6BB0F59A
:10774000806F58D021D8B0F5007F4FD008D8B0F561
:10775000807F5FD0B0F5C07F3BD0029804B010BDF1
:10776000B0F5607F42D0F8D8B0F5207F34D0B0F5C6
:10777000407FF2D1FFF7B4FB02464FF42070FFF7D1
:1077800081FFB2FBF0F0400821E0B0F5C06F53D0AC
:107790000DD8B0F5A06F33D0B0F5B06F35D0B0F5DF
:1077A000906FDAD1002102A8FFF764FED5E7B0F5AB
:1077B000E06F46D0B0F5F06F48D0B0F5D06FCCD1C7
:1077C000002102A8FFF7ACFEC7E7FFF76FFB0290AE
:1077D000C3E7FFF785FBFAE7FFF782FB02464FF4AA
:1077E0002070FFF74FFFB2FBF0F0F0E7FFF75EFB12
:1077F00002462046F5E7002102A8FFF7F5FDACE7B9
:10780000002102A8FFF7FEFEA7E7002102A8FFF76C
:107810000FFEA2E703934FF0E0231B695B0705D53A
:10782000FFF75EFB0390039B029396E70DF10701C0
:1078300003A8FFF751FEF6E7002102A8FFF74CFE70
:107840008BE7002102A8FFF795FE86E7002102A83A
:10785000FFF7B4FE81E7000008B58020FFF73CFF8A
:10786000034B98429EBF4FF48032024B1A6708BD0B
:10787000005A620200A000404FF4003238B50E4BAF
:1078800005469A660020FFF7FDFE41F671320B4B6C
:107890006843DC690A4DDA639A68A84204F48034CC
:1078A00022F4401203D9012918BF42F480129A60D1
:1078B0000CB10022DA6338BD0090004000000340A4
:1078C000005A620208B5FFF71DFBBDE80840002121
:1078D000FFF7D2BF002307B5B0F5807F8DF80230E7
:1078E0007FD02AD8382800F0A0800CD8243883B262
:1078F000092B10D809280ED8DFE800F06D6D6D6DEA
:107900000D0D670D3987522865D009D83D283ED026
:107910003E2800F090809DF8020003B05DF804FB63
:107920008028F8D1474B1B6F03F00703013B032B63
:10793000F1D8DFE803F048444276B0F5D06F64D068
:107940001BD8B0F5A06F70D00BD8B0F5806F42D0C7
:10795000B0F5906FDFD100200DF10201FFF78AFD35
:10796000D9E7B0F5B06F30D0B0F5C06FD3D10020FB
:107970000DF10201FFF7B0FDCDE7B0F5006FEAD0E1
:107980000BD8B0F5E06F56D0B0F5F06FC3D1002042
:107990000DF10201FFF712FEBDE7B0F5086FBAD195
:1079A000284BD3F8003103F00303022B33D0032B11
:1079B00035D0012B37D1FFF7A9FA032300E00523C7
:1079C0008DF80230A7E70223FAE700200DF102014B
:1079D000FFF72EFD9FE700200DF10201FFF704FDE8
:1079E00099E701934FF0E0231B695B0707D5FFF789
:1079F00077FA0C238DF803309DF80330E0E70DF1A2
:107A0000030101A8FFF768FDF6E700200DF1020170
:107A1000FFF786FD7FE7FFF79BFA0823D0E7FFF724
:107A20008BFA0723CCE70123CAE700200DF10201FE
:107A3000FFF7E8FD6FE700200DF10201FFF79AFD67
:107A400069E700BF0080004008B5FFF743FF082842
:107A500012D00938C0B2012811D84FF40012094BD6
:107A60004FF6FF705A6603F5D8335B6A13F0010FC7
:107A700018BF4FF4FA7008BD034B1888FBE74FF6A8
:107A8000FF70F8E700900040780B002070B50446C6
:107A90008020FFF71FFF03287CD04FF40022424BC9
:107AA00042495A6645F60E030222C1F88030404B27
:107AB0009A62012203F580539A628A6D12F4803231
:107AC000FBD1637820781B0543EA0063A079257C0D
:107AD0000343E078667C43EA0043207943EA0033BD
:107AE000607943EA80130B618B69E07A03F000430D
:107AF0000343E07943EA8063207A43EA0063607AD3
:107B000043EA0043A07A43EA00238B61637B096A5E
:107B1000002B18BF0822207B21F00D0143EA01034E
:107B200043EA800342EA0302204B1A62A27B4FEA37
:107B3000421230D1986AE17B20F0330042EA011210
:107B4000024342F001029A621A4A996D32EA010137
:107B5000FBD1022216498A621A659A6D5200FCD442
:107B60001869A27820F4700040EA02504FF00042F9
:107B700018610F4B9A611DB9022203F580539A6276
:107B800016B901220C4B9A62A37C1BB1074B0B4A1E
:107B9000C3F8802070BD996A21F0330131430A4354
:107BA00042EA4502EFE700BF0090004000C00040FD
:107BB00000D000400300014000E00040F1A7FFFFBB
:107BC000014B93F9000070478C170020F0B54FF47B
:107BD00080061B4A41788478C378057856664FF44E
:107BE000D156022702F5B8325662164E4F297760F9
:107BF0004FF0010728BF4F2106F5805677601669C0
:107C0000F603FCD441EA052151611B01417943EAA5
:107C100004230B43017943EA41039360C3798179DB
:107C20001B0143EA4113417A0B43017A43EA4103C2
:107C30005360837A13B16FF4D1535362F0BD00BF28
:107C40000090004000100240014B1880704700BFB8
:107C5000780B00204FF4001208B5184B5A66022327
:107C6000174A5360936813F48033FBD1012822D163
:107C7000FFF74CF9134B984215D003F5122303F587
:107C8000F863984213D0104B00EB8002400AB3FB1C
:107C9000F0F0520A0A4BDA62012218635A6200229B
:107CA000074B5A6008BD45F67A10084AF2E745F6D8
:107CB0001A00074AEEE75362F1E700BF0090004068
:107CC0000040024000F0490264666666D8B80500CC
:107CD000BBCF05000029CCBF01210021FFF7CCBD9F
:107CE000B0F5207F10B50C4642D008D8B0F5007F23
:107CF00033D003D888B1B0F5C07F0ED010BDB0F539
:107D0000607FFBD11F4B013CD3F8801021F0300184
:107D100041EA0414C3F88040F0E7FFF7D3FD00F018
:107D200035F84FF48031184A164B1167196F013C32
:107D300021F4704141EA04341C67FFF7D1F804468E
:107D4000FFF747FBC0F102012046FFF7C3FF00F039
:107D500023F8BDE81040FFF77FBD0A4B013CD3F884
:107D6000901021F0F85141EA0464C3F89040C5E74F
:107D7000044B013C196F21F4806141EA84241C67A3
:107D8000BCE700BF008000400090004002214FF49B
:107D90002070FFF7A5BF000008B54FF4C070FFF7D3
:107DA0009BFCBDE80840044988428CBF02210121A8
:107DB0004FF42070FFF794BF80F0FA02B0F5807F97
:107DC00070B50C4600F0FE802AD8382800F05281A9
:107DD00011D8243883B2092B16D8092814D8DFE823
:107DE00010F0E000E000E000E00013001300D1001C
:107DF000130048003801522800F0D38005D83D28F0
:107E000053D03E2800F0478170BD8028FCD18B1EE6
:107E1000052B00F2B480DFE803F0AF9DB26DB2AC89
:107E2000B0F5D06F00F0158134D8B0F5A06F00F038
:107E3000218117D8B0F5806F00F0B380B0F5906F56
:107E4000E2D1023CE4B2052C8CBF00219A4B9B4A44
:107E500098BF195DD2F8243123F007030B43C2F811
:107E60002431D1E7B0F5B06F00F08C80B0F5C06F71
:107E7000CAD1083CE4B2032C8CBF0021904B8F4A3E
:107E800098BF195DD2F8403123F003030B43C2F8C9
:107E90004031B9E7B0F5006FD3D017D8B0F5E06F37
:107EA00000F0F980B0F5F06FAED1083CE4B2032CDD
:107EB0008CBF0021834B814A98BF195DD2F8603195
:107EC00023F003030B43C2F860319DE7B0F5086F60
:107ED0009AD1CC1EE4B2052C8CBF00217A4B774A94
:107EE00098BF195DD2F8003123F003030B43C2F8A9
:107EF000003189E7002502260121022000F0B4F9B3
:107F0000FFF7E0FCFFF742FF4FF480316F4B6B4A05
:107F10001967136F23F0070333431367FEF7E0FF7E
:107F20000646FFF756FAC0F102013046FFF7D2FECF
:107F30000121002000F0D8F9FFF72EFFFFF78CFC9D
:107F4000002D7FF461AF032C7FF45EAF0122604B04
:107F50009A6259E74FF400225C4B03265A660122CD
:107F600003F540539D6A03F58053C5F340059A62BB
:107F7000C2E700250426BFE700250126BCE700254F
:107F80002E46B9E7022C03D0A4F10F00444244412D
:107F90004A4AD2F8803123F003031C43C2F88041DF
:107FA00032E7023CE4B2032C8CBF0021494B434A28
:107FB00098BF195DD2F8203123F003030B43C2F8B8
:107FC000203121E7A1F10804082C3FF61DAF01A3E1
:107FD00053F824F0F97F0000F97F0000097E0000CB
:107FE000F97F000027800000097E0000097E000064
:107FF000097E0000F97F00004FF480322F4B364994
:10800000586E03F580535A660B6A43F001030B6206
:10801000C1035CBF314B5A664FF0E022136923F075
:1080200004031361F0E64FF48032244B2A49586E62
:1080300003F580535A660B6A23F001030B62C303F6
:108040005CBF264B5A664FF0E022136943F00403ED
:10805000E7E7083CE4B2062C8CBF0021204B174A0E
:1080600098BF195DD2F8003223F007030B43C2F822
:108070000032C9E60F2C0CD0102C14BF00210221B5
:108080000E4AD2F8203223F003030B43C2F8203209
:10809000BAE60121F4E7083CE4B2032C8CBF0021CE
:1080A000104B064A98BF195DD2F8403223F0030303
:1080B0000B43C2F84032A7E674A7020000800040DC
:1080C00070A7020070A7020081A702000090004084
:1080D00000E000406CA7020000C0074000A0004084
:1080E0007AA7020070A70200EFF3108072B6704703
:1080F00000B962B67047EFF31180302383F3118823
:10810000704780F311887047054B420953F82230BD
:1081100000F01F0023FA00F0C04300F00100704798
:1081200000E100E0194B10B51B6873B3184A5268A0
:10813000012A2AD0174A8020C2F80031FFF7CAFB73
:1081400005281FD14FF4C070FFF79CFA01280446A0
:1081500004D102214FF4C070FFF7C2FD07220E4B7D
:108160001A610122A3F580535A60094A1369DB079B
:10817000FCD5012C09D12146BDE810404FF4C07058
:10818000FFF7AEBD0122054B5A6010BD90170020CD
:1081900000C001400080004000E0014000D00140EC
:1081A00000224FF40031074B1A60074A516602F56E
:1081B00098325268012A02BF044AD2F800211A609C
:1081C000704700BF901700200090004000800040E2
:1081D000704770477047000010B5044608B1FFF7BC
:1081E000DFFF0E4A136943F00403136101F076FECA
:1081F000FFF7EFFFFFF778FF22F08EF8FFF778FF29
:10820000FFF7E8FF01F07EFE1CB1BDE81040FFF76C
:1082100089BFBDE81040FEF763BE00BF00ED00E07F
:1082200010B5044608B1FFF7BBFF0C4A136943F0D1
:108230000403136101F052FEFFF756FF22F06CF8C1
:10824000FFF756FF01F05EFE1CB1BDE81040FFF7DE
:1082500069BFBDE81040FEF743BE00BF00ED00E07F
:10826000FFF79EBFFFF75EBFF8B504464FF040230F
:10827000D3F88420D106FBD4D3F88430C3F3811320
:108280009C422DD0FEF712FE012C064602D121465B
:10829000FFF720FDFFF728FF4FF00072114B074654
:1082A0005A662046FFF794FF4FF480634FF0402555
:1082B000621E93402B676B6E9A0103D4D5F884300D
:1082C0009B060AD53846FFF713FF022C08D130462B
:1082D000BDE8F8400021FFF7FDBCD5F88430EAE79F
:1082E000F8BD00BF0060004007B518B90191FEF766
:1082F000DDFD0199064B1B7843B1064B984205D82A
:10830000012003B05DF804EBFFF7AEBF0220F8E7F1
:1083100094170020005A62020278034B01210020CA
:108320001A70FFF7E1BF00BF941700204FF0402202
:10833000536F417823F4407343EA01235367704736
:108340004FF04022D36E017923F030030B43D36604
:10835000704700004FF0004210B501244AF6CD31BD
:10836000144B5A66144A03F50B2354605A6C196473
:10837000224078B9996811F0010F104903D08C6040
:10838000D86AC007FCD501234B6012B10C4B0D4AD3
:108390001A6410BDD96A0907FCD42021074B596221
:1083A0000121A3F58053996005494B6A9B06FCD5D2
:1083B000EBE700BF0090004000500940006009401A
:1083C000004009403254FFFF4FF0004238B5184BCF
:1083D000184C5A66012203F50C235A604AF6CD3335
:1083E000656C236443781540934013434FF040225B
:1083F000D363A368827823F0740343EA0213C2783C
:10840000002A14BF042200221343A3600279837957
:1084100043EA022323614279C37943EA0223636179
:108420000078FFF797FF0DB1034B2364012038BD9F
:1084300000900040004009403254FFFF70B50546EF
:1084400014460E46FFF750FE296881EA040202EA4C
:1084500006044C402C60BDE87040FFF749BE0000A8
:10846000072AF7B501F0030614461F464FF0030133
:108470002CD89500A94000FA05F21C480191FFF79D
:10848000DDFF01991A4806FA05F2FFF7D7FF194BED
:1084900019499DF82000002F08BF1946012303FA4F
:1084A00004F40C60154B1649002808BF0B461C60ED
:1084B000144B9DF82400C3F820441031A3F6DC339C
:1084C000002808BF0B461C6003B0F0BDA2F10805F0
:1084D000AD00A94000FA05F20B480191FFF7AEFF8D
:1084E00001990A4806FA05F2CFE700BF00C403402D
:1084F00008C4034010E4034010D4034014D40340E4
:1085000014E4034000E0034004C403400CC40340EF
:10851000F0B54AB1012530261C4C8D4006FB0044C5
:108520000BB341F21006A55130244443072904F14E
:10853000804404F5703419D80F2765688E00B74061
:1085400025EA070502FA06F63543656052B90122AD
:10855000302402FA01F10D4A04FB00209BB141F2E4
:108560001003C150F0BD42F21006DCE70F27A1F165
:108570000805E668AD00AF4026EA070602FA05F5F1
:108580003543E560E2E742F21003EAE700C003404A
:108590004FF40032054B9A6641F6713203F51C33F5
:1085A000DA63012203F50053DA607047009000405F
:1085B00041F671320121064BDA6303F50052D160B6
:1085C0000022DA634FF40032A3F518339A6670473D
:1085D000000003404FF090435A6812B19A6A002A93
:1085E000FAD17047CB784A7810B55B010C7843EA32
:1085F00082030A79234343EA02130C22424302F125
:1086000090421363012C02BF8A78024B43F820206A
:1086100010BD00BFE880034008B54FF090435A6892
:1086200002B960B15B680BB1FFF7D4FF4FF0904126
:1086300030B10120074B5860FFF7CCFFC86008BD80
:10864000FFF7C8FF0223CB60FFF7C4FF0122024BF4
:108650005A60F4E700100048002000484FF09043B3
:108660005B6870B50BB1FFF7B5FF0121104B457882
:10867000596083780679002BC37814BF0224002444
:10868000002B14BF042200224379DB0043EA0613C7
:108690002B43234313434FF090429360054B5960A3
:1086A0000378002B14BF0B460223D36070BD00BFBC
:1086B00000200048001000484FF48032064B5A66F4
:1086C00003F5E6235B69C3F38512827003F03F0272
:1086D0001B0B4270037070470090004070B5054658
:1086E00016461C4621B94FF42070FEF7F5FF0146EF
:1086F000402C1BD003D8DCB1202C1BD070BD602CCB
:10870000FCD1042303FB06F2560806EB4113B3FB2E
:10871000F2F3094A203B02EAC303AA6822F060028E
:10872000AA60AA681443AC60EB61E7E70623E9E7B7
:108730001023E7E70823E5E7F8FF7F00012200F5B3
:1087400080535A60CB43934003F00A034361416175
:1087500011B900F50050426070470000012200F599
:10876000805310B55A6040F6AA6341F20502436196
:1087700000230E498360C365C26000F500520361A7
:10878000C361C36491640A498365884202D0094C7D
:10879000A04207D18842036502D0064B984201D11E
:1087A000002343650123536010BD00BFFFFF01009C
:1087B00000C005400000064070B50D46FFF7CEFF33
:1087C000012300F580567360AB7C04461BB18368BF
:1087D00043F080438360EB7C5BB1324A2B7D944253
:1087E0003FD1A2F51032C2F88C31E36D43F0800323
:1087F000E3652A8A6B7B20461343EA891343E360CF
:108800002B7BD5E90112FFF769FF6B7D1BB1A368D4
:1088100043F48033A360AB7DEA7D1B07120502F4AD
:10882000E00203F0E0431343A365297E1D4A8B1E3B
:10883000012B1D4B1FD894421BD002F5804294425D
:108840000CBF01224FF0FF3203EB4213022041F232
:108850001C620329985020D10423F3652B786361AF
:1088600070BD124A944204BFA2F52032C2F89C3176
:10887000BBE70022E8E794420DD00C4A94420CBFBB
:1088800001224FF0FF3203EB4213022042F21C623E
:1088900001299850DFE70022F5E7042204F5005390
:1088A000DA65DBE700C0054000C003400000064079
:1088B00083691B06FCD5406AC0B2704783695B06BA
:1088C000FCD5C1637047000038B50446054D19F06A
:1088D00012FE0FCC0FC594E8030085E803000020CA
:1088E00038BD00BF9817002047F6FF739A42F0B5D5
:1088F0005ED002295ED8304ECF0016F8313006EB3C
:10890000C100012B85780DD1C3785B1B23B1416871
:1089100031F91310914202DCE818C0B2F0BD013BFE
:108920001BB2F3E740680028F8D0B0F9003093425A
:1089300004DBB0F902309342B8BF134682883E444C
:10894000FF2A19BFC8242821B0F90640B0F9081041
:10895000A4EB03040CBF0122002294FBF1F476780F
:10896000224414B2721EA242A8BF22464FF47A7764
:1089700000EBC204E188A468013213FB014112B28A
:1089800021EAE17101F5FA71B242B1FBF7F104DAC3
:1089900000EBC204A4888C42EAD200EBC20232F897
:1089A000040C884228BF0846A84238BF2846B4E7CE
:1089B000FF20B3E70020B1E7981700200229F0B5A7
:1089C00054D82B4800EBC10310F831105C68012922
:1089D0000FD19878D978914294BFC0EB0103C0EBD6
:1089E0000203091ADBB28B42C8BF002334F913001B
:1089F000F0BD002C3AD09978914202D3B4F902002C
:108A0000F6E7D978B4F900009142F1D9A1885B78F2
:108A1000FF294FF0000114BF03F1FF33023BDBB22B
:108A2000251D04F10C071FFA82FCCEB2B34216D802
:108A300005EBC1014FF47A756A43B1F90230496818
:108A4000521A03EBD37102EB610292FBF3F29042F4
:108A5000CEDBB4F902009042CADC10B2C8E737F8A6
:108A600031E04E1CE645E3D33146DEE70148BFE77F
:108A7000981700200080FFFF08B50448FFF724FF87
:108A8000BDE80840012019F038BD00BFB4AC0200B9
:108A90007FB50222084B0949CDE901234FF000734D
:108AA000CDE90313052301A94FF0FF30059319F019
:108AB00099FD07B05DF804FB006A1800000204008D
:108AC00007B56B46054A1068516803C36846FFF74F
:108AD0007BFC002003B05DF804FB00BF87A7020009
:108AE0004FF0402213B50024536F684643F0010352
:108AF000536700948DF80440FFF722FC204602B033
:108B000010BD000070B586B001AA1546184B03F1E0
:108B10001006144618685968083303C4B342224645
:108B2000F7D119889B782180A370124BD3F84C2180
:108B3000120314D4D3F85041E4B28DF80E40FFF77D
:108B40003FF8204480F308008DF80D000A48FEF736
:108B5000E3F92846FEF79AFF002006B070BD074BE8
:108B60001C884FF6FF739C4208BF8C24E5E700BFCA
:108B70008FA702000080E00F00F049020001E00F23
:108B800008B50120FFF766F8002008BD1FB50B4AA5
:108B900001AB1068516803C31189927A19809A70E9
:108BA000192301A88DF80530FFF710F86420FFF7AE
:108BB0004BF8002005B05DF804FB00BFA2A702003F
:108BC0006FF00402502110B50A480B4C12F0800FD0
:108BD000D3B21BBF03F00F03043BA3181B1802F111
:108BE00001020CBF83F800131976402AEED1002051
:108BF00010BD00BF00ED00E000E100E000F07AB839
:108C000038B501F0E9FA0446E0B901F009FC4FF487
:108C1000167343430C4803F5742303F23F23B3FB5D
:108C2000F0F30A4A0A4913600A220D680948013A1A
:108C300012F0FF0240F8043BF9D103EBC3022B44CE
:108C400013440B60204638BD40420F00EC17002053
:108C5000B8170020BC17002070470000012208B59B
:108C6000034B1A7001F0D0FB024B186008BD00BF27
:108C7000B4170020E8170020F8B5144C237823B36C
:108C800001F0C2FB124B134D1B68134EC01A012892
:108C900038BF0120114B124F18602B7856F8232053
:108CA00046F82300111A3A680E48521A0A213A600F
:108CB0000932B2FBF1F20133DBB20260B3FBF1F235
:108CC00001FB12332B7000232370F8BDB417002072
:108CD000E8170020E4170020BC170020B017002080
:108CE000B8170020EC170020014B1868704700BF30
:108CF000EC17002020234FF400220A4981F82C337E
:108D0000094B5A66094A03F5A040426702674FF4CF
:108D1000805003F540530344C1F8840148605A670A
:108D2000704700BF00E100E000900040010000A09B
:108D3000054B064A1B78916DC90700D513B1002871
:108D4000F9D17047012070470418002000C000408E
:108D50002DE9F843874B1E6F9D6A9C6AF00705F06A
:108D6000020504F001044CD501278349834A91F898
:108D70000090DFF828821767B9F1000F00F0ED804E
:108D80000020087098F80010B94200F2E18002213A
:108D90009762A2F5805291629A6DD103FCD4784912
:108DA0005A6B096822F470620A435A637548764A1E
:108DB00099690068126821F47F01024321F47F4120
:108DC0000A439A617148724A19691268006821F46D
:108DD0007F6121F00F0102430A431A616D499A69CC
:108DE000096822F0FF020A439A610223002D40F035
:108DF000AB80624A93620123002C00F0A780664A90
:108E0000936216F000527FD04FF0010E5B4F634922
:108E10003A67594A574B82F800E00A78DFF864C194
:108E200072440A705A6B564902F47060086098697F
:108E3000554900F47F4008609969DFF8588101F4D2
:108E40007F01CCF80010D3F818C05FFA8CFCC8F88A
:108E500000C0D3F810C0DFF838810CF47C6CC8F87F
:108E600000C0D3F810C0DFF824810CF03F0CC8F824
:108E700000C0C7F828E04FF0020EDFF81CC1CCF8A4
:108E800028E04FF0004ECCF828E0D3F858C01CF48E
:108E9000803FFAD14FF0004C22F4706242F400722D
:108EA000B0F5C84FC7F828C05A6302D8B1F5C80F4B
:108EB0000CD9304A3A499369096823F47F0323F4B3
:108EC0007F4343EA012343EA01439361294A354939
:108ED0001369096823F47F6323F00F03880843EACA
:108EE000910343EA80131361936923F0FF030B435B
:108EF00093610223002D37D102F5005293620123C2
:108F0000002C33D0244A9362002E1BDA4FF000422B
:108F10001A4B18491A67244A12789AB101229A62A8
:108F20000222A3F580539A628A6DD203FCD44FF0DB
:108F300000429A61022205B9104B9A620123BCB12A
:108F4000154A9362BDE8F883134A53E70B4A57E783
:108F5000FFF782FE144B1F7053E7FFF78DFE00F002
:108F6000F3FE88F800904CE70B4AC7E7034ACAE7CC
:108F7000024AE6E700C000400418002000E000407C
:108F80000818002000180020FC170020F817002007
:108F9000F4170020F017002000D000400518002032
:108FA000800B00207C0B002006180020FFF7D0BEAD
:108FB00010B50446FFF798F8024B1C60FFF798F8CD
:108FC000002010BD0C18002010B5FFF78DF8034BE2
:108FD0001C68FFF78DF8204610BD00BF0C1800205C
:108FE00007B530B9CDE90012FFF7EEFFDDE9001259
:108FF00030B1436823B1006803B05DF804EB184753
:10900000232003B05DF804FB30B51C4685B058B989
:10901000CDE90012FFF7D8FFDDE9001204B903AC77
:1090200020B9232005B030BD03B903AC8568002DFD
:10903000F7D023460068A847F4E70EB477B507AB2E
:1090400053F8046B05460193B0B9FFF7BDFF044622
:1090500005463046019920F0A7FAAC42064602D0F8
:109060002046FFF7A5FF002ED4BF3720002003B015
:10907000BDE8704003B07047FFF7A6FF8542044685
:10908000E7D02846FFF794FFE3E700207047FEE7AC
:109090004FF4005300204B607047012070470020C0
:1090A000704707B5002001AB0190FFF7ADFF0198B5
:1090B000002808BF4FF0FF3003B05DF804FB10B587
:1090C00014460020FFF78CFF204610BD034B022200
:1090D000186800238068194620F0A2B9940C00207B
:1090E00090F8233001223BB190F82730022B03D1B6
:1090F00080F82720184670471346FBE780F82010B9
:10910000704790F82000704790F8240070472DE9D0
:10911000F8434FF00008044617461D46C3F8008088
:109120004E1E2B68BB4206D32B68002B0CBF1B20A6
:109130000020BDE8F883FEF7DEFFD4F81490FEF7B8
:10914000E0FFB9F1000FEFD0A269E368D35C06F845
:10915000013FE068E3690130984208BF4046E060A3
:10916000FEF7C9FF6369013B6361FEF7CAFF6368ED
:10917000204698472B6801332B60D2E738B5054667
:10918000FEF7B2FF04460021284600F01FFC2046EF
:10919000BDE83840FEF7ACBF2DE9F04104460D466E
:1091A000164690F82070FEF79FFF012394F8238065
:1091B00084F82330FEF79CFFB8F1000F03D194F838
:1091C0002600FFF7DBFF2E449FB1AE4213D02B7871
:1091D0000A2B03D10D212046236898472046236897
:1091E00015F8011B9847F0E72046236815F8011B86
:1091F0009847B542F8D194F82660FEF775FF05460A
:109200000121304600F0E2FB2846FEF771FF002006
:1092100084F82300BDE8F081002809DB012243091E
:1092200000F01F0002FA00F0024A603342F8230007
:10923000704700BF00E100E070B504460568FFF725
:10924000C3FE844202D10020FFF7B2FE95F921004F
:10925000FFF7E2FF95F92130002B0DDB01215A09C0
:1092600003F01F0301FA03F31449203241F82230BE
:10927000BFF34F8FBFF36F8F95F92200FFF7CCFF3D
:1092800095F92230002B0DDB01215A0903F01F0351
:1092900001FA03F30949203241F82230BFF34F8F1E
:1092A000BFF36F8F00232846C4E90033C4E90433B9
:1092B000A360AB68BDE87040184700BF00E100E064
:1092C00070B590F8243004460D4681B173B990F81A
:1092D0002560FEF709FF05460121304600F076FBC8
:1092E0002846FEF705FF012384F8243070BD002BCB
:1092F000FCD090F82500FFF741FF84F82450F5E7F3
:10930000036A006818470000F8B51F465368064610
:109310000C461546002B63D09368002B62D02822A0
:10932000002120461FF06DFF6B682046A361AB68EB
:10933000E3612B7B2760012784F82030069B636064
:10934000079BA3602B7884F821306B7884F8223057
:10935000254B34607360254BB360254B3361254B3F
:109360007361254BF360254B3362254B84F82770DE
:10937000B361244BF3619DF8243084F8237084F8A2
:1093800026309DF8203084F825300023697B84F84E
:109390002430FFF795FF95F90100FFF73DFF95F9A0
:1093A0000130002B06DB5A0903F01F039F40164BC8
:1093B00043F8227095F90000FFF72EFF95F9003071
:1093C000002B08DB0122590903F01F0302FA03F303
:1093D0000D4A42F821303046FFF7EAFD0020F8BD83
:1093E0002220FCE72120FAE7999100000F9100006C
:1093F000FD9000000391000039920000E190000010
:10940000C19200000991000000E100E04269C069DA
:1094100082422CBF00200120704703698269D15429
:109420004269036901324261C269013393420361B7
:1094300004BF00230361042380F82730704790F8AD
:10944000233010B504464BB9012380F8233090F83F
:109450002600FFF793FE022384F8273094F82300B8
:1094600010BD826AD36C43F00403D364704710B517
:109470000446826A93695B06FCD5002394F82F109A
:109480001A4694F82E00FFF743F8002394F83110A1
:109490001A4694F83000FFF73BF894F8363093B151
:1094A000002394F833101A4694F83200FFF730F88E
:1094B00094F836303BB1002394F835101A4694F8EE
:1094C0003400FFF725F8A06A0021FFF737F9A08DD7
:1094D0000021FEF7B5F8002010BD10B50446806AE3
:1094E000FFF7ECF9A26A0020D36C43F00103D364C8
:1094F00010BD00002DE9FF4101271C46574B0A9D76
:109500000193574B904600930A46CDE902772946CE
:10951000544BFFF7F9FE064600287AD123683946F6
:10952000AB62A3883A20AB85E37985F82F30A37925
:1095300085F82E30637A85F83130237A85F830301B
:10954000E37A85F83330A37A85F83230637B85F887
:109550003530237B85F83430FEF772F83B46042221
:10956000E179A079FEF7D4FF3B460222617A207AA6
:10957000FEF7CEFF3946A088FEF762F888F8006053
:1095800041462068FFF718F91422A37B5B0103F121
:10959000804303F57033C3F81C26E179A27942EACF
:1095A0000142C3F83426617A227A42EA0142C3F8C2
:1095B0002C2685F8366098F81830032B4CD8DFE855
:1095C00003F01A022C460123002785F836300023C9
:1095D0000222E17AA07AFEF79BFFE37AA27AA17BCE
:1095E00042EA0342204B49015A500422236803F502
:1095F0008053DA65A7B9A379052185F82E30E37980
:1096000085F82F302068C36C43F00403C364FFF770
:1096100095F8304604B0BDE8F081022385F8363075
:1096200000230422617B207BFEF772FF022741F2B8
:109630001C61A27B0D4B03EB42104750607B217BEA
:10964000B13241EA004103EB42139960D3E70323AF
:10965000012785F83630BAE72326DAE76F94000051
:1096600063940000DB94000024D6034000C0034054
:10967000836A10B59B690446190609D5FFF7C6FE33
:10968000E0B1A06AFFF714F901462046FFF7C5FED6
:10969000A36A9A6CD20710D5012103F50052916498
:1096A000DA6C204622F00102DA64FFF7C8FE20B926
:1096B000A26AD36C43F00103D36410BDA26AD36CD9
:1096C00023F00403D364E3E7BFF34F8FBFF36F8F3F
:1096D000054B5A6A22F480325A62D3F8942022F061
:1096E0000102C3F89420704700ED00E070B52548F2
:1096F000254CFFF7E9FF844208BF4FF08043234A1F
:1097000018BF20F01F03D2F8C01018BF203B21F073
:10971000FF0141F0A001B3F1005FC2F8C0100CD30B
:109720001B4D1C4E296843F00103C2F8981001310B
:10973000C2F89C60C2F8A0302960844210D014485E
:10974000154B0268114923F01F0343F00303C1F8CE
:109750009820C1F89C30114B0132C1F8A030026052
:10976000BFF34F8FBFF36F8F0522084BC3F89420D0
:109770005A6A42F480325A62BFF34F8FBFF36F8F41
:1097800070BD00BFFC0C0020D40E002000ED00E0F6
:109790001018002003000020F30E0020E1FFFF3F1F
:1097A00010B51446FFF790FF1F2C24D91B4A1C4C00
:1097B000D2F8C03023F47F4343F48073C2F8C03042
:1097C000C2061CBF20F01F002030CB06134A2368BE
:1097D00018BF21F01F0120F01F0021F01F01C2F867
:1097E000983040F0030041F003010133C2F89C00BF
:1097F000C2F8A0102360BFF34F8FBFF36F8F052215
:10980000064BC3F894205A6A42F480325A62BFF37E
:109810004F8FBFF36F8F002010BD00BF00ED00E041
:1098200010180020BFF34F8F0549064BCA6802F499
:10983000E0621343CB60BFF34F8F00BFFDE700BF73
:1098400000ED00E00400FA0508B5FFF7EBFF08BDE6
:10985000034B1B78002B14BF01200220704700BF70
:10986000441800200329F8B598BF124B05460E4650
:109870008CBF00245C5C032805D8DFE800F00208F8
:109880000B0E44F002040C4B1F684FB9F8BD44F0B6
:109890000804F8E744F02004F5E744F08004F2E718
:1098A0007B681A68144203D0314628465B689847A3
:1098B0003F68EAE7ADA702004018002038B5104D18
:1098C0002B78ABB10F4C23781BB100F047FB002382
:1098D0002370002000F064FB0B4C50B100F06AFBD9
:1098E0000023012120782B70FFF7BCFF0123237098
:1098F00038BD0122054B1A702278054B1A70F7E724
:109900003D18002039180020301800203C18002095
:109910005018002010B5FEF7E7FB064B04461B78F5
:109920001BB1BDE81040FEF7E3BBFFF7C7FF2046C1
:10993000F7E700BF38180020002814BF0121FF21DD
:10994000074A13780B44137008D0064B1B78012B81
:1099500004D9054B1B780BB9FFF7B0BF704700BFA8
:1099600044180020301800203C18002070B5FEF785
:10997000BBFB114E054633788BB900F02DFC044635
:1099800020B12846FEF7B4FB204670BD00F048FD2C
:109990000A4B18600A48FDF7F7FA0A4B1C6000F002
:1099A0001FFA00F03BFB084B0024186001232846F7
:1099B0003370FEF79DFBE7E73A1800204C180020B3
:1099C00040180020541800203418002000292DE9E8
:1099D000F34114BF0121FF21254A00F1FF30135C40
:1099E0000B4413543AD0234E3278012A36D9FFF76C
:1099F0002FFF0128044634D81F4FFEF775FB3B7834
:109A00001BB31E4D2B781BB901222A701C4A137000
:109A1000DFF8708098F8003033B1019000F09EFAC2
:109A20000023019888F80030FEF762FB012000F067
:109A3000B7FAFEF759FB2B782BB1019000F0BAFA78
:109A4000002301982B7000233B70FEF751FB307808
:109A5000A04203D02146FFF705FF347002B0BDE8F5
:109A6000F081032AF3D10228F1D100F0F1FAEEE7F8
:109A700044180020301800203D180020381800201D
:109A80003C1800203918002010B50446FEF72CFBC6
:109A9000002C14BF0121FF21064A13780B44DBB2CE
:109AA0001370B3FA83F3BDE81040034A5B091370E7
:109AB000FEF71EBB471800204618002068B5FEF7C9
:109AC00013FB094B06461B78012B04D8FEF710FB4D
:109AD0000025284668BD054B1D6800F0A3FA054423
:109AE0003046FEF705FBF4E730180020541800203C
:109AF00007B5FEF7F9FA0190FFF7E0FE019803B011
:109B00005DF804EBFEF7F4BA38B541600446FEF7A1
:109B1000EBFA054621460448FDF739FA2846BDE828
:109B20003840FEF7E5BA00BF40180020054B1B681F
:109B30005843054B00F5742000F23F20B0FBF3F0D2
:109B4000704700BF4C18002040420F002DE9FF472E
:109B5000FEF7CAFA0446FDF701F8002800F08E80EF
:109B6000654E664F337823B10020FFF7E5FE0023F2
:109B70003370FFF76DFE0546002800F08580851ED6
:109B8000EDB2012D40F28880FFF762FE0128804689
:109B900004D95B4B1B780BB900F09EF9594DDFF8E7
:109BA00080912878DFF87CA140450AD0002389F80D
:109BB00000309AF8003013B94146FFF753FE85F89C
:109BC000008099F800303BB12B78022B04D10023A0
:109BD00089F8003019F09CF9B8F1010F0FD9DFF8BE
:109BE000208198F8003053B9474B1B7823B900F017
:109BF000AFF90122454B1A70012388F8003028780C
:109C000000F0F6F99AF8003013B1414B1B782B7035
:109C100000E000BF2046FEF76BFAFEF765FA044647
:109C2000384600F013FBFCF7A9FF8046002899D1C5
:109C3000334F89F800003B789BB1DFF8D0908AF869
:109C4000000099F800301BB100F088F989F8008015
:109C5000002000F0A5F9002844D000F0ABF9002363
:109C60003B70337823B10020FFF766FE002333708A
:109C700000212878FFF7F6FD00232B70204604B062
:109C8000BDE8F047FEF734BA3378002B3FF47CAFE1
:109C9000FFF752FE357077E7002003A900F07CFB48
:109CA000054600287FF470AF1A4B039A1B689A424E
:109CB00005D80120FFF740FE0123337064E7164BFF
:109CC000D3F8008000F0AEF9039940448842F0D206
:109CD0000223091ACDE9005338462B460F4A00F0FB
:109CE000DDFA51E7012000F083F92046FEF700FA83
:109CF000FEF7FAF90446ABE74818002014180020D4
:109D00003D18002030180020471800203918002086
:109D10005018002034180020541800201599000015
:109D2000461800203C18002010B5FEF7DDF900228F
:109D3000044B1C781A70FEF7DBF900F065FC204339
:109D4000C0B210BD3B18002038B50B4D2B788BB13D
:109D50000A4C237873B100F02DF9094B01211878D2
:109D6000FFF780FD00220123064922700A70064A8F
:109D70002B70137038BD00BF301800203C18002035
:109D8000501800203D1800203B18002070470000AC
:109D900073B5114E04463378834212D000238DF8F8
:109DA000043080B102238DF8053001A8FEF7BEFA19
:109DB0000A4D402054B1FFF7B9FE2B68181A2860ED
:109DC000347002B070BD8DF80500EEE7FFF7AEFE0F
:109DD0002B681844F3E700BF840B002060180020B4
:109DE00073B5002401A88DF80440FEF795FA2046CB
:109DF0004FF40024FFF7CCFF3149324B0A6F02F0D9
:109E000007021A60D1F82031D1F8240101F5805100
:109E10004C664FF400344C6601F598318969032A89
:109E200000F0070001F0020141D003F003039C1E83
:109E300063426341022808BF43F001032248234DD7
:109E4000037061B31E4A3BB9D2F8003103F003033B
:109E5000591E4B424B410370D2F8003103F003030B
:109E6000022B26D0032B27D0012B18D1FDF74EF85B
:109E7000A8B1174B411EDC6800230246084619466C
:109E8000C4F30B04134E013404EB8404E4FB060119
:109E90001EF0A0FFFFF74AFE2B68184428606420DC
:109EA000FFF744FE2B681844286002B070BD012300
:109EB000C0E7FDF74DF8DBE7FDF73EF8D8E700BF58
:109EC00000800040581800205E1800206018002014
:109ED00000C0014040420F00FEF7C2B9074B1A789C
:109EE00052B100221A70064A136F23F0070343F0A1
:109EF00001031367FCF7F4BF704700BF5C18002034
:109F0000008000400E4B10B51B7883B1022000F09A
:109F100021FC60B100F072FA48B10A4B9A6DD2038D
:109F200006D5DB6D9B0703D50122074B9A6210BD56
:109F30000124064B1C70FEF791FE034B9C62F6E772
:109F40005E18002000C0004000D000405D180020D6
:109F50000122014B1A7070475C18002038B50C4B79
:109F60001B786BB10B4C23787BB90B4B0B4D9A6D67
:109F700012F4803F05D0DB6D9B0702D50123AB6255
:109F800038BDFEF76BFE0123AB6200232370F7E7B9
:109F90005E1800205D18002000C0004000D0004086
:109FA000034B1B780BB1FEF7C3BE0120704700BF07
:109FB0005E18002008B5FEF755F9094A0949136FE4
:109FC000096823F007030B431367074B1B7813B192
:109FD0000122064B9A62BDE80840FCF781BF00BF32
:109FE00000800040581800205E18002000E000406B
:109FF00002280AD003280BD001280CD1064A136985
:10A0000023F00403136130BF70470020FEF7E4B86B
:10A010000020FEF705B9704700ED00E04FF4C8706E
:10A02000FFF784BD08B5054B187818B1FEF75CFE44
:10A0300000EBD000024B1B68184408BD5E180020DE
:10A04000601800200122014B1A7070475E18002032
:10A05000704700230B70704710B500F023FB0A4CCB
:10A060000A4B19682368C31A01B10BB9206010BDEF
:10A070004A699A423ABF9B1A0022D21A4A6128BF03
:10A0800000238968F0E700BF681800207C180020D2
:10A09000C38870B504460D463BB9FFF70FFD8542F6
:10A0A000064602D2FFF724FD35460F4965610B686D
:10A0B000ABB90C60A36011E0AD1A9A6818466561EF
:10A0C0002AB113465A69AA42F6D950B11A46134624
:10A0D0008460A36013B15969491B596170BD0020A8
:10A0E000F0E70C60F5E700BF7C18002038B50F4B97
:10A0F0000F4D1C682B6802205B691C4400F006FBB6
:10A10000204600F0D7FA00230A492A680B70D0884D
:10A11000800702D501230B7038BD9268002AFBD05E
:10A1200050690344012BF2D9F6E700BF68180020FC
:10A130007C1800207018002070B516469DF8142079
:10A14000C0E903360271049ABDF81830026000229B
:10A15000C380826004460D4600F0A4FA3044A0613A
:10A160003DB9E368656113B120462168984796B10F
:10A170003546FDF7C0FF0646FFF76EFF294620462D
:10A18000FFF786FF054B1B68A34201D1FFF7AEFF27
:10A190003046FDF7B6FF002070BD00BF7C180020E0
:10A1A00000220C490B687BB183420AD183687AB1E3
:10A1B000936083681BB15A6941690A445A6100205F
:10A1C00070471A469B68EEE70028EFD002207047E0
:10A1D0000B60EEE77C18002070B5FDF78CFF144E85
:10A1E00005463478FCB9134B1C60134B1C60134BB1
:10A1F0001C8000F015FA012000F088FA00F0D4FA73
:10A200000F4B0246186020B92846FDF77AFF23203D
:10A2100070BD234640F2E7310A481EF0DBFD0A4BD1
:10A220001860012333702846FDF76BFF0020EFE72D
:10A23000641800207C180020681800207218002084
:10A240007818002018FCFFFF6C1800202DE9F04161
:10A250000546F8B1FDF74FFF0F4F0646FFF7FCFE2E
:10A260002846D7F80080FFF79BFF044628B1304608
:10A27000FDF747FF2046BDE8F081A8453B6803D1C4
:10A2800023B1FFF733FFF2E7002BF0D1022000F0FB
:10A2900049FAECE72224EDE77C18002070B586B07F
:10A2A00015461E460446059180B1FFF7CFFFBDF865
:10A2B0002C30002202939DF828302046CDE900631F
:10A2C00005992B46FFF738FF06B070BD2220FBE74B
:10A2D00038B50C46054698B191B100230B70FDF7D7
:10A2E0000AFF0121074B1B680BB122781AB1FDF759
:10A2F00008FF002038BDAB4214BF9B682170F3E714
:10A300002220F7E77C180020F0B51F46002387B015
:10A310000D46164604468DF81730A0B10DF1170111
:10A32000FFF7D6FF9DF817207AB9BDF834302946DB
:10A3300002939DF830302046CDE900733346FFF795
:10A34000FBFE07B0F0BD2220FBE70320F9E7F0B5E4
:10A350001F46002387B00D46164604468DF8173079
:10A36000A8B10DF11701FFF7B3FF9DF8173083B9BE
:10A37000BDF834302A4602939DF830302946CDE9A5
:10A38000007320463346FFF7D7FE07B0F0BD22200A
:10A39000FBE70220F9E700002DE9F0410746884677
:10A3A000FDF7A9FE00260546124B1C6824B9284675
:10A3B000FDF7A7FE1B2016E063691E44E388BB423D
:10A3C00015D100F06FF90C4C2368C01AB0420CD2C2
:10A3D00000F068F922683244121A2846C8F80020B2
:10A3E000FDF78FFE0020BDE8F0810022F5E7A468AC
:10A3F000DCE700BF7C18002068180020014B1878AB
:10A40000704700BF7018002038B5FDF774FE054690
:10A4100000F048F904462846FDF773FE204638BD93
:10A42000014B1868704700BF78180020044B1B6868
:10A4300058434FF47A73B0FBF3F00130704700BF1C
:10A4400078180020012300B58BB08DF80B30FFF792
:10A45000EDFF00230146CDE90033074A0DF10B0360
:10A4600003A8FFF751FF18B99DF80B30002BFBD163
:10A470000BB05DF804FB00BF53A000000A4B10B501
:10A480001B680C4683420CD3084B4FF47A72196850
:10A490000023A0FB01011EF09DFC01302060002084
:10A4A00010BD2120FCE700BF6C18002078180020A8
:10A4B0000F4B10B51A689AB14FF47A71531E1342BC
:10A4C000A0FB01010ED1B2FA82F2C2F11F04531CAB
:10A4D000D243E04001FA03F3184321FA02F20243A7
:10A4E000104610BD00231EF075FC0246F8E700BFC1
:10A4F00078180020C2072DE9F34704460BD53F4AE0
:10A50000138801339BB21380FFF7A6FD3C4B1B68F9
:10A510000BB1FFF7EBFDA3076DD5FDF7ECFD0026B2
:10A5200005463746FFF798FDB146DFF8D480D8F8E6
:10A5300000400CB163698BB10022324B012F1A70BD
:10A5400002D1022E08BF1F70002C44D0FFF7CEFDB1
:10A55000284602B0BDE8F047FDF7D3BD23461A797F
:10A560002179914288BF1C469B6813B15A69002A21
:10A57000F5D02846FDF7C5FD256985B300F092F8B2
:10A58000A269861AF317B54279EB030328DA236927
:10A590001344A3610123226982B17BB9A91B0191F4
:10A5A000FDF7A9FD824601992046FFF771FDA369D9
:10A5B000226950461344A361FDF7A3FDE368E688D2
:10A5C000013713B1204621689847FDF794FD0546F1
:10A5D000FFF742FDABE7022000F0A4F8B8E72E46F3
:10A5E000FDF789FD82462046FFF7DAFD5046FDF76C
:10A5F00088FD0023CFE702B0BDE8F0877218002085
:10A600007C1800207418002010B5FDF774FD034B72
:10A610001C78FDF776FD204610BD00BF74180020A1
:10A620001FB500241C4B012118689A880290D3F8AA
:10A6300006009B7A00903E20ADF80C208DF8043087
:10A64000FCF7FEFF02A88DF808408DF80C40FEF7DD
:10A6500005F8694601208DF80040FDF7C3FF4FF073
:10A66000904240F2FF31936923F47F7323F0030398
:10A6700093610A4B5961936A13F00803FBD113628B
:10A680000120FDF7C9FF4FF48052054BC3F880212C
:10A690001A6004B010BD00BFB1A70200002000483E
:10A6A00000E100E04FF090439A6A1207FCD4186A68
:10A6B000704700004FF09042936A1907FCD4136A68
:10A6C000116C5269520604D4CA1A032A01D899425D
:10A6D0000ED1C21A022A98BFD81CB0F1FF3F38BF72
:10A6E00001384FF0904318649A6942F040029A6131
:10A6F000054A13783BB14FF09041CB6B43F0020316
:10A70000CB63002313707047850B002082074FF046
:10A71000904200F00103916948BF43F040030B43AE
:10A7200093617047820700F001030AD50121084AAE
:10A7300043F0400311704FF09041CA6B22F00302C6
:10A74000CA634FF090418A6922EA03038B61704724
:10A75000850B00204FF0904301285B6904D002284C
:10A7600005D1C3F38010704703F00100704700204B
:10A770007047000010B5FDF7BEFC4FF09043044653
:10A780005B695A06074A03F0010003F0510348BF12
:10A7900040F002005361FFF7ADFE2046BDE81040D7
:10A7A000FDF7AFBC002000483E20FCF795BF08B580
:10A7B000FCF70CF9FCF742F9FCF749F9FCF756F9FC
:10A7C000BDE80840FCF75BB908B5FCF75AF9FCF79F
:10A7D00059F9FCF759F9BDE80840FCF757B90000F2
:10A7E00010B50446FCF77CFB4FF47A735C43B0FB76
:10A7F000F3F30748B0FBF3F0B4FBF0F0022806D9FE
:10A80000BDE810400323B0FBF3F000F009B810BD21
:10A8100040420F00000000000000000000000000A7
:10A82000013800D0FCE7704738B50446FDF75CFC02
:10A83000054620461EF09EFC04462846FDF758FCBF
:10A84000204638BD37B504460191FDF74DFC01990E
:10A85000054620461EF04EFC04462846FDF748FCFF
:10A86000204603B030BD38B50546FDF73DFC044633
:10A8700028461EF087FC2046BDE83840FDF738BC6E
:10A880000A4619B1024B00211B681847704700BFE8
:10A89000880B002000F4E040B0F5805F04D0A0F504
:10A8A000005358425841704701207047B0F5105F7F
:10A8B0000DD009D8B0F5885F10D0B0F5905F0DD0FD
:10A8C00041F20103984209D06FF08500704721F0F2
:10A8D0004003802B02D0B1F5807F06D111F0070F25
:10A8E00014BF6FF08600002070476FF0860070473D
:10A8F0000E4B0340B3F1607F06D1B1F5885F14BF02
:10A900006FF0860000207047B3F1707F0BD101F427
:10A91000E043B3F5005F06D111F4E06F0CBF6FF0B8
:10A920008600002070476FF0860070470000C07FEF
:10A930008A422DE9F04180460D4600F01981944B82
:10A94000944802EA030181420BD0934922F0FF04AC
:10A950008C4206D0914C22F47F7121F00301A14278
:10A960001ED12B4083420BD08B4B25F0FF01994227
:10A9700006D08A4925F47F7323F003038B420FD15D
:10A9800015F0FF030CD0864943F000738B4207D1CA
:10A990006A4032F0FF030CBF01200020BDE8F081C7
:10A9A00005F0FE43B3F1A06F17D102F0FE43B3F1FF
:10A9B000A06F40F0DF8082EA050333F47E1340F09D
:10A9C000D98015F40040E9D0C5F30540C2F3054233
:10A9D00090428CBF00200120E0E7B3F1407F40F0BF
:10A9E000B48002F0FE43B3F1407F40F0C38082EABE
:10A9F000050333F47E1640F0BD8041462846FFF73C
:10AA000077FF002840F0B680664C12F47C1704EA09
:10AA100002043AD0B4F1607FC2F305477BD1D3B2D0
:10AA200043F0007303F17E410139022977D903F124
:10AA30007E410439012974D95B498B4275D00131BB
:10AA40008B4274D001318B4273D001318B426AD07A
:10AA500001318B4269D001318B4268D003318B4286
:10AA600063D001318B4262D001318B4261D0013120
:10AA70008B4208BF402615F47C1FC5F305435AD10D
:10AA8000BE4214BF0020012088E7B4F1607F2CD1C2
:10AA9000D3B243F0007303F17E41013902296BD92F
:10AAA00003F17E410439012968D93F498B4269D0BD
:10AAB00001318B4268D001318B4267D001318B422A
:10AAC0005ED001318B425DD001318B425CD00331CD
:10AAD0008B4257D001318B4256D001318B4255D039
:10AAE00001318B4208BF402799E7B4F1707FC2D192
:10AAF00008F4E043B3F5005F03D10127C8F3022354
:10AB00009F4008F4E043B3F5005FB4D10126C8F3D9
:10AB100002239E40AFE7B4F1707FACD1F1E710267D
:10AB2000A9E71426A7E74026A5E71C26A3E72026C9
:10AB3000A1E730269FE712F47C1F01D1B34217D062
:10AB40002A047FF52BAFBB4243E7B3F1106F11D15D
:10AB500025F01F6323F4702363B902F0FE43B3F1C1
:10AB6000106F07D11148104040F01060A84288E7EC
:10AB7000012013E7002011E7102750E714274EE7C4
:10AB800040274CE71C274AE7202748E7302746E7BD
:10AB900000FEFFFF00020006000900060004000698
:10ABA000FF0000020000C07F080000020000FFF666
:10ABB00043680A461B0A10B403D05DF8044B00F04A
:10ABC000A1BD4388B3B1018801F4E040B0F5805FD6
:10ABD00002D0B0F5005F02D10733DB1009E047F285
:10ABE000010081420AD15B080133DB1003EBC30390
:10ABF0003B33136000205DF8044B704744F20100C2
:10AC0000814202D1DB081033F3E747F202008142B0
:10AC100004D1DB0803EB43035A33EAE744F20200B2
:10AC2000814204D1DB0803EB43034A33E1E721F01F
:10AC3000FF01B1F5E24FCFD0B1F5824F04D1073318
:10AC4000DB105B000133D4E76FF08500D3E7000031
:10AC50002DE9F843884617461C4600F023FF0546B9
:10AC600000283FD1D8F80060B6F8009009F4E0431E
:10AC7000B3F5804FF36808BF27F0010737EA0303F5
:10AC800028D17CB3224A24F4FF7323F001039342BA
:10AC90000BD0204B24F0FF029A4206D01E4A24F427
:10ACA0007F7323F0030393421FD114F0FF0304D0FA
:10ACB0001A4A43F0007393421ED022464846316937
:10ACC000FFF736FE074668B9224648467169FFF726
:10ACD0002FFED0B96FF0840500233046C8F800304D
:10ACE00000F020FF2846BDE8F88304F0FE43B3F1EE
:10ACF000407F04D12304E0D56FF08605ECE7B3F183
:10AD0000A06FF7D0054B9C42D6E73D46EAE700BF6F
:10AD1000000200060009000600040006FF00000211
:10AD200038B5037904460D4633B9A36820462B6035
:10AD300000F0F8FE38B938BDD0E9081200F0B6FFCF
:10AD40000028F2D0F7E700232B60F4E700232DE979
:10AD5000F341D0E9016804460F46304611461360BE
:10AD600000F0EAFE054688B9304600F0E7FE0546E9
:10AD700060B9F6B276B9B8F1000F05D1E36823F4F3
:10AD8000FE4323F0030363B16FF08605284602B04B
:10AD9000BDE8F0810146A06800F0DAFD0028EDD1A1
:10ADA000F2E74FF6F87362889A421CD8238B23F09F
:10ADB0000103002BE8D1394601A800F031FE054619
:10ADC0000028E3D10FCC3F683E460FC694E8070049
:10ADD0003B7986E807000BB9019BBB603B8B23F0F6
:10ADE00001033B83D2E76FF08505CFE770B5046AB6
:10ADF00005460E463CB90120FFF724FD286228B124
:10AE000020466E6270BD6FF08A00FBE76FF08C0029
:10AE1000F8E773B50E46114605460192FFF7E6FFC7
:10AE2000044620B93146019A286A1EF0C3F920462B
:10AE300002B070BD2DE9F041089E88461F46048887
:10AE400022B96FF085042046BDE8F0812046FFF767
:10AE500021FD0028F5D033680BB9D3003360B2F17F
:10AE6000005FEED24FF6F87331689942E9D8204678
:10AE7000FFF71CFD04460028E5D1CD1D0699EB081F
:10AE8000B1EBD50F0BD393420CD1414638461EF09F
:10AE900091F93368079A0733DB081360D3E76FF043
:10AEA0008904D0E76FF08604CDE710B50446006A48
:10AEB00010B1616AFFF7E4FC206AFFF7D4FC0020C0
:10AEC000C4E9080010BD38B50446FFF7EEFFE3699A
:10AED0002822012B0CBF05466FF096050021204665
:10AEE0001EF08FF9284638BD13B5044660B101A99C
:10AEF00000F0D8FD044638B90198C369012B06D982
:10AF000000F010FE6FF08304204602B010BD0379FC
:10AF10001BB1806800F01FFE04460198FFF7D3FFC5
:10AF2000002C08BF0446EFE773B5044608460E46FA
:10AF300000F0BAFB002320461A4601A9FFF788FE5D
:10AF400070B93446019D0FCD0FC495E8070084E821
:10AF50000700338B019803F00103338300F0E2FD17
:10AF600002B070BD2DE9F0411E46002388B00546B1
:10AF700088461746CDE9043307923360002A4CD047
:10AF800005AA04A9FFF7E2FE0446D0B9284607A99E
:10AF9000FFF70EFE0446A0B90498036AB3B1049B00
:10AFA00041465A882846069206AA029203F12402D4
:10AFB00001925A6A00921B6A3A4600F013FC04465A
:10AFC00058B1049800B3FFF77EFF1DE00799FFF723
:10AFD0000DFF04460028E2D0F3E70498069B428860
:10AFE000B2B943802B8813B102889A4212D12B6ADE
:10AFF00083B96B8813B142889A420BD13146FFF76F
:10B000008FFE04460028DCD1204608B0BDE8F08160
:10B010009A42E7D06FF08604D3E76FF08604F3E737
:10B02000036810B5044653B100F089FC0023236087
:10B03000A38823F4FF7323F00103A38010BD1846F7
:10B04000FCE700002DE9F04105461F462B68084645
:10B0500016468CB0002B40F0F18002F0FE43B3F1B5
:10B06000407F40F0EE80002F134602A914BF4FF43A
:10B0700080524FF40052FFF7EBFD002840F0CC80E7
:10B08000DDF8088003ACC446CDE90A00BCE80F0037
:10B090000FC49CE8070084E807003046BDF80C1098
:10B0A000FFF726FC0446002840F0AD806B7916F4CB
:10B0B0007C1F67F300036B7105D0C6F30544032CB6
:10B0C0002C710FD876E0604B3340B3F1607F74D1C0
:10B0D000F3B243F0007303F17E42013A022A3AD8F8
:10B0E00010242C71584B3340B3F1607F73D1F3B20D
:10B0F00043F0007303F17E42013A022A40F28F804E
:10B1000003F17E42043A012A40F28B804F4A934277
:10B1100000F089800132934200F08780013293422F
:10B1200000F085800132934200F083800132934227
:10B1300079D00132934278D00332934273D00132F6
:10B14000934272D00132934271D00132934270D057
:10B150006FF0860457E003F17E42043A012A01D8D9
:10B160001424BEE7394A934201D11C24B9E7384A76
:10B17000934201D12024B4E7364A934201D13024CE
:10B18000AFE7354A934201D14024AAE7334A9342BC
:10B19000EBD001329342EDD003329342E5D001323D
:10B1A0009342E7D001329342E9D001329342EBD08F
:10B1B00000232B716FF0850425E0B3F1707FF7D188
:10B1C00001F4E043B3F5005FF2D10124C1F302239F
:10B1D0009C40E4B273E7B3F1707FB9D101F4E0436E
:10B1E000B3F5005FB4D1C1F30223012199408C4231
:10B1F000AED8D8E908232846009603A9DFB100F0AD
:10B2000061FB044610B12846FFF70AFF029800F0E0
:10B2100089FC002C18BF20460CB0BDE8F08110213D
:10B22000E5E71421E3E71C21E1E72021DFE73021F6
:10B23000DDE74021DBE700F058FBE2E76FF0880034
:10B24000EAE76FF08600E7E70000C07F0800000231
:10B25000090000020A0000020B0000020C000002BC
:10B260000123FFF7EFBE38B50368054614464BB11E
:10B2700032B100F04DFB044610B12846FFF7D0FE76
:10B28000204638BD6FF08804FAE71A602DE9F041D6
:10B290001446026805460F46984602B34279D20723
:10B2A0001DD50279DAB1A2421CD800F03AFB06465D
:10B2B00078B92879A04204D22121221A38441DF0FD
:10B2C000A0FF2846FFF7ACFE002E18BF3046BDE8B1
:10B2D000F081224621213846C8F80040EFE76FF0A0
:10B2E0008800F4E76FF08900F1E7036810B50446C1
:10B2F0003BB100F0DEFA00232360237923F003033F
:10B300002371002010BD00002DE9F0410646012BFD
:10B3100098463368154608460CBF4FF480724FF4C8
:10B3200000728CB0002B68D105F0FE43B3F1806F42
:10B3300066D12B4602A9FFF78BFC0446002841D1B9
:10B340003379314A23F00303954218BF43F00103D8
:10B35000DDF808C03371BCF8003003F4E042B2F508
:10B36000005F3BD113F4E06FC3F3022036D0274ACD
:10B3700025F4807191420AD002F50072954206D000
:10B38000234A954203D0A2F53F42914226D10122A1
:10B390008240D2B200236746727103ACCDE90A3312
:10B3A0000FCF0FC497E80700B8F1010F84E807003A
:10B3B000DCE908233046009503A91BD100F039FAD7
:10B3C000044610B13046FFF790FF029800F0AAFB48
:10B3D000002C18BF20460CB0BDE8F08142F20402F8
:10B3E000934205D10B4A95420CBF0C220022D1E7B3
:10B3F0000022CFE700F030FAE2E76FF08800EAE7DA
:10B400006FF08600E7E700BF004440040010C0046E
:10B4100000FF4004000180040123FFF775BF37B52A
:10B420000468054694B1047904F00304012C0DD09E
:10B43000079C0194069C009400F021FA044610B188
:10B440002846FFF752FF204603B030BD6FF0880456
:10B45000F9E770B5046805461E46A4B1047904F006
:10B460000304012C0FD000F016FA044620B9284638
:10B47000BDE87040FFF739BF002328463360FFF76F
:10B4800034FF204670BD6FF08804FAE737B50C4DE5
:10B490000C462B7ADB070FD500230A4601930146A1
:10B4A00001AB284602F006FC20B9019BA34218BF5D
:10B4B0006FF0930003B030BD6FF08800FAE700BF73
:10B4C00080180020034610B50C461146DA69008842
:10B4D0000AB91B6A3BB9FFF7DDF938B12046BDE870
:10B4E0001040FFF7D3BF6FF0860010BD6FF08500EE
:10B4F000FBE72DE9FF410023CDE901330B604388D1
:10B5000006460D46002B00F0878002AA01A9FFF72E
:10B510001DFC044600BB019B1B6A73B101993046B8
:10B5200001F12403D1E9081200F03EF90446002895
:10B5300075D00198FFF7B9FC0EE07268170A60D168
:10B54000B6F8008071884046FFF7A4F960B1404624
:10B55000FFF7ACF9044660B1019808B1FFF7B3FCFE
:10B56000204604B0BDE8F08128F0FF03B3F5E24FB8
:10B570004FD108F4E043B3F5805F02D0B3F5005F2C
:10B5800002D1CA1DD7100AE047F2010398450FD136
:10B590004A080132D21002EBC20202F13B070397C4
:10B5A00003990198FFF722FC04460028B6D0D3E7A0
:10B5B00044F20103984503D1CA0802F11007EEE7EF
:10B5C00047F20203984505D1CA0802EB420202F194
:10B5D0005A07E4E744F20203984505D1CA0802EB92
:10B5E000420202F14A07DAE728F0FF00B0F5E24F25
:10B5F000C7D0B0F5824F01BFCA1DD2105200571CF0
:10B60000CDE7304603A900F07DF804460028C7D0F6
:10B61000A2E76FF085049FE76FF08604A0E7294654
:10B620000198FFF77DFB0446002899D094E70000BD
:10B6300008B500F0DFF90748037A13F0060F03D0CE
:10B64000082200211DF0DDFDBDE808400C21014865
:10B65000FFF716B98018002038B5124D297A11F07D
:10B66000010102D00024204638BD082228461DF0E2
:10B67000C8FD02222B7A62F342032B7200F0AEF96E
:10B68000044660B900F03CF810F1860F044600D083
:10B6900028B92B7A43F001032B72002CE2D0FFF77C
:10B6A000C7FFE0E78018002010B50446C069FFF727
:10B6B000DAF82046BDE81040242200211DF0A1BD8B
:10B6C0002DE9F04105460F4690461C469BB11946B0
:10B6D0000120FFF7B7F8064678B1224641461DF033
:10B6E00069FDE86908B1FFF7BEF80020C5E9076405
:10B6F0002F80BDE8F0811E46F3E76FF08C00F8E77D
:10B7000002F0D6BA028843884068000A47D102F4A2
:10B71000E040B0F5805F02D0B0F5005F05D107339F
:10B72000DB0863B96FF08500704747F20100824281
:10B730000FD15B080133DB0803EBC3033B3322F07B
:10B74000FF02B2F5824F01D1012BEBD000200B603C
:10B75000704744F20100824202D1DB081033EEE769
:10B7600047F20200824204D1DB0803EB43035A3361
:10B77000E5E744F20200824204D1DB0803EB430315
:10B780004A33DCE722F0FF00B0F5E24FC7D0B0F556
:10B79000824FC7D10733DB085B000133CFE70023BB
:10B7A0006FF086000B6070472DE9F0414768044652
:10B7B0003F0A0D461646984611D107887F0407D4E4
:10B7C0004346324629462046BDE8F041FFF77ABE9F
:10B7D00002F026F810F1860FF2D0BDE8F0816FF08C
:10B7E0008600FAE72DE9F04F456885B02D0A04463A
:10B7F000DDE90E7A894616469846DDF840B013D149
:10B80000CDE901AB009702F07BF810F1860F0DD166
:10B810004346324649462046CDE90FAB0E9705B068
:10B82000BDE8F04FFFF706BB6FF0860005B0BDE83E
:10B83000F08F13B504464868000A0AD104980090B6
:10B8400004F1080001F08AFD08B90623236002B064
:10B8500010BD6FF08600FAE713B504464868000A89
:10B860000AD10498009004F1080001F0C5FD08B960
:10B870000623236002B010BD6FF08600FAE770B4B3
:10B880000668062E03D170BC083001F003BE6FF0CD
:10B89000860070BC704710B40468062C04D15DF8B3
:10B8A000044B083001F094BF6FF086005DF8044B44
:10B8B00070470368062B02D1083001F0A9BF6FF072
:10B8C0008600704713B504464868000A0AD10498F8
:10B8D000009004F1080002F0FFF808B90623236085
:10B8E00002B010BD6FF08600FAE713B50446486851
:10B8F000000A0AD10498009004F1080002F01EF931
:10B9000008B90623236002B010BD6FF08600FAE785
:10B910000368062B02D1083002F012B96FF08600DE
:10B92000704710B40468062C04D15DF8044B08304D
:10B9300002F056B96FF086005DF8044B704703685B
:10B94000062B02D1083002F09FB96FF086007047D5
:10B950006FF04043421E9A4208D329B100F14040A3
:10B9600098428CBF00210121084670470121FBE766
:10B9700000F100420732062A38B504460D4609D8C0
:10B980002821154B01FB02339A6882420FD06FF0D9
:10B990008B0038BD0121FFF7DBFFB0B10E4800225C
:10B9A00003468168A1420AD1282101FB0233DA69EA
:10B9B000511C0DD00132DA6100202B60E9E7013221
:10B9C000072A00F12800ECD1E1E76FF08700E0E7FB
:10B9D0006FF09600DDE700BF8C180020044A0020BD
:10B9E00092F8183143F0010382F81831704700BF14
:10B9F0008C180020F8B5094C07252646012720465B
:10BA0000E761FFF760FA013D04F12804F7D196F8E9
:10BA1000183165F3000386F81831F8BD8C18002042
:10BA2000F8B51E4C064694F818310F46D8072ED5A7
:10BA300000252346294618881A46A8B12DB91A7937
:10BA40001AB1DA69002A08BF1D460131072903F13E
:10BA50002803F0D115B96FF08C001AE001232846B5
:10BA6000EB61FFF730FA2A46D369591C02D16FF017
:10BA700096000EE000200133D361141B084BE41044
:10BA80005C4304F10044073C34603A60F8BD6FF059
:10BA9000880000233B603360F8E700BF8C1800206B
:10BAA000CDCCCCCC0023F0B50B601D4B074693F8F2
:10BAB00018310D46DB0785B02ED5FFF759FF10F181
:10BAC0008C0F044625D1294601A8FFF7A9FF04469B
:10BAD000F8B901232E68CDE90200B76030467360E3
