:100000000010002029040000E1360000E136000065
:10001000E1360000E1360000E1360000E136000084
:10002000E1360000E1360000E1360000E136000074
:10003000E1360000E1360000E1360000E136000064
:10004000E1360000E1360000E1360000E136000054
:10005000E1360000E1360000E1360000E136000044
:10006000E1360000E1360000E1360000E136000034
:10007000E1360000E1360000E1360000E503000053
:100080002B360000E1360000E1360000E1360000CA
:10009000E1360000E50A0000E1360000E13600002C
:1000A000E1360000E1360000E1360000E1360000F4
:1000B000E1360000E1360000E1360000E1360000E4
:1000C000E1360000E1360000E1360000E1360000D4
:1000D000E1360000E1360000E1360000E1360000C4
:1000E000E1360000E1360000E1360000E1360000B4
:1000F000E1360000E1360000E1360000E1360000A4
:10010000E1360000E1360000E1360000E136000093
:10011000E1360000E1360000E1360000E136000083
:10012000E1360000E1360000E1360000E136000073
:10013000E1360000E1360000E1360000E136000063
:1001400010B5054C237833B9044B13B1044800E0D3
:1001500000BF0123237010BD8810002000000000A4
:10016000F840000008B5034B1BB10349034800E009
:1001700000BF08BD000000008C100020F840000007
:10018000A3F5803A704700BF174B002B08BF134BF5
:100190009D46FFF7F5FF00218B460F461348144A92
:1001A000121A03F04BFC0E4B002B00D098470D4B5E
:1001B000002B00D098470020002104000D000D48BE
:1001C000002802D00C4800E000BF02F0C9FA20006D
:1001D000290003F008FA02F0AFFA00BF000008009F
:1001E0000000000000000000001000208810002027
:1001F000C4120020000000000000000008B503F059
:1002000016FA03F015FA034B03491868BDE80840D5
:1002100003F042BB08110020F43C000010B5234C51
:1002200001F016F801F008FA236F23F0070343F0FA
:100230000303236703F0A4FA1D4B00209B6A9B076E
:100240005EBF01221B4B9A62D4F8203123F00303D6
:1002500043F00203C4F82031D4F8243123F007031B
:1002600043F00203C4F82431D4F8403123F00303EF
:1002700043F00203C4F84031D4F8603123F00303A3
:1002800043F00203C4F86031D4F8403223F0030392
:1002900043F00203C4F84032D4F8003223F00703DD
:1002A00043F00203C4F8003210BD00BF00800050CC
:1002B00000C0005000E0005008B501F0DFFC01284C
:1002C0000ED1104B04205A6E4FF480230E49520376
:1002D00058BF0E4A4B6601F51041086258BF53667D
:1002E00001F0A6FE03F0B0F901F030FE01F08AFE45
:1002F00001F04EFEFFF792FF01F038FEBDE8084026
:1003000003F099B9008000500090005000A0005008
:1003100030B595B0234D0DAC0FCD0FC495E8070057
:10032000032384E807008DF84D3029231E4A1F4916
:10033000CDE902231E4B1024CDE904134FF4807342
:100340002246002109A8069303F078FB4FF4A02071
:10035000184B0DAACDE907030F238DF82430164B57
:1003600016480A9320230B9301238DF83130144B48
:1003700007A9009302AB8DF8254002F021F904464D
:1003800018B188210F4803F0B4F99DF832304FF4CA
:10039000E130002B0CBF0321002103F092F920462D
:1003A00015B030BD283D00000000065000050006D5
:1003B00000080007240006509C120020F0100020C6
:1003C000A4100020F93C000008B5FFF7A1FF28B1F8
:1003D000BDE80840B821024803F08BB908BD00BF52
:1003E000F93C0000014803F0CCBA00BFF010002037
:1003F00008B50122074B1A700022074B1A7004221D
:10040000064B1A701F22064B1A7001F03BFE054B7B
:10041000186008BD7C100020BC1200207D10002058
:100420007E1000200811002008B500F02DF8124BB6
:1004300012498B4212D30020114B12498B4218D320
:10044000FFF7A2FE186850F82240586840F8224092
:10045000013298688242F5D30C33EAE70022F8E7CC
:100460001C6844F8220001325C68A242F8D30833C9
:10047000E4E70022F8E700BF004100000C41000063
:100480000C4100000C41000010B54FF400414FF04A
:10049000FF30124B124A9A60D3F8882042F470025F
:1004A000C3F888200F4A916601F1884101F5005296
:1004B00010664FF6DF7050660220C3F8D000BFF31D
:1004C0004F8FBFF36F8F08244FF440330648C0F8B6
:1004D0008041D36004600B6110BD00BF00ED00E0FF
:1004E000000000000090005000E100E0014B18689F
:1004F000704700BF04100020084B1B6F03F0070378
:10050000022B04D0032B05D0012B05D0FEE7044BB2
:1005100018687047034BFBE70348704700800050A2
:100520000410002008100020002D310108B5FFF74D
:10053000E3FF054B1B6FC3F303330133B0FBF3F051
:10054000024B186008BD00BF008000500010002062
:100550000048704700B4C404014B1868704700BFDE
:1005600008100020054B1860054B1B6F03F00703B4
:10057000032B01D1FFF7DABF704700BF081000203E
:100580000080005000487047002D3101014B186871
:10059000704700BF0C10002005490A681318054871
:1005A00083428CBF4FF0FF320B601046704700BF94
:1005B000101000200080002008B501213A2000F032
:1005C0008FFC032101230422002001F0BFF9002049
:1005D00003F00EF90122214B4FF46070C3F844245C
:1005E00000F0A8FC1E4B00F5D520D3F8F02000F257
:1005F000FC4042F00102C3F8F020D3F8FC2042F0A6
:100600008072C3F8FC20174AA3F55D431A60164BAD
:100610000222B0FBF3F0154B01381861C3F8F0204B
:100620004FF48072C3F804234FF06043104A002057
:10063000C3F8B02F0F4AC3F8802ED3F8002E42F42F
:100640008072C3F8002EFF2283F82020D3F8002EFA
:1006500022F48072C3F8002E08BD00BF00D0035002
:1006600000ED00E0FF030040F8590D00000004E039
:1006700055CEACC50900010030B54FF06043D3F84A
:10068000802ED20715D501240B4D8440D5F8FC20CF
:1006900042F08072C5F8FC20D3F8002E2243C3F844
:1006A000002E53F82020002AF0D003F8201000205C
:1006B00030BD1120FCE700BF00ED00E02DE9F04F58
:1006C00085B09A46554B06461B780F461546DDF811
:1006D0003C909DF844B0DDF85080002B00F08D80F8
:1006E000072A00F28C800E9B002B00F08880B9F165
:1006F000000F00F08480129BB3F5006F7FDC0128AF
:1007000002D1109B002B7AD0454B03EB05131B7BCA
:10071000002B76D0434C10220021684603F08EF95E
:1007200004EB45141022002F59D13946204603F01E
:1007300085F943F210036380BBF1000F03D1E37826
:1007400043F00303E370374A0E9B02EB451CCCE9F0
:100750000193129B6901013BC3F30A009DF84C30E1
:10076000012E03F003034FEA836343EA001E53584C
:100770002D48CDF800A000EA03004EEA00035350D4
:1007800041D113230CF1100ECCF80C309CE80F0073
:100790008EE80F006FF00301DCF81C20109B61F362
:1007A0009F02012FCCF81C20CCF8143003D1CCF8D8
:1007B0001890CCF804300027194A290102EB0513E0
:1007C00042F80180159A28465A60694622469F6081
:1007D0005E7301F095F9384605B0BDE8F08F002151
:1007E000204603F02BF94FF444736380BBF1000FF4
:1007F000A9D1E37843F03003A4E70C48ECE70C48B8
:10080000EAE70C48E8E7B8F1000FD4D19CF80230D1
:1008100068F304138CF80230CDE700BFBD1200204E
:100820000C1100208C1100200F80FFF3028000F0DB
:10083000018000F0078000F038B5124B05461B78A8
:10084000DBB1E0B102F0B8FF0F4A00231146147B80
:1008500054B92B6001251A0101EB03131D738C5051
:1008600002F0B0FF204638BD0133082B02F1100220
:10087000EDD102F0A7FF0548F5E70548F3E7054885
:10088000F1E700BFBD1200200C110020048000F031
:10089000028000F0018000F013B502F08DFF00230C
:1008A0000B4A147B7CB90133082B02F11002F8D1FA
:1008B000019001F09BF8074B01981C7002F082FF39
:1008C000204602B010BD02F07DFF0348F9E700BFEB
:1008D0000C110020BD120020058000F010B50D4B5A
:1008E00004461B7893B1072812D802F065FF0A4B23
:1008F00003EB04131A7B2AB100241C7302F062FF7D
:10090000204610BD02F05EFF0448FAE70448F8E70D
:100910000448F6E7BD1200200C110020068000F00C
:10092000028000F0018000F013B5154B1868002319
:1009300001908DF8043002F03FFF124B1C7824B177
:1009400002F040FF104802B010BD01221A7002F000
:1009500039FF0E4B01A81C731C7783F82C4083F8D9
:100960003C4083F84C4083F85C4083F86C4083F84B
:100970007C4008238DF8073001F078F82046E2E744
:10098000443D0000BD120020038000F00C11002047
:1009900008B50A4A12785AB107280BD8084A02EB60
:1009A00000131B7B43B1002101F03EF8002008BD7D
:1009B0000448FCE70448FAE70448F8E7BD120020C1
:1009C0000C110020028000F0018000F0078000F090
:1009D00008B50A4A12785AB107280BD8084A02EB20
:1009E00000131B7B43B1012101F01EF8002008BD5C
:1009F0000448FCE70448FAE70448F8E7BD12002081
:100A00000C110020028000F0018000F0078000F04F
:100A100008B50A4A127852B107280AD8084A02EBE8
:100A200000131B7B3BB101F0EBF8002008BD05482B
:100A3000FCE70548FAE70548F8E700BFBD120020CB
:100A40000C110020028000F0018000F0078000F00F
:100A50000D4B1B7893B1072812D889B10B4B03EBD0
:100A600000131B7B73B10A4B1A6D012303FA00F0CC
:100A700010401ABF00200B7008707047054870477F
:100A80000548704705487047BD1200200C11002032
:100A900000000450028000F0018000F0078000F0A8
:100AA00010B50B4A0C46127862B107280CD859B120
:100AB000084A02EB00131B7B43B101F0BDF8207024
:100AC000002010BD0448FCE70448FAE70448F8E7B2
:100AD000BD1200200C110020028000F0018000F007
:100AE000078000F02DE9F843174B1F6D5B6D1F4029
:100AF00000D5FEE701260025144CDFF85480DFF80E
:100B00005490374217D02368C8F850609BB1A16851
:100B1000284601316268A1609847637B012B0AD1A6
:100B200048B909EB45131A7B60F341021A731A7F27
:100B300060F341021A770135082D4FEA460604F1A9
:100B40001004DED1BDE8F883000004500C11002031
:100B5000002004508C110020044BD3F88420D206CE
:100B6000FBD4D3F88400C0F38110704700400050DC
:100B700038B5104B0546D3F820310C4603F003037B
:100B8000022B0BD0032B0DD0012B0FD1FFF7AEFCA6
:100B9000052305B1286004B1236038BDFFF7DCFCF4
:100BA0000323F6E7FFF7EEFC0223F2E70123002020
:100BB000EFE700BF00800050F7B50027114B019709
:100BC000D3F88041064604F00304012C0D4608D0FA
:100BD000022C12D041F27A310B4802F08AFD3C46D9
:100BE00004E0394601A8FFF7C3FF0F240EB1019BB3
:100BF000336005B12C6003B0F0BDFFF7C3FC01907A
:100C0000F4E700BF00800050483D000038B51A4BA3
:100C10000546D3F824010C4600F00700062821D829
:100C2000DFE800F0280410181C0C1400FFF75EFC2D
:100C3000052305B1286004B1236038BDFFF756FCD9
:100C40000623F6E7FFF788FC0323F2E7FFF784FCAF
:100C50000423EEE7FFF796FC0223EAE702F041FDEA
:100C60000723E6E7054840F6717102F042FD0023D4
:100C70001846DEE70123DCE700800050483D000015
:100C800038B5104B0546D3F840310C4603F003034A
:100C9000022B0BD0032B0DD0012B0FD102F023FD23
:100CA000092305B1286004B1236038BDFFF76EFC4D
:100CB0000823F6E702F01AFD0B23F2E701230020D8
:100CC000EFE700BF0080005038B5164B0546D3F85B
:100CD00000020C4600F00700042819D8DFE800F0F5
:100CE00020030B0F130002F0FEFC092305B128605E
:100CF00004B1236038BDFFF749FC0823F6E702F092
:100D0000F5FC0B23F2E7FFF711FC0E23800AEDE759
:100D1000054841F2384102F0ECFC00231846E5E7B3
:100D20000123E3E700800050483D000038B5124B36
:100D30000546D3F840320C4603F00303022B0BD0D8
:100D4000032B0DD0012B0FD102F0CDFC092305B1EF
:100D5000286004B1236038BDFFF718FC0823F6E7CC
:100D600002F0C4FC0B23F2E7044841F2C33102F065
:100D7000C0FC00231846EAE700800050483D000010
:100D800038B5104B0546D3F860310C4603F0030329
:100D9000022B0BD0032B0DD0012B0FD102F0A3FCA3
:100DA000092305B1286004B1236038BDFFF7EEFBCD
:100DB0000823F6E702F09AFC0B23F2E70123002058
:100DC000EFE700BF0080005010B40F4C0B46D4F882
:100DD000204204F00304012C0ED0022C10D008B1E4
:100DE000002101600BB100221A6040F69B71074898
:100DF0005DF8044B02F07DBC5DF8044BFFF7B8BE14
:100E00005DF8044BFFF73CBF00800050483D0000F8
:100E100010B5B0F5207F34D009D8B0F5007F2AD0C6
:100E200003D898B1B0F5C07F10D0002421E0B0F510
:100E3000607FFAD1154BD3F88030C3F301149B06C1
:100E400017D5032C15D040F285210FE00F4B1C6FF6
:100E5000230B13F00E0FC4F303340AD0032C08D075
:100E6000072C06D00F2C04D040F27521084802F060
:100E700040FC601C10BD054BD3F89040C4F30464E3
:100E8000F7E7024B1C6FC4F38024F2E700800050A8
:100E9000483D000010B54FF400320E4B04469A66F0
:100EA0000020FFF7B5FF41F6713260430A4C0B4B4F
:100EB000A0428CBF4FF480100020D969DA639A6891
:100EC00022F4401202439A60CA0344BF0022DA634C
:100ED00010BD00BF00900050005A62020000035095
:100EE00070B5460904460D460FD14FF447710D48C1
:100EF00002F0FFFB334604F01F0485B103F5805375
:100F0000012000FA04F41C6070BD012E05D0064BD0
:100F1000064A022E18BF1346EDE7054BEBE703F533
:100F20000053EDE7483D00006880005060820050AB
:100F30006480005030B585B00023802804460193BA
:100F400074D02AD8002877D0A0F12004412C32D8C0
:100F5000412C30D8DFE804F0707370738686868683
:100F60007373903FA6653F7373732F2F2F2F2F2F0F
:100F70008B57737373B0AB732F2F2F2F2F2F2F2FF0
:100F80002F2F2F2F2F702F707070862F2F2F2F2F16
:100F90002F2F2F2F2F2F2F2F7070B0F5806F61D034
:100FA00024D8B0F5007F54D00BD8B0F5807F68D03E
:100FB000B0F5C07F40D040F27941424802F099FB41
:100FC00037E0B0F5607F44D0F5D8B0F5207F36D05B
:100FD000B0F5407FEFD1FFF7A9FA04464FF4207037
:100FE000FFF716FFB4FBF0F0400821E0B0F5C06F4A
:100FF00058D00DD8B0F5A06F39D0B0F5B06F3BD058
:10100000B0F5906FD7D1002101A8FFF7FFFD10E0E8
:10101000B0F5E06F4BD0B0F5F06F4DD0B0F5D06FBC
:10102000C9D1002101A8FFF74FFE02E0FFF764FAE3
:101030000190019805B030BDFFF778FAF8E7FFF7A7
:1010400075FA04464FF42070FFF7E2FEB4FBF0F0AF
:10105000EEE7FFF751FA05462046FFF7D9FEB5FB4C
:10106000F0F0E5E7002101A8FFF782FDE1E70021AC
:1010700001A8FFF7A9FEDCE7002101A8FFF79CFD0E
:10108000D7E702934FF0E0231B695B0705D5FFF715
:101090004DFA0290029B0193CBE703A902A8FFF748
:1010A000EFFDF7E7002101A8FFF7EAFDC1E7002106
:1010B00001A8FFF73BFEBCE7002101A8FFF760FE97
:1010C000B7E700BF483D000008B58020FFF732FFBA
:1010D000034B98429EBF4FF48032024B1A6708BD03
:1010E000005A620200A000501FB50023B0F5807FB7
:1010F00001937FD027D8382800F09C800BD8243863
:10110000092810D809280ED8DFE800F06F6F6F6F3C
:101110000D0D670D3685522867D007D83D283AD087
:101120003E2800F08C8040F25A5152E08028FAD1DB
:10113000454B1B6F03F00703013B032B47D8DFE848
:1011400003F044413F75B0F5D06F64D019D8B0F5C5
:10115000A06F6FD00AD8B0F5806F46D0B0F5906F11
:10116000E1D1002001A9FFF751FD3AE0B0F5B06FE1
:1011700033D0B0F5C06FD6D1002001A9FFF780FDB4
:101180002FE0B0F5006FECD00AD8B0F5E06F56D084
:10119000B0F5F06FC7D1002001A9FFF7F1FD20E005
:1011A000B0F5086FBFD1284BD3F8003103F003032B
:1011B000022B35D0032B37D0012B39D1FFF7CCF9D7
:1011C000032300E0052301930BE00223FBE740F239
:1011D000AB411E4802F08DFA03E0002001A9FFF7A1
:1011E000EBFC019805B05DF804FB002001A9FFF7B6
:1011F000BFFCF6E702934FF0E0231B695B0705D5C0
:10120000FFF794F90C230393039BDCE703A902A8DF
:10121000FFF736FDF8E7002001A9FFF755FDE0E7ED
:10122000FFF7B4F90823CEE702F05BFA0723CAE719
:101230000123C8E7002001A9FFF7C6FDD1E7002080
:1012400001A9FFF773FDCCE700800050483D000086
:101250004FF40022034B5A66012203F580439A6241
:10126000704700BF0090005070B5036804460F2B14
:1012700004D940F646316E4802F03BFA63680F2B02
:1012800004D940F649316A4802F033FAA3680F2BBB
:1012900004D940F64C31664802F02BFA237B0F2B21
:1012A00004D940F64F31624802F023FA637B0F2BDA
:1012B00004D940F652315E4802F01BFAA37B3F2B63
:1012C00004D940F655315A4802F013FAE37B3F2B1C
:1012D00004D940F65831564802F00BFA2369032B23
:1012E00004D940F65B31524802F003FA6369032BDC
:1012F00004D940F65E314E4802F0FBF9E369012B58
:1013000004D940F661314A4802F0F3F98020FFF732
:10131000EBFE032800F082804FF40022454B0221AF
:101320005A6645F60E03444AC2F88030434B996230
:10133000012103F580539962936DD903FCD4D4E95C
:1013400000131B0543EA0163E17B94F822500B4331
:10135000217B94F8236043EA0143617B43EA013334
:10136000A17B43EA811313619169D4E904031B064D
:1013700043EA806301F000410B43A17EE07E0B4312
:10138000217E43EA0143617E43EA01239361E369DD
:10139000126A002B0CBF0021082122F00D0242EA44
:1013A000030242EA8002244B42EA01021A6294F8E4
:1013B00020204FEA421232D1986A94F8211020F08E
:1013C000330042EA0112024342F001029A621C4ACF
:1013D000996D32EA0101FBD1022218498A621A652D
:1013E0009A6D5200FCD41869A26820F4700040EA9B
:1013F00002504FF000421861104B9A611DB9022251
:1014000003F580539A6216B901220E4B9A6294F842
:1014100024301BB1084B0C4AC3F8802070BD996A78
:1014200021F0330131430A4342EA4502EEE700BFAF
:10143000483D00000090005000C0005000D0005017
:101440000300014000E00050F1A7FFFF014B93F9BA
:1014500000007047BE12002010B543680446072BF9
:1014600004D940F67C512A4802F043F9A368032BC3
:1014700004D940F67E51264802F03BF92378032B2D
:1014800004D94FF45861224802F033F994F901303D
:10149000002B04DA40F682511D4802F02AF94FF47D
:1014A00080011C4A637851664FF4D151022002F545
:1014B000B832516218494F2B48604FF0010028BFE5
:1014C0004F2301F5805148601169C903FCD421788C
:1014D00043EA01235361D4E901131B0143EA0123C9
:1014E000617B0B43217B43EA41039360E37BA17B58
:1014F0001B0143EA4113617C0B43217C43EA410316
:101500005360A37C13B16FF4D153536210BD00BF7D
:10151000483D00000090005000100250014B188020
:10152000704700BF7A100020014B1880704700BF41
:101530007810002010B5B0F5207F65D00ED8B0F53A
:10154000007F4FD003D800B3B0F5C07F1DD040F26C
:10155000FF21BDE81040344802F0CBB8B0F5607F01
:10156000F5D14C1E012C06D9042904D040F2E22109
:101570002D4802F0BEF82D4AD2F8803023F0300317
:1015800043EA0413C2F8803010BD102901F1FF3482
:1015900004D8274B23FA01F1CB0704D440F2B6213B
:1015A000214802F0A6F802F0D8F802F0E4F84FF46F
:1015B0008031204B1D4A1967136F23F4704343EAAF
:1015C00004331367FEF7B2FF0446FFF7C5FAC0F114
:1015D0000201204602F0C9F800F03EF8BDE81040D4
:1015E000FFF772BD4C1E1F2C04D940F2F3210E48A8
:1015F00002F07FF80D4BD3F8901021F0F85141EA3A
:101600000461C3F89010BFE74C1E012C04D940F2CE
:10161000F921054802F06DF8044B196F21F480613F
:1016200041EA84211967AFE7483D0000008000507F
:10163000160101000090005008B50121022000F0C1
:1016400027F802F08AF802F096F84FF48032014B46
:101650001A6708BD0090005008B54FF4C070FFF73E
:1016600069FCBDE80840044988428CBF0221012181
:101670004FF42070FFF75EBF80F0FA02034A017951
:10168000D36E23F030030B43D36670470040005005
:101690002DE9F0410446264BD3F88420D006FBD434
:1016A000D3F88430C3F381139C423ED0FEF724FF6D
:1016B000012C05460BD11F4B984204D940F26171B1
:1016C0001D4802F016F80121284602F04EF802F0FB
:1016D0006CF84FF00072194B07465A66204602F02C
:1016E00074F84FF48063124E621E9340DFF8488016
:1016F0003367736E9A0103D4D6F884309B060AD5FB
:10170000384602F056F8022C0FD12846BDE8F041C9
:10171000002102F02AB8D6F884309906E9D540F2C3
:101720006F71404601F0E5FFE3E7BDE8F08100BFDF
:1017300000400050005A6202923D000000600050DC
:1017400007B518B90191FEF7D7FE0199064B1B7832
:1017500043B1064B984205D8012003B05DF804EB75
:10176000FFF796BF0220F8E7BF120020005A62027E
:1017700038B54FF00042264B26495A6601224A608E
:101780004AF6CD3103F50B235D6C1964154030BB6F
:101790009968C9070BD4002401221F4B5A6015B168
:1017A0001E4B1F4A1A6402F011F8204638BD1A4930
:1017B0008A601C4AD96ACC0705D4904201D107241B
:1017C000EAE70130F6E79042E5D1F8E70132DC6A5A
:1017D00014F0080406D08A42F8D10724DFE700227B
:1017E0001049F4E78A42F8D020220B4B0B495A6289
:1017F0000122A3F580539A6023460A4A486A80066C
:1018000003D49342E9D00133F8E79342C7D1E4E728
:1018100000900050005009500060095000400950ED
:101820003254FFFF40420F0038B54FF00042194BD1
:10183000194C5A66012203F50C235A604AF6CD333F
:10184000656C23644378154093401343134AD36374
:10185000A368827823F0740343EA0213C278002A53
:1018600014BF042200221343A3600279837943EA60
:10187000022323614279C37943EA0223636100783A
:10188000FFF776FF0DB1064B236401F09FFF0120A7
:1018900038BD00BF0090005000400950004000508B
:1018A0003254FFFF38B50D460446D8B101281CD08C
:1018B00002281CD0032803D10C23EB40DB0704D4FF
:1018C00040F22D410B4801F014FF3020012141F27C
:1018D0001003444304F1A04401FA05F504F5703403
:1018E000E55038BD40F2FF13E7E71F23E5E7FF238C
:1018F000E3E700BFDC3D000038B50D460446D8B133
:1019000001281CD002281CD0032803D10C23EB4053
:10191000DB0704D440F2FE310B4801F0EAFE302030
:10192000012142F21003444304F1A04401FA05F5F9
:1019300004F57034E55038BD40F2FF13E7E71F238C
:10194000E5E7FF23E3E700BFDC3D0000F8B50D4607
:1019500016461F46044660B301282DD002282DD01C
:10196000032803D10C22EA40D30704D44FF4B0710A
:101970001B4801F0BEFE26B12946204607B3FFF7FB
:1019800091FF04EB4403072D4FF00F014FEA0313BF
:1019900019D8A80006FA00F281401248184401F054
:1019A00016FFE6B929462046AFB1BDE8F840FFF77B
:1019B00079BF40F2FF12D6E71F22D4E7FF22D2E719
:1019C000FFF79AFFDDE7A5F10800800006FA00F2B4
:1019D00081400548E2E7BDE8F840FFF78DBFF8BD5C
:1019E000273E000004C003500CC0035010B54FF454
:1019F00000120B4BC3F88020BFF34F8FBFF36F8FE4
:101A00000024FF22074B21465C6520209A625C601F
:101A1000FFF766FA2146BDE810402120FFF760BAC3
:101A200000E100E00000045038B5072804460D46E8
:101A300003DD7721094801F05CFE1F2C03D99121B9
:101A4000074801F056FE074B074A0120002D18BF3A
:101A5000134600FA04F41C6038BD00BF723E00005B
:101A6000BD3E0000401004504020045010B5044614
:101A700018B991211F4801F03CFE23781B0613F092
:101A8000604F03D092211B4801F033FEE3780F2B07
:101A900003D9A321174801F02CFE01212020FFF7D4
:101AA0001FFA01212120FFF71BFA0122124B5A6075
:101AB000227812069A606178A27842EA01429A611D
:101AC000FF229A6200229A631A644FF000425A651C
:101AD0004FF0FF324FF4001103F500531A65074A27
:101AE000C2F88011E3781B01DBB282F81533116074
:101AF00010BD00BF723E00000000045000E100E095
:101B00002DE9F0410126C3B2072805460C46904650
:101B100006FA03F603DDEC21354801F0EAFD1CB9B5
:101B2000ED21334801F0E5FD236823F47C1323F015
:101B30000F031BB1F0212E4801F0DBFDA37A1B043B
:101B400013F47C0F04D040F20911294801F0D1FDB3
:101B5000E37A1B0513F07E6F04D040F20B1124488A
:101B600001F0C7FD237B5B0513F0FE5F04D040F25C
:101B70000D111F4801F0BDFD30201E4A637B166524
:101B800021681D4F02F5005242F8251000FB057533
:101B90002B66E37AA27A1B0543EA0243227B43EADF
:101BA000425328F00302EB652A6701F005FE7B6DC6
:101BB00033437B65237A13B13B6C33433B64637AD5
:101BC00013B1BB6B3343BB632279A37943EA02436E
:101BD000084A93616179E37943EA014307498B61DC
:101BE000054B56639E64BDE8F04101F0EBBD00BFBC
:101BF000723E000000200450000004500010045009
:101C000010B50124C3B2072804FA03F404DD40F23E
:101C10009711074801F06DFD01F0CEFD054B5A6D9F
:101C200022EA04025A659C62BDE8104001F0CABD78
:101C3000723E00000000045010B50124C3B2072812
:101C400004FA03F404DD40F2B5110A4801F051FD35
:101C500001F0B2FD084BDA6A224209D15B6B34EA2B
:101C600003030CBF0124002401F0ACFD204610BD8D
:101C70000024F9E7723E000000000450024B18688F
:101C8000C0F30740704700BF0080E00F2DE9F0412E
:101C900080460E461F46154622B94FF4A1713148C1
:101CA00001F027FD26B94FF42070FFF743F90646EF
:101CB000402F2AD009D8A7B1202F1CD040F289117B
:101CC000BDE8F041274801F014BD602FF6D1B5EB17
:101CD000960F04D940F28311224801F00AFD042432
:101CE0001DE0B5EB161F04D94FF4BA711D4801F081
:101CF00000FD102413E0B5EBD60F04D940F27911A2
:101D0000184801F0F6FC082409E00624B6FBF4F3B9
:101D1000AB4204D24FF4BF71124801F0EAFC6C43AD
:101D2000610801EB4616B6FBF4F40F4E203CB6EB0F
:101D3000C40F4FEAC40504D24FF4D071094801F032
:101D4000D8FCD8F80830354023F06003C8F80830D4
:101D5000D8F808301F43C8F80870C8F81C50BDE810
:101D6000F08100BF073F0000F8FF7F0038B50E4B41
:101D7000044698420D4608D003F58043984204D0AB
:101D80004FF43371094801F0B4FC012204F580538B
:101D90005A60EB43934003F00A036361656115B930
:101DA00004F50054626038BD00C00550073F0000D4
:101DB00010B5194B0446984208D003F58043984269
:101DC00004D040F24241154801F093FC012204F591
:101DD00080535A6040F6AA6341F205026361002312
:101DE0000F49A360E365E26004F500522361E361FB
:101DF000E36491640849A3658C4202D00948844297
:101E000007D18C42236502D0064B9C4201D10023AE
:101E100063650123536010BD00C00550073F0000FB
:101E2000FFFF01000000065070B5444B0446984285
:101E30000D4608D003F58043984204D040F2FD21BE
:101E40003F4801F056FC2046FFF7B2FF012304F59E
:101E500080567360AB7C1BB1A36843F08043A360E2
:101E6000EB7C5BB1354A2B7D944245D1A2F5103213
:101E7000C2F88C31E36D43F08003E3652A8A6B7B03
:101E800020461343EA891343E3602B7BD5E9011213
:101E9000FFF7FCFE6B7D1BB1A36843F48033A360A6
:101EA000AB7D1BB1A36843F40043A360EB7D2A7EA6
:101EB0001B07120502F4E00203F0E0431343A3659D
:101EC000697E1E4A8B1E012B1E4B1FD894421BD0CD
:101ED00002F5804294420CBF01224FF0FF3203EB27
:101EE0004213022041F21C620329985020D104239E
:101EF000F3652B78636170BD134A944204BFA2F569
:101F00002032C2F89C31B5E70022E8E794420DD0B8
:101F10000D4A94420CBF01224FF0FF3203EB4213F3
:101F2000022042F21C6201299850DFE70022F5E707
:101F3000042204F50053DA65DBE700BF00C005505A
:101F4000073F000000C003500000065007B56B4675
:101F5000054A1068516803C36846FFF765FC002016
:101F600003B05DF804FB00BF533F000013B500242D
:101F7000064A6846536F43F00103536700948DF897
:101F80000440FFF77BFB204602B010BD004000502C
:101F900030B58BB06C46174D0FCD0FC40FCD0FC4AD
:101FA00095E8030084E80300134BD3F84C21120397
:101FB00018D4D3F85041E4B28DF81940FFF746FA2F
:101FC000204480F308008DF818000C48FEF7CAFA88
:101FD0006846FFF749F94FF4FA70FFF7A5FA0020B9
:101FE0000BB030BD064B1C884FF6FF739C4208BFF8
:101FF0008C24E1E75C3F00000080E00F00F0490224
:102000000001E00F30B587B0084D01AC0FCD0FC413
:102010002B6801A8236019238DF80530FFF71CFAFF
:102020006420FFF77BFA002007B030BD843F00003A
:1020300010B56FF0040250210A480B4C12F0800FCB
:10204000D3B21BBF03F00F03043BA3181B1802F10C
:1020500001020CBF83F800131976402AEED100204C
:1020600010BD00BF00ED00E000E100E010B5044647
:1020700001F09BFB024B1C6001F09BFB002010BD9C
:102080008C12002010B501F090FB034B1C6801F08E
:1020900090FB204610BD00BF8C12002010B5002020
:1020A000144601F0ABFB18B1BF21024801F021FB3F
:1020B000204610BD983F0000034B02221868002301
:1020C0008068194600F070BB1410002038B530222B
:1020D000037A0446534303F1A04303F58023DD6EE6
:1020E000D0E9032313449D4201D8AA4204D94FF4F6
:1020F0003E71054801F0FDFAD4E9030303449D4213
:1021000018BF284638BD00BF0140000030B587B079
:10211000144605461046FFF7D9FF6369024683421D
:102120003CBFD4E903315B181B1AABB112492846F6
:1021300003910021CDE90131012304940093D4E9F6
:10214000001301F0F0FA20B14FF434710B4801F0A4
:10215000D0FA002007B030BD0122627694F82D201D
:10216000002AF6D084F835301321E36920469847D9
:102170002046636A9847ECE70D210000014000000B
:102180002DE9F04788B0044688461746994601F085
:1021900013FB8246002F00F0AB80237E03F0FF028A
:1021A000002B00F0DE802046FFF790FF63690546B4
:1021B000984206D1637E23B940F27F316A4801F02C
:1021C00098FA6669B5429CBFD4E90352AD18AD1BBD
:1021D000BD4228BF3D4601F0EFFA94F82D30064687
:1021E000002B40F096802A464046616901F019FCB8
:1021F00063692F462B4463612CE06069037803F028
:10220000FD01112940F08280216B884205D1A3F1A4
:1022100011014B424B4184F83430013F6369216B1B
:1022200001328B4203F1010308BF236363619542CE
:10223000E3D1D4E90323216B1344994208BF2263FD
:10224000216B8A4201D88B4204D84FF46D71464805
:1022500001F04FFAD4E9032361691344994208BF9E
:10226000626161698A4201D88B4204D84FF471716E
:102270003D4801F03EFA0023207A6376FEF788FBA2
:1022800020B140F21131384801F033FA2046FFF70F
:102290001DFF636983423FD10023E568237694F8EC
:1022A0002D30656103B125632046636A98472F4B43
:1022B0002A46039300230293236921680193012393
:1022C000207A00930494636801F02DFA20B140F263
:1022D0002D31254801F00DFA207AFEF779FB20B167
:1022E00040F25131204801F004FA304601F06AFA18
:1022F0005046C9F8007001F065FAD9F80030002B9B
:102300000CBF1B20002008B0BDE8F08708F8013B97
:1023100084E72F4600228AE70123207A23760DF1F5
:102320001E01FEF7BDFB20B14FF450710E4801F0C5
:10233000E0F99DF81E30002BCED0207A0DF11F0160
:10234000FEF786FB20B140F24631074801F0D1F993
:102350009DF81F100029BFD12246207AFFF7D6FE34
:10236000BAE71746C4E700BF014000000D21000096
:1023700070B504460568FFF785FE844202D100204F
:10238000FFF774FE95F93630002B11DB012203F0C4
:102390001F015B099B0003F160438A4003F5614321
:1023A000C3F88021C3F88020BFF34F8FBFF36F8F36
:1023B000287AFEF72DFB20B14FF4ED71104801F0A3
:1023C00098F9287AFEF78AFA20B14FF4EF710C4899
:1023D00001F08FF9FEF760FA38B10A4B984204D049
:1023E0004FF4F171064801F084F900232846C4E94E
:1023F0000033C4E90433A360AB6ABDE870401847FA
:1024000001400000058000F02DE9F84304460D4628
:1024100090F82C80DFF8AC908E18B54228D094F854
:102420002D3083B101F0C8F9237E07461BBB226B18
:1024300063699A4204D040F2F911484601F059F913
:10244000384601F0BFF994F83430002BE5D0B8F1EC
:10245000000F06D02B780A2B03D10D212046E3690B
:1024600098472046E36915F8011B98470028D4D007
:102470000020BDE8F8832046FFF728FEE168013818
:10248000884238BF2069D4F830C03CBF00F1FF302B
:10249000401803469C450BD013F80129112A01D09E
:1024A000132A07D1A2F111035A425A4184F8342069
:1024B0002063C5E7994282BF236903F1FF335B18AC
:1024C000E8E700BF01400000F0B587B00C460646C3
:1024D00015460021382220461F4601F0AFFA95E844
:1024E000030000232A692376EB6884E80300C4E92B
:1024F00004232A7DE36084F82C20AA7D2363012332
:1025000084F8343084F835300C9B84F82D20236215
:102510000D9BE76163620E9BA3622B7A84F83630D1
:10252000204B34607360204BB360204B3361204BF1
:102530007361204BF360FEF7F7F930B11E4B984200
:1025400003D01024204607B0F0BD002104F108009C
:10255000FEF772F90028F4D10127184B0494CDE955
:1025600002032369009701936368E2682168207A77
:1025700001F0D9F804460028E3D195F90830002B82
:102580000BDB03F01F025B099B0003F160439740E4
:1025900003F56143C3F880711F603046FFF766FDA5
:1025A000D0E700BF0924000081210000E7380000C7
:1025B000ED38000071230000038000F00D210000C1
:1025C0002DE9F04186B01C46564B01270293564B2D
:1025D0000C9D01930023904600930A46CDE90377B2
:1025E0002946524BFFF770FF0646002875D1236835
:1025F0003946AB6363683A20EB63637A85F8413010
:10260000237A85F84030E37A85F84330A37A85F859
:102610004230637B85F84530237B85F84430E37B8B
:1026200085F84730A37B85F84630FEF759FC3B46DA
:102630000422617A207AFFF789F93B460222E17A87
:10264000A07AFFF783F939466068FEF749FC88F8FD
:10265000006041462068FFF7E7FB1422637C5B01C2
:1026600003F1A04303F57033C3F81C26617A227A84
:1026700042EA0142C3F83426E17AA27A42EA0142F0
:10268000C3F82C2685F8486098F81930032B47D8F2
:10269000DFE803F01A0227410123002785F84830BC
:1026A00000230222617B207BFFF750F9637B227BB2
:1026B000617C42EA03421E4B49015A5004222368BE
:1026C00003F58053DA657FB9AA6B0521D36C2068C6
:1026D00043F00403D364FFF749FB304606B0BDE87E
:1026E000F081022385F8483000230422E17BA07B9F
:1026F000FFF72CF9022741F21C61627C0D4B03EBC2
:1027000042104750E07BA17BB13241EA004103EB2C
:1027100042139960D8E70323012785F84830BFE7C3
:102720002326DAE7FF380000F3380000773900008D
:1027300024D6035000C0035008B5074B044613B11C
:10274000002100E000BF054B1868836A03B1984779
:10275000204601F0B0F800BF00000000604000001B
:1027600070B50D4D00260D4C641BA410A64209D176
:102770000B4D00260B4C01F0B1FA641BA410A642CD
:1027800005D170BD55F8043B01369847EEE755F882
:10279000043B01369847F2E78010002080100020AB
:1027A00080100020841000202DE9F7431D465C4B6B
:1027B00004460E461F68904627B1BB6913B93846D8
:1027C00000F0D0F9574B9C4267D17C68B8F1020FFA
:1027D00006D0B8F1010F00F29E80002DC0F29B8060
:1027E000636EDB0705D4A389980502D4A06D01F0C0
:1027F00063F92146384600F037F9616B41B104F1C5
:102800004403994202D0384600F072FA0023636311
:102810000023A3616360A389190603D521693846A3
:1028200000F066FAA389B8F1020F23F44A6323F09B
:102830000303A3816BD001AB6A462146384601F001
:102840003DF9A3891843A081002D30D1009D284671
:1028500000F046FA0646002854D1DDF80090A9455C
:1028600049D14FF0FF350022B4F90C30A26004F1D9
:10287000470243F00203226022610122A3816261C8
:10288000626ED20705D413F4007F02D1A06D01F06F
:1028900014F9284603B0BDE8F083234B9C4201D1D4
:1028A000BC6893E7214B9C4208BFFC688EE7002E72
:1028B000CDD0BB6913B9384600F054F9B8F1010F17
:1028C000266002BFA38943F00103A381A28912F00D
:1028D0000803C4E904651CD0D30745BF00236D423B
:1028E000A560A36048BFA561656E15F0010515D10F
:1028F00012F4007FC9E7484600F0F2F906460028C6
:10290000AFD04D46A38943F08003A381D1E70025D2
:10291000A9E7A360E8E74FF0FF35BAE70025B8E77D
:102920001410002084400000A44000006440000017
:1029300013B50B46094902460C6844B1A16931B987
:10294000CDE90003204600F00DF9DDE90023A16880
:10295000204602B0BDE8104000F0AABA14100020D2
:102960008A892DE9F041054610070C4658D44B687A
:10297000002B05DC0B6C002B02DC0020BDE8F08195
:10298000E66A002EF9D0002312F480522F682B60E3
:1029900032D0606DA3895A0705D56368C01A636B8E
:1029A0000BB1236CC01A00230246E66A2846216A4E
:1029B000B047431CA38906D129681D292CD8294A70
:1029C000CA40D60728D50022D90462602269226055
:1029D00004D5421C01D12B6803B96065616B2F607F
:1029E0000029CAD004F14403994202D0284600F0DD
:1029F0007FF900206063C1E7216A01232846B047C0
:102A0000411CC7D12B68002BC4D01D2B01D0162B25
:102A100001D12F60B1E7A38943F04003A381ADE763
:102A20000F69002FA9D093070E680F600CBF4B6988
:102A30000023A6EB07088B60B8F1000F9DDD43462D
:102A40003A46216A2846A66AB047002806DCA389D0
:102A50004FF0FF3043F04003A3818FE70744A8EB1A
:102A60000008E9E70100402038B50B6905460C462F
:102A700013B90025284638BD18B183690BB900F099
:102A800071F8144B9C421BD16C68B4F90C30002BCC
:102A9000EFD0626ED00704D4990502D4A06D01F086
:102AA0000BF828462146FFF75BFF636E0546DA0701
:102AB000E0D4A3899B05DDD4A06D00F0FEFFD9E72B
:102AC000054B9C4201D1AC68DFE7044B9C4208BF38
:102AD000EC68DAE784400000A44000006440000095
:102AE000002310B504468360818119464366C28184
:102AF00008228361C0E90033C0E904335C3000F090
:102B00009DFF054B24626362044BA362044BE362A6
:102B1000044B236310BD00BF393C00005B3C000048
:102B2000933C0000B73C0000014900F0A5BF00BF86
:102B3000692A0000014800F0BFBF00BFC112002099
:102B4000014800F0BABF00BFC1120020014800F0E8
:102B5000B3BF00BFC2120020014800F0AEBF00BFEB
:102B6000C212002010B50446FFF7F0FFA3691BB1A5
:102B7000BDE81040FFF7F0BFC4E9123323652046DB
:102B8000124B134A1B68A262A34204BF0123A36134
:102B900000F020F86060204600F01CF8A06020469D
:102BA00000F018F800220421E0606068FFF798FF49
:102BB00001220921A068FFF793FF02221221E06899
:102BC000FFF78EFF0123A361D2E700BF6040000042
:102BD000292B0000F8B50746FFF7ACFF1E4B1E6817
:102BE000B36913B93046FFF7BDFF4836D6E9013463
:102BF000013B03D533680BB33668F7E7B4F90C50E3
:102C0000D5B9164B04F158006566E36000F053FF38
:102C1000FFF796FF0822294604F15C002560A561B4
:102C2000C4E90155C4E9045500F008FFC4E90D5595
:102C3000C4E912552046F8BD6834D9E70421384666
:102C400000F004FF044630600028D5D1FFF778FF7C
:102C50000C233B60EEE700BF604000000100FFFF77
:102C60008B8973B59D0706460C4607D504F14703CB
:102C7000236023610123636102B070BD01AB6A462A
:102C800000F01CFF00990546304600F09DF848B959
:102C9000B4F90C309A05EFD423F0030343F0020398
:102CA000A381E3E70D4BB362A389206043F0800367
:102CB0002061A381009B6361019B5BB1B4F90E109D
:102CC000304600F04FFC28B1A38923F0030343F002
:102CD0000103A381A0890543A581CDE7292B00002D
:102CE000024B0146186800F06FB800BF14100020B6
:102CF00037B5002943D051F8043C0C1F0190002B3C
:102D0000B8BFE41800F050FC1E4A0198136833B9AC
:102D10006360146003B0BDE8304000F04BBCA342D8
:102D200008D9256861198B4201BF19685B68491988
:102D30002160EDE71A465B680BB1A342FAD911682E
:102D40005518A5420BD12468214454181160A342A0
:102D5000E0D11C685B68214453601160DAE702D956
:102D60000C230360D6E7256861198B4202BF1968FE
:102D70005B684919636008BF21605460CAE703B00B
:102D800030BD00BF9012002070B50E4E0C460546B7
:102D9000316811B900F0E2FA30602146284600F0AF
:102DA000DDFA431C0AD0C41C24F00304A04207D05F
:102DB000211A284600F0D2FA013001D14FF0FF3439
:102DC000204670BD941200202DE9F041CD1C07462D
:102DD00025F0030508350C2D38BF0C25002D01DB2F
:102DE000A94205D90C2300263B603046BDE8F0819E
:102DF0002E4E00F0D9FB33681C4634BB29463846BA
:102E0000FFF7C2FF431C04464DD134682646002E0E
:102E100040D123683146384604EB030800F09EFA9F
:102E200080453AD12168033538466D1A25F00305EF
:102E300008350C2D38BF0C252946FFF7A5FF0130BA
:102E40002BD023682B4423600EE02268521B1ED433
:102E50000B2A16D96119A342256018BF596063680F
:102E600008BF316062514B6004F10B06384600F038
:102E7000A1FB231D26F00706F21AB6D09B1BA35018
:102E8000B3E76268A3420CBF32605A60ECE72346A6
:102E90006468B2E734467668B9E70C2338463B608D
:102EA00000F088FBA1E72560DEE700BF901200205C
:102EB0002DE9F04F0D469DB014469846064618B1D0
:102EC00083690BB9FFF74EFE894B9D421BD1756894
:102ED0006B6ED90705D4AB899A0502D4A86D00F0B2
:102EE000EBFDAB891B0701D52B69EBB929463046B1
:102EF00000F0A8FAC0B16B6EDC070ED54FF0FF30C2
:102F00001DB0BDE8F08F7B4B9D4201D1B568DFE776
:102F1000794B9D4208BFF568DAE7AB899805EDD497
:102F2000A86D00F0CAFDE9E70023CDF80C804FF052
:102F30000109DFF8C881099320238DF82930302357
:102F40008DF82A3023469A4613F8012B0AB1252A18
:102F5000F9D1BAEB040B0BD05B462246294630462A
:102F600000F0E8FD013000F0AA80099A5A44099265
:102F70009AF80030002B00F0A28000234FF0FF32BF
:102F80000AF1010A049307938DF853301A93CDE99F
:102F9000052354460522594814F8011B00F08FFE02
:102FA000049AD8B9D10644BF20238DF853301307B3
:102FB00044BF2B238DF853309AF800302A2B15D0BC
:102FC000079A544600204FF00A0C214611F8013BA5
:102FD000303B092B4ED9B0B1079214E0A0EB0803A7
:102FE000A24609FA03F313430493D2E7039B191D86
:102FF0001B68002B0391BBBF5B4242F002020793A8
:103000000793B8BF049223782E2B0CD163782A2B18
:1030100035D1039B02341A1D1B68002B0392B8BFE5
:103020004FF0FF330593DFF8E4A0032221785046E8
:1030300000F045FE40B14023A0EB0A00013403FA42
:1030400000F0049B0343049314F8011B06222C4850
:103050008DF8281000F033FE00283FD0294B1BBB11
:10306000039B073323F0070308330393099B3B4477
:10307000099367E70CFB02320C460120A5E7002309
:1030800001344FF00A0C19460593204610F8012B25
:10309000303A092A03D9002BC5D00591C3E70CFBB0
:1030A000012104460123F0E703AB2A4604A9304678
:1030B0000093154B00E000BF0746781CD6D16B6E1D
:1030C000D90705D4AB899A0502D4A86D00F0F5FCA8
:1030D000AB895B063FF512AF099811E703AB2A46AF
:1030E00004A930460093084B00F012F8E4E700BF53
:1030F00084400000A440000064400000C440000080
:10310000CE40000000000000353B0000CA40000037
:103110002DE9FF470F7E914680460C46782F9A4650
:103120000C9D01F1430207D8622F0AD8002F00F04E
:10313000D880582F00F0A38004F1420584F8427033
:103140003AE0A7F16303152BF6D801A151F823F05B
:10315000A9310000BD3100003931000039310000D3
:103160003931000039310000BD3100003931000033
:10317000393100003931000039310000C932000016
:10318000ED310000AB320000393100003931000070
:10319000EB32000039310000ED3100003931000020
:1031A00039310000B33200002B681A1D1B682A60F9
:1031B00004F1420584F842300123A3E02068296825
:1031C000060601F104030AD50E682B60002E03DA0F
:1031D0002D23764284F843305E480A2319E00E68B6
:1031E00010F0400F2B6018BF36B2EFE72B68206855
:1031F000191D2960010601D51E6802E04606FBD5AF
:103200001E886F2F53480CBF08230A23002184F81F
:1032100043106568002DA560A2BF216821F004015C
:1032200021600EB9002D4DD01546B6FBF3F103FB1E
:103230001167C75D05F8017D37460E46BB42F4D9DC
:10324000082B0BD12368DE0708D5236961689942F2
:10325000DEBF302305F8013C05F1FF35521B22612A
:103260004B4603AA21464046CDF800A000F074FC6E
:1032700001304CD14FF0FF3004B0BDE8F087354845
:1032800081F845702968236851F8046B29601D0690
:1032900014D5DF0744BF43F0200323601EB9236821
:1032A00023F0200323601023B0E7236843F02003BA
:1032B00023607823284884F84530E3E7590648BF5F
:1032C000B6B2E6E71546BBE72B682668181D6169AC
:1032D000286035061B6801D5196002E07006FBD531
:1032E0001980002315462361BAE72B6800211A1DB7
:1032F0002A601D686268284600F0E1FC08B1401BA6
:10330000606063682361002384F84330A8E7236981
:103310002A4649464046D0470130ABD023689B0738
:1033200013D4E068039B9842B8BF1846A4E7012372
:10333000324649464046D04701309BD00135E368CC
:1033400003995B1AAB42F2DCEBE7002504F11906A6
:10335000F5E700BFD5400000E640000038B5002387
:10336000054D044608462B60FDF716F9431C02D1B3
:103370002B6803B1236038BD98120020F8B50E46C3
:103380001446054618B183690BB9FFF7EBFB214BD7
:103390009C422BD16C68A369A360A3891A072FD51F
:1033A00023696BB32369F6B220683746C01A636994
:1033B000834204DC21462846FFF756FB30BBA36856
:1033C0000130013BA36023685A1C22601E706369B0
:1033D000834204D0A389DB0706D50A2E04D12146F7
:1033E0002846FFF741FB88B93846F8BD0A4B9C4296
:1033F00001D1AC68CFE7094B9C4208BFEC68CAE733
:103400002146284600F01EF80028CBD04FF0FF37A9
:10341000EAE700BF84400000A440000064400000D0
:1034200038B50446064D0846114600222A601A4661
:10343000FEF734FE431C02D12B6803B1236038BD74
:1034400098120020324B70B51D6806460C4625B117
:10345000AB6913B92846FFF785FB2E4B9C420FD171
:103460006C68A389B4F90C2019072CD4DD0611D49B
:103470000923336042F040034FF0FF30A3813EE068
:10348000254B9C4201D1AC68EBE7244B9C4208BF22
:10349000EC68E6E7580712D5616B41B104F14403CB
:1034A000994202D03046FFF723FC00236363A389CF
:1034B00023F02403A3810023636023692360A3898D
:1034C00043F00803A38123694BB9A38903F4207354
:1034D000B3F5007F03D021463046FFF7C1FBA0893A
:1034E000B4F90C2010F001030AD00023A360636933
:1034F0005B42A361236943B910F08000BAD170BD6B
:10350000810758BF6369A360F4E70020F7E700BFB5
:103510001410002084400000A4400000644000001B
:1035200038B50023054D044608462B6000F0C1F96C
:10353000431C02D12B6803B1236038BD98120020D0
:1035400038B50023064D0446084611462B6000F0AE
:10355000B3F9431C02D12B6803B1236038BD00BF0F
:103560009812002038B50023054D044608462B600C
:1035700000F0A7F9431C02D12B6803B1236038BDCA
:103580009812002038B50446064D08461146002220
:103590002A601A4600F097F9431C02D12B6803B148
:1035A000236038BD98120020014800F085BA00BFA2
:1035B000C0120020014800F080BA00BFC0120020F5
:1035C00038B50446064D0846114600222A601A46C0
:1035D00000F07BF9431C02D12B6803B1236038BD96
:1035E00098120020704708B500F003FAFCF706FEB9
:1035F00000F00CFAFFF7F6FFFAE7704708B5FCF7A2
:10360000DBFFBDE8084000F053B808B500F011F842
:10361000FEF752FDBDE80840FCF7D6BE7047FCF748
:10362000E7BE7047704770477047FCF7DBBE7047D6
:1036300070470F20704708B501213A20FDF750FC74
:10364000BDE80840FFF7D9BF01213A20FDF748BC8B
:1036500070B50024064625465B210820FDF70CF8CE
:10366000102C04F1010300D170BD012B14D0022BEA
:1036700014D0032B14D0042B14D0052B04D16A1CB6
:103680002946D5B21C46E8E70D3C012C0CD9102B7D
:103690000CD0B21FD15CF5E70C21F3E7D121F1E7A3
:1036A0008021EFE70021EDE75A21EBE75D21E9E713
:1036B00008B5082000F01EF8BDE80840082000F01A
:1036C00025B807B5012320F07F4040EA81700190C2
:1036D00068468DF80030FFF7BBFF03B05DF804FBD0
:1036E000FEE7002070474FF4004070474FF47A70B7
:1036F0007047FEE74FF060420123D2F8001E03FA44
:1037000000F00843C2F8000E002070474FF06041FF
:103710000122D1F8003E02FA00F023EA0003C1F8CA
:10372000003E0020704710B588B00E9C00920794B0
:103730000D9C024606949DF8304005940B9C049421
:103740009DF8284003940024CDE9013420460B461F
:103750000121FCF7B3FF08B010BD08B5FCF7F8FE77
:10376000BDE808400021FDF795BB0029CCBF012131
:103770000021FDF78FBB02214FF42070FDF7DABE68
:1037800010B5FCF7D3FE0446FDF7E6F9C0F10201DF
:103790002046FFF7EAFF01210020FDF7D1FFFDF7EA
:1037A0005BFFBDE81040FDF78FBCEFF3108072B6F1
:1037B000704700B962B67047EFF31180302383F38E
:1037C0001188704780F3118870477047704770B553
:1037D000054614460E46FFF7E8FF296881EA040211
:1037E00002EA06044C402C60BDE87040FFF7E1BFE0
:1037F000704783695B06FCD5C163704707B530B974
:10380000CDE90012FEF73EFCDDE9001230B143685D
:1038100023B1006803B05DF804EB1847232003B020
:103820005DF804FB30B585B01C4658B9CDE90012EF
:10383000FEF728FCDDE9001204B903AC20B923200F
:1038400005B030BD03B903AC8568002DF7D0234621
:103850000068A847F4E7F8B50E461746054690B944
:10386000FEF710FC0446054630463946FFF760F87F
:10387000AC42064602D02046FEF7F8FB002ED4BF2D
:1038800037200020F8BDFEF7FDFB85420446EBD053
:103890002846FEF7EBFBE7E70EB403B503AA52F8A0
:1038A000041B0192FFF7D7FF02B05DF804EB03B0F1
:1038B000704700207047FEE74FF4005300204B6034
:1038C0007047012070470020704707B5002001AB0A
:1038D0000190FFF7A7FF0198002808BF4FF0FF30C5
:1038E00003B05DF804FB80F82C10704790F82C00B2
:1038F0007047826BD36C43F00403D364704710B5F8
:103900000446826B93695906FCD5002394F8411054
:103910001A4694F84000FEF719F8002394F8431073
:103920001A4694F84200FEF711F894F84830DA0786
:1039300007D5002394F845101A4694F84400FEF782
:1039400005F894F848309B0707D5002394F84710F2
:103950001A4694F84600FDF7F9FFA06B0021C36CEE
:1039600023F00403C364FEF701FAE06B0021FDF7C6
:10397000B7FA002010BD08B5806BFFF73AFF0020B2
:1039800008BD38B50468237EA06B33B9C36C23F03F
:103990000403C3640123237638BD637E23B394F804
:1039A0002D300BB30025132184F83550FFF721FF8C
:1039B000A36BDA6C42F00402DA645B6ADBB2112BAF
:1039C0000DD1012384F834303022237A534303F19C
:1039D000A04303F58023DB6E013B2363DCE7132B5D
:1039E000DAD184F83450EFE7C36C23F00403C364E6
:1039F000D2E708B5FCF760FCFFF700FEFFF705FE15
:103A0000FFF70CFEBDE80840FFF709BE08B5FFF759
:103A100008FEFFF707FEFFF706FEBDE80840FFF7C8
:103A200003BE0A44431E914200D1704710B511F8FD
:103A3000014B914203F8014FF9D110BD02440346F6
:103A4000934200D1704703F8011BF9E770B5682273
:103A50004D1E0E46554305F17401FFF7B5F90446B6
:103A600040B1002105F16802C0E900160C30A060E9
:103A7000FFF7E4FF204670BD2DE9F843064688466F
:103A800000F148040027D4E90195B9F1010905D5F1
:103A90002468002CF7D13846BDE8F883AB89012BA8
:103AA00007D9B5F90E30013303D029463046C04757
:103AB00007436835E9E770477047704770B50E46B1
:103AC000B1F90E1096B0144600291D4608DAB6F971
:103AD0000C3000222A601A0610D44FF480630EE0E6
:103AE0006A46FFF72DFD0028F1DB019A02F47042CF
:103AF000A2F500535A425A412A60EEE740230020C3
:103B0000236016B070BD9368013B002B936010B426
:103B100008DA9469A34201DB0A2903D15DF8044B5A
:103B2000FFF72CBC1368581C1060084619705DF82C
:103B3000044B7047F8B506460F461446D518AC42FC
:103B400001D1002007E03A4614F8011B3046FFF788
:103B5000DAFF431CF3D1F8BD2DE9F047164699462C
:103B60008A6807460B690C46DDF820809342B8BF8F
:103B70001346336091F843200AB101333360236860
:103B8000990642BF336802333360256815F0060595
:103B900006D104F1190AE36832689B1AAB4229DCAA
:103BA00094F84320131E226818BF012392062ED4D6
:103BB00004F1430249463846C047013021D023680A
:103BC0001A3454F80E5C03F0060332680026042B06
:103BD00054F8123C08BFAD1A54F80A2C14BF002543
:103BE00025EAE5759342C4BF9B1AED18B5421AD178
:103BF000002008E00123524649463846C0470130BC
:103C000003D14FF0FF30BDE8F0870135C3E7E1187D
:103C10005A1C30200233224481F8430094F84510A6
:103C200082F84310C4E70123224649463846C0477C
:103C30000130E6D00136D9E710B50C46B1F90E10C7
:103C4000FFF7BEFC0028ABBF636DA3891B1823F4EC
:103C50008053ACBF6365A38110BD2DE9F0411F46C1
:103C60008B8905460C46DB05164605D50223002246
:103C7000B1F90E10FFF786FCA3893246B4F90E1095
:103C8000284623F48053A3813B46BDE8F041FFF76B
:103C9000C7BB10B50C46B1F90E10FFF773FC431CFF
:103CA000A38915BF606523F4805343F48053A38137
:103CB00018BFA38110BDB1F90E10FFF731BCC9B216
:103CC000024410B59042034601D1002303E01C7862
:103CD00001308C42F6D1184610BD0000F8B500BF87
:103CE000F8BC08BC9E467047F8B500BFF8BC08BCDD
:103CF0009E4670474F4B4B0A002E2E2F6175746FF6
:103D000067656E2F736C5F696F73747265616D5F49
:103D1000696E69745F75736172745F696E737461E3
:103D20006E6365732E630000050000000000000054
:103D300000C20100000500000010000000000000AB
:103D4000000000001E000003433A2F557365727394
:103D50002F57696E642F53696D706C69636974794C
:103D600053747564696F2F53444B732F6765636B8E
:103D70006F5F73646B2F706C6174666F726D2F650B
:103D80006D6C69622F7372632F656D5F636D752E45
:103D90006300433A2F55736572732F57696E642F12
:103DA00053696D706C696369747953747564696F74
:103DB0002F53444B732F6765636B6F5F73646B2F77
:103DC000706C6174666F726D2F656D6C69622F73B4
:103DD00072632F656D5F656D752E6300633A5C7568
:103DE000736572735C77696E645C73696D706C691E
:103DF0006369747973747564696F5C73646B735C05
:103E00006765636B6F5F73646B5C706C6174666F26
:103E1000726D5C656D6C69625C696E635C656D5F3B
:103E20006770696F2E6800433A2F55736572732F60
:103E300057696E642F53696D706C69636974795347
:103E4000747564696F2F53444B732F6765636B6F91
:103E50005F73646B2F706C6174666F726D2F656D2C
:103E60006C69622F7372632F656D5F6770696F2E67
:103E70006300433A2F55736572732F57696E642F31
:103E800053696D706C696369747953747564696F93
:103E90002F53444B732F6765636B6F5F73646B2F96
:103EA000706C6174666F726D2F656D6C69622F73D3
:103EB00072632F656D5F6C646D612E6300633A5CA5
:103EC00075736572735C77696E645C73696D706C31
:103ED000696369747973747564696F5C73646B7317
:103EE0005C6765636B6F5F73646B5C706C61746659
:103EF0006F726D5C656D6C69625C696E635C656D4B
:103F00005F6275732E6800433A2F55736572732F85
:103F100057696E642F53696D706C69636974795366
:103F2000747564696F2F53444B732F6765636B6FB0
:103F30005F73646B2F706C6174666F726D2F656D4B
:103F40006C69622F7372632F656D5F757361727434
:103F50002E63000103040101010903000B000000AE
:103F60000B00000002000000000020200000000004
:103F7000030000008C8C3C000000000000000000EA
:103F80000000000001260000040000000000000006
:103F90000001000000000000433A2F557365727362
:103FA0002F57696E642F53696D706C6963697479FA
:103FB00053747564696F2F53444B732F6765636B3C
:103FC0006F5F73646B2F706C6174666F726D2F73AB
:103FD0006572766963652F696F73747265616D2FA1
:103FE0007372632F736C5F696F73747265616D5F59
:103FF00072657461726765745F737464696F2E6350
:1040000000433A2F55736572732F57696E642F53AF
:10401000696D706C696369747953747564696F2F25
:1040200053444B732F6765636B6F5F73646B2F70C3
:104030006C6174666F726D2F736572766963652F3C
:10404000696F73747265616D2F7372632F736C5F28
:10405000696F73747265616D5F756172742E630050
:104060001810002000000000000000000000000008
:104070000000000000000000000000000000000040
:104080000000000000000000000000000000000030
:104090000000000000000000000000000000000020
:1040A0000000000000000000000000000000000010
:1040B0000000000000000000000000000000000000
:1040C00000000000232D302B2000686C4C0065663A
:1040D0006745464700303132333435363738394159
:1040E000424344454600303132333435363738396F
:0840F000616263646566000073
:0840F80088C0FF7F01000000F9
:0C4100000C410000001000202200000014
:10410C00C0EA2101C0EA210100F049020080000050
:10411C00C81200201810002000000000844000008D
:10412C00A4400000644000000000000000000000FB
:10413C000000000000000000000000000000000073
:10414C000000000000000000000000000000000063
:10415C000000000000000000000000000000000053
:10416C000000000000000000000000000000000043
:10417C000000000000000000FFFFFFFF01041F0013
:08418C00650100004101000083
:0400000300000429CC
:00000001FF
