:10600000C00A0020F96E0000B3610200B361020013
:106010000D740200B3610200B3610200B3610200BB
:10602000B3610200B3610200B3610200B361020018
:10603000B3610200501B0300F15F0200B361020074
:10604000B3610200B3610200B3610200C1730000DA
:10605000B3610200B3610200B3610200B3610200E8
:10606000B3610200B3610200B3610200B3610200D8
:1060700021C30000B3610200B3610200E16D0000C2
:10608000A5600200B3610200B3610200B3610200C7
:10609000B3610200E57A0000B3610200B36102005F
:1060A000B3610200B3610200B3610200B361020098
:1060B000B3610200153B0200B3610200014502001A
:1060C000D5130300D1130300F53C0200E1130300D4
:1060D000D9130300D9440200DD1303004145020037
:1060E0009D1E020071200200AD450200B361020056
:1060F000B3610200B3610200B3610200B361020048
:10610000B3610200B3610200B3610200B361020037
:10611000B3610200B3610200B3610200B361020027
:10612000B3610200B3610200B3610200B361020017
:10613000B3610200B3610200B3610200B361020007
:10614000013800D0FCE77047002370B5404C05468D
:106150008AB0E36318B1008823600CF0ABFD3D48C2
:106160002AF0E5FB3C4E3D4B304633603C4B7360C0
:1061700024F0F9FF0021304617F054FD32A3D3E993
:106180000023A062C4E9062324F0F8FFD4E9062323
:10619000194310434FF0FF33C4E90601CDE9000174
:1061A0004FF0FF32A06A2AF02BFC02224FF0FF31A1
:1061B000A06A2AF02AFC01200CF014FB4FF40073B3
:1061C00000222849A06A2AF079FCB0F5007F38D176
:1061D00000239422CDE9073309933C23CDE9033210
:1061E00005939623A06A03A9069317F037FE35B3EB
:1061F000287C0CF0B5FF0546F0B9A06A2AF03FFDF7
:106200000CF056FF0CF0D0FA20B14FF48070002152
:106210000AF024F90CF0D8FA20B14FF40060002104
:106220000AF01CF924F06EFF012017F04FFD0E4A12
:106230000E49A06A24F095FF28460AB070BDFF20E1
:10624000D7E70725F8E700BF0DD50155200000006E
:10625000600F0020690345ECA82200201D2F0100DB
:106260009C2200209C2000200BB102004BB10200B8
:1062700010B5054C237833B9044B13B1044800E042
:1062800000BF0123237010BDB011002000000000EA
:106290004069030008B5034B1BB10349034800E004
:1062A00000BF08BD00000000B411002040690300D9
:1062B000A3F5803A704700BF174B002B08BF134B64
:1062C0009D46FFF7F5FF00218B460F461348144A01
:1062D000121A2BF0D2F80E4B002B00D098470D4B22
:1062E000002B00D098470020002104000D000D482D
:1062F000002802D00C4800E000BF1EF06DFE200018
:1063000029001FF069FE1EF053FE00BF00000800C8
:106310000000000000000000C00A0020EC0E002079
:1063200014290020000000000000000010B51FF03C
:10633000F0FE1FF0EFFE0B4B0B49186820F0AEFE8D
:106340001FF022FE00234FF440301A4619460FF08A
:10635000CFFCBDE8104000230122194641F69910F8
:106360000FF0C6BC4C1200209017030010B5054C6E
:1063700023782BB100F0CCFA00F016FA002323703A
:1063800010BD00BFDC27002070B503689B4A23F4D2
:106390007F4323F00703934204468AB000F0528102
:1063A00002F1BF6202F54032934245D002F17942D8
:1063B000934246D1032000F025FD90B1904D9149C4
:1063C000286820F06BFE1FF0A4FE1FF0A3FE638977
:1063D0008D49019323890093E388A288286820F0DF
:1063E0005DFE0DF11F0108A80FF064FC05460028B2
:1063F00031D0834C8549206820F050FE84492068C4
:1064000020F04CFE1FF085FE1FF084FE814B824A77
:10641000009382497223206820F040FE80492B4679
:10642000804A206820F03AFE284600F031FD7E497F
:10643000206820F033FEFEE7037923B901227B4B6D
:106440001A700AB070BD012BFBD179480AB0BDE8C3
:1064500070401FF01EBF032000F0D4FC20B3684C36
:106460006849206820F01AFE1FF053FE1FF052FE0C
:106470009DF820309DF81F0004939DF821306D4950
:1064800003939DF822306C4A02939DF82330002834
:1064900008BF0A4601939DF824306849009320689C
:1064A0009DF8253020F0FAFD654E30460FF08AFB4E
:1064B000054610B3524C5549206820F0EFFD544971
:1064C000206820F0EBFD1FF024FE1FF023FE514B4F
:1064D000514A009351497E23206820F0DFFD504946
:1064E0002B46504A206820F0D9FD284600F0D0FC09
:1064F0004D49206820F0D2FDFEE7022130780FF0F0
:106500009BFB044610B33E4D4049286820F0C6FD71
:106510003F49286820F0C2FD1FF0FBFD1FF0FAFD87
:106520003C4B3D4A00933D498323286820F0B6FD4B
:106530003B4923463B4A286820F0B0FD204600F046
:10654000A7FC3949286820F0A9FDFEE7A0220346F0
:106550000090114630780FF04DFB054610B3284CE3
:106560002A49206820F09AFD2949206820F096FDEC
:106570001FF0CFFD1FF0CEFD264B274A0093274981
:106580008C23206820F08AFD25492B46254A206867
:1065900020F084FD284600F07BFC2349206820F091
:1065A0007DFDFEE7022130780FF05AFB05460028FA
:1065B0003FF447AF124C1549206820F06FFD144995
:1065C000206820F06BFD1FF0A4FD1FF0A3FD114B10
:1065D000114A009311499023206820F05FFD104973
:1065E0002B46104A206820F059FD284600F050FC48
:1065F0000D49206820F052FDFEE700BFA000060113
:106600004C120020C1170300C6170300A317030094
:10661000ED17030065180300F2170300FB170300D2
:106620000A180300071803001F180300DC270020C6
:10663000301B0300B3170300A51703003018030035
:10664000EA0C00202A4C022120780FF0F5FA0546CA
:1066500010B3284C2849206820F020FD27492068E5
:1066600020F01CFD1FF055FD1FF054FD244B254A62
:10667000009325499E23206820F010FD23492B46D6
:10668000234A206820F00AFD284600F001FC214939
:10669000206820F003FDFEE7022120780FF0E0FAE9
:1066A000054600283FF4CDAE124C1349206820F077
:1066B000F5FC1249206820F0F1FC1FF02AFD1FF0C4
:1066C00029FD0F4B0F4A00930F49A323206820F0A8
:1066D000E5FC0E492B460E4A206820F0DFFC2846D8
:1066E00000F0D6FB0B49206820F0D8FCFEE700BF85
:1066F000EA0C00204C120020A3170300ED17030042
:1067000065180300F2170300FB1703000A180300C3
:10671000071803001F18030010B50D4B86B0CDE914
:10672000013000230B4CADF80C10206801A9CDF806
:1067300010D0ADF8143002F09FFA012804D00038D0
:1067400018BF012006B010BD206802F079F9F4E707
:1067500046000100D40A002030B5114B89B00393E4
:1067600002AB04930223ADF8143001AB069300236F
:106770000C4D044603A92868ADF81C3002F07CFAE1
:10678000012806D048B9BDF808305BBA238009B0AB
:1067900030BD286802F054F9F2E70120F7E700BFA6
:1067A00046000200D40A002007B50DF10600FFF7ED
:1067B000D3FF28B107481EF0A9FD03B05DF804FB24
:1067C0000DF10600FFF7C8FFBDF8061002481EF0E5
:1067D00017FDF2E7741803009518030010B50224A2
:1067E00001213A2001F0B2FB042201210023022002
:1067F00002F084F8172005F0F5FB064B0E201C670D
:1068000005F0C0FD01232046BDE810401A46194698
:1068100002F074B800D00350054B5A6F9007FCD4B7
:106820005A6F9107FCD55A6F9207FCD4704700BF8E
:1068300000C003500246002006494B6FC3F34003DB
:106840009A4200D0704701309728F6D14FF0FF30C0
:10685000704700BF00C00350F8B50025214E224C00
:10686000224F736F9B07FCD51E2005F08BFD736FC5
:10687000EA1013F0020FA35C4FF001004FEA43034C
:1068800018BF43F00103A354FFF7D4FF013007D131
:106890001FF03FFC1FF03EFC1549386820F0FEFB5E
:1068A0000135282DDDD1114D1FF033FC1FF032FCD6
:1068B0001049286820F0F2FB627823781344A2780C
:1068C0001344E27813442279934209D01FF021FC4B
:1068D0001FF020FC28680649BDE8F84020F0DEBB28
:1068E000F8BD00BF00C00350DD2700204C1200207F
:1068F000A3180300A3170300014B1888C0BA704700
:10690000DD270020014B5888C0BA7047DD270020E2
:1069100030B585B003A902A81FF04EFB1FF0F9FBAC
:106920001FF0F8FB02981EF031F900220B4B1DF00E
:10693000C1FE044603980D461EF028F90022074BBD
:106940001DF0B8FECDE90001054822462B46054959
:10695000006820F0A3FB05B030BD00BF0000703F11
:106960004C120020AA18030030B503687F4A23F4B4
:106970007F4323F00703934289B040F0F48008225C
:10698000002112207A4B0FF07FF9044610B3794DA5
:106990007949286820F082FB7849286820F07EFB3E
:1069A0001FF0B7FB1FF0B6FB754B764A0093764994
:1069B0003D23286820F072FB74492346744A2868F6
:1069C00020F06CFB204600F063FA7249286820F042
:1069D00065FBFEE70146032214206F4B0FF054F9CC
:1069E000044610B3634D6449286820F057FB63499F
:1069F000286820F053FB1FF08CFB1FF08BFB604BD3
:106A0000604A009360494B23286820F047FB5F49A8
:106A100023465F4A286820F041FB204600F038FA00
:106A20005C49286820F03AFBFEE701460522162063
:106A30005A4B0FF029F9054610B34E4C4E492068C9
:106A400020F02CFB4D49206820F028FB1FF061FB53
:106A50001FF060FB4A4B4B4A00934B495923206877
:106A600020F01CFB49492B46494A206820F016FBC0
:106A7000284600F00DFA4749206820F00FFBFEE79A
:106A80000DF10F0104A80FF015F9044610B3394DAC
:106A90003949286820F002FB3849286820F0FEFABE
:106AA0001FF037FB1FF036FB354B364A0093364953
:106AB0006423286820F0F2FA34492346344A2868CF
:106AC00020F0ECFA204600F0E3F93249286820F083
:106AD000E5FAFEE79DF8153001468DF818309DF86F
:106AE000143008228DF819309DF8133018208DF8D5
:106AF0001A30FF238DF81B30FE238DF81C309DF8D3
:106B000012308DF81D309DF811308DF81E309DF833
:106B100010308DF81F3006AB0FF0B6F8054610B3F5
:106B2000144C1549206820F0B9FA1449206820F067
:106B3000B5FA1FF0EEFA1FF0EDFA114B114A00936F
:106B400011497423206820F0A9FA10492B46104AF5
:106B5000206820F0A3FA284600F09AF90D49206831
:106B600020F09CFAFEE709B030BD00BFA000010094
:106B7000CA1803004C120020A3170300ED170300EE
:106B800005190300D3180300FB1703000A180300BC
:106B9000071803001F180300FB180300FF18030069
:106BA00010B5234C01F0AEFA01F0CEFC236F23F0B8
:106BB000070343F0030323671FF0C0FC1D4B0020B5
:106BC0009B6A9B075EBF01221B4B9A62D4F820315F
:106BD00023F0030343F00203C4F82031D4F8243136
:106BE00023F0070343F00203C4F82431D4F8403102
:106BF00023F0030343F00203C4F84031D4F86031BA
:106C000023F0030343F00203C4F86031D4F84032A8
:106C100023F0030343F00203C4F84032D4F80032F7
:106C200023F0070343F00203C4F8003210BD00BF95
:106C30000080005000C0005000E0005008B502F095
:106C4000D9F901280ED1144B04205A6E4FF4802339
:106C50001249520358BF124A4B6601F510410862AF
:106C600058BF536604F016F81FF060FA03F0A0FF57
:106C700003F0FAFF03F0BEFF20F0BCF9FFF790FF2E
:106C800003F0A6FF1FF049FA00F062FB00F064FF7A
:106C9000BDE8084004F04EBC008000500090005059
:106CA00000A0005008B53A20012101F04FF9BDE8DD
:106CB0000840014800F062BCC00A002030B5224DF7
:106CC00095B00DAC0FCD0FC495E80700032384E801
:106CD00007008DF84D3029231C4A1D49CDE90223B8
:106CE0001C4B1024CDE904134FF48073224600217D
:106CF00009A806932AF0C1FB4FF4A020164B07A960
:106D0000CDE907030F238DF82430144B0DAA0A9305
:106D100020230B9301238DF83130114B1148009340
:106D200002AB8DF8254004F0E9F904469DF83230B5
:106D30004FF4E130002B0CBF032100211FF02AFA91
:106D4000204615B030BD00BF141B030000000650E4
:106D5000000500060008000724000650E227002076
:106D6000CC11002028120020831E012B10B512D850
:106D7000012910D8114B04221B6905210020C3F3FF
:106D8000401301F0BBFD0E4B1B681868A8B1BDE8AD
:106D90001040436A18478B1E012B0CD801280CD8D1
:106DA000BDE810400022054B05211B691046C3F3C6
:106DB000401301F0A3BD0129E5D910BD00C0035067
:106DC000E00A002008B50449044804F077FCBDE857
:106DD0000840FFF773BF00BFD80A00202012002030
:106DE000014820F0C9BA00BF28120020014B1A6ADE
:106DF000186810472812002001481FF047BA00BF4A
:106E0000301B03000B4B02461B788BB10A4B1B78DF
:106E1000834234BF00200120084B1B783BB1084B54
:106E20001B7843FA02F212F0010F08BF00207047EE
:106E30000120F1E7EE0C0020EF0C002002280020DA
:106E4000F00C0020012208B5074B1A700022074BF6
:106E50001A700422064B1A701F22064B1A7003F098
:106E600043FF054B186008BDEE0C002002280020EF
:106E7000EF0C0020F00C00204C120020024B0349C4
:106E8000186820F00BB900BF4C120020481B03000B
:106E900070B50C4C0C490646206820F0FFF803F052
:106EA00023FF0546206803F013FF3046FFF7E6FF97
:106EB000284603F00DFF20680449BDE8704020F02B
:106EC000EDB800BF4C1200204A1B03004C1B03000E
:106ED00007B508201FF0C1F902238DF80030054BDB
:106EE000684601931FF026F9082003B05DF804EB13
:106EF0001FF0BFB9006A181008B500F02DF8124B4A
:106F000012498B4212D30020114B12498B4218D3E5
:106F1000FFF7D2F9186850F82240586840F822402C
:106F2000013298688242F5D30C33EAE70022F8E791
:106F30001C6844F8220001325C68A242F8D308338E
:106F4000E4E70022F8E700BF486903005469030042
:106F500054690300546903004FF400414FF0FF30BF
:106F6000124B134A10B59A60D3F8882042F470028D
:106F7000C3F888200F4A916601F1884101F500525B
:106F800010664FF6DF7050660220C3F8D000BFF3E2
:106F90004F8FBFF36F8F08244FF440330648C0F87B
:106FA0008041D36004600B6110BD00BF00ED00E0C4
:106FB000006000000090005000E100E0014B186804
:106FC000704700BFE80A0020084B1B6F03F007035F
:106FD000022B04D0032B05D0012B05D0FEE7044B78
:106FE00018687047034BFBE7034870470080005068
:106FF000E80A0020EC0A0020002D310108B5FFF757
:10700000E3FF054B1B6FC3F303330133B0FBF3F016
:10701000024B186008BD00BF00800050E40A002049
:107020000048704700B4C404014B1868704700BFA3
:10703000EC0A0020054B1860054B1B6F03F007039B
:10704000032B01D1FFF7DABF704700BFEC0A002025
:107050000080005000487047002D3101014B186836
:10706000704700BFF00A0020BFF34F8F0549064B61
:10707000CA6802F4E0621343CB60BFF34F8F00BFD6
:10708000FDE700BF00ED00E00400FA0500239B6A65
:10709000B3F5C04F03D21968064A914203D00023CA
:1070A000037083607047012202709A689B69426096
:1070B000F7E700BF07B0CD5E73B55E4B04461A78A4
:1070C0001AB102221A7002B070BDCDE90022002868
:1070D000F9D001261E701FF04DFA574D574B18601E
:1070E00019F0C2FF2B785BB900F036FD40B9544867
:1070F0000823544A5449006816F0C8FA00B92E70A3
:10710000524B5A6E62619B6E514AA3614FF4004329
:10711000936603F188435968E1614E499960196E9D
:107120002160596E6160D3F87011A160196CE16043
:10713000596C21614849086C1864496C59640121F3
:1071400051664FF4005191661A6E56044BD543496F
:10715000CA68D407FCD45B6E5A0449D5404AD36B45
:1071600013F0430FFBD13F4B1A68531C46D04FF42A
:10717000001393403C4A136604233B4C23664FF4B0
:10718000806323661FF039F801300ED01FF035F808
:1071900040F20113984208D04FF4804323664FF425
:1071A000004323661023C4F8703110232E4C684628
:1071B00023664FF4005323664FF0804323664FF459
:1071C000804301A963661EF0FDFF009B2366019BBF
:1071D00063662B78002B3FF476AF1A4B1A68226651
:1071E0005B6863666FE72149CA68D007FCD4B2E7E1
:1071F0001F4AD36B13F0430FFBD1B4E71D4B1B7831
:10720000002BB9D14FF48072114B5A661A4A52685A
:107210001AB94FF40011144A11664FF400725A66FD
:10722000164B5B68002BA7D14FF480020E4B1A66F9
:10723000A2E700BF052800200328002078120020C4
:10724000FC0A00207012002000710800008000502D
:107250000090005055CEAC0000C000540000044027
:107260000000024CF40A002000900044000004508A
:107270000000025C0428002000C0055000000650F9
:10728000F8B5284D04462F78012F02D001232B702A
:10729000F8BD0028FCD01EF0B0FF0130224E0AD00D
:1072A0001EF0ABFF40F20113984204D01F4A7766EC
:1072B000D368DF07FCD44FF400531D49B366CA6B93
:1072C00012F04302FBD121681A4B196661685966B6
:1072D000A168C3F87011E168196421695964E16912
:1072E000C80748BF9A60144B1A6801320DD1134A7F
:1072F000127852B912494968C90748BF1A60114A41
:107300005268D20744BF01221A6062690E4B5A6666
:10731000A2699A6619F0B0FE0C4B18681FF030F99C
:107320000023B4E70528002000900040000004403E
:107330000000024C00800044F40A002004280020D1
:1073400000C0055000000650008000507812002058
:1073500070B50024A36AB3F5C04F22D21A68124B4D
:107360009A421ED1114E337813F0FD0517D1104803
:10737000FFF7A2FE08214FF480330E4A0E48C2F8F0
:107380008011C36011600D4A1361AB6ADB699847D5
:1073900004460748FFF774FF0CB9012333702046F9
:1073A00070BD4FF48174FAE707B0CD5E0428002069
:1073B0005012002000E100E000A0004400900044D2
:1073C00013B51F4B1B7803B9FEE700231D4CCDE915
:1073D00000336A4608231C49206816F057F9F0B9B3
:1073E0001A4AD2F84031D2F840211F2B4FF0010346
:1073F00010D9203A9340019A1343019308236A4617
:107400001149206816F0F8F84FF00053104A1A603E
:10741000FFF72AFE9340009A13430093EEE70D4BCB
:107420009842F1D1094AD2F84031D2F840211F2BBD
:107430004FF0010302D9203A9340DEE79340ECE796
:1074400005280020FC0A002000710800008000448C
:107450000B020FF00BE000F005490A68131805480D
:1074600083428CBF4FF0FF320B601046704700BF65
:10747000F80A00200080002008B501213A2000F021
:1074800065FD032101230422002001F037FA0020CA
:107490001FF091F80122214B4FF46070C3F844248F
:1074A0001EF084FF1E4B00F5D520D3F8F02000F22B
:1074B000FC4042F00102C3F8F020D3F8FC2042F077
:1074C0008072C3F8FC20174AA3F55D431A60164B7F
:1074D0000222B0FBF3F0154B01381861C3F8F0201D
:1074E0004FF48072C3F804234FF06043104A002029
:1074F000C3F8B02F0F4AC3F8802ED3F8002E42F401
:107500008072C3F8002EFF2283F82020D3F8002ECB
:1075100022F48072C3F8002E08BD00BF00D00350D3
:1075200000ED00E0FF030040F8590D00000004E00A
:1075300055CEACC5090001004FF06043D3F8802E52
:1075400030B5D20715D501240B4D8440D5F8FC2069
:1075500042F08072C5F8FC20D3F8002E2243C3F815
:10756000002E53F82020002AF0D003F8201000202D
:1075700030BD1120FCE700BF00ED00E02DE9FF4128
:107580000368374A0446934204D0364A934251D1A5
:107590002F2000E02E20012100F0D8FC01230A2238
:1075A0006179207901F0AAF901230A22E179A07911
:1075B00001F0A4F90A2601272B4D4FF0300842F2C2
:1075C00010032279617908FB025207FA01F1D150C8
:1075D000642004F0D7FE41F210012379627908FBA0
:1075E000035307FA02F264205A5004F0CBFE013E26
:1075F000E3D120681A4B98421FD10323C5F8903479
:107600006279237943EA0243C5F89434E279A37995
:1076100043EA0243C5F8983440F20113ADF8003054
:10762000E36869460293A3680193237C8DF80C30CC
:1076300001F0E4F904B0BDE8F0810A4B9842EBD1C7
:107640000323C5F8A0346279237943EA0243C5F8DD
:10765000A434E279A37943EA0243C5F8A834DBE70E
:107660000000015A0080065000C0035010B50122EE
:1076700043780178847830209A40054B00FB013331
:107680001CB942F210015A5010BD41F21001FAE744
:1076900000C0035010B5012243780178847830206F
:1076A0009A40054B00FB01331CB941F210015A50BE
:1076B00010BD42F21001FAE700C003502DE9F04F6F
:1076C0009A46564B85B01B7806460F461546DDF8A0
:1076D0003C909DF844B0DDF85080002B00F08D8088
:1076E000072A00F28C800E9B002B00F08880B9F1F5
:1076F000000F00F08480129BB3F5006F7FDC01283F
:1077000002D1109B002B7AD0454B03EB05131B7B5A
:10771000002B76D0434C10220021684629F0ADFEA4
:1077200004EB45141022002F59D13946204629F088
:10773000A4FE43F210036380BBF1000F03D1E37892
:1077400043F00303E370374A0E9B02EB451CCCE980
:107750000193129B6901013BC3F30A009DF84C3071
:10776000012E03F003034FEA836343EA001E5358DC
:107770002D48CDF800A000EA03004EEA0003535064
:1077800041D113230CF1100ECCF80C309CE80F0003
:107790008EE80F006FF00301DCF81C20109B61F3F2
:1077A0009F02012FCCF81C20CCF8143003D1CCF868
:1077B0001890CCF804300027194A290102EB051370
:1077C00042F80180159A28465A60694622469F6011
:1077D0005E7301F0F3FA384605B0BDE8F08F002182
:1077E000204629F04AFE4FF444736380BBF1000F3A
:1077F000A9D1E37843F03003A4E70C48ECE70C4848
:10780000EAE70C48E8E7B8F1000FD4D19CF8023061
:1078100068F304138CF80230CDE700BF062800207F
:107820007C120020FC1200200F80FFF3028000F089
:10783000018000F0078000F038B5124B05461B7838
:10784000DBB1E0B11EF096FE0F4A00231146147B17
:1078500054B92B6001251A0101EB03131D738C50E1
:107860001EF08EFE204638BD0133082B02F11002B7
:10787000EDD11EF085FE0548F5E70548F3E705481C
:10788000F1E700BF062800207C120020048000F0F1
:10789000028000F0018000F013B51EF06BFE0023A3
:1078A0000B4A147B7CB90133082B02F11002F8D18A
:1078B000019001F025FA074B01981C701EF060FE44
:1078C000204602B010BD1EF05BFE0348F9E700BF82
:1078D0007C12002006280020058000F00D4B10B51A
:1078E0001B78044693B1072812D81EF043FE0A4BBA
:1078F00003EB04131A7B2AB100241C731EF040FE14
:10790000204610BD1EF03CFE0448FAE70448F8E7A4
:107910000448F6E7062800207C120020068000F0CC
:10792000028000F0018000F0154B13B518680023A9
:1079300001908DF804301EF01DFE124B1C7824B10E
:107940001EF01EFE104802B010BD01221A701EF07B
:1079500017FE0E4B01A81C731C7783F82C4083F88C
:107960003C4083F84C4083F85C4083F86C4083F8DB
:107970007C4008238DF8073001F0EEF92046E2E75D
:10798000A01B030006280020038000F07C120020CA
:107990000A4A08B512785AB107280BD8084A02EBF0
:1079A00000131B7B43B1002101F0C8F9002008BD82
:1079B0000448FCE70448FAE70448F8E706280020F2
:1079C0007C120020028000F0018000F0078000F0AF
:1079D0000A4A08B512785AB107280BD8084A02EBB0
:1079E00000131B7B43B1012101F0A8F9002008BD61
:1079F0000448FCE70448FAE70448F8E706280020B2
:107A00007C120020028000F0018000F0078000F06E
:107A10000A4A08B5127852B107280AD8084A02EB78
:107A200000131B7B3BB101F017FA002008BD05488D
:107A3000FCE70548FAE70548F8E700BF06280020FC
:107A40007C120020028000F0018000F0078000F02E
:107A50000D4B1B7893B1072812D889B10B4B03EB60
:107A600000131B7B73B10A4B1A6D012303FA00F05C
:107A700010401ABF00200B7008707047054870470F
:107A80000548704705487047062800207C120020F2
:107A900000000450028000F0018000F0078000F038
:107AA0000B4A10B512780C4662B107280CD859B1B0
:107AB000084A02EB00131B7B43B101F0DFF9207091
:107AC000002010BD0448FCE70448FAE70448F8E742
:107AD000062800207C120020028000F0018000F0C7
:107AE000078000F02DE9F843174B1F6D5B6D1F40B9
:107AF00000D5FEE701260025144CDFF85480DFF89E
:107B00005490374217D02368C8F850609BB1A168E1
:107B1000284601316268A1609847637B012B0AD136
:107B200048B909EB45131A7B60F341021A731A7FB7
:107B300060F341021A770135082D4FEA460604F139
:107B40001004DED1BDE8F883000004507C12002050
:107B500000200450FC120020024B1968024B1868E8
:107B600015F074BC000B0020FC0A002037B5920011
:107B700004460D46019229F0F3FD431C0BD060B979
:107B800029462046019A29F041FC0028044808BFF4
:107B9000002003B030BD0348FBE70348F9E700BF0E
:107BA00010E000F021E000F024E000F010B5044601
:107BB00029F0DEFD431C10D088B901F023FA2346DA
:107BC00020F003002044984201D1002010BD53F85A
:107BD000042B0132F7D00348F8E70348F6E70348DF
:107BE000F4E700BF0EE000F021E000F024E000F038
:107BF00008B51EF0B8FC014B186008BD3C1A002007
:107C0000014B18681EF0B3BC3C1A0020044BD3F89B
:107C10008420D206FBD4D3F88400C0F381107047CF
:107C20000040005038B5104B0546D3F820310C46C3
:107C300003F00303022B0BD0032B0DD0012B0FD12C
:107C4000FFF7BCF9052305B1286004B1236038BDF6
:107C5000FFF7EAF90323F6E7FFF7FCF90223F2E75F
:107C600001230020EFE700BF0080005073B50D46F0
:107C700000210E4B0191D3F88041064604F0030425
:107C8000012C09D0022C0CD00C460EB1019B3360A4
:107C900005B12C6002B070BD01A8FFF7C3FF0F242F
:107CA000F3E7FFF7D7F90190EFE700BF008000503E
:107CB00038B5184B0546D3F824010C4600F00700F0
:107CC000062805D8DFE800F0230B131B1F0F170051
:107CD0000023184605B1286004B1236038BDFFF7C2
:107CE0006DF90523F6E7FFF769F90623F2E7FFF7D9
:107CF0009BF90323EEE7FFF797F90423EAE7FFF781
:107D0000A9F90223E6E71EF055FA0723E2E701236B
:107D1000E0E700BF0080005038B5104B0546D3F8AF
:107D200040310C4603F00303022B0BD0032B0DD084
:107D3000012B0FD11EF040FA092305B1286004B1D0
:107D4000236038BDFFF78AF90823F6E71EF037FAFB
:107D50000B23F2E701230020EFE700BF0080005073
:107D600038B5144B0546D3F800020C4600F0070066
:107D7000042804D8DFE800F01B0A0E1216000023C6
:107D8000184605B1286004B1236038BD1EF014FA0E
:107D90000923F6E7FFF762F90823F2E71EF00FFA6E
:107DA0000B23EEE7FFF72AF90E23800AE9E7012308
:107DB000E7E700BF0080005038B5104B0546D3F808
:107DC00040320C4603F00303022B0BD0032B0DD0E3
:107DD000012B0FD11EF0F0F9092305B1286004B181
:107DE000236038BDFFF73AF90823F6E71EF0E7F9FC
:107DF0000B23F2E700231846EFE700BF0080005096
:107E000038B5104B0546D3F860310C4603F0030338
:107E1000022B0BD0032B0DD0012B0FD11EF0CCF970
:107E2000092305B1286004B1236038BDFFF716F9B6
:107E30000823F6E71EF0C3F90B23F2E70123002025
:107E4000EFE700BF0080005010B40D4C0B46D4F893
:107E5000204204F00304012C0AD0022C0CD008B1FB
:107E6000002101600BB100221A605DF8044B7047DD
:107E70005DF8044BFFF7D6BE5DF8044BFFF74CBF2F
:107E80000080005038B50C4605461EF06CFB064BD2
:107E90009A6A82EA040101EA050454409C62BDE842
:107EA00038401EF064BB00BF00C00050B0F5207F1A
:107EB0001FD009D8B0F5007F15D003D868B1B0F550
:107EC000C07F0AD000200CE0B0F5607FFAD10B4BE8
:107ED000D3F88000C0F3011003E0084B186FC0F323
:107EE000033001307047054BD3F89000C0F30460B5
:107EF000F7E7024B186FC0F38020F2E700800050D4
:107F00004FF400320E4B014610B500209A66FFF781
:107F1000CDFF41F6713248430A490B4B88428CBF72
:107F20004FF480100020DC69DA639A6822F4401272
:107F300002439A60E20344BF0022DA6310BD00BF2F
:107F400000900050005A620200000350420910B530
:107F500010D0012A10D00B4B0B4C022A18BF23461D
:107F600000F01F0051B103F58053012202FA00F026
:107F7000186010BD1346F3E7044BF1E703F5005317
:107F8000F3E700BF688000506082005064800050BA
:107F900008B580201EF00AFA034B98429EBF4FF4AA
:107FA0008032024B1A6708BD005A620200A00050DE
:107FB0001FB50023B0F5807F019377D028D83828EB
:107FC00000F094800BD82438092810D809280ED83E
:107FD000DFE800F0676767670D0D620D377D522897
:107FE0005FD008D83D283BD03E2800F0848001981F
:107FF00005B05DF804FB8028F9D1414B1B6F03F0FD
:108000000703013B032BF2D8DFE803F044413F6C48
:10801000B0F5D06F5BD019D8B0F5A06F66D00AD894
:10802000B0F5806F3DD0B0F5906FE0D1002001A990
:10803000FFF73EFEDBE7B0F5B06F2DD0B0F5C06FB7
:10804000D5D1002001A9FFF767FED0E7B0F5006F9A
:10805000ECD00AD8B0F5E06F4DD0B0F5F06FC6D1D6
:10806000002001A9FFF7CCFEC1E7B0F5086FBED133
:10807000234BD3F8003103F00303022B2CD0032B46
:108080002ED0012B30D1FEF7CFFF032300E00523D4
:108090000193ACE70223FBE7002001A9FFF7E6FD0F
:1080A000A5E7002001A9FFF7BDFDA0E702934FF06F
:1080B000E0231B695B0705D5FEF7A0FF0C230393A4
:1080C000039BE5E703A902A8FFF726FEF8E70020D7
:1080D00001A9FFF745FE8AE7FEF7C0FF0823D7E7AF
:1080E0001EF068F80723D3E70123D1E7002001A998
:1080F000FFF7AAFE7BE7002001A9FFF75DFE76E708
:10810000008000504FF40022034B5A66012203F511
:1081100080439A62704700BF0090005008B5FFF797
:1081200047FF082811D00938012811D84FF4001250
:10813000094B4FF6FF705A6603F5D8335B6A13F0AC
:10814000010F18BF4FF4FA7008BD044B1888FBE705
:108150004FF6FF70F8E700BF00900050D80C0020E9
:1081600070B504468020FFF723FF032800F08280CB
:108170004FF40022444B02215A6645F60E03434A4F
:10818000C2F88030424B9962012103F58053996215
:10819000936DD903FCD4D4E900131B0543EA0163B2
:1081A000E17B94F822500B43217B94F8236043EA4F
:1081B0000143617B43EA0133A17B43EA81131361ED
:1081C0009169D4E904031B0643EA806301F000418E
:1081D0000B43A17EE07E0B43217E43EA0143617E97
:1081E00043EA01239361E369126A002B0CBF00216B
:1081F000082122F00D0242EA030242EA8002234BE8
:1082000042EA01021A6294F820204FEA421232D167
:10821000986A94F8211020F0330042EA01120243D8
:1082200042F001029A621B4A996D32EA0101FBD1C8
:10823000022217498A621A659A6D5200FCD41869A5
:10824000A26820F4700040EA02504FF0004218612A
:108250000F4B9A611DB9022203F580539A6216B939
:1082600001220D4B9A6294F824301BB1074B0B4A44
:10827000C3F8802070BD996A21F0330131430A436D
:1082800042EA4502EEE700BF0090005000C00050F7
:1082900000D000500300014000E00050F1A7FFFFB4
:1082A0001E4B13B5996A9A6D12F4803F18BF0124D2
:1082B0001B4A18BF9462022494629B6DDB0303D5B2
:1082C000164A936D9C07FCD50222154B134C1A6578
:1082D000A36D5B00FCD4134BA26993F9003022F428
:1082E0007F020344000222F47F4280B283F308033A
:1082F000104340EA0340A06102200191FFF7C2FD54
:10830000A36D019913F4803F05D0012002B0BDE8B0
:108310001040FFF7B7BD02B010BD00BF00C0005055
:1083200000D0005007280020014B93F9000070474F
:108330000728002001221248124B816A9A62826D3E
:1083400002F00302032AFAD102229A621A650C4B48
:108350009A6D5000FCD401209A6D0A4A10659A6DFE
:108360009207FCD4064B9A6D9007FCD50220054A73
:1083700010659A6D9207FCD50320FFF783BD00BFFF
:1083800000C0005000D00050F0B5D0E901434FF4D8
:1083900080061A4A4178057856664FF4D15602276E
:1083A00002F5B8325662164E4F2977604FF001073A
:1083B00028BF4F2106F5805677601669F603FCD476
:1083C00041EA052151611B01417B43EA04230B4330
:1083D000017B43EA41039360C37B817B1B0143EA3A
:1083E0004113417C0B43017C43EA41035360837C8E
:1083F00013B16FF4D1535362F0BD00BF0090005031
:1084000000100250014B1880704700BFD80C0020AC
:10841000014B1880704700BFD60C00204FF40012AB
:1084200008B5184B5A660223174A5360936813F431
:108430008033FBD1012822D1FEF7F6FD134B984281
:1084400015D003F5122303F5F863984213D0104BAF
:1084500000EB8002400AB3FBF0F0520A0A4BDA62EA
:10846000012218635A620022074B5A6008BD45F684
:108470007A10084AF2E745F61A00074AEEE7536217
:10848000F1E700BF009000500040025000F04902A8
:1084900064666666D8B80500BBCF0500B0F5207FDE
:1084A00010B50C4642D008D8B0F5007F33D003D8C1
:1084B00088B1B0F5C07F0ED010BDB0F5607FFBD1A4
:1084C0001F4B013CD3F8801021F0300141EA041425
:1084D000C3F88040F0E71DF061FF1EF02AF84FF46A
:1084E0008031184A164B1167196F013C21F4704115
:1084F00041EA04341C67FEF781FD0446FFF786FB62
:10850000C0F1020120461EF00EF800F02DF8BDE883
:108510001040FFF73DBD0A4B013CD3F8901021F00D
:10852000F85141EA0464C3F89040C5E7044B013CAC
:10853000196F21F4806141EA84241C67BCE700BF05
:10854000008000500090005008B50121022000F08A
:10855000D7F81DF023FF1DF0ECFF4FF48032014BE4
:108560001A6708BD0090005008B54FF4C0701DF0A8
:108570001DFFBDE80840044988428CBF022101214B
:108580004FF42070FFF78ABF80F0FA02034B58685F
:10859000C0F30800003818BF0120704700ED00E06C
:1085A000194B10B51B6873B3184A5268012A2AD0B8
:1085B000174A8020C2F80031FFF7FAFC05281FD1C6
:1085C0004FF4C070FFF772FC0128044604D1022169
:1085D0004FF4C070FFF762FF07220E4B1A610122B1
:1085E000A3F580535A60094A1369DB07FCD5012CB7
:1085F00009D12146BDE810404FF4C070FFF74EBFCF
:108600000122054B5A6010BDF01A002000C0015035
:108610000080005000E0015000D0015000224FF4D3
:108620000031074B1A60074A516602F598325268CA
:10863000012A02BF044AD2F800211A60704700BF25
:10864000F01A00200090005000800050044A417849
:10865000536F23F4407343EA01235367704700BF0D
:108660000040005010B5044608B1FFF7D7FF0E4A8E
:10867000136943F00403136103F020FA1DF083FF34
:108680001DF071FF29F07CF81DF071FF1DF07CFFDB
:1086900003F028FA1CB1BDE81040FFF781BFBDE828
:1086A0001040FEF7ABBC00BF00ED00E010B5044683
:1086B00008B1FFF7B3FF0C4A136943F004031361D9
:1086C00003F0FCF91DF04FFF29F05AF81DF04FFFA1
:1086D00003F008FA1CB1BDE81040FFF761BFBDE828
:1086E0001040FEF78BBC00BF00ED00E0034A0179AB
:1086F000D36E23F030030B43D36670470040005025
:10870000F8B504461C4BD3F88420D106FBD4D3F82B
:108710008430C3F381139C422CD0FEF755FC012C0E
:10872000064602D121461DF0FEFE1DF01CFF4FF053
:108730000072124B07465A6620461DF02AFF4FF47E
:1087400080630D4D621E93402B676B6E9A0103D4BC
:10875000D5F884309B060AD538461DF008FF022C58
:1087600008D13046BDE8F84000211DF0DCBED5F848
:108770008430EAE7F8BD00BF0040005000600050C0
:1087800007B518B90191FEF71FFC0199064B1B783C
:1087900043B1064B984205D8012003B05DF804EBC5
:1087A000FFF7AEBF0220F8E708280020005A620257
:1087B0000278034B012100201A70FFF7E1BF00BFD0
:1087C000082800204FF00042012138B5274B5A6697
:1087D00003F50C2359604AF6CD33254A556C1364D2
:1087E0000D4048BB94680C4009D0224B224C996044
:1087F000D36ADB0710D4A0420CD14FF0FF34012222
:108800001C4B5A6015B11A4B1C4A1A6428F012F915
:10881000204638BD0130EBE7A0424FF0FF3418BFCF
:108820000024ECE70131D36A13F0080307D081423A
:10883000F8D16FF00104E5E700210F48F3E781422A
:10884000F7D020210B4A51620121A2F5805291609C
:108850000749094A486A800603D49342E9D00133A4
:10886000F8E79342E5D00024CCE700BF0090005029
:10887000004009500060095040420F003254FFFF91
:108880004FF0004238B5194B194C5A66012203F5D6
:108890000C235A604AF6CD33656C23644378154047
:1088A00093401343134AD363A368827823F074037D
:1088B00043EA0213C278002A14BF042200221343A1
:1088C000A3600279837943EA022323614279C37961
:1088D00043EA022363610078FFF774FF0DB1064B92
:1088E000236428F0A7F8012038BD00BF0090005095
:1088F00000400950004000503254FFFFF8B50446D4
:108900000D461F4616464AB101238B403021194AB5
:1089100001FB0022FFB141F21001535004EB44036C
:10892000072D4FF00F014FEA031317D8A80006FADE
:1089300000F28140104818441DF02CFE56B9012168
:1089400030230C4801FA05F503FB040077B141F22E
:108950001003C550F8BD42F21001DEE7A5F1080092
:10896000800006FA00F281400448E4E742F2100376
:10897000EFE700BF00C0035004C003500CC0035019
:10898000F8B505460E4614465AB3826803F003074D
:1089900022F4407282601DF0E6FDAA6882EA072395
:1089A00003F440735340AB601DF0E1FD36B9104B4A
:1089B0009D4217D12E201DF0F9FC0646AB680D4BE9
:1089C000D85D60430DD06FEAC4040444A319B3FB1F
:1089D000F0F3AA68013B920702D5002B08BF0123E0
:1089E000AB61F8BD044B9D42E8D12F20E3E700BF07
:1089F0000000015AC81B03000080065038B5002350
:108A00000E4A036400F50053DA634A7804460D46C3
:108A100000F108037AB903F5805302221A60204658
:108A2000D5E901122B7BFFF7ABFF20462978BDE883
:108A300038401DF0C1BD03F50053EEE7FFFF1F00F6
:108A4000884B2DE9F043984222D0874B984240F062
:108A50000581864B402505264FF000084FF0030C9A
:108A6000996800F50054C26B12F4C06F16D09705D8
:108A700010D5FD225A7009221A700022026493F95F
:108A80000110012900D15A7093F90100BDE8F0836B
:108A9000774BDFE75605EED5FE22EBE71F78082F70
:108AA00000F2D880DFE817F009001F0041004C00F9
:108AB0006900740096009E00CD004C880A88E50687
:108AC0000AD5120A02F0060242F0F00201211970E2
:108AD0004263C1600120D9E702F0FE02A10748BF4E
:108AE00042F00102F2E7170607D5802100F5005297
:108AF000D1634FF608721A8062E05206EAD54A88BE
:108B0000E563D70604D502221A700B784363E1E7C8
:108B1000920765D507221A701B7901EBC3010B89F7
:108B2000012BD7D10823C360D4E71706DDD4520642
:108B3000D0D54A88E563970752D583F800C092E7FD
:108B40004C880A88E50643BF120A02F0060242F08A
:108B5000F00202F0FE02640709D51C7942F001021E
:108B600001EBC4010989012904BF0821C160042166
:108B700019700123C3604263ACE71706B5D45706EA
:108B8000A8D54A88E56352072AD507221A70A1E7BB
:108B90001A795F8801EBC20EBEF80890B94511D86A
:108BA0000132D2B21A714F88A3F8028017F0040F75
:108BB000C3D1FF0702D4012A7FF655AF08221A70ED
:108BC0000223B0E7DEF80420791C5980D25D4263AD
:108BD0000622DBE7170688D457067FF57BAFE563EF
:108BE0001E7040E794067FF575AF456A214C4669D3
:108BF0001A793440B4F5003F04BF466A4FF400567A
:108C000001EBC20100F500540A8908BFE663202683
:108C1000E6635C88A24281BF4968661C5E800D5590
:108C200059888A42CAD90424012AC46004D9013A65
:108C3000914201D10822C2601A78092A3FF41DAF7F
:108C400048E7D2057FF546AF4FF4807100F500523A
:108C5000D16310E74FF609321A800EE76FF0030078
:108C600014E700BF0000015A00800650001B0020DE
:108C7000F41A0020200002001C4B10B4984207D0C8
:108C80001B4B98422ED06FF003005DF8044B7047E9
:108C9000184B0269D20744BF2022C2604A88940759
:108CA00002D50C89002CEED0520702D50A8A002A80
:108CB000E9D04FF480721A60002299601A71C023C3
:108CC000C3604369DB050FD4202200F50053DA634B
:108CD000094A5DF8044BDA63036C43F4FC630364F4
:108CE000FFF7AEBE054BD4E7436AEAE70000015A3E
:108CF00000800650F41A0020FFFF1F00001B002018
:108D00004FF400120B4B10B5C3F88020BFF34F8F08
:108D1000BFF36F8F0024FF22074B21465C652020A4
:108D20009A625C60FFF712F92146BDE810402120ED
:108D3000FFF70CB900E100E000000450044A054BC5
:108D4000002918BF1346012202FA00F0186070478C
:108D5000402004504010045010B50121044620204A
:108D6000FFF7F4F801212120FFF7F0F80122114B61
:108D70005A60227812069A606178A27842EA01422B
:108D80009A61FF229A6200229A631A644FF00042AD
:108D90005A654FF0FF324FF4001103F500531A6586
:108DA000054AC2F88011E3781B01DBB282F8153363
:108DB000116010BD0000045000E100E02DE9F04119
:108DC00001250C46C3B2DFF888E0D1F800809D4051
:108DD0008F7ACB7A94F80DC0097BCEF850500EF5FF
:108DE000005E4EF820804FF0300E184E1B050EFB33
:108DF000006043EA074343EA415322F00302C0F80C
:108E000060C0C36502671DF0B5FB736D2B437365CE
:108E1000237A13B1336C2B433364637A13B1B36B8E
:108E20002B43B3632279A37943EA0243084A93614F
:108E30006179E37943EA014306498B61034B55634A
:108E40009D64BDE8F0411DF09BBB00BF00000450D5
:108E5000002004500010045010B50124C0B284401A
:108E60001DF088FB044B5A6D22EA04025A659C628D
:108E7000BDE810401DF084BB0000045010B5012473
:108E8000C0B284401DF076FB074BDA6A224209D15A
:108E90005B6B34EA03030CBF012400241DF070FB5C
:108EA000204610BD0024F9E7000004504FF40032C2
:108EB000054B9A6641F6713203F51C33DA630122E1
:108EC00003F50053DA6070470090005041F67132AC
:108ED0000121064BDA6303F50052D1600022DA6308
:108EE0004FF40032A3F518339A6670470000035020
:108EF000CB784A7810B55B010C7843EA82030A7993
:108F0000234343EA02130C22424302F1B0421363AB
:108F1000012C02BF8A78024B43F8202010BD00BF0D
:108F2000E880035008B54FF0B0435A6802B960B109
:108F30005B680BB11DF04AFB4FF0B04130B101202E
:108F4000074B58601DF042FBC86008BD1DF03EFB9A
:108F50000223CB601DF03AFB0122024B5A60F4E77A
:108F600000100058002000584FF0B0435B6870B507
:108F70000BB11DF02BFB0121104B45785960837814
:108F80000679002BC37814BF02240024002B14BFE1
:108F9000042200224379DB0043EA06132B432343D8
:108FA00013434FF0B0429360054B59600378002B98
:108FB00014BF0B460223D36070BD00BF00200058D1
:108FC000001000584FF48032064B5A6603F5E62332
:108FD0005B69C3F38512827003F03F021B0B427082
:108FE0000370704700900050014B986CD96C70472B
:108FF0000080E00F024B1868C0F30740704700BFC5
:109000000080E00F0120034B9B680A3303F01F032D
:10901000984070470080E00F70B5054616461C4624
:1090200021B94FF420701DF0C1F90146402C1BD02E
:1090300003D8DCB1202C1BD070BD602CFCD10423E4
:1090400003FB06F2560806EB4113B3FBF2F3094AA1
:10905000203B02EAC303AA6822F06002AA60AA6861
:109060001443AC60EB61E7E70623E9E71023E7E789
:109070000823E5E7F8FF7F00012200F5805310B5D3
:109080005A6040F6AA6341F20502436100230E498B
:109090008360C365C26000F500520361C361C364AD
:1090A00091640A498365884202D0094CA04207D1E5
:1090B0008842036502D0064B984201D100234365E4
:1090C0000123536010BD00BFFFFF010000C0055029
:1090D0000000065070B50D46FFF7CEFF012300F5E6
:1090E00080567360AB7C04461BB1836843F08043B9
:1090F0008360EB7C5BB1354A2B7D944245D1A2F570
:109100001032C2F88C31E36D43F08003E3652A8AA4
:109110006B7B20461343EA891343E3602B7BD5E93D
:109120000112FFF779FF6B7D1BB1A36843F4803315
:10913000A360AB7D1BB1A36843F40043A360EB7D48
:109140002A7E1B07120502F4E00203F0E0431343FA
:10915000A365697E1D4A8B1E012B1D4B1FD89442AF
:109160001BD002F5804294420CBF01224FF0FF3227
:1091700003EB4213022041F21C620329985020D1D4
:109180000423F3652B78636170BD124A944204BFD7
:10919000A2F52032C2F89C31B5E70022E8E79442FC
:1091A0000DD00C4A94420CBF01224FF0FF3203EB6A
:1091B0004213022042F21C6201299850DFE700228C
:1091C000F5E7042204F50053DA65DBE700C005503B
:1091D00000C003500000065038B50446054D27F086
:1091E00050FC0FCC0FC594E8030085E80300002075
:1091F00038BD00BF0C1B002047F6FF739A42F0B544
:1092000066D0012966D8344DCF0015F8313005EB12
:10921000C100012B847813D10025C3781B1B9D420C
:1092200002D3E018C0B2F0BD591B4668A3EB510150
:1092300036F911609642D4BF0D4601F1FF33EEE7D7
:1092400040680028EFD0B0F90030934204DBB0F959
:1092500002309342B8BF134682883D44FF2A19BFAB
:10926000C8214FF0280CB0F90610B0F908C0A1EBE6
:1092700003020CBF0126002692FBFCF26D783244FB
:1092800012B2954201DD002A01DA6A1E12B24FF4D1
:109290007A7700EBC206F188B668013213FB0161F0
:1092A00012B221EAE1715C319542B1FBF7F104DDC4
:1092B00000EBC206B6888E42EBD200EBC20232F857
:1092C000040C884228BF0846A04238BF2046A9E7C0
:1092D000FF20A8E70020A6E70C1B00200129F0B51D
:1092E00053D82B4800EBC10410F8311063680129F2
:1092F0000FD1E078A478904294BFC4EB0001C4EB96
:109300000201001BCAB28242C8BF002233F9120018
:10931000F0BD002B39D0A178914202D3B3F90200FD
:10932000F6E7E178B3F900009142F1D999886478C1
:10933000A1F1FF06013C714203F10405E4B2714161
:1093400003F10C071FFA82FCCEB2B44216D805EB2B
:10935000C1014FF47A756A43B1F902404968521A63
:1093600004EBD47102EB610292FBF4F29042CFDB8A
:10937000B3F902009042CBDC10B2C9E737F831E014
:109380004E1CE645E3D33146DEE70248C0E700BFA6
:109390000C1B00200080FFFF08B50448FFF71CFFEE
:1093A000BDE80840012027F070BB00BF1424030073
:1093B00000487047DA0C00207FB50222084B0949AB
:1093C000CDE901234FF00073CDE90313052301A973
:1093D0004FF0FF30059327F08EFB07B05DF804FBDC
:1093E000006A1800000204001B0603F0706300F01E
:1093F0000F000902034301F47061120402F47022A9
:109400000B431343014A1360704700BF0020025C06
:1094100060B5054619B10139B1F5806F10D2094E1A
:10942000F06810F48030FBD143EA0121120741EAD1
:10943000050302F08052134343F00043736060BDA4
:109440000120FCE70020025C0122054B9A60DA68EB
:10945000D203FCD4D86820F00F000004000C704741
:109460000020025C014B1868704700BF0040025C9E
:10947000014B5868704700BF0010025C014B186B2D
:10948000704700BF0010025C014B1868704700BFB6
:109490000010025C014B9860704700BF0010025C36
:1094A000014B1864704700BF0010025C014B586408
:1094B000704700BF0010025C014B5863704700BF4B
:1094C0000010025C0022014B1A6070470010025C21
:1094D000024A136843F00103136070470010025CF6
:1094E00043F20402014B1A60704700BF0010025C97
:1094F000024A136843F03003136070470010025CA7
:10950000044B1A6842F480721A601A6822F480725E
:109510001A6070470010025C024A136843F48063CB
:10952000136070470010025C034A136823F4702331
:1095300043EA0040106070470010025C044B1A6957
:1095400002605A6942609A698260DB69C360704751
:109550000010025C0268044B1A6142685A6182681A
:109560009A61C268DA6170470010025C024B1A6BA4
:10957000D207FCD4186270470010025C024B186BD3
:1095800000F00E00704700BF0010025C82B01FB5F3
:1095900007930A9B04AC8B4228BF0B4604E90700E3
:1095A0001048D100079948BF03330160099948BFAB
:1095B00023F0030323F0704301F0E041194341F02D
:1095C00000518160002102F0E042019C134343F00E
:1095D0000053C16004618361416304B0BDE8104081
:1095E00002B070470000025C3F22034B1A63102256
:1095F000DA6103229A6370470000025C024AD36B6F
:109600009B07FCD4704700BF0000025C034B986AC4
:1096100010F0240018BF0420704700BF0000025C57
:1096200008B5FFF7F3FF064BDB6B23F47F4323F012
:10963000EF0303431EBF0122024BC3F8FC2F08BDFA
:109640000000025C00F0FF3F032208B5054B1860E4
:1096500019615A63FFF7C8FFFFF7D0FFBDE8084064
:10966000FFF7DEBF0000025C42680346182A10B50F
:109670000AD0202A1DD0102A2BD1174AD2F8042450
:10968000D4010AD4012013E0134AD2F80424900133
:10969000F8D50A6842F008020A6010481A68824247
:1096A0004FF000000ED10A6842F040020A60586094
:1096B00010BD094AD2F804245201E3D50A6842F0E9
:1096C0000402E9E7064CA242F2D10A6842F08002A5
:1096D000ECE70720ECE700BF0000025C092800204F
:1096E0000A2800200B4607B50749D1F80414C9071A
:1096F00008D5002100920246084600F05BF803B04E
:109700005DF804FB0120FAE70000025C1346064AFC
:10971000D2F80424D20504D50A46014600201DF0E3
:1097200071B90120704700BF0000025C13B5084CFE
:10973000D4F80444E40508D5009313460A460146CC
:10974000002000F061F802B010BD0120FBE700BF6F
:109750000000025C13B5084CD4F80444E40508D5B5
:10976000009313460A460146002000F071F802B04B
:1097700010BD0120FBE700BF0000025C70B504468D
:109780000D4616468CB00A4A09AB07CA83E80700A3
:109790001A462146CDE90563CDE90333CDE901330E
:1097A00000954FF480301DF051F80CB070BD00BF33
:1097B000CC1B0300F0B51C465B6815468DB01A073C
:1097C000129E1AD1CBB17268934216D10C4B0D4A3E
:1097D00053F8217009AB07CA83E807001A462946E7
:1097E000CDE90533CDE90333CDE90163009447F4B6
:1097F00080701DF02BF80DB0F0BD0720FBE700BF17
:10980000D81B0300CC1B0300F0B516465A688DB078
:10981000102A0D46129F15D17A68102A12D10A4AD1
:1098200009AC07CA84E8070022462946CDE9054766
:10983000CDE90344CDE90144044800961DF006F843
:109840000DB0F0BD0720FBE7CC1B0300300001008A
:10985000F0B516465A688DB0102A0D46129F15D1E4
:109860007A68102A12D10A4A09AC07CA84E80700AC
:1098700022462946CDE90574CDE90344CDE90144EA
:10988000044800961CF0E2FF0DB0F0BD0720FBE796
:10989000CC1B03001000010082B070B586B0149D8F
:1098A00003AE202D86E807000B9359D805EB8503FE
:1098B0008B4203D006236B438B4253D10C9BAB42AC
:1098C00050D10F9BB3EB450F4CD1129A934249D123
:1098D000012229462220159BFFF79AFD044630BB42
:1098E000034606220E210C20FFF77EFD0123CDE961
:1098F00000332B4696E807001CF045FF0E230BAA09
:10990000009307CA2B461CF089FE0C23164C0093CB
:109910000EAA2B4607CA1CF0B1FE636823F07F0332
:1099200043F026036360FFF78FFD30B10624204625
:1099300006B0BDE8704002B07047636823F07F0353
:1099400043F022036360FFF77FFD04460028EDD15A
:10995000062311AA009307CA2B461CF0C2FEE6E7B5
:109960000124E4E70724E2E70020025C70B598B028
:10997000002843D02C4C08AD0FCC0FC50FCC0FC521
:109980000FCC0FC594E80F0085E80F006D4604AEBC
:1099900004F1100320340FCB85E80F0094E80F008A
:1099A00086E80F00FFF7ACFD0420FFF7BDFDFFF7D1
:1099B00097FD3046FFF7CEFD002408AE56F8040BA5
:1099C0000134FFF7D3FD102CF8D1FFF751FD032828
:1099D000FBD90024FFF776FD2646FFF743FD55F837
:1099E000043B01365840042E44EA0004F5D12CB162
:1099F000012206200D4B1A7018B070BDFFF780FDD4
:109A00000820FFF747FD0020FFF74AFD0720FFF77A
:109A10004DFD4FF40070FFF74FFD0820FFF784FD68
:109A2000FFF756FD0020E7E7B41C03000C280020D8
:109A300008B5FFF765FD0122014B1A7008BD00BF94
:109A40000B28002030B589B005AC84E80700FFF78B
:109A500015FDC30501D5FFF7EBFF0A4D2B781BB1B0
:109A60001DF04BF900232B70074B069AD3E9010137
:109A70008DE8030002921B6894E807001DF046F889
:109A800009B030BD0B280020141D03001FB51DF0C8
:109A900034F9044630B1012206240D4B1A702046D9
:109AA00004B010BDFFF7DEFC0090FFF7DBFC019077
:109AB000FFF7D8FC0290FFF7D5FC03906846FFF74C
:109AC00049FDFFF7B5FFFFF713FDFFF725FDE6E7BB
:109AD0000C28002005289ABF014B185C0020704715
:109AE000201D030030B5154B87B00293144B039033
:109AF000049346F611030D46059300F06DF9142802
:109B0000044616D168461DF0B0F94FF0A843032271
:109B100002A95A6319601D619A63DA6B9207FCD13E
:109B2000142C02D168461DF0AEF900F089F9044604
:109B300001E00028E9D0204607B030BD241B0020FA
:109B4000040000202DE9F04FB1B005468C46E946EF
:109B50006E4F3B9EDDF8F8E0409C07F1100AC846C6
:109B6000386879680837A8E803005745C146F6D138
:109B70000EEB0208C8F1000909F00F09002E00F0F1
:109B8000AF80774207F00F070121DDF8FCB0C4F188
:109B9000100ACDF810B0059144F0005106914FEA3B
:109BA0000A2101F4F85141F02101079106B96B46F1
:109BB0000893002D40F09680002C00F0938004ABB9
:109BC0000993002E00F0908046F000530A93002D78
:109BD00040F08D80002C14BF0123212343EA07238A
:109BE0000B9308A942F00053CDF830C03D980D9179
:109BF0000E934FEA092343F041030F93109002B1F3
:109C00000CA9002A16BF00224FF00052412342EA5D
:109C10000E021191129213933C9B3D4A149310AB88
:109C200015933C4B0021169340F6110317933A4BC2
:109C3000002D08BF1346189314AB1993374B10220D
:109C40001A9311231B931CAB184627F016FC012214
:109C50001D924AF080421E9200220346239205B9CB
:109C6000EB46102C08BF01230DF1900A10220021B1
:109C70005046CDF880B02193229427F0FEFB002CB3
:109C800037D020AB002125938F4218BF534647F0B1
:109C9000804226923A9A2CA88A4228922993134607
:109CA0000CBF4FF080430B46102233432B912A9375
:109CB00027F0E3FBFEB95346C8442D932CA948F086
:109CC000804318A82E93FFF70DFF30B92DB9034636
:109CD000A34212D1002818BF2C2031B0BDE8F08F6C
:109CE000102751E701236BE747F000536EE721236C
:109CF00074E70123C6E728ABDEE703F1C0026A443C
:109D000012F8C02C01331043E2E700BF261D030008
:109D1000381D0300100000203C1D0300040000203B
:109D2000F0B5C0299FB0249E4FD0B1F5807F04D0FC
:109D3000802941D029201FB0F0BD40F2344440F2C8
:109D40001445002E08BF2C4621271025019401241C
:109D50000296039404950597259F069706B102ACD9
:109D600007940124089509940A9221220B940C95DA
:109D70000D92174A0AAC0E92164A0F94109242F6B0
:109D800011021192129313941495159201AA16922E
:109D9000CBB112AB1793042318931123199316AB6D
:109DA0001A901B9340F61103C9081C911AA806A922
:109DB0001D93FFF797FEBEE7002E14BF4FF4866495
:109DC0004FF48264C0E70EABE4E70F20B3E700BFB7
:109DD000401D03001000001038B5164B5A6E42F0BB
:109DE00004025A66D3F8802242F00102C3F88022AE
:109DF000114B5B68C3F3080343B14FF0A842D36B28
:109E000013F0430FFBD11424204638BD4FF0A84374
:109E1000DC6B14F04304FBD1084D2B681BB9042103
:109E2000284602F09BFD2B68013343F000432B6072
:109E3000EAE700BF0080005000ED00E0241B002096
:109E4000014B00205B68704700ED00E04FF40052CA
:109E5000034B00209A660322C3F86022704700BFBC
:109E60000090005008B5FFF70FFBC30708D5FFF7B8
:109E700085FB062804D00A28F5D1FFF7D9FDF2E7C3
:109E80004FF40052034B00209A660322C3F860226D
:109E900008BD00BF00A000501FB54FF40052164B84
:109EA0009A660322C3F86022FFF7EEFAC30710D4C4
:109EB00001201CF02FFF002814BF6FF09204002433
:109EC000FFF7D0FF00280CBF20466FF0920004B0CF
:109ED00010BD10220021684627F0CFFA6846FFF730
:109EE0002DFBDDE900321343029A1343039A134317
:109EF000DED00024E4E700BF00900050012300F012
:109F00001F02A0F506200949A0F5506040099340C2
:109F100051F820201A4341F82020054951F820200B
:109F200022EA030341F82030704700BF281B0020BD
:109F30003C1B00200121A0F506230F4AA3F5506326
:109F40005B0900F01F0001FA00F052F823100843EB
:109F50000A4942F82300D1E90030034488680344E9
:109F6000C868096903445B1802BFC2E90033C2E94B
:109F700002331361704700BF3C1B0020281B0020E8
:109F80002DE9F04FA9B002921F46DDE9328904465F
:109F90000822CDE90301414021FA02F34B40980722
:109FA00002F1080218BF9B00202A1C44F4D181232F
:109FB000B4FBF3F303EBC313E41A784B04F5062464
:109FC0001B7804F55064002B3CD1FDF7C5FD01461C
:109FD00020B16FF0910029B0BDE8F08F40220590CC
:109FE00008A827F04AFA4022059918A827F045FA50
:109FF0006B4EDFF8C4A1334603F10F0B102208A902
:10A00000DAF80000CDF800B0059326F0D7FA002268
:10A010000146059B103608AD914244D1CDF800B001
:10A020001022DAF8000018A926F0D1FA4FF0000B40
:10A03000034618AD5B4542D15A4B9E42DBD101220B
:10A04000564B1A7081250026DFF86CA1A4F5062373
:10A05000554AA3F550635B0952F8232004F01F0111
:10A06000CA40D2073ED4514A52F82300C84010F0EB
:10A0700001002DD0002E08BF26468123A4F5072419
:10A08000A4F2FF44B4FBF3F303EBC313E41A04F5A7
:10A090000624013D04F55064D8D1029BD3B1CEB162
:10A0A000349B1E6063E055F8040BCDE9062305914F
:10A0B000FFF724FF069A079B05990132ACE755F894
:10A0C000040B05930BF1010BFFF734FF059BB1E780
:10A0D000029B13B96FF08B007DE7349B002E45D0B7
:10A0E0001E6078E7B8F1000F02D00023C8F80030F6
:10A0F000B9F1000F02D00023C9F800304FF0100B67
:10A1000000233A462146DAF80000CDF800B013F0FB
:10A110000BFB70BBB8F1000F01D0C8F800B03B6872
:10A12000234A93422FD1B8F1000F11D0B9F1000F9B
:10A130000ED04B462146DAF8000018AA13F048FB6F
:10A14000B8B9D9F80030D8F800209B1AC9F8003007
:10A15000D7E90223DDE90310834208BF8A428CD18C
:10A16000029B13B17B68012B15D0349B1C6000202F
:10A1700031E7104B984206D01233984203D0133B7C
:10A180009842E5D025E72146DAF8000013F066FB97
:10A190000028DDD09EE76FF084001CE70D2800202A
:10A1A000006D080000710800281B00203C1B0020E7
:10A1B000105D175EFFDF00F0FC0A00202DE9F04F74
:10A1C00087B08246894698461646DDF840B02AB1E7
:10A1D000002B4ED040F26C739A424DD8BBF1010F68
:10A1E0004DD8002406F110073946012005941DF0D2
:10A1F000D1F90546002845D021463A4627F03DF9D9
:10A2000005ABCDE9014300942B4601225046494657
:10A21000FFF7B6FE044680B110F18C0F08BF6FF057
:10A220008D043A460021284627F027F928461DF0DC
:10A23000C2F9204607B0BDE8F08F144BC5E902A96A
:10A240002B60C5F804B02EB13246414605F110002E
:10A2500027F0ECF80E483B462A460599006813F0B3
:10A26000CBF918B90598FFF749FEDAE76FF09104CA
:10A27000D7E76FF08604DCE76FF09104D9E76FF061
:10A280008504D6E76FF08C04D3E700BF105D175E3E
:10A29000FC0A00202DE9F0438DB08146DDE91478F9
:10A2A0000C4615461E469BB1B8F1000F05D16FF064
:10A2B000860420460DB0BDE8F083002FF7D0B7F13B
:10A2C000005FF4D3C3F1005303F500439F42EED87F
:10A2D0001022002108A827F0D0F8002207AB029333
:10A2E00005AB019306AB21460093484608ABCDE988
:10A2F0000522FFF745FE04460028DAD10599DEB1B4
:10A30000A94203D80029D2D115B1D0E70029FBD04A
:10A31000491BB14228BF3146069B0948C8F80010C6
:10A3200000913A46079900682B4413F0FDF9002884
:10A3300018BF6FF09104BCE7A942E9D2B7E700BFAC
:10A34000FC0A002030B58DB00C46054610220021D5
:10A3500008A827F092F8002207AB029305AB0193FF
:10A3600006AB21460093284608ABCDE90522FFF74E
:10A3700007FE0446D0B9099B012B1AD0104B079950
:10A38000186813F06BFAB8B9012207980D49A0F5C7
:10A390000623A3F550635B0900F01F05AA4051F89E
:10A3A00023506A4041F82320FFF7C4FD20460DB03A
:10A3B00030BD6FF08404F9E76FF09104F6E700BF59
:10A3C000FC0A0020281B00202DE9F0438BB0174623
:10A3D000DDE91545DDE913269C46DDE91738894698
:10A3E00021B96FF086000BB0BDE8F083002FF8D0E4
:10A3F0000EB9002CF5D1129909B9002AF1D10DB985
:10A40000002BEED1B8F1000FEBD0254A944544D192
:10A410000288B2F5105F40D14288B7EBD20FE0D38B
:10A4200022F04001802902D0B2F5807FD9D11CB939
:10A430002046C8F80040D6E7AE421CD232199542F9
:10A4400019D29C42CDD831462246284626F0FBFF41
:10A450002E4614F00F03C4D1CDE90197CDE90336A0
:10A46000CDE90543CDE907540993FFF7EFFC38B177
:10A470006FF09200B7E79C42EBD96FF08900B2E72A
:10A4800007AA04A901A8FFF72DF90546FFF7EAFC82
:10A490002843EDD1C8F80040A5E76FF08500A2E79A
:10A4A000004440042DE9F04FA9B0834617469A4670
:10A4B0000E46DDF8C890DDF8D88029B96FF0860324
:10A4C000184629B0BDE8F08F002AF7D0B9F1000F87
:10A4D000F4D0349B002BF1D0B8F1000FEED0002463
:10A4E000434B0CAD93E8070085E807003C2221466A
:10A4F00019A8189426F0C1FF3288718802F4E04050
:10A50000B0F5804FDAD03B4E3B480BEA060646F0EA
:10A510001066864265D1B1F5807F62D147F2121193
:10A520008A425ED106203549BAF11F0F0A69CB680D
:10A5300000FB02F209680B93CDE90C120E94BDD911
:10A54000339B402BBAD9359B1F2B4DD909F1010202
:10A5500020261292402299F800300F97042B18AF52
:10A56000CDE91324CDE91572109611941794A5D155
:10A57000FFF76CFC03460028A2D10B9B15AACDE97E
:10A58000086305AB07CA83E8070002AB12AA07CA33
:10A5900083E80700DDE910018DE803000F9B95E8D3
:10A5A0000700FFF779F90546FFF75CFC55EA000361
:10A5B00084D13D46349A20AE2C4603CCB442106080
:10A5C0005160254602F10802F6D100221046B91862
:10A5D0000132412A03D12022C8F8002070E7087018
:10A5E000F5E76FF085036BE76FF0890368E700BF5D
:10A5F000CC1B03000000FFF600000209A01C0300B2
:10A60000F0B50F461D468DB000285AD0002958D00D
:10A61000002A56D0002B54D00388B0F802C0194647
:10A6200003F44F44B4F5824F18BF002321F0FF011B
:10A63000B1F5E24FDBB203D06FF085000DB0F0BD95
:10A64000122B01D0172BF7D10CF10701B2EBD10F70
:10A650004FEAD10638D31F4A06ACBCF5807F07CA43
:10A6600084E80700E8D1122B07D11B4B1A691B683D
:10A670001344CDE90632002308930023CDE909767F
:10A680000B93FFF709FC0028D8D1FFF7DFFB002868
:10A69000D4D1124B1149059302AB049083E8030017
:10A6A0000CAB13E903008DE80300099B94E8070055
:10A6B0001CF0B2F90446FFF7D5FB204307D12E600A
:10A6C000BCE76FF08600B9E76FF08900B6E76FF07E
:10A6D0009200B3E7CC1B0300A01C0300356D020001
:10A6E0002DE9F0438FB01D46DDE916C6002863D082
:10A6F000002961D0002A5FD0002B5DD0BCF1000F93
:10A700005AD0002E58D00388B0F802E01C4603F45B
:10A710004F47B7F5824F18BF002324F0FF00B0F574
:10A72000824FDBB24ED0B7F5824F4BD1122B01D006
:10A73000172B47D10EF10700B2EBD00F4FEAD0082C
:10A740003AD34FEA4802571C674538D8BEF5807F98
:10A7500038D1122B18BF4FF000094FF0000308BF8B
:10A760001B4CCDE9081805F1010114BF4C46D4F883
:10A770000C90CDE90B120A930D93FFF767FBC0B95C
:10A78000CDE9058902AB08AA07CA83E807000EAB2A
:10A7900013E903008DE803000B9B94E807001CF00D
:10A7A0005AF90446FFF75EFB20430ED104232B70B9
:10A7B00037600FB0BDE8F0836FF08600F9E76FF007
:10A7C0008900F6E76FF08500F3E76FF09200F0E79D
:10A7D000A01C03002DE9F04389B00D4614461F4626
:10A7E000DDF8488020B96FF0860009B0BDE8F0833D
:10A7F0000029F8D0002AF6D0B8F1000FF3D0028873
:10A8000002F44F43B3F5824F0CBF13460023DBB273
:10A8100002D06FF08500E8E7122B01D0172BF8D19A
:10A8200022F0FF02B2F5E24F40D14288C8F8002082
:10A83000002A36D1E200C8F80020D8F80020B2F58E
:10A84000807FE6D1122B09BF384B00221A681B69A2
:10A8500005EB040608BFD21800231846224412F85C
:10A8600001CD16F8011D0843B1EB0C010CBF4FF0F0
:10A87000FF3C4FF0000CB5420CEA030343EA01032E
:10A88000EDD10028AFD0002BADDA109B9C4249D807
:10A8900022462946384626F0C9FD119B00201C603F
:10A8A000A3E70732B4EBD20FC7D09CE72A78042A7B
:10A8B00099D1621ED2005208B2F5807FC8F80020FC
:10A8C000A7D1122B05F1010318BF4FF000094FF07B
:10A8D000400205934FF000030ABF144E4E46D6F8CF
:10A8E0000C90CDE90623FFF7B1FA00287FF47DAF85
:10A8F000CDF80C90D8F800300733DB08029308AB92
:10A9000013E903008DE80300059B96E807001CF09F
:10A910004BF90646FFF7A6FA00287FF466AF002E33
:10A92000B3D060E76FF089005FE700BFA01C0300B1
:10A930002DE9F04F8FB00546DDE918A993461E4674
:10A94000DDF868801C9F09B300B3B8F1000F1DD07B
:10A95000E7B1BAF1000F02D1B9F1000F16D1284BBF
:10A9600026F47E129A4247D128461CF0BDFA0446CE
:10A97000B0BB6B88BBEBD30F4FEAD30206D316F400
:10A980007C1FC6F3054504D0102D03D96FF0860453
:10A9900026E010251B9B9D422BD80023CDE90112F8
:10A9A0001022CDE905930DF12809CDE9033ACDE94F
:10A9B0000823CDF81C90FFF749FA044680B907AA8E
:10A9C00004A901A8FEF7A2FE0646FFF74BFA0446CB
:10A9D00056B958B92A464946404626F027FD3D60FB
:10A9E00020460FB0BDE8F08F6FF0920400233B606B
:10A9F000F6E76FF08904F3E76FF08504F0E700BF36
:10AA00000002C0032DE9F041069F0C46164605469C
:10AA100010B309B302B9FBB96288B3EBD20F4FEAA6
:10AA2000D20819D34C220021284626F026FD0D4BD2
:10AA300027F47E129A4212D120461CF055FA0446A1
:10AA400038B942463146281D26F0F0FCC5F824806E
:10AA50002F602046BDE8F0816FF08604F9E76FF0C3
:10AA60008504F6E70002C0032DE9F0410E461446C6
:10AA70000546002840D000293ED012B90020BDE88C
:10AA8000F08103681F4823F47E13834237D1AF6BF4
:10AA9000E7B1C7F1100807F128004245284404D265
:10AAA00026F0C4FC3C44AC63E8E7424626F0BEFC1A
:10AAB0001022103C3C19AA63E0D0284605F1280179
:10AAC0001CF02EFA0028DAD14644A863102C0CD9C9
:10AAD000671E27F00F073A46314628461CF020FA39
:10AAE0000028CCD1E41BC9D03E442246314605F1B2
:10AAF000280026F09BFCD6E76FF08600BFE76FF0DA
:10AB00008800BCE70002C0032DE9F04388461F46D9
:10AB100005468BB070B169B163B10368234923F472
:10AB20007E1088423ED113F47C1FC3F3054604D047
:10AB3000102E03D96FF086042AE0102696422BD8F7
:10AB4000FFF784F9044618BBAB6B05F12802CDE989
:10AB500001236B6A2A1DCDE904231023CDE90830B7
:10AB600007AB1A460390069005F13C0901A904A819
:10AB7000CDF81C90FEF7EEFD0546FFF773F904468D
:10AB80006DB928B932464946404626F04FFC3E6032
:10AB900020460BB0BDE8F0836FF08904F8E76FF052
:10ABA0009204F5E76FF08504F2E700BF0002C003EE
:10ABB00007B56B46054A1068516803C36846FDF740
:10ABC0005FFE002003B05DF804FB00BF441D0300DE
:10ABD00013B50024064A6846536F43F001035367D8
:10ABE00000948DF80440FDF781FD204602B010BDB1
:10ABF0000040005030B58BB06C46174D0FCD0FC4E0
:10AC00000FCD0FC495E8030084E80300134BD3F87D
:10AC10004C21120318D4D3F85041E4B28DF81940F6
:10AC2000FDF782FB204480F308008DF818000C48E3
:10AC3000FCF700FA6846FDF793FA4FF4FA70FDF757
:10AC4000E7FB00200BB030BD064B1C884FF6FF73AE
:10AC50009C4208BF8C24E1E74C1D03000080E00FFC
:10AC600000F049020001E00F30B5094D87B001AC9A
:10AC70000FCD0FC42B6801A8236019238DF8053070
:10AC8000FDF782FB6420FDF7BDFB002007B030BD5F
:10AC9000741D03006FF00402502110B50A480B4CDC
:10ACA00012F0800FD3B21BBF03F00F03043BA318B5
:10ACB0001B1802F101020CBF83F800131976402A19
:10ACC000EED1002010BD00BF00ED00E000E100E08B
:10ACD00010B504461BF047FC024B1C601BF047FC00
:10ACE000002010BD501B002010B51BF03CFC034B96
:10ACF0001C681BF03CFC204610BD00BF501B002010
:10AD0000034B022218680023806819461AF016BB0C
:10AD1000000C002030B51446054687B010461CF0E4
:10AD200009FA6369024683423CBFD4E903315B18E8
:10AD30001B1A7BB10F49284603910021CDE901314F
:10AD4000012304940093D4E900131BF0D8FA0020E7
:10AD500007B030BD0122627694F82D20002AF6D08B
:10AD600084F835301321E369204698472046636A0A
:10AD70009847ECE715AD00002DE9F04788B0044690
:10AD80008846174699461BF0F5FB8246002F7AD07D
:10AD9000237E03F0FF02002B00F0A28020461CF06F
:10ADA000C9F96669B04205D1637ED4E903521544FE
:10ADB000AD1B01E0F9D9851BBD4228BF3D461BF004
:10ADC000D9FB94F82D300646002B6DD12A4640461B
:10ADD000616926F02BFB63692F462B44636121E0F8
:10ADE000037803F0FD0111295BD1216B814205D16C
:10ADF000A3F111014B424B4184F83430013F6369A8
:10AE0000216B01328B4203F1010308BF23636361AD
:10AE100095426069E4D1D4E90323216B134499423C
:10AE200000D122630025D4E90323616913449942C8
:10AE300008BF6261207A6576FCF7AAFD20461CF007
:10AE400079F96369834232D1257694F82D30E5682B
:10AE5000656103B125632046636A9847214B2A4602
:10AE60000393002302932369216801930123207A2D
:10AE70000093049463681BF042FA207AFCF7A8FD63
:10AE800030461BF07DFB5046C9F800701BF078FB84
:10AE9000D9F80030002B0CBF1B20002008B0BDE803
:10AEA000F08708F8013BAAE72F460022B0E701230C
:10AEB000207A23760DF11E01FCF7F2FD9DF81E307D
:10AEC000002BDAD00DF11F01207AFCF7C1FD9DF8AF
:10AED0001F100029D1D12246207AFFF71BFFCCE7B3
:10AEE0001746D0E715AD0000002808DB0123420912
:10AEF00000F01F0003FA00F0014B43F822007047F6
:10AF000000E100E0002809DB0122430900F01F00F6
:10AF100002FA00F0024A603342F82300704700BF93
:10AF200000E100E070B504460568FFF7DDFE8442ED
:10AF300002D10020FFF7CCFE95F93600FFF7E2FFC3
:10AF400095F93630002B0DDB01215A0903F01F0360
:10AF500001FA03F31849203241F82230BFF34F8F32
:10AF6000BFF36F8F95F93700FFF7CCFF95F93730B6
:10AF7000002B0DDB01215A0903F01F0301FA03F333
:10AF80000D49203241F82230BFF34F8FBFF36F8F4E
:10AF9000287AFCF73DFD287AFCF7A0FCFCF77CFC46
:10AFA00000232846C4E90033C4E90433A360AB6A34
:10AFB000BDE87040184700BF00E100E02DE9F04116
:10AFC0000C461546064686B04022002120461F4604
:10AFD00026F053FA95E8030000232A692376EB68EC
:10AFE00084E80300C4E904232A7DE36084F82C206C
:10AFF000AA7D2363012384F8343084F835300C9B18
:10B0000084F82D2023620D9BE76163620E9BA3628F
:10B010002B7A84F836306B7A84F837302D4B3460D5
:10B0200073602D4BB3602D4B33612D4B73612D4BF2
:10B03000F360FCF779FC38B12B4B984204D0102414
:10B04000204606B0BDE8F081002104F10800FCF7BD
:10B05000F3FB07460028F2D14FF00108234B33627F
:10B06000234B84F83C80B361224BF3619DF8403060
:10B0700084F8390084F83B309DF83C30204684F851
:10B080003A30697D84F838801CF064F895F909003D
:10B09000FFF738FF95F90900FFF726FF164B0494D8
:10B0A000CDE902732369CDE900836368E268216812
:10B0B000207A1BF024F904460028C0D195F9080035
:10B0C000FFF720FF95F90800FFF70EFF3046FFF766
:10B0D000FFFDB5E7A571020079AD00002371020004
:10B0E0002971020025AF0000038000F0F970020012
:10B0F000557102002F71020015AD00002DE9F041DD
:10B1000001271C46594B86B00293594B0C9D019365
:10B11000584B904600930A46CDE903772946564B93
:10B12000FFF74CFF064600287BD1236839462B6485
:10B1300063683A206B64637A85F84930237A85F82E
:10B140004830E37A85F84B30A37A85F84A30637B40
:10B1500085F84D30237B85F84C30E37B85F84F3004
:10B16000A37B85F84E30FCF7F1FE3B460422617A62
:10B17000207AFDF7C3FB3B460222E17AA07AFDF775
:10B18000BDFB39466068FCF7E1FE88F80060414687
:10B190002068FDF79FFF1422637C5B0103F1A0434D
:10B1A00003F57033C3F81C26617A227A42EA014221
:10B1B000C3F83426E17AA27A42EA0142C3F82C2687
:10B1C00085F8506098F81930032B4DD8DFE803F06C
:10B1D0001A022D470123002785F850300023022250
:10B1E000617B207BFDF78AFB637B227B617C42EAEB
:10B1F0000342224B49015A500422236803F580532D
:10B20000DA65AFB9237A2A6C85F84830637A05216C
:10B2100085F84930D36C206843F00403D3641BF0F5
:10B22000DDF9304606B0BDE8F081022385F85030E4
:10B2300000230422E17BA07BFDF760FB022741F2A3
:10B240001C61627C0E4B03EB42104750E07BA17BFC
:10B25000B13241EA004103EB42139960D2E7032384
:10B26000012785F85030B9E72326DAE7CF720200CC
:10B27000C37202005B7302004F73020024D60350B6
:10B2800000C00350BFF35F8F074B5A6A22F480322D
:10B290005A62D3F8942022F00102C3F89420BFF33D
:10B2A0004F8FBFF36F8F704700ED00E070B52648F9
:10B2B000264CFFF7E7FF844208BF4FF08043244A43
:10B2C00018BF20F01F03D2F8C01018BF203B21F098
:10B2D000FF0141F0A001B3F1005FC2F8C0100CD330
:10B2E0001C4D1D4E296843F00103C2F8981001312E
:10B2F000C2F89C60C2F8A0302960844210D0154882
:10B30000164B0268124923F01F0343F00303C1F8F0
:10B310009820C1F89C30124B0132C1F8A030026075
:10B32000BFF35F8F05220A4BC3F894205A6A42F498
:10B3300080325A62BFF34F8FBFF36F8FBFF34F8FCF
:10B34000BFF36F8F70BD00BF0C0D0020E40E002016
:10B3500000ED00E0541B002003000020030F00203C
:10B36000E1FFFF3F10B51446FFF78CFF1F2C24D9D7
:10B370001C4A1D4CD2F8C03023F47F4343F4807341
:10B38000C2F8C030C2061CBF20F01F002030CB0620
:10B39000144A236818BF21F01F0120F01F0021F07C
:10B3A0001F01C2F8983040F0030041F0030101335F
:10B3B000C2F89C00C2F8A0102360BFF35F8F052283
:10B3C000084BC3F894205A6A42F480325A62BFF3A1
:10B3D0004F8FBFF36F8FBFF34F8FBFF36F8F00207F
:10B3E00010BD00BF00ED00E0541B0020BFF34F8FE5
:10B3F0000549064BCA6802F4E0621343CB60BFF311
:10B400004F8F00BFFDE700BF00ED00E00400FA052C
:10B41000054B1A782AB95B78002B14BF0220032051
:10B4200070470120704700BF162800200329F8B597
:10B4300098BF124B05460E468CBF00245C5C032867
:10B4400005D8DFE800F002080B0E44F002040C4BB4
:10B450001F684FB9F8BD44F00804F8E744F0200431
:10B46000F5E744F08004F2E77B681A68144203D0E1
:10B47000314628465B6898473F68EAE7881D030025
:10B480007C1B002038B5104D2B78ABB10F4C2378C6
:10B490001BB100F05DFB0023237000201BF0C9FFEF
:10B4A0000B4C50B100F0A4FB0023012120782B703D
:10B4B000FFF7BCFF0123237038BD0122054B1A7032
:10B4C0002278054B1A70F7E7152800201028002075
:10B4D0000E280020142800201B28002010B51BF087
:10B4E00042F8064B04461B781BB1BDE810401BF028
:10B4F0003EB8FFF7C7FF2046F7E700BF0F28002040
:10B50000002814BF0121FF21074A13780B44137050
:10B5100008D0064B1B78012B04D9054B1B780BB9BF
:10B52000FFF7B0BF704700BF162800200E2800208C
:10B530001428002070B51BF016F8124E054633781B
:10B540009BB900F073FC044620B128461BF00FF8AD
:10B55000204670BD0C481AF079FE00F0FBFE0B4B44
:10B560001C6000F027FD0A4B186000F009FA1BF080
:10B5700062FF084B002418600123284633701AF03C
:10B58000F6FFE5E7112800207C1B0020841B00202B
:10B59000801B0020781B002000292DE9F34114BFF7
:10B5A0000121FF21254A00F1FF30135C0B441354A5
:10B5B0003AD0234E3178012936D9FFF729FF0128E7
:10B5C000044634D81F4F1AF0CEFF3B781BB31E4DF4
:10B5D0002B781BB901222A701C4A1370DFF8708087
:10B5E00098F8003033B1019000F0B2FA00230198CE
:10B5F00088F800301AF0BBFF01201BF01AFF1AF088
:10B60000B2FF2B782BB1019000F0F2FA00230198E1
:10B610002B7000233B701AF0AAFF3078A04203D0B1
:10B620002146FFF703FF347002B0BDE8F081032923
:10B63000F3D10228F1D11BF002FFEEE7162800201B
:10B640000E280020152800200F2800201428002094
:10B650001028002010B504461AF085FF002C14BFF6
:10B660000121FF21064A13780B44DBB21370B3FAB1
:10B6700083F3BDE81040034A5B0913701AF077BFEB
:10B68000192800201828002068B51AF06CFF094B13
:10B6900006461B78012B04D81AF069FF00252846BE
:10B6A00068BD054B1D6800F0D7FA054430461AF016
:10B6B0005EFFF4E70E280020841B002038B54160AF
:10B6C00004461AF050FF0546214604481AF0C1FD11
:10B6D0002846BDE838401AF04ABF00BF7C1B002056
:10B6E000054B1B685843054B00F5742000F23F20C2
:10B6F000B0FBF3F0704700BF801B002040420F00FA
:10B700002DE9FF47EFF3108672B600E000BF1AF094
:10B71000CFFC002800F09B80704D714F2B7823B137
:10B720000020FFF7EDFE00232B70FFF771FE0446AB
:10B73000002800F09380841EE4B2012C40F2968031
:10B74000FFF766FE0128804604D9664B1B780BB9CB
:10B750001BF06DFE644CDFF8B0912078DFF8ACA1EF
:10B7600040450AD0002389F800309AF8003013B918
:10B770004146FFF75BFE84F8008099F800303BB14A
:10B780002378022B04D1002389F8003025F0B7FA82
:10B79000B8F1010F0FD9DFF84C8198F8003053B998
:10B7A000524B1B7823B900F0CDF90122504B1A708F
:10B7B000012388F80030207800F038FA9AF8003039
:10B7C00013B14C4B1B78237000E000BF06B962B682
:10B7D000EFF3108672B6484B1A7852B100221A70F5
:10B7E000444B20781B78984203D101212170FFF748
:10B7F0001DFE384600F054FB1AF065FC8046002818
:10B800008CD1384F89F800003B789BB1DFF8E0908D
:10B810008AF8000099F800301BB100F099F989F816
:10B82000008000201BF005FE00284ED000F0E0F95B
:10B8300000233B702B7823B10020FFF761FE00232B
:10B840002B7000212078FFF7F1FD0023237000E02A
:10B8500000BF06B962B604B0BDE8F0872B78002BB4
:10B860003FF46EAFFFF74CFE2C7069E7002003A990
:10B8700000F05AFB044600287FF462AF1F4B039A86
:10B880001B689A4205D80120FFF73AFE01232B706E
:10B8900056E71B4BD3F8008000F0DEF9039B804491
:10B8A0009845F0D200F0F0F900280CBF00230423E3
:10B8B000039943F00203CDE9004338462346114A79
:10B8C000A1EB08011BF0BFFD3AE7012000F0AEF943
:10B8D00006B962B6EFF3108672B6A2E71A28002006
:10B8E000581B0020152800200E28002019280020B1
:10B8F000102800201B28002013280020781B00207F
:10B90000841B0020DDB4000018280020142800202B
:10B9100010B51AF028FE0022044B1C781A701AF099
:10B9200026FE00F05DFC2043C0B210BD12280020AE
:10B9300073B5114E04463378834212D000238DF83C
:10B94000043080B102238DF8053001A8FCF77EFE9B
:10B950000A4D402054B1FFF7C3FE2B68181A286027
:10B96000347002B070BD8DF80500EEE7FFF7B8FE49
:10B970002B681844F3E700BFF10C0020C01B002027
:10B9800073B5002401A88DF80440FCF711FF204690
:10B990004FF40024FFF7CCFF3D493E4B0A6F3E4871
:10B9A00002F007021A60D1F82031D1F82411446660
:10B9B0004FF40034446600F598308069374DC0F389
:10B9C0004000032A01F00701287058D003F0030358
:10B9D000981E43424341022908BF43F00103304C03
:10B9E0004FF4C8702370FFF77BFE2E4B2E4A186071
:10B9F0000A2316682D49013B13F0FF0341F8040B9D
:10BA0000F9D100EBC003304418442B781060284D66
:10BA10006BB323781E4A3BB9D2F8003103F003031D
:10BA2000591E4B424B412370D2F8003103F00303FF
:10BA3000022B26D0032B27D0012B18D1FBF7F4FAC9
:10BA4000A8B11C4B411EDC6800230246084619467B
:10BA5000C4F30B04184E013404EB8404E4FB060128
:10BA600019F00EF9FFF73CFE2B68184428601F20E0
:10BA7000FFF736FE2B681844286002B070BD012322
:10BA8000A9E7FBF7EBFADBE71AF094FBD8E700BF76
:10BA900000800050881B0020009000501D280020CE
:10BAA00020280020BC1B0020901B0020941B00209D
:10BAB000C01B002000C0015040420F00074B1A7805
:10BAC00052B100221A70064A136F23F0070343F0A5
:10BAD00001031367FBF792BA704700BF1E280020CE
