:1000000000100020B5040000B3040000B304000099
:10001000B3040000B3040000B3040000B304000004
:10002000B3040000B3040000B3040000B3040000F4
:10003000B3040000B3040000B3040000B3040000E4
:10004000B3040000B3040000B3040000B3040000D4
:10005000B3040000B3040000B3040000B3040000C4
:10006000B3040000B3040000B3040000B3040000B4
:10007000B3040000B3040000B30400004D0400000A
:1000800059040000B3040000B3040000B3040000EE
:10009000B3040000B3040000B3040000B304000084
:1000A000B3040000B3040000B3040000B304000074
:1000B000B3040000B3040000B3040000B304000064
:1000C000B3040000B3040000B3040000B304000054
:1000D000B3040000B3040000B3040000B304000044
:1000E000B3040000B3040000B3040000B304000034
:1000F000B3040000B3040000B3040000B304000024
:10010000B3040000B3040000B3040000B304000013
:10011000B3040000B3040000B3040000B304000003
:10012000B3040000B3040000B3040000B3040000F3
:10013000B3040000B3040000B3040000B3040000E3
:1001400010B5054C237833B9044B13B1044800E0D3
:1001500000BF0123237010BDBC1000200000000070
:100160008C54000008B5034B1BB10349034800E061
:1001700000BF08BD00000000C01000208C5400002B
:10018000A3F5803A704700BF174B002B08BF134BF5
:100190009D46FFF7F5FF00218B460F461348144A92
:1001A000121A03F0F4FA0E4B002B00D098470D4BB7
:1001B000002B00D098470020002104000D000D48BE
:1001C000002802D00C4800E000BF03F095FA2000A0
:1001D000290000F061F803F07BFA00BF000008007E
:1001E000000000000000000000100020BC100020F3
:1001F00024140020000000000000000008B500F0FA
:1002000041F80522014B1A7008BD00BFD81000202C
:1002100008B500F023F900F022F9044B04491A78DC
:10022000044B1868BDE8084002F042BED810002018
:10023000604C00000014002038B5C16845680446D1
:100240006D1A29460B4803F0ABFA002D04DCBDE81B
:100250003840094803F0A4BAE368A268013352F8B1
:10026000233006481978064B1970BDE8384003F072
:1002700097BA00BF6C4C0000774C0000734C000034
:10028000D8100020024B0349186802F027B800BFBD
:10029000301000200010002008B503F071F8FFF7BF
:1002A000ADFF03F07AF8FFF7B3FFFAE770470000FD
:1002B00030B585B0094C0A4B22680A4D1A600A4BCA
:1002C0002B600A4B019302F0ABFD2B68029001A951
:1002D0002068039301F0BAFC05B030BD3010002057
:1002E0000C1400200814002024100020FB4C0000F7
:1002F00038B502F095FD0446064D2B68D3F8AC02E4
:1003000002F082FD286801F0B3FC2046BDE83840C9
:1003100002F07ABD3010002008B50321802000F0E3
:1003200065FF03214FF4806000F060FF03214FF46C
:10033000906000F05BFF08214FF4C06000F056FFB2
:1003400008214FF4F06000F051FF08213E2000F03A
:100350004DFF08212D2000F049FF002008BD0000BE
:1003600008B5134B1B68C3F30743012B0ED1114B88
:1003700004205A6E4FF480230F49520358BF0F4A8E
:100380004B6601F51041086258BF536602F01EFD2E
:1003900000F08BF802F0A0FC02F0C0FC02F0FCFCC4
:1003A000FFF7BAFF02F0A8FCBDE8084000F074B8FF
:1003B0000080E00F008000400090004000A000405E
:1003C000704708B500F040F802F0C2FDBDE80840F3
:1003D000FFF76EBF704700F043B87047FFF788BF64
:1003E0007047704770B592B0134C0BAD0FCC0FC572
:1003F00094E80700032385E8070003AE8DF8443036
:1004000007AD04F10C031C340FCB86E80F0094E811
:100410000F0085E80F00094B294600930848334632
:100420000BAA02F0DDFE044618B17A21054800F05F
:100430003DF9204612B070BD404D000094130020DD
:10044000E8130020104D0000FFF7CCBF014B1868E7
:1004500002F07EBFE8130020FFF7F8BF7047704737
:1004600008B50122074B1A700022074B1A700422AC
:10047000064B1A701F22064B1A7002F0D1FC054B76
:10048000186008BD3410002004140020351000202E
:10049000361000200014002008B501213A2000F099
:1004A0006FFABDE80840FFF701BF01213A2000F0D4
:1004B00067BAFEE708B500F013F8064B064A07498D
:1004C0008B4201D3FFF760FE52F8040B43F8040B94
:1004D000F6E700BF0010002094540000BC1000207C
:1004E000044B054A9A60D3F8882042F47002C3F89E
:1004F0008820704700ED00E000000000014B186804
:10050000704700BF3C100020084B1B6F03F007032F
:10051000022B04D0032B05D0012B05D0FEE7044BA2
:1005200018687047034BFBE70348704700800040A2
:100530003C10002040100020002D310108B5FFF7CD
:10054000E3FF054B1B6FC3F303330133B0FBF3F041
:10055000024B186008BD00BF00800040381000202A
:100560000048704700B4C404014B1868704700BFCE
:1005700040100020054B1860054B1B6F03F007036C
:10058000032B01D1FFF7DABF704700BF40100020F6
:10059000008000400020704700487047002D310166
:1005A0004FF4004070474FF47A707047014B186861
:1005B000704700BF44100020002303607047000014
:1005C00038B504460D4601B118B93821034800F08A
:1005D0006DF823682B60256038BD00BF7C4D00009E
:1005E00010B538B132B129B100230139D45C14B946
:1005F0000023037010BD8B42FAD200F8014B013387
:10060000F4E7034638B100201A5C22B1814200D1E0
:1006100070470130F8E770474FF0FF31FFF7F1BF47
:1006200070B50C461646054660B15AB151B1FFF798
:10063000F3FF844206D9211A32462844BDE87040AF
:10064000FFF7CEBF70BD000070B5D0B1C9B10E4E7E
:10065000431E013913F8014F2046A25D02F0030248
:10066000012A11F8012F08BF04F12000B55C05F044
:100670000305012D08BF2032801A01D1002CE9D1D9
:1006800070BD0120FCE700BFF352000005490A6875
:100690001318054883428CBF4FF0FF320B601046A1
:1006A000704700BF4810002000800020FEE74FF098
:1006B0004023D3F88420D206FBD4D3F88400C0F3BF
:1006C0008110704738B5124B0546D3F820310C46DF
:1006D00003F00303022B0BD0032B0DD0012B0FD102
:1006E000FFF70CFF052305B1286004B1237038BD66
:1006F000FFF73AFF0323F6E7FFF74EFF0223F2E787
:10070000044840F61771FFF7D1FF00231846EAE7C7
:1007100000800040E24D0000F7B50024114B019429
:10072000D3F88051074605F00305012D0E4607D08A
:10073000022D11D041F252010B48FFF7B7FF04E040
:10074000214601A8FFF7BEFF0F240FB1019B3B60BC
:1007500006B1347003B0F0BDFFF71EFF2C460190C8
:10076000F3E700BF00800040E24D000038B5194BB0
:100770000546D3F824310C4603F00703013B052B53
:1007800020D8DFE803F0030F171B0B13FFF7B6FEAB
:10079000052305B1286004B1237038BDFFF7AEFE14
:1007A0000623F6E7FFF7E0FE0323F2E7FFF7DCFEA0
:1007B0000423EEE7FFF7F0FE0223EAE7FFF7EAFE85
:1007C0000723E6E7044840F21621FFF76FFF0023F6
:1007D0001846DEE700800040E24D000038B5124BBD
:1007E0000546D3F840310C4603F00303022B0BD02F
:1007F000032B0DD0012B0FD1FFF7D2FE092305B13A
:10080000286004B1237038BDFFF7D0FE0823F6E757
:10081000FFF7C9FE0B23F2E7044840F64571FFF7E6
:1008200045FF00231846EAE700800040E24D000043
:1008300038B5154B0546D3F800320C4603F00703D4
:10084000013B032B18D8DFE803F0020A0E12FFF772
:10085000A7FE092305B1286004B1237038BDFFF756
:10086000A5FE0823F6E7FFF79EFE0B23F2E7FFF74E
:1008700065FE0E23800AEDE7044841F20711FFF7F9
:1008800015FF00231846E5E700800040E24D000018
:1008900038B5124B0546D3F840320C4603F003033B
:1008A000022B0BD0032B0DD0012B0FD1FFF778FEBD
:1008B000092305B1286004B1237038BDFFF776FE27
:1008C0000823F6E7FFF76FFE0B23F2E7044841F237
:1008D0009A01FFF7EBFE00231846EAE7008000408C
:1008E000E24D000038B5124B0546D3F860310C4696
:1008F00003F00303022B0BD0032B0DD0012B0FD1E0
:10090000FFF74EFE092305B1286004B1237038BDFE
:10091000FFF74CFE0823F6E7FFF745FE0B23F2E74F
:10092000044840F69271FFF7C1FE00231846EAE73B
:1009300000800040E24D000010B40F4C0B46D4F88C
:10094000204204F00304012C0ED0022C10D008B178
:10095000002101600BB100221A704FF4107107489A
:100960005DF8044BFFF7A2BE5DF8044BFFF7AABE8B
:100970005DF8044BFFF732BF00800040E24D0000FD
:1009800070B5460904460D460FD140F205110D48D9
:10099000FFF78CFE334604F01F0485B103F5805346
:1009A000012000FA04F41C6070BD012E05D0064B36
:1009B000064A022E18BF1346EDE7054BEBE703F599
:1009C0000053EDE7E24D0000688000406082004087
:1009D0006480004010B5B0F5207F34D009D8B0F560
:1009E000007F2AD003D898B1B0F5C07F10D0002482
:1009F00021E0B0F5607FFAD1154BD3F88030C3F316
:100A000001149B0617D5032C15D04FF4CE610FE0CF
:100A10000F4B1C6F230B13F00E0FC4F303340AD0DB
:100A2000032C08D0072C06D00F2C04D04FF4CC6137
:100A30000848FFF73BFE601C10BD054BD3F8904003
:100A4000C4F30464F7E7024B1C6FC4F38024F2E79D
:100A500000800040E24D000030B585B000238028C2
:100A60000446029375D02BD8002878D0A0F120043A
:100A7000A3B2412B32D8412C30D8DFE804F0707398
:100A80007073868686867373903FA7653F73737312
:100A90002F2F2F2F2F2F8B57737373B1AC732F2FD3
:100AA0002F2F2F2F2F2F2F2F2F2F2F702F70707052
:100AB000862F2F2F2F2F2F2F2F2F2F2F2F2F70706D
:100AC000B0F5806F61D024D8B0F5007F54D00BD83A
:100AD000B0F5807F68D0B0F5C07F40D040F2DB1128
:100AE0004248FFF7E3FD37E0B0F5607F44D0F5D82A
:100AF000B0F5207F36D0B0F5407FEFD1FFF71EFD77
:100B000004464FF42070FFF765FFB4FBF0F0400897
:100B100021E0B0F5C06F59D00DD8B0F5A06F39D035
:100B2000B0F5B06F3BD0B0F5906FD7D1002102A8DF
:100B3000FFF71CFE10E0B0F5E06F4CD0B0F5F06FA1
:100B40004ED0B0F5D06FC9D1002102A8FFF770FEDA
:100B500002E0FFF7D9FC0290029805B030BDFFF724
:100B6000EDFCF8E7FFF7EAFC04464FF42070FFF7CE
:100B700031FFB4FBF0F0EEE7FFF7C6FC0546204678
:100B8000FFF728FFB5FBF0F0E5E7002102A8FFF72B
:100B900099FDE1E7002102A8FFF7CEFEDCE7002186
:100BA00002A8FFF7B9FDD7E703934FF0E0231B69D5
:100BB0005B0705D5FFF7C2FC0390039B0293CBE7CD
:100BC0000DF1070103A8FFF709FEF6E7002102A8CF
:100BD000FFF704FEC0E7002102A8FFF759FEBBE7BC
:100BE000002102A8FFF77EFEB6E700BFE24D00003D
:100BF00008B58020FFF730FF034B98429EBF4FF4AB
:100C00008032024B1A6708BD005A620200A0004001
:100C100070B54FF400320F4B06469A6600200D4621
:100C2000FFF7D8FE41F671320B4B7043DC690B497C
:100C3000DA639A68884204F4803422F4401203D9BB
:100C4000012D18BF42F480129A600CB10022DA63C1
:100C500070BD00BF0090004000000340005A6202D7
:100C600008B5FFF77DFCBDE808400021FFF7D0BFC5
:100C700007B50023B0F5807F8DF8023000F0888042
:100C800028D8382800F0A8800CD8243883B2092B43
:100C900010D809280ED8DFE800F0757575750D0DB0
:100CA0006B0D378F52286DD007D83D283CD03E2899
:100CB00000F0988040F2A37156E08028FAD14C4BA6
:100CC0001B6F03F00703013B032B4BD8DFE803F056
:100CD00048444280B0F5D06F6ED01BD8B0F5A06FFD
:100CE0007AD00BD8B0F5806F4CD0B0F5906FE1D1D1
:100CF00000200DF10201FFF739FD3EE0B0F5B06FC5
:100D000036D0B0F5C06FD5D100200DF10201FFF74C
:100D100065FD32E0B0F5006FEAD00BD8B0F5E06FBA
:100D200060D0B0F5F06FC5D100200DF10201FFF7E2
:100D3000D9FD22E0B0F5086FBCD12D4BD3F80031BE
:100D400003F00303022B3DD0032B3FD0012B41D1F5
:100D5000FFF70AFC032300E005238DF802300CE0C6
:100D60000223FAE740F20B712248FFF79FFC04E0F0
:100D700000200DF10201FFF7CFFC9DF8020003B047
:100D80005DF804FB00200DF10201FFF79BFCF4E786
:100D900001934FF0E0231B695B0707D5FFF7CEFBFC
:100DA0000C238DF803309DF80330D6E70DF10301D5
:100DB00001A8FFF713FDF6E700200DF10201FFF790
:100DC00037FDDAE7FFF7F2FB0823C6E7FFF7E2FBA0
:100DD0000723C2E70123C0E700200DF10201FFF75E
:100DE000ABFDCAE700200DF10201FFF751FDC4E79A
:100DF00000800040E24D000070B5037804460F2BE0
:100E000004D940F601416B48FFF750FC63780F2B83
:100E100004D940F604416748FFF748FCA3780F2B3C
:100E200004D940F607416348FFF740FCE3780F2BF5
:100E300004D940F60A415F48FFF738FC23790F2BAD
:100E400004D940F60D415B48FFF730FC63793F2B36
:100E500004D94FF441615748FFF728FCA3793F2B91
:100E600004D940F613415348FFF720FCE379032BE4
:100E700004D940F616414F48FFF718FC237A032B9C
:100E800004D940F619414B48FFF710FC637B012B56
:100E900004D940F61C414748FFF708FC8020FFF7C3
:100EA000E7FE03287CD04FF40022434B43495A66A7
:100EB00045F60E030222C1F88030414B9A620122AE
:100EC00003F580539A628A6D12F48032FBD1637805
:100ED00020781B0543EA0063A079257C0343E07872
:100EE000667C43EA0043207943EA0033607943EAB1
:100EF00080130B618B69E07A03F000430343E079D0
:100F000043EA8063207A43EA0063607A43EA00435D
:100F1000A07A43EA00238B61637B096A002B18BF28
:100F20000822207B21F00D0143EA010343EA8003FC
:100F300042EA0302214B1A62A27B4FEA421230D1ED
:100F4000986AE17B20F0330042EA0112024342F04A
:100F500001029A621B4A996D32EA0101FBD1022219
:100F600017498A621A659A6D5200FCD41869A278F2
:100F700020F4700040EA02504FF000421861104B1C
:100F80009A611DB9022203F580539A6216B90122B3
:100F90000D4B9A62A37C1BB1084B0C4AC3F880200E
:100FA00070BD996A21F0330131430A4342EA450298
:100FB000EFE700BFE24D00000090004000C000409D
:100FC00000D000400300014000E00040F1A7FFFF17
:100FD000014B93F9000070470514002010B5837889
:100FE0000446072B04D940F685512A48FFF75EFBDB
:100FF000E378032B04D940F687512648FFF756FBC8
:101000002378032B04D940F689512248FFF74EFB81
:1010100094F90130002B04DA40F68B511D48FFF79C
:1010200045FB4FF480011C4A637851664FF4D1515F
:10103000022002F5B832516218494F2B48604FF038
:10104000010028BF4F2301F5805148601169C90391
:10105000FCD4217843EA01235361E378A1781B0192
:1010600043EA012361790B43217943EA4103936009
:10107000E379A1791B0143EA4113617A0B43217A99
:1010800043EA41035360A37A13B16FF4D15353621F
:1010900010BD00BFE24D0000009000400010024073
:1010A000014B1880704700BF4C1000200029CCBFB6
:1010B00001210021FFF7ACBD10B5B0F5207F65D050
:1010C0000ED8B0F5007F4FD003D800B3B0F5C07F85
:1010D0001DD040F2E161BDE810403448FFF7E6BAA8
:1010E000B0F5607FF5D14C1E012C06D9042904D03F
:1010F00040F2C7612D48FFF7D9FA2D4AD2F8803067
:1011000023F0300343EA0413C2F8803010BD1029E5
:1011100001F1FF3404D8274B23FA01F1CB0704D4A3
:1011200040F29E612148FFF7C1FAFFF799FD00F0F8
:1011300045F84FF48031204B1D4A1967136F23F493
:10114000704343EA04331367FFF7F8F90446FFF7E7
:10115000AEFAC0F102012046FFF7A8FF00F034F814
:10116000BDE81040FFF744BD4C1E1F2C04D940F2CF
:10117000D5610E48FFF79AFA0D4BD3F8901021F085
:10118000F85141EA0461C3F89010BFE74C1E012CEE
:1011900004D940F2DB610548FFF788FA044B196F68
:1011A00021F4806141EA84211967AFE7E24D000034
:1011B00000800040160101000090004002214FF421
:1011C0002070FFF779BF000008B54FF4C070FFF73B
:1011D00043FCBDE80840044988428CBF022101213C
:1011E0004FF42070FFF768BF80F0FA0270B5B0F5D9
:1011F000807F0C4600F00C812CD8382800F0A481A8
:1012000011D8243883B2092B16D8092814D8DFE85E
:1012100010F0E400E400E400E40013001300CF0049
:10122000130049005301522800F0D78007D83D2809
:1012300053D03E2800F09F8140F6662122E18028AD
:10124000FAD18B1E052B00F2A880DFE803F0A394EF
:10125000A6AEA667B0F5D06F00F02E8132D8B0F5FB
:10126000A06F00F0718116D8B0F5806F00F0B580E6
:10127000B0F5906FE0D1023CE4B2052C00F215818C
:10128000A84B195DA84AD2F8243123F007030B4379
:10129000C2F824316EE0B0F5B06F00F08980B0F58F
:1012A000C06FC9D1083CE4B2032C00F2F0809F4B20
:1012B000195D9D4AD2F8403123F003030B43C2F875
:1012C000403157E0B0F5006FD5D016D8B0F5E06FDB
:1012D00000F05181B0F5F06FAED1083CE4B2032CC0
:1012E00000F2DC80924B195D8F4AD2F8603123F016
:1012F00003030B43C2F860313CE0B0F5086F9BD1AB
:101300004C1E072C00F20481DFE814F007010201F3
:1013100009010201020102010001F6000025042674
:101320000121022000F056F9FFF79AFCFFF746FF73
:101330004FF480317F4B7C4A1967136F23F007030A
:1013400033431367FFF7FAF80646FFF7B0F9C0F129
:1013500002013046FFF7AAFE0121002000F092F9B9
:10136000FFF732FFFFF744FC25B9032C02D101221D
:10137000714B9A6270BD4FF400226E4B03265A6681
:10138000012203F540539D6A03F58053C5F34005E0
:101390009A62C5E700250126C2E7002540F2DD710B
:1013A0006648FFF783F92E46BAE700250226B7E71D
:1013B000022C07D00F2C0ED040F621015F48FFF71A
:1013C00075F90024584AD2F8803123F003031C43F6
:1013D000C2F88041CEE70124F4E7032C12D0052C9B
:1013E00012D0022C12D040F652015448FFF75EF999
:1013F00000224D49D1F8203123F003031343C1F8F3
:101400002031B7E70222F4E70122F2E70322F0E7F6
:10141000A1F10804082C33D8DFE804F005053205F3
:101420001C32323205004FF480323F4B4449586E33
:1014300003F580535A660B6A43F001030B62C10344
:101440005CBF404B5A664FF0E022136923F004035F
:1014500013618FE74FF48032334B3949586E03F5EF
:1014600080535A660B6A23F001030B62C3035CBF0F
:10147000344B5A664FF0E022136943F00403E7E768
:1014800040F67A01BDE870402C48FFF70FB940F6EE
:1014900096012A48FFF70AF900210AE740F6B10150
:1014A0002648FFF703F900211EE740F6D60123483E
:1014B000FFF7FCF80021E5E6083C062C13D8DFE82E
:1014C00004F00419190E1212100002221649D1F864
:1014D000003223F007031343C1F800324AE7032226
:1014E000F4E70422F2E740F6F6011448FFF7DEF8CD
:1014F0000022EBE70122E9E702220B49D1F8003193
:1015000023F003031343C1F8003133E70322F4E768
:1015100040F632110948FFF7C9F80022EDE7012231
:10152000EBE700BF494E000000800040454E000040
:10153000454E00000090004000E00040E24D0000F9
:1015400000C0074000A000400F2C10D0102C10D07D
:1015500040F677111348FFF7A9F800221249D1F895
:10156000203223F003031343C1F8203202E70122A3
:10157000F4E70222F2E7083CE4B2032C0AD80B4B52
:10158000195D094AD2F8403223F003030B43C2F835
:101590004032EFE640F6CB110248FFF787F8002112
:1015A000EFE700BFE24D000000800040454E000024
:1015B000EFF3108072B6704700B962B67047EFF370
:1015C0001180302383F31188704780F311887047AE
:1015D000704700002DE9F0414FF040230446D3F856
:1015E0008420D006FBD4D3F88430C3F381139C420B
:1015F0003FD0FEF789FF012C05460BD11E4B9842C8
:1016000004D940F216611D48FFF750F80121284621
:10161000FFF74CFDFFF7CCFF4FF00072184B074669
:101620005A662046FFF7D4FF4FF480634FF0402600
:10163000621E9340DFF844803367736E9A0103D4CF
:10164000D6F884309B060AD53846FFF7B5FF022C42
:101650000FD12846BDE8F0410021FFF727BDD6F89D
:1016600084309906E9D540F224614046FFF71EF820
:10167000E3E7BDE8F08100BF005A62024F4E000070
:101680000060004007B518B90191FEF73DFF0199D0
:10169000064B1B7843B1064B984205D8012003B096
:1016A0005DF804EBFFF796BF0220F8E70614002070
:1016B000005A62024FF04022D36E017923F03003CA
:1016C0000B43D3667047000010B54FF00042012471
:1016D0004AF6CD31144B5A66144A03F50B23546075
:1016E0005A6C1964224078B9996811F0010F1049B9
:1016F00003D08C60D86AC007FCD501234B6012B1BF
:101700000C4B0D4A1A6410BDD96A0907FCD420217C
:10171000074B59620121A3F58053996005494B6A33
:101720009B06FCD5EBE700BF00900040005009404D
:1017300000600940004009403254FFFF38B54FF0C7
:101740000042184B184C5A66012203F50C235A60CC
:101750004AF6CD33656C23644378154093401343B8
:101760004FF04022D363A368827823F0740343EAE6
:101770000213C278002A14BF042200221343A3607C
:101780000279837943EA022323614279C37943EAE8
:10179000022363610078FFF797FF0DB1034B2364C9
:1017A000012038BD00900040004009403254FFFF46
:1017B00038B50D460446D8B101281CD002281CD0EB
:1017C000032803D10C23EB40DB0704D440F2134180
:1017D0000B48FEF76BFF3020012141F21003444318
:1017E00004F1804401FA05F504F57034E55038BD84
:1017F00040F2FF13E7E71F23E5E7FF23E3E700BF1E
:10180000B24E000038B50D460446D8B101281CD0B0
:1018100002281CD0032803D10C23EB40DB0704D49F
:101820004FF479710B48FEF741FF3020012142F25D
:101830001003444304F1804401FA05F504F57034C3
:10184000E55038BD40F2FF13E7E71F23E5E7FF232C
:10185000E3E700BFB24E00002DE9F0410D46164609
:101860001F46804678B3012830D0022830D00328A4
:1018700003D10C23EB40DB0704D440F21D112048B8
:10188000FEF714FF26B1294640461FB3FFF790FF2D
:10189000302404FB08F4072D04F1804404F570346F
:1018A0001BD80F216368AA00914023EA010306FABE
:1018B00002F2134363600EBB29464046D7B1BDE830
:1018C000F041FFF775BF40F2FF13D3E71F23D1E7C5
:1018D000FF23CFE7FFF796FFDAE70F21A5F1080313
:1018E000E2689B00994022EA010206FA03F31343DF
:1018F000E360E0E7BDE8F041FFF784BFBDE8F081B9
:10190000164F00002DE9F04180460E461F46154651
:1019100022B94FF4A1713148FEF7C8FE26B94FF441
:101920002070FFF799F80646402F2AD009D8A7B1B2
:10193000202F1CD040F28911BDE8F0412748FEF766
:10194000B5BE602FF6D1B5EB960F04D940F28311E6
:101950002248FEF7ABFE04241DE0B5EB161F04D9A8
:101960004FF4BA711D48FEF7A1FE102413E0B5EB49
:10197000D60F04D940F279111848FEF797FE0824D3
:1019800009E00624B6FBF4F3AB4204D24FF4BF7176
:101990001248FEF78BFE6C43610801EB4616B6FB5E
:1019A000F4F40F4E203CB6EBC40F4FEAC40504D24A
:1019B0004FF4D0710948FEF779FED8F80830354069
:1019C00023F06003C8F80830D8F808301F43C8F87F
:1019D0000870C8F81C50BDE8F08100BF7A4F0000C5
:1019E000F8FF7F0038B50E4B044698420D4608D0EC
:1019F00003F58043984204D040F2BE210948FEF727
:101A000055FE012204F580535A60EB43934003F0E6
:101A10000A036361656115B904F50054626038BD5D
:101A200000C005407A4F000010B5194B044698429B
:101A300008D003F58043984204D040F22E41154867
:101A4000FEF734FE012204F580535A6040F6AA6383
:101A500041F20502636100230F49A360E365E26080
:101A600004F500522361E361E36491640849A365CE
:101A70008C4202D00948844207D18C42236502D0AF
:101A8000064B9C4201D1002363650123536010BDC6
:101A900000C005407A4F0000FFFF01000000064033
:101AA00070B5414B044698420D4608D003F580437B
:101AB000984204D040F2EF213C48FEF7F7FD204663
:101AC000FFF7B2FF012304F580567360AB7C1BB1B6
:101AD000A36843F08043A360EB7C5BB1324A2B7D6B
:101AE00094423FD1A2F51032C2F88C31E36D43F03D
:101AF0008003E3652A8A6B7B20461343EA891343FC
:101B0000E3602B7BD5E90112FFF7FCFE6B7D1BB177
:101B1000A36843F48033A360AB7DEA7D1B07120505
:101B200002F4E00203F0E0431343A365297E1E4A5A
:101B30008B1E012B1E4B1FD894421BD002F58042F6
:101B400094420CBF01224FF0FF3203EB42130220FC
:101B500041F21C620329985020D10423F3652B78AD
:101B6000636170BD134A944204BFA2F52032C2F8EB
:101B70009C31BBE70022E8E794420DD00D4A944225
:101B80000CBF01224FF0FF3203EB4213022042F25E
:101B90001C6201299850DFE70022F5E7042204F5D2
:101BA0000053DA65DBE700BF00C005407A4F000054
:101BB00000C003400000064083691B06FCD5406A54
:101BC000C0B2704783695B06FCD5C16370470000F3
:101BD00010B54FF42D720021044601F0D8FD00230A
:101BE0008022C4E92323084AC4F8943062600122A9
:101BF00084F898302272C4F8A83204F19C00BDE841
:101C00001040FEF7D9BC00BFDF4F000010B5D0F880
:101C1000A0400A4674B900F08FFC044640B12D285C
:101C200096BF074B074953F82010074800F0BEFF46
:101C3000204610BDD0F8A4101046A0470024F7E7B6
:101C400088500000E24F0000F04F000038B50D460C
:101C50000446FFF7BDFF6B682046C4F8AC32A968A4
:101C600000F03CFB4FF0FF330020C4F8B03238BD29
:101C700038B5037804468BBB01220270027A22B188
:101C800041680372164800F091FF4FF0FF35D4F819
:101C9000B002421C1CD0C4F8B052C1B2204600F0C1
:101CA0002FFE0028F3D004F10905284601F05EFE5E
:101CB00048B1204600F0E0FD29462046FFF7A6FF88
:101CC000204600F0E4FC6168054800F06FFF03E087
:101CD00000F051FF431CE0D10023237038BD00BF4A
:101CE000C6510000F8B50B780546302B0E46174656
:101CF00004D14B7803F0DF03582B12D02F49721E0A
:101D000012F8014F002C43D10A222146304601F03F
:101D10006BFF202D03460A463FD1631A58425841B3
:101D200019E04A1C254912F8013FABB9244B304653
:101D30002B40032B1FD101F019FE6B1C48BF2B1D3C
:101D40000238B0EBA30F4FEAA3040BD1B0783728C9
:101D50008CBF00200120F8BD5B5C13F04403E2D18E
:101D60001846F8E7304601F001FE02388442D4BF3D
:101D700000200120EFE701F0F9FD002DA0F10200A5
:101D8000B8BF0335B0EBA50FD4BF01200020E2E7B8
:101D9000635C13F00403B3D1E2E727B1084302D038
:101DA000013B61F10002012000FA05F5013D1D40F3
:101DB000002A08BF9D4218BF0020CCE7F352000064
:101DC000030000800A7801382D2A0ABF0122002270
:101DD0008918FFF787BF000070B503787B2B16D1F9
:101DE0000546022100220B4E15F8014F7D2C05D12E
:101DF000435C63B9D04300F0010070BDA35D13F0F4
:101E0000440302D001320131EEE7202CFBD0002048
:101E1000F3E700BFF3520000072805D8DFE800F021
:101E2000060A0D1013151A1700207047002208200B
:101E3000FFF758BF00221020FAE700222020F7E722
:101E40000820FFF7BFBF1020FBE72020F9E7084676
:101E5000FFF7C2BF012070472DE9F74307280C4662
:101E6000DDE90A7690461D4608D8013806280AD8CA
:101E7000DFE800F01D27303A44574A00212850D0AF
:101E800003B0BDE8F08300222046114601F028FF90
:101E90003368C0B205EB83013A6845F8230001338B
:101EA00048F8221033603B6801333B60E8E70022CA
:101EB0002046114601F014FF336880B205EB830120
:101EC000EAE700222046114601F00AFF336805EBDD
:101ED0008301E1E700222046114601F0E5FD336869
:101EE00040B205EB8301D7E700222046114601F0FE
:101EF000DBFD336800B205EB8301CDE7002220460D
:101F0000114601F0D1FDE1E7002389461E461D463A
:101F10008DF8063019F8013F7D2B06D125702D0A6A
:101F200065703B6848F82340BDE7202BF2D006F0EF
:101F30000102013612B98DF80430EBE710220021BE
:101F400001A88DF8053001F0AFFD631901359870D7
:101F5000ADB2DFE72DE9F04F85B09B4600238B45FE
:101F6000814688469246CDE902336BDC1A461E460E
:101F700019F80340FF2C08D15B4496B1013B43455F
:101F80005CDD2B2005B0BDE8F08FA4F12001012914
:101F900005D9103C072C98BF01220133E8E7012640
:101FA000FBE742B1013B4345EBDC3546374645454F
:101FB00004DB0020E6E79845F7D0E2E75D453BDB30
:101FC00019F80730202B18D109EB07035B78FF2B9A
:101FD000D7D1CEB920465AF82510FFF71DFF98B388
:101FE00003AB019302AB00932046DDE90E235AF8C0
:101FF0002510FFF731FF0135D9E7212B0ED109EB71
:1020000007035B78FF2BBCD1029B5AF825200E9961
:10201000012641F8232001330293ECE7A3F11004D9
:10202000072C02D91C460137D3E709EB07035B787D
:10203000FF2BA6D1E4B2CCE70624CAE700252F4641
:102040002E46B4E721209DE726209BE72DE9F04F9F
:1020500085B00746DDE90FAB0E46154698460446A7
:10206000DDF84490206808B3DAF80020D8F80010B2
:102070008A421BDA0E9B53F82210FEF7E5FA48BBA2
:10208000DAF800200132CAF800206268117BFE29CC
:102090001BD10E9B1068012100932A464346CDE9CF
:1020A00002B9CDF804A0FFF7D1FF04462B7843B95D
:1020B00099F800302BB97EB101233C4689F80030F5
:1020C0002B70204605B0BDE8F08F01238BF800305F
:1020D0002B70EBE70C34C5E73446F2E770B50646E3
:1020E0000D4601F043FC0446304600F05FFD044E0F
:1020F000AC4200D370BD304600F058FD0134F7E724
:102100005C5400002DE9F84F044602215248FFF7C5
:10211000E5FF1E212068FFF7E1FF6368586800F0C3
:1021200045FD4E4800F042FD67683B7BFD2B12D811
:10213000D7F808804FF0FF36404601F017FC0546FF
:10214000DFF81491DFF874A1DFF84CB10C3717F801
:10215000013BFF2B01D1BDE8F88F212B18D8212B93
:1021600034D8DFE803F070767211191B1D1F33336A
:1021700033333333333321232527292B2D2F333387
:102180003333333333336C31354C002D21DC23E0D2
:10219000FE2B5CD0334CF8E7334CF6E7334CF4E7D6
:1021A000334CF2E7334CF0E7334CEEE7334CECE7DB
:1021B000334CEAE7334CE8E7334CE6E7334CE4E7EB
:1021C000334CE2E7334CE0E7334CDEE7002D254C9F
:1021D00000DD0136202BBAD002214846FFF77EFFF2
:1021E0001E214846FFF77AFF504600F0DFFC5946B3
:1021F000204601F0B1FB2949002818BF2146284894
:1022000000F0D4FC3B78202B02D12B2000F0C2FC44
:10221000244800F0CBFC002D09DD18F806301F2BF8
:1022200005D018F806001F2801D0AE4203DB0B488A
:1022300000F0BCFC8BE700F0ADFC0136F1E7002DAF
:1022400085DD194CC5E7194C9FE7194C9DE7194CE2
:102250009BE7194C99E700BFCD510000994C000055
:102260005651000040510000AB5100005C5100008D
:102270009D510000995100009051000086510000CE
:102280007C51000091510000875100007D510000F9
:10229000725100006B510000625100005351000068
:1022A000C6510000B35100004851000055510000D4
:1022B0005B510000A4510000AA510000B151000080
:1022C00010B50446236803B910BD237A13B920461C
:1022D000FFF718FF0C34F5E77047704710B541B1B0
:1022E0000A7932B901249C300C71FEF769F9204655
:1022F00010BD0020FCE700002DE9F04F2DED028B12
:1023000091B0039300F109030646184608EE103A0F
:102310000F4690464FF000091C9D01F027FB039BE0
:102320000490C3F8009018EE100AC5F8009008AAAF
:1023300007A900F05CFC0446002840F0BC80089827
:1023400001F014FBA346A246039B1860D6F89C300C
:102350000293029B2BB9204611B0BDEC028BBDE865
:10236000F08F029B9B680193002B6FD00AF1090349
:10237000334413F8012B202A14D04FF0000A0C2309
:1023800003FB0AF3019A1A440092019AD1580029DA
:1023900057D0079B5B4554DB009B1B7A33B10AF196
:1023A000010934E02A6801322A60E2E72B68D6F896
:1023B0009420D21A039B1A6010AB03EB8B0353F8E3
:1023C000200C059301F0DAFA81460028E7D1009B42
:1023D000186801F0CBFA009B5B6893F80CC0BCF165
:1023E000FE0F18D1079A013A5A4514D01B68019381
:1023F000059B53F8200C01F0B9FA2B680133034414
:102400002B602B68F218527A1AB10BF1010BCA46F5
:10241000B5E70133F4E7D6F894202968521A8242CE
:1024200025DC384601F0A2FA009B8146186801F0CD
:102430009DFA48447B280DD9414638461F4AFEF78D
:10244000EFF818EE103A049A002A2CDC029B1B6865
:1024500002937EE7009B414638461A68FEF7E0F893
:1024600041463846164A0134FEF7DAF897E7BCF1E0
:10247000FE0F94D1079A013A5A4590D1D3F80090B3
:1024800059F80C2B22B9049B2B60039B1A60D8E7E8
:1024900041463846FEF7C4F841463846084AFEF73A
:1024A000BFF80134ECE7197811B94FF02001197029
:1024B0000133013AC8E74C464DE700BFB651000072
:1024C0005C5400002DE9F04786B00024DDE90EA839
:1024D0001C60064689468AF800401168154888F84D
:1024E000004017461D468DF81740FEF7ADF818B9A5
:1024F00001242B6801332B600020D6F89C6036B98C
:1025000014B1012388F8003006B0BDE8F087B06848
:1025100068B14B460021CDE902A8CDE900750DF167
:102520001702FFF793FD9DF81730002BE8D13668AE
:10253000E5E700BFBB5100002DE9F041A2B0054620
:102540000AAA084603A900F052FB0446B0B90DF1EF
:102550000A0301930DF10B038DF80A0000930AAAF8
:10256000284604AB03A9FFF7ADFF9DF80A20B2B1DE
:1025700058B19DF80B302BB1FFF7C4FD204622B0B7
:10258000BDE8F081FFF79CFEF8E7D5F89C50002DE0
:10259000F4D0A86808B1FFF793FE2D68F7E700B301
:1025A000466812AB06F10C081AAF01934046049B33
:1025B000039900970AAAFFF7CDFC04460028DDD155
:1025C000039B05A8CDE90637049B0595CDE908389E
:1025D000FFF782FE05A83368984705A8FFF77DFE40
:1025E000CCE72D24CAE7F8B56FF0A70400F1A805E1
:1025F00000262F46241A384601F0B8F9631998428C
:1026000001D83046F8BD15F8013B002BF9D00A2B54
:1026100008BF0136EFE72DE9F0414FF00008C1F89F
:102620000080C2F80080D0F8A83205460E46144655
:1026300013B90020BDE8F08100F1A807384601F089
:1026400095F90028F5D001224346D5F8A8128A4210
:102650000ED3B3F5007F10D30120EBE731680131D1
:102660003160216801312160F95C01330A2902D00F
:10267000B3F5007FF2D30132E7E7FA5C0A2AEBD028
:10268000002AE9D02268013301322260E1E710B567
:1026900000210446D0F88C20093001F078F800239E
:1026A000C4E9243310BD00002DE9F047ADF5447DA9
:1026B000002604467C22314605A80DF10808049640
:1026C00001F065F880222046CDF8008003AB04A914
:1026D000FFF712FE012848D104A801F047F9039A38
:1026E000D8F80030811A1344093323440546013ACF
:1026F00004A8024418465F183E1A002E20DC00226F
:1027000021EAE1715A54D4F89060039BD8F8001084
:10271000D4F890201944B14217DCD4F89410E81A88
:102720000244C4F89020014404AAC4F89410D418B8
:1027300025182B1B002B13DC0DF5447DBDE8F0871D
:1027400012F8016F00F8016BD6E72244507A00F0CE
:1027500021FAD4F8903001360133C4F89030D4E730
:1027600014F8010B00F016FAE3E7E5DD24AD802252
:102770003146284601F00BF844AB4FF4007218467E
:10278000314601F004F80DF1100A034652464FF0AD
:10279000010912F8017B002F3CD143F8296004A8FD
:1027A00001F0E4F829463B461AF8016B44AF57F8AC
:1027B000042B824237D10133994501F8016BF3DADA
:1027C000D4F89060039BB34236DC294A04F1090334
:1027D00004A9284800F0EAF9284601F0C7F8039A4E
:1027E000D8F800301544134409332344801A1A469C
:1027F0006E1E1F18B91A00292BDC002120EAE07296
:1028000099542C18631B002B96DD15F8010B00F072
:10281000C1F9F7E7202F06F1010604BF43F829604C
:1028200009F10109B5E70DF1100C6244D25CB24226
:10283000BDD00022EA54C3E7D4F8903001362344D7
:10284000587A00F0A7F9D4F890300133C4F89030EA
:10285000B8E716F8011F02F8011BD4F890100131F7
:10286000C4F89010D4F894100131C4F89410C1E762
:10287000DF4F0000C0510000F7B5044600F1090524
:1028800000F1A806284601F071F80746304601F02D
:102890006DF80137C0F50070874220D8284601F056
:1028A00065F801303718304601F060F83146421CB7
:1028B000384600F052FF284601F058F829460246F3
:1028C000304600F03DFF284601F050F80A2320442E
:1028D00080F8A8300023C4F8A83203B0F0BD204629
:1028E000FFF781FE01AAC4F8A80269462046FFF757
:1028F00092FE0022009B234483F8A820C2E7000038
:102900002DE9F0470022D0E9245604460F4694F8FA
:102910009830012B06D10A2F06D1002084F89800A8
:10292000BDE8F08700F2A7801B2F03D1022384F8B3
:10293000983040E0A7F10D0253425341082F04F1B3
:10294000090884F8983038D1002D33DDB54210D114
:10295000384600F01FF9202000F01CF9384600F03E
:1029600019F90023013D08F80530013EC4E9245659
:1029700021E0FBDA05F1FF39384608EB090700F0E2
:1029800009F9A6EB090208EB0501384600F0E5FE5F
:102990000023394608F806304F48013E00F006F99A
:1029A00035464D4501DC4D46E0E7082000F0F2F8E1
:1029B000013DF6E7DAD10020B2E77F2F1ED1002ECD
:1029C000F9DDB542F7DA08EB0507691C41443846E2
:1029D000721B00F0C2FE00233946404808F806305A
:1029E00000F0E4F80820013E00F0D4F8B542F9D137
:1029F000D4F89430013BC4F89430DCE70D2F01D0BB
:102A00000A2F0AD10D2000F0C5F80A2000F0C2F804
:102A100000230120C4E9243382E7092F03D1204693
:102A2000FFF742FEC7E7D4F88C30013BB342C2DD6A
:102A3000B54208EB050905F1010A0CDB384689F8B7
:102A40000070D4F89430C4F890A00133C4F89430E6
:102A500000F0A0F8AFE74946721B08EB0A0000F04F
:102A60007CFE484600F0A2F80820013E00F092F8F3
:102A7000B542F9DDE2E7022B06D15B2F01D103233A
:102A800055E784F8982042E7032B94D1413F84F81E
:102A90009820032F8FD8DFE807F002070A160121DC
:102AA000204600F01DF886E74FF0FF31F8E7B54209
:102AB00081DA2544687A00F06DF8D4F8903001335B
:102AC000C4F8903077E7002D7FF775AF013D0820FF
:102AD000C4F89050BCE700BFC9510000CE510000BF
:102AE00073B50C460546FFF77EFD631C12D1D5F881
:102AF000A8421CB1013CC5F8A8420124D5F8A8623F
:102B000056B344BB6946284601AAFFF784FD30BB93
:102B100002B070BD012CFBD1D5F8A8328342F7D2A8
:102B20000133C5F8A832E9E7082000F033F8202087
:102B300000F030F8082000F02DF80136204600F0B3
:102B400015FFB042F0D82846FFF7A1FDD5F8A8320E
:102B5000002BDDD0D6E7002605F10904EEE7009C46
:102B600005F1A806019BA342D2D9315D2846FFF7A3
:102B7000C7FE0134F6E707B500200DF1070100F0AC
:102B800093F920B99DF8070003B05DF804FB4FF0FE
:102B9000FF30F9E710B50446C1B2002000F079F922
:102BA00000280CBF20464FF0FF3010BD0FB407B512
:102BB00004A951F8040B019101F09CF8002003B026
:102BC0005DF804EB04B0704710B54C1C0B460119BE
:102BD000045D222C03D07B2C01D05C2C05D1D21AB1
:102BE000184400F0BAFD012010BD0020FCE72DE9DB
:102BF000F84F05468846914600F0B8FE2B4606463B
:102C00001A4611785C1B202903F10103F8D0012337
:102C10004FF0000A6FF0404BC9F80020C8F80030B0
:102C2000A64201D8002014E02F5D29197B2F12D075
:102C3000222F2ED1D8F80030621C5B442A4449F878
:102C40002320012C09D911F8013C13F0DF0F04D027
:102C50002120BDE8F88F7D27F3E701342B5D2A1989
:102C6000BB4208D1537813F0DF03F1D1222F00D1FA
:102C700013700134D4E75C2B07D132462146284635
:102C8000FFF7A2FF0028E3D0013E0134A642E5D8B9
:102C9000DEE75C2F08D1324621462846FFF794FF35
:102CA0000028D5D0013EE4E7202FE2D1631C9E42EC
:102CB00081F800A0DDD9EA18EB5C202BD9D0D8F838
:102CC0000030072B05DC49F823200133C8F8003019
:102CD000CFE71E20BDE7000007B56B46054A106828
:102CE000516803C36846FEF729FD002003B05DF874
:102CF00004FB00BFD251000013B54FF04022002466
:102D0000536F684643F00103536700948DF8044005
:102D1000FEF7D0FC204602B010BD000070B586B0B2
:102D200001AA1546184B03F1100614461868596895
:102D3000083303C4B3422246F7D119889B78218017
:102D4000A370124BD3F84C21120314D4D3F8504182
:102D5000E4B28DF80E40FEF73BF9204480F3080002
:102D60008DF80D000A48FDF705FC2846FEF744F8EB
:102D7000002006B070BD074B1C884FF6FF739C42C5
:102D800008BF8C24E5E700BFDA5100000080E00FA7
:102D900000F049020001E00F1FB50B4A01AB1068BB
:102DA000516803C31189927A19809A70192301A876
:102DB0008DF80530FEF712F96420FEF771F9002056
:102DC00005B05DF804FB00BFED51000010B56FF0D9
:102DD000040250210A480B4C12F0800FD3B21BBFE3
:102DE00003F00F03043BA3181B1802F101020CBFF0
:102DF00083F800131976402AEED1002010BD00BFE1
:102E000000ED00E000E100E010B50446FEF7D0FB65
:102E1000024B1C60FEF7D0FB002010BD10140020F8
:102E200010B5FEF7C5FB034B1C68FEF7C5FB20463B
:102E300010BD00BF1014002007B530B9CDE9001255
:102E4000FFF7EEFFDDE9001230B1436823B10068FF
:102E500003B05DF804EB1847232003B05DF804FBD2
:102E600030B585B01C4658B9CDE90012FFF7D8FF40
:102E7000DDE9001204B903AC20B9232005B030BD50
:102E800003B903AC8568002DF7D023460068A84736
:102E9000F4E707B501228DF807100DF10701FFF7E0
:102EA000CBFF03B05DF804FB00230122FFF7D8BF7E
:102EB0000EB477B507AB53F8046B05460193B0B970
:102EC000FFF7AEFF044605463046019900F012FFB9
:102ED000AC42064602D02046FFF796FF002ED4BF34
:102EE0003720002003B0BDE8704003B07047FFF703
:102EF00097FF85420446E7D02846FFF785FFE3E7C2
:102F000000207047FEE74FF4005300204B607047ED
:102F1000012070470020704707B5002001AB0190E9
:102F2000FFF79EFF0198002808BF4FF0FF3003B065
:102F30005DF804FB10B500201446FFF77DFF18B1C3
:102F4000BF210248FDF7B2FB204610BDF85100003A
:102F5000034B0222186800238068194600F038BC31
:102F60005010002080F82010704790F82000704723
:102F70002DE9F8434FF00008044617461D46C3F8F4
:102F800000804E1E2B68BB4206D32B68002B0CBF63
:102F90001B200020BDE8F883FEF711FBD4F8149045
:102FA000FEF713FBB9F1000FEFD0A269E368D35C21
:102FB00006F8013FE068E3690130984208BF4046E7
:102FC000E060FEF7FCFA6369013B6361FEF7FDFA1E
:102FD0006368204698472B6801332B60D2E770B5B1
:102FE00004460568FFF71CFF844202D10020FFF76A
:102FF0000BFF95F92130002B11DB012203F01F019B
:103000005B099B0003F160438A4003F56143C3F809
:103010008021C3F88020BFF34F8FBFF36F8F002351
:103020002846C4E90033C4E90433A360AB68BDE8B3
:103030007040184770B590F8203005460C468E1841
:103040009BB1B44213D023780A2B03D10D2128461B
:103050002B68984728462B6814F8011B9847F0E71F
:1030600028462B6814F8011B9847A642F8D1002087
:1030700070BD0000F8B51F46536805460C4616465D
:10308000002B36D09368002B35D024220021204617
:1030900000F07DFB7368194AA361B368E361337B79
:1030A000276084F82030069B6360079BA36096F935
:1030B000003084F821306A60114A002BAA60114A5E
:1030C0002C602A61104A6A61104AEA600CDB012216
:1030D00003F01F015B099B0003F160438A4003F585
:1030E0006143C3F880211A602846FFF78DFE002057
:1030F000F8BD2220FCE72120FAE700BF35300000B0
:10310000712F0000652F00006B2F0000DF2F0000E3
:103110004269C06982422CBF002001207047000034
:1031200038B54269C36904469A420D4604D34FF448
:10313000AF710948FDF7BAFA2369A269D5546269EB
:10314000236901326261E26901339342236104BF62
:103150000023236138BD00BF7A520000426AD36C5D
:1031600043F00403D364704710B50446426A936980
:103170005B06FCD5002394F82B101A4694F82A001D
:10318000FEF76AFB002394F82D101A4694F82C00E1
:10319000FEF762FB94F8323093B1002394F82F10BD
:1031A0001A4694F82E00FEF757FB94F832303BB1E4
:1031B000002394F831101A4694F83000FEF74CFBC7
:1031C000606A0021FEF70EFC208D0021FDF7D8FB80
:1031D000002010BD08B5406AFEF7F4FC002008BDD1
:1031E0002DE9FF4101271C46544B0A9D0193544B86
:1031F000904600930A46CDE902772946514BFFF7E6
:1032000039FF0646002874D1236839466B62A388CB
:103210003A202B85E37985F82B30A37985F82A307D
:10322000637A85F82D30237A85F82C30E37A85F897
:103230002F30A37A85F82E30637B85F83130237BDD
:1032400085F83030FDF79CFB3B460422E179A079FC
:10325000FEF702FB3B460222617A207AFEF7FCFA77
:103260003946A088FDF78CFB88F80060414620684D
:10327000FEF716FC1422A37B5B0103F1804303F5E8
:103280007033C3F81C26E179A27942EA0142C3F8FF
:103290003426617A227A42EA0142C3F82C2685F864
:1032A000326098F81830032B46D8DFE803F01A0292
:1032B0002640012385F83230002500230222E17ADE
:1032C000A07AFEF7C9FAE37AA27AA17B42EA034226
:1032D0001D4B49015A500422236803F58053DA65D7
:1032E00075B920680521C36C43F00403C364FEF77D
:1032F00079FB304604B0BDE8F081022385F8323016
:1033000000230422617B207BFEF7A6FA022541F20E
:103310001C61A27B0D4B03EB42104550607B217B6F
:10332000B13241EA004103EB42139960D9E703232C
:1033300085F832300125C0E72326DAE7693100003D
:103340005D310000D531000024D6034000C00340A9
:1033500010B5436A04469B691B0610D5FFF7D8FEDB
:1033600040B1606AFEF728FC01462046BDE81040E7
:10337000FFF7D6BE626AD36C23F00403D36410BD9A
:1033800008B5FCF7EDFFFDF71BF8FDF71AF8FDF7A0
:1033900021F8BDE80840FDF71EB808B5FDF71DF897
:1033A000FDF71CF8FDF71CF8BDE80840FDF719B85B
:1033B00053B94AB9002908BF00281CBF4FF0FF319C
:1033C0004FF0FF3000F082B9ADF1080C6DE904CE8A
:1033D00000F006F8DDF804E0DDE9022304B07047F0
:1033E0002DE9F04F099D04460F46002B48D18A4233
:1033F000944661D9B2FA82F343B1C3F120019F40F0
:1034000002FA03FC9C4020FA01F10F434FEA1C41F1
:103410001FFA8CFE220CB7FBF1F601FB167706FBB8
:103420000EF042EA0742904208D91CEB020206F174
:10343000FF3702D2904200F237813E46121AA4B200
:10344000B2FBF1F001FB102200FB0EFE44EA024445
:10345000A64508D91CEB040400F1FF3202D2A645B0
:1034600000F21C81104640EA0640A4EB0E04002640
:103470001DB1DC400023C5E900433146BDE8F08FB3
:103480008B4209D9002D00F0FD800026C5E900011E
:1034900030463146BDE8F08FB3FA83F6002E4BD1AB
:1034A0008B42C0F0F280824240F2EF803046002D25
:1034B000E3D0C5E90047E0E702B9FFDEB2FA82F3E4
:1034C000002B40F09D80891A4FEA124E97B20126D8
:1034D000200CB1FBFEF20EFB121140EA014107FB8A
:1034E00002F088420FD91CEB010102F1FF382CBF1A
:1034F0004FF001094FF00009884203D9B9F1000FDC
:1035000000F0CF804246091AA4B2B1FBFEF00EFBD8
:10351000101100FB07F744EA0144A74208D91CEB4D
:10352000040400F1FF3102D2A74200F2B480084641
:10353000E41B40EA02409BE7C6F12007B34001FAD2
:1035400006F422FA07FCF940B2404CEA030C20FAD8
:1035500007F34FEA1C491C431FFA8CFE00FA06F3DE
:10356000200CB1FBF9F809FB181140EA014108FBF6
:103570000EF088420FD91CEB010108F1FF3A2CBF75
:103580004FF0010B4FF0000B884203D9BBF1000F45
:1035900000F08D80D046091AA4B2B1FBF9F009FB06
:1035A000101100FB0EFE44EA01418E4507D91CEBC9
:1035B000010100F1FF3401D28E457FD8204640EA58
:1035C0000840A1EB0E01A0FB029841454C46C646BF
:1035D00002D306D14B4504D20138B9EB020468EBA3
:1035E0000C0E002D70D01A1B61EB0E0122FA06F3AF
:1035F00001FA07F7F14000261F43C5E900713CE7D7
:1036000002FA03FCC3F1200001FA03F221FA00F6EA
:103610004FEA1C4E24FA00F11FFA8CF79C4011432C
:10362000B6FBFEF00A0C0EFB106642EA064200FBF7
:1036300007F696420ED91CEB020200F1FF382CBFB0
:103640004FF001094FF00009964202D9B9F1000F7D
:1036500031D04046921B89B2B2FBFEF60EFB162219
:1036600041EA024106FB07F28A4207D91CEB01013D
:1036700006F1FF3801D28A4223D84646891A46EA23
:10368000004625E72E462846F7E6841A61EB030339
:1036900001201F460BE76444023849E764440238BE
:1036A000E1E6023A61442EE7023E6244C6E6A8F132
:1036B000020861446FE702386244CBE70238614494
:1036C0007DE7023E6144D9E72E46D6E6704700BF4B
:1036D00008B5074B044613B1002100E000BF054BBD
:1036E0001868836A03B198472046FFF70BFC00BFB8
:1036F00000000000F453000070B50D4D00260D4C85
:10370000641BA410A64209D10B4D00260B4C01F0FE
:103710009BFA641BA410A64205D170BD55F8043B6A
:1037200001369847EEE755F8043B01369847F2E733
:10373000B4100020B4100020B4100020B8100020F5
:103740000A44431E914200D1704710B511F8014B55
:10375000914203F8014FF9D110BD884210B501EB39
:10376000020402D98442234607D8431EA14208D04E
:1037700011F8012B03F8012FF8E7024401468A42B1
:1037800000D110BD13F8014D02F8014DF7E70244D6
:103790000346934200D1704703F8011BF9E700008C
:1037A0000FB40A4B13B51C6824B1A36913B92046A2
:1037B00000F0D6FB05AB049AA1682046019300F007
:1037C000E7FD02B0BDE8104004B070475010002083
:1037D0002DE9F7431D465C4B04460E461F68904694
:1037E00027B1BB6913B9384600F0BAFB574B9C426E
:1037F00067D17C68B8F1020F06D0B8F1010F00F272
:103800009E80002DC0F29B80636EDB0705D4A389E8
:10381000980502D4A06D00F041FC2146384600F026
:103820000BFB616B41B104F14403994202D038466D
:1038300000F0A4FC002363630023A3616360A389F9
:10384000190603D52169384600F098FCA389B8F120
:10385000020F23F44A6323F00303A3816BD001AB6F
:103860006A462146384600F01BFCA3891843A08114
:10387000002D30D1009D284600F078FC0646002837
:1038800054D1DDF80090A94549D14FF0FF35002211
:10389000B4F90C30A26004F1470243F00203226045
:1038A00022610122A3816261626ED20705D413F402
:1038B000007F02D1A06D00F0F2FB284603B0BDE806
:1038C000F083234B9C4201D1BC6893E7214B9C427F
:1038D00008BFFC688EE7002ECDD0BB6913B938460F
:1038E00000F03EFBB8F1010F266002BFA38943F050
:1038F0000103A381A28912F00803C4E904651CD066
:10390000D30745BF00236D42A560A36048BFA561F2
:10391000656E15F0010515D112F4007FC9E7484620
:1039200000F024FC06460028AFD04D46A38943F0A2
:103930008003A381D1E70025A9E7A360E8E74FF062
:10394000FF35BAE70025B8E75010002018540000F2
:1039500038540000F853000010F8012B11F8013B17
:10396000012A28BF9A42F7D0D01A7047034613F8AD
:10397000012B002AFBD1181A0138704710B57AB113
:1039800003460139841813F8010B11F8012F9042F6
:1039900001D1A34201D1801A10BD0028F3D1FAE76A
:1039A0001046F9E7012B2DE9F04701D0242B06D969
:1039B00000F0B8F9162303600020BDE8F0870D463B
:1039C000DFF8E0C02E4615F8014B14F80C7017F024
:1039D0000807F7D12D2C32D12C780127B51C002BEC
:1039E0005BD0102B09D1302C07D12C7804F0DF04E8
:1039F000582C4DD16C781023023507F100484FF058
:103A0000000C08F1FF386646B8FBF3F903FB198A8E
:103A1000A4F1300EBEF1090F16D87446A34224DD7E
:103A2000BCF1000F1EDBB1451CD301D1A24519DB4F
:103A300006FB03464FF0010C15F8014BE8E72B2C71
:103A400004BF2C78B51CCAE7A4F1410EBEF1190FD2
:103A500001D8373CE2E7A4F1610EBEF1190F04D89A
:103A6000573CDBE74FF0FF3CE6E7BCF1000F05DA1F
:103A700022234646036042B930469EE707B17642AC
:103A8000002AF9D0BCF1000F00D0691E1160F3E7E5
:103A90003024002BB1D10823AFE7302CA5D00A2366
:103AA000ABE700BFF352000013460A460146024846
:103AB0000068FFF777BF00BF501000202DE9F04FDE
:103AC00085B088461E460D460192464A03902B4615
:103AD00015F8014BA75C17F00807F8D12D2C48D139
:103AE0002C7801279D1C002E78D0102E09D1302C67
:103AF00007D12B7803F0DF03582B6AD16C7810269E
:103B0000023507F1004A07F1FF3B4FEAE6793246FA
:103B10000AF1FF3A58464B465146FFF749FC00234D
:103B20008C460292194602461846A4F1300EBEF1A8
:103B3000090F23D87446A64231DDB3F1FF3F15D0FB
:103B400082427CEB010327D38C4508BF824202D11D
:103B5000029BA34220DB714300FB0911A6FB00037B
:103B6000194420184FF0010341EBE47115F8014BA3
:103B7000DBE72B2C04BF2C789D1CB4E7A4F1410E8D
:103B8000BEF1190F01D8373CD5E7A4F1610EBEF1A3
:103B9000190F04D8573CCEE74FF0FF33E6E75A1C25
:103BA00009D12223039A584651461360019B53B909
:103BB00005B0BDE8F08F17B1404261EB4101019AB9
:103BC000002AF5D00BB105F1FF38019BC3F8008046
:103BD000EEE73024002E94D1082692E7302C88D0CE
:103BE0000A268EE7F352000013460A4601460248B1
:103BF0000068FFF763BF00BF501000202DE9F043BD
:103C000086460D46354F284615F8014BE65D16F001
:103C10000806F8D12D2C2FD12C780126851C002BDD
:103C200057D0102B09D1302C07D1287800F0DF00B5
:103C3000582849D16C78102302354FF0FF380027FF
:103C4000B8FBF3F803FB08F938466FEA0909A4F159
:103C5000300CBCF1090F14D86446A34222DD002FBA
:103C60001DDB80451BD301D1A14518DB00FB0340C0
:103C7000012715F8014BEAE72B2C04BF2C78851C93
:103C8000CDE7A4F1410CBCF1190F01D8373CE4E7B2
:103C9000A4F1610CBCF1190F04D8573CDDE74FF0DB
:103CA000FF37E6E7002F07DA22234FF0FF30CEF888
:103CB000003032B9BDE8F08306B14042002AF9D0A5
:103CC00007B1691E1160F5E73024002BB5D1082338
:103CD000B3E7302CA9D00A23AFE700BFF3520000AE
:103CE00013460A46014602480068FFF787BF00BF37
:103CF0005010002013B50B46094902460C6844B128
:103D0000A16931B9CDE90003204600F029F9DDE9C8
:103D10000023A168204602B0BDE8104000F038BB87
:103D200050100020014B1868704700BF5010002051
:103D30008A892DE9F041054610070C4658D44B6896
:103D4000002B05DC0B6C002B02DC0020BDE8F081B1
:103D5000E66A002EF9D0002312F480522F682B60FF
:103D600032D0606DA3895A0705D56368C01A636BAA
:103D70000BB1236CC01A00230246E66A2846216A6A
:103D8000B047431CA38906D129681D292CD8294A8C
:103D9000CA40D60728D50022D90462602269226071
:103DA00004D5421C01D12B6803B96065616B2F609B
:103DB0000029CAD004F14403994202D0284600F0F9
:103DC000DDF900206063C1E7216A01232846B0477E
:103DD000411CC7D12B68002BC4D01D2B01D0162B42
:103DE00001D12F60B1E7A38943F04003A381ADE780
:103DF0000F69002FA9D093070E680F600CBF4B69A5
:103E00000023A6EB07088B60B8F1000F9DDD434649
:103E10003A46216A2846A66AB047002806DCA389EC
:103E20004FF0FF3043F04003A3818FE70744A8EB36
:103E30000008E9E70100402038B50B6905460C464B
:103E400013B90025284638BD18B183690BB900F0B5
:103E500087F8144B9C421BD16C68B4F90C30002BD2
:103E6000EFD0626ED00704D4990502D4A06D00F0A3
:103E700015F928462146FFF75BFF636E0546DA0712
:103E8000E0D4A3899B05DDD4A06D00F008F9D9E743
:103E9000054B9C4201D1AC68DFE7044B9C4208BF54
:103EA000EC68DAE71854000038540000F8530000BA
:103EB000002310B504468360818119464366C281A0
:103EC00008228361C0E90033C0E904335C30FFF7A6
:103ED0005EFC054B24626362044BA362044BE36205
:103EE000044B236310BD00BF3D4900005F49000043
:103EF00097490000BB490000014900F0AFB800BF7E
:103F0000393E000070B568224D1E0E46554305F13E
:103F1000740100F09FF9044640B1002105F16802E8
:103F2000C0E900160C30A060FFF731FC204670BDE0
:103F3000014800F0B3B800BF15140020014800F09C
:103F4000AEB800BF15140020014800F0A7B800BFAC
:103F500016140020014800F0A2B800BF161400207B
:103F600010B50446FFF7F0FFA3691BB1BDE8104090
:103F7000FFF7F0BFC4E9123323652046124B134A02
:103F80001B68A262A34204BF0123A36100F020F8D2
:103F90006060204600F01CF8A060204600F018F891
:103FA00000220421E0606068FFF782FF01220921FE
:103FB000A068FFF77DFF02221221E068FFF778FF7B
:103FC0000123A361D2E700BFF4530000F93E0000D3
:103FD000F8B50746FFF7ACFF1E4B1E68B36913B96F
:103FE0003046FFF7BDFF4836D6E90134013B03D523
:103FF00033680BB33668F7E7B4F90C50D5B9164BF4
:1040000004F158006566E36000F047F8FFF796FF9B
:104010000822294604F15C002560A561C4E9015528
:10402000C4E90455FFF7B3FBC4E90D55C4E91255C3
:104030002046F8BD6834D9E704213846FFF762FF0F
:10404000044630600028D5D1FFF778FF0C233B6091
:10405000EEE700BFF45300000100FFFF2DE9F84335
:104060000646884600F148040027D4E90195B9F1D5
:10407000010905D52468002CF7D13846BDE8F8833E
:10408000AB89012B07D9B5F90E30013303D029468E
:104090003046C04707436835E9E7704770477047C7
:1040A00070B50E46B1F90E1096B0144600291D46A3
:1040B00008DAB6F90C3000222A601A0610D44FF440
:1040C00080630EE06A4600F05FFD0028F1DB019A94
:1040D00002F47042A2F500535A425A412A60EEE7B8
:1040E00040230020236016B070BD00008B8973B59B
:1040F0009D0706460C4607D504F14703236023615C
:104100000123636102B070BD01AB6A46FFF7C8FFCF
:1041100000990546304600F09DF848B9B4F90C30D6
:104120009A05EFD423F0030343F00203A381E3E7EE
:104130000D4BB362A389206043F080032061A3810B
:10414000009B6361019B5BB1B4F90E10304600F037
:104150002DFD28B1A38923F0030343F00103A381BC
:10416000A0890543A581CDE7F93E0000024B014639
:10417000186800F06FB800BF5010002037B5002954
:1041800043D051F8043C0C1F0190002BB8BFE41839
:1041900000F03CFD1E4A0198136833B96360146057
:1041A00003B0BDE8304000F037BDA34208D9256810
:1041B00061198B4201BF19685B6849192160EDE7FD
:1041C0001A465B680BB1A342FAD911685518A5428B
:1041D0000BD12468214454181160A342E0D11C681B
:1041E0005B68214453601160DAE702D90C23036055
:1041F000D6E7256861198B4202BF19685B684919C7
:10420000636008BF21605460CAE703B030BD00BFDF
:104210001814002070B50E4E0C460546316811B9D1
:1042200000F07CFB30602146284600F077FB431C01
:104230000AD0C41C24F00304A04207D0211A284647
:1042400000F06CFB013001D14FF0FF34204670BD0F
:104250001C1400202DE9F041CD1C074625F0030574
:1042600008350C2D38BF0C25002D01DBA94205D9DE
:104270000C2300263B603046BDE8F0812E4E00F056
:10428000C5FC33681C4634BB29463846FFF7C2FFDD
:10429000431C04464DD134682646002E40D1236885
:1042A0003146384604EB030800F038FB80453AD12C
:1042B0002168033538466D1A25F0030508350C2DA5
:1042C00038BF0C252946FFF7A5FF01302BD0236806
:1042D0002B4423600EE02268521B1ED40B2A16D9F1
:1042E0006119A342256018BF5960636808BF316037
:1042F00062514B6004F10B06384600F08DFC231D23
:1043000026F00706F21AB6D09B1BA350B3E76268EB
:10431000A3420CBF32605A60ECE723466468B2E700
:1043200034467668B9E70C2338463B6000F074FCED
:10433000A1E72560DEE700BF181400209368013B69
:10434000002B936010B408DA9469A34201DB0A29B8
:1043500003D15DF8044B00F035BB1368581C1060A6
:10436000084619705DF8044B7047F8B506460F46CD
:104370001446D518AC4201D1002007E03A4614F8A3
:10438000011B3046FFF7DAFF431CF3D1F8BD0000F4
:104390002DE9F04F0D469DB014469846064618B1DB
:1043A00083690BB9FFF7DCFD894B9D421BD1756812
:1043B0006B6ED90705D4AB899A0502D4A86DFFF7B7
:1043C0006DFEAB891B0701D52B69EBB92946304639
:1043D00000F05CFBC0B16B6EDC070ED54FF0FF3018
:1043E0001DB0BDE8F08F7B4B9D4201D1B568DFE782
:1043F000794B9D4208BFF568DAE7AB899805EDD4A3
:10440000A86DFFF74CFEE9E70023CDF80C804FF0D4
:104410000109DFF8C881099320238DF82930302362
:104420008DF82A3023469A4613F8012B0AB1252A23
:10443000F9D1BAEB040B0BD05B4622462946304635
:10444000FFF793FF013000F0AA80099A5A440992BD
:104450009AF80030002B00F0A28000234FF0FF32CA
:104460000AF1010A049307938DF853301A93CDE9AA
:10447000052354460522594814F8011B00F0B8FBE7
:10448000049AD8B9D10644BF20238DF853301307BE
:1044900044BF2B238DF853309AF800302A2B15D0C7
:1044A000079A544600204FF00A0C214611F8013BB0
:1044B000303B092B4ED9B0B1079214E0A0EB0803B2
:1044C000A24609FA03F313430493D2E7039B191D91
:1044D0001B68002B0391BBBF5B4242F002020793B3
:1044E0000793B8BF049223782E2B0CD163782A2B24
:1044F00035D1039B02341A1D1B68002B0392B8BFF1
:104500004FF0FF330593DFF8E4A0032221785046F3
:1045100000F06EFB40B14023A0EB0A00013403FA27
:1045200000F0049B0343049314F8011B06222C485B
:104530008DF8281000F05CFB00283FD0294B1BBBF6
:10454000039B073323F0070308330393099B3B4482
:10455000099367E70CFB02320C460120A5E7002314
:1045600001344FF00A0C19460593204610F8012B30
:10457000303A092A03D9002BC5D00591C3E70CFBBB
:10458000012104460123F0E703AB2A4604A9304683
:104590000093154B00E000BF0746781CD6D16B6E28
:1045A000D90705D4AB899A0502D4A86DFFF777FD2A
:1045B000AB895B063FF512AF099811E703AB2A46BA
:1045C00004A930460093084B00F082F8E4E700BFEE
:1045D0001854000038540000F853000058540000EC
:1045E00062540000000000006B4300005E540000B5
:1045F0002DE9F047164699468A6807460B690C462E
:10460000DDF820809342B8BF1346336091F8432011
:104610000AB1013333602368990642BF336802331D
:104620003360256815F0060506D104F1190AE36820
:1046300032689B1AAB4229DC94F84320131E22688F
:1046400018BF012392062ED404F14302494638468E
:10465000C047013021D023681A3454F80E5C03F0AF
:10466000060332680026042B54F8123C08BFAD1A2A
:1046700054F80A2C14BF002525EAE5759342C4BFFF
:104680009B1AED18B5421AD1002008E001235246CA
:1046900049463846C047013003D14FF0FF30BDE8EE
:1046A000F0870135C3E7E1185A1C30200233224459
:1046B00081F8430094F8451082F84310C4E70123C1
:1046C000224649463846C0470130E6D00136D9E790
:1046D0002DE9FF470F7E914680460C46782F9A467B
:1046E0000C9D01F1430207D8622F0AD8002F00F079
:1046F000D880582F00F0A38004F1420584F842705E
:104700003AE0A7F16303152BF6D801A151F823F085
:10471000694700007D470000F9460000F9460000A7
:10472000F9460000F94600007D470000F946000008
:10473000F9460000F9460000F946000089480000EB
:10474000AD4700006B480000F9460000F946000044
:10475000AB480000F9460000AD470000F9460000F4
:10476000F9460000734800002B681A1D1B682A6078
:1047700004F1420584F842300123A3E0206829684F
:10478000060601F104030AD50E682B60002E03DA39
:104790002D23764284F843305E480A2319E00E68E0
:1047A00010F0400F2B6018BF36B2EFE72B6820687F
:1047B000191D2960010601D51E6802E04606FBD5D9
:1047C0001E886F2F53480CBF08230A23002184F84A
:1047D00043106568002DA560A2BF216821F0040187
:1047E00021600EB9002D4DD01546B6FBF3F103FB49
:1047F0001167C75D05F8017D37460E46BB42F4D907
:10480000082B0BD12368DE0708D52369616899421C
:10481000DEBF302305F8013C05F1FF35521B226154
:104820004B4603AA21464046CDF800A0FFF7E0FE24
:1048300001304CD14FF0FF3004B0BDE8F08735486F
:1048400081F845702968236851F8046B29601D06BA
:1048500014D5DF0744BF43F0200323601EB923684B
:1048600023F0200323601023B0E7236843F02003E4
:1048700023607823284884F84530E3E7590648BF89
:10488000B6B2E6E71546BBE72B682668181D6169D6
:10489000286035061B6801D5196002E07006FBD55B
:1048A0001980002315462361BAE72B6800211A1DE1
:1048B0002A601D686268284600F09AF908B1401B1A
:1048C000606063682361002384F84330A8E72369AC
:1048D0002A4649464046D0470130ABD023689B0763
:1048E00013D4E068039B9842B8BF1846A4E701239D
:1048F000324649464046D04701309BD00135E368F7
:1049000003995B1AAB42F2DCEBE7002504F11906D0
:10491000F5E700BF695400007A54000038B5002361
:10492000054D044608462B60FBF7B0FE431C02D140
:104930002B6803B1236038BD2014002010B50C464D
:10494000B1F90E1000F06EF90028ABBF636DA389BA
:104950001B1823F48053ACBF6365A38110BD2DE900
:10496000F0411F468B8905460C46DB05164605D5EA
:1049700002230022B1F90E1000F028F9A389324673
:10498000B4F90E10284623F48053A3813B46BDE8BA
:10499000F04100F069B810B50C46B1F90E1000F006
:1049A00015F9431CA38915BF606523F4805343F4B4
:1049B0008053A38118BFA38110BDB1F90E1000F080
:1049C000D3B80000F8B50E461446054618B1836901
:1049D0000BB9FFF7C5FA214B9C422BD16C68A36938
:1049E000A360A3891A072FD523696BB32369F6B295
:1049F00020683746C01A6369834204DC2146284692
:104A0000FFF71AFA30BBA3680130013BA3602368AB
:104A10005A1C22601E706369834204D0A389DB079D
:104A200006D50A2E04D121462846FFF705FA88B993
:104A30003846F8BD0A4B9C4201D1AC68CFE7094B20
:104A40009C4208BFEC68CAE72146284600F01EF8E1
:104A50000028CBD04FF0FF37EAE700BF1854000022
:104A600038540000F853000038B50446064D084697
:104A7000114600222A601A46FEF75CFA431C02D156
:104A80002B6803B1236038BD20140020324B70B571
:104A90001D6806460C4625B1AB6913B92846FFF7D9
:104AA0005FFA2E4B9C420FD16C68A389B4F90C209D
:104AB00019072CD4DD0611D40923336042F04003DA
:104AC0004FF0FF30A3813EE0254B9C4201D1AC6802
:104AD000EBE7244B9C4208BFEC68E6E7580712D589
:104AE000616B41B104F14403994202D03046FFF7B3
:104AF00045FB00236363A38923F02403A3810023E0
:104B0000636023692360A38943F00803A3812369B9
:104B10004BB9A38903F42073B3F5007F03D021467A
:104B20003046FFF7E3FAA089B4F90C2010F0010336
:104B30000AD00023A36063695B42A361236943B980
:104B400010F08000BAD170BD810758BF6369A360BF
:104B5000F4E70020F7E700BF5010002018540000D1
:104B600038540000F853000038B50023054D0446C2
:104B700008462B60FEF7C4F9431C02D12B6803B131
:104B8000236038BD2014002038B50023064D0446AC
:104B9000084611462B60FEF7B6F9431C02D12B687C
:104BA00003B1236038BD00BF2014002038B50023B6
:104BB000054D044608462B60FEF7AAF9431C02D1B6
:104BC0002B6803B1236038BD2014002038B504469B
:104BD000064D0846114600222A601A46FEF79AF949
:104BE000431C02D12B6803B1236038BD2014002080
:104BF000C9B2024410B59042034601D1002303E03C
:104C00001C7801308C42F6D1184610BD0148FFF7E0
:104C100045BA00BF141400200148FFF740BA00BF96
:104C20001414002038B50446064D084611460022EB
:104C30002A601A46FEF770F9431C02D12B6803B1B3
:104C4000236038BD20140020F8B500BFF8BC08BCB4
:104C50009E467047F8B500BFF8BC08BC9E4670473A
:104C600074696D6572203D2025640A006172676376
:104C7000203D2025640A004E6F7420656E6F7567B5
:104C80006820617267756D656E74732E204578704B
:104C90006563746564203121200A007365745F7454
:104CA000696D6572005365742074696D6572206367
:104CB0006F6D6D616E6400417267756D656E743104
:104CC000202D20736574206465766963651F4172C9
:104CD00067756D656E7432202D207365742074695C
:104CE0006D657220286D73290000000039020000F4
:104CF000A54C0000B74C00000000FF434C49206960
:104D00006E7374616E6365206578616D706C6500AB
:104D10002E2E2F6175746F67656E2F736C5F696FD0
:104D200073747265616D5F696E69745F75736172CA
:104D3000745F696E7374616E6365732E6300000047
:104D4000050000000000000000C201000005000096
:104D500000100000000000000000000000000640FD
:104D60002900000500060008000701000F100000E0
:104D7000C81300202000000000010000433A2F5318
:104D8000696C69636F6E4C6162732F53696D706CEF
:104D9000696369747953747564696F2F76352F640C
:104DA0006576656C6F7065722F73646B732F6765C2
:104DB000636B6F5F73646B5F73756974652F7633B4
:104DC0002E322F706C6174666F726D2F636F6D6D14
:104DD0006F6E2F7372632F736C5F736C6973742EB5
:104DE0006300433A2F53696C69636F6E4C61627361
:104DF0002F53696D706C6963697479537475646954
:104E00006F2F76352F646576656C6F7065722F73C2
:104E1000646B732F6765636B6F5F73646B5F737530
:104E20006974652F76332E322F706C6174666F72E1
:104E30006D2F656D6C69622F7372632F656D5F6393
:104E40006D752E6300020101030302060105044390
:104E50003A2F53696C69636F6E4C6162732F5369AB
:104E60006D706C696369747953747564696F2F76BA
:104E7000352F646576656C6F7065722F73646B7324
:104E80002F6765636B6F5F73646B5F7375697465C0
:104E90002F76332E322F706C6174666F726D2F65B2
:104EA0006D6C69622F7372632F656D5F656D752E12
:104EB0006300633A5C73696C69636F6E6C61627303
:104EC0005C73696D706C6963697479737475646916
:104ED0006F5C76355C646576656C6F7065725C736B
:104EE000646B735C6765636B6F5F73646B5F737533
:104EF0006974655C76332E325C706C6174666F72B7
:104F00006D5C656D6C69625C696E635C656D5F6745
:104F100070696F2E6800433A2F53696C69636F6E36
:104F20004C6162732F53696D706C69636974795356
:104F3000747564696F2F76352F646576656C6F7054
:104F400065722F73646B732F6765636B6F5F736438
:104F50006B5F73756974652F76332E322F706C61B9
:104F600074666F726D2F656D6C69622F7372632F3B
:104F7000656D5F6770696F2E6300433A2F53696CEC
:104F800069636F6E4C6162732F53696D706C6963F6
:104F900069747953747564696F2F76352F646576FB
:104FA000656C6F7065722F73646B732F6765636BCD
:104FB0006F5F73646B5F73756974652F76332E3220
:104FC0002F706C6174666F726D2F656D6C69622FE6
:104FD0007372632F656D5F75736172742E63003E2B
:104FE0002000556E6B6E6F776E206572726F720067
:104FF00025730A004D6178696D756D206E756D625F
:105000006572206F6620617267756D656E747320BE
:1050100065786365656465640054686520617267DE
:10502000756D656E74206973206E6F7420666F7283
:105030006D617474656420636F72726563746C79FA
:1050400000496E636F727265637420617267756D7B
:10505000656E74207479706500496E636F72726555
:105060006374206E756D626572206F662061726771
:10507000756D656E7473004E6F20636F6D6D616E3C
:105080006420666F756E6400CD510000E24F000031
:10509000E24F0000E24F0000E24F0000E24F00004C
:1050A000E24F0000E24F0000E24F0000E24F00003C
:1050B000E24F0000E24F0000E24F0000E24F00002C
:1050C000E24F0000E24F0000E24F0000E24F00001C
:1050D000E24F0000E24F0000E24F0000E24F00000C
:1050E000E24F0000E24F0000E24F0000E24F0000FC
:1050F000E24F0000E24F0000E24F0000E24F0000EC
:10510000F44F0000E24F0000E24F00001950000091
:10511000E24F0000E24F0000E24F0000E24F0000CB
:1051200041500000E24F0000E24F0000E24F00005B
:10513000E24F000059500000E24F0000775000009D
:10514000756E6B6E6F776E006164646974696F6E03
:10515000616C002A0075696E74380075696E74336D
:10516000320077696C6463617264006865786F709F
:105170007400737472696E676F70740075696E7411
:1051800033326F70740075696E7431366F707400ED
:1051900075696E74386F7074006865780073747226
:1051A000696E670067726F75700075696E7431366D
:1051B000005B005D20002E2E2E200068656C7000C4
:1051C0000A25730A257325730025732008002573AB
:1051D000200001030401010109030B0B0200002060
:1051E0002000038C8C3C000000000000000126041D
:1051F0000000010000000000433A2F53696C69630E
:105200006F6E4C6162732F53696D706C6963697462
:105210007953747564696F2F76352F646576656C84
:105220006F7065722F73646B732F6765636B6F5F4D
:1052300073646B5F73756974652F76332E322F70CC
:105240006C6174666F726D2F736572766963652F1A
:10525000696F73747265616D2F7372632F736C5F06
:10526000696F73747265616D5F7265746172676591
:10527000745F737464696F2E6300433A2F53696CD3
:1052800069636F6E4C6162732F53696D706C6963F3
:1052900069747953747564696F2F76352F646576F8
:1052A000656C6F7065722F73646B732F6765636BCA
:1052B0006F5F73646B5F73756974652F76332E321D
:1052C0002F706C6174666F726D2F7365727669638F
:1052D000652F696F73747265616D2F7372632F73BD
:1052E0006C5F696F73747265616D5F756172742E46
:1052F000630000202020202020202020282828288B
:105300002820202020202020202020202020202095
:1053100020202088101010101010101010101010E5
:1053200010101004040404040404040404101010F5
:1053300010101010414141414141010101010101A1
:10534000010101010101010101010101010110102F
:105350001010101042424242424202020202020275
:105360000202020202020202020202020202101001
:1053700010102000000000000000000000000000ED
:10538000000000000000000000000000000000001D
:10539000000000000000000000000000000000000D
:1053A00000000000000000000000000000000000FD
:1053B00000000000000000000000000000000000ED
:1053C00000000000000000000000000000000000DD
:1053D00000000000000000000000000000000000CD
:1053E00000000000000000000000000000000000BD
:1053F0000000000054100020000000000000000029
:10540000000000000000000000000000000000009C
:10541000000000000000000000000000000000008C
:10542000000000000000000000000000000000007C
:10543000000000000000000000000000000000006C
:10544000000000000000000000000000000000005C
:105450000000000000000000232D302B2000686CAD
:105460004C00656667454647003031323334353687
:1054700037383941424344454600303132333435C0
:0C548000363738396162636465660000ED
:08548C00F4ACFF7F01000000F9
:1054940000000000000000000C1000209B4C0000E5
:1054A400EC4C0000000000000000000000000000C0
:1054B400000000000000000000000000DC100020DC
:1054C400E010002001041F00C0EA2101C0EA21010C
:1054D40000F049020080000028140020FFFF0000B3
:1054E400541000200000000018540000385400003C
:1054F400F85300000000000000000000000000005D
:105504000000000000000000000000000000000097
:105514000000000000000000000000000000000087
:105524000000000000000000000000000000000077
:105534000000000000000000000000000000000067
:0C554400000000006501000041010000B3
:04000003000004B540
:00000001FF
